:020000040800F2
:10000000300D0020490100085F2900083D2000084C
:100010005D29000871030008A72F000800000000F8
:10002000000000000000000000000000612A00083D
:10003000730300080000000061290008632A00081B
:100040006301000863010008630100086301000800
:1000500063010008630100086301000863010008F0
:1000600063010008630100086301000863010008E0
:1000700063010008630100086301000863010008D0
:100080006301000863010008910200086301000891
:1000900063010008630100086301000863010008B0
:1000A00063010008630100086301000863010008A0
:1000B0006301000863010008630100086301000890
:1000C0006301000863010008630100086301000880
:1000D0006301000863010008630100086301000870
:1000E0006301000863010008630100086301000860
:1000F0006301000863010008630100086301000850
:10010000630100086301000863010008630100083F
:10011000630100086301000863010008630100082F
:10012000630100086301000863010008630100081F
:10013000DFF810D000F06EF800480047C93500081D
:10014000AFF30080300D0020064880470648004786
:10015000FEE7FEE7FEE7FEE7FEE7FEE7FEE7FEE777
:10016000FEE7FEE7E12A000831010008202A04DB4F
:10017000203A21FA02F00021704721FA02F3D04020
:10018000C2F120029140084319467047D2B201E003
:1001900000F8012B491EFBD270470022F6E710B58C
:1001A00013460A4604461946FFF7F0FF204610BDE5
:1001B0002DE9F05F0546002092469B46884606469C
:1001C000814640241BE02846414647462246FFF729
:1001D000CDFF53465A46C01A914110D311461846D6
:1001E000224600F029F82D1A67EB01084F462246F7
:1001F0000120002100F020F817EB00094E41201EDD
:10020000A4F10104DFDC484631462A464346BDE8F6
:10021000F09F0000064C074D06E0E06840F0010347
:1002200094E8070098471034AC42F6D3FFF784FFF8
:100230003C8300085C830008202A04DB203A00FA93
:1002400002F1002070479140C2F1200320FA03F32D
:1002500019439040704730B58C1810F8012B12F0FC
:100260000F0301D110F8013B120906D110F8012B40
:1002700003E010F8015B01F8015B5B1EF9D101E0BE
:1002800001F8013B521EFBD1A142E6D3002030BD54
:10029000014800F07DB900007401002070B50446EB
:1002A00000688168C943C90717D1816821F001013D
:1002B000816000F0C5FC05460AE000BF00F0C0FC0C
:1002C000401B022804D920688068C043C00706D0BC
:1002D00020688068C043C007F0D0002070BDA06ACD
:1002E00040F01000A062E06A40F00100E0620120EE
:1002F00070BD0000F8B500260446009600688168CD
:10030000C943C9072DD0816841F0010181601648B9
:1003100016490068B0FBF1F000E0401E0090002894
:10032000FBD100F08DFC054616E000BF00F088FC14
:10033000401B022810D920688068C043C0070BD03A
:10034000A06A40F01000A062E06A40F00100E062A4
:1003500084F824600120F8BD20688068C043C0078D
:10036000E4D10020F8BD00000C00002040420F0046
:10037000FEE7704772B6FEE770B5054600240A48EE
:1003800000F0EAFA3221084800F048FA064800F086
:10039000FAF8800504D5044800F0F7F825F81400B1
:1003A000641C052CEBDB70BD74010020F8B5002542
:1003B0000446009590F8240001280BD0012084F811
:1003C00024002046FFF76AFF2046FFF793FF060050
:1003D00002D050E00220F8BDA06A20F4885040F01E
:1003E0000200A062022000F0C9FC25490968B1FBA7
:1003F000F0F0400000E0401E00900028FBD1206893
:10040000816841F00801816000F01AFC074608E0AD
:1004100000F016FCC01B0A2803D92068806800077A
:1004200015D4206880680007F2D42068816841F004
:100430000401816000F004FC074612E000F000FCBB
:10044000C01B0A280DD920688068400709D5A06A1A
:1004500020F0020040F01000A06284F82450012037
:10046000F8BD206880684007E8D4A06A20F0020048
:1004700040F00100A06284F824503046F8BD00002E
:100480000C00002070470000F8B50024009490F89C
:1004900024202546012A12D0012280F824204A680F
:1004A0001F23072A0DD20668776B521E02EB8202C9
:1004B00093409F430B6893401F43776319E00220EA
:1004C000F8BD06680D2A0AD2376BD21F02EB8202F2
:1004D00093409F430B6893401F43376309E0F76ADB
:1004E0000D3A02EB820293409F430B6893401F43F7
:1004F000F7620A68072306680A2A0AD3F7680A3AE5
:1005000002EB420293409F438B6893401F43F76086
:1005100008E0376902EB420293409F438B689340A7
:100520001F4337610A68102A01D0112A20D1124BCB
:1005300002689A4217D193681B0219D4936843F456
:10054000000393600968102912D10C490C4A09680C
:10055000B1FBF2F101EB8101490000E0491E00917D
:100560000029FBD104E0816A41F02001816201246D
:1005700080F824502046F8BD002401400C000020E3
:1005800040420F007047806A70470068C06C704737
:1005900070B50446006806684568A90625D5B10708
:1005A00023D5A16AC90603D4A16A41F40071A162EE
:1005B0008168C1F34241072910D1217B71B941689B
:1005C00021F020014160A06A20F48070A062A06A3E
:1005D000C00403D4A06A40F00100A0622046FFF7E7
:1005E000D1FF21686FF01200086028062ED5700731
:1005F0002CD5A06AC00603D4A06A40F40050A062C3
:1006000020688168C1F30231072909D04168490592
:1006100015D48168C1F34241072910D1217B71B9FA
:10062000416821F080014160A06A20F48050A062FE
:10063000A06AC00503D4A06A40F00100A062204671
:10064000FFF720FF21686FF00C00086068060CD5EA
:10065000F0070AD0A06A40F48030A062204600F083
:1006600095F821686FF00100086070BD2DE9F04138
:1006700004004FF000057FD0A06A002628B9E6628A
:1006800084F82460204600F083F82046FFF706FE39
:10069000A16AC90600D420B1A06A40F01000A0628F
:1006A0006AE0A16A21F4885141F00201A162334954
:1006B00023688B42E16904D1B1F5402F01D14FF499
:1006C0000021277B4FF4807C41EA470261680A439E
:1006D000A168614508D0012906D0002194F814E0F2
:1006E000BEF1010F02D00AE06146F7E7C7B1A76A81
:1006F00047F02007A762E76A47F00107E7625F68F3
:1007000027F469470F435F60236899681C4F39409D
:1007100011439960A16861450BD0012909D00CE013
:10072000DFF860E0A7690EEB47370F4347F400613D
:10073000E5E7218A0D05A5F580152168CB6A23F42C
:1007400070032B43CB62216889680F4B194091429B
:1007500008D1E662A16A21F0020141F00101A16223
:10076000BDE8F081A06A20F0020040F01000A06215
:10077000E06A40F00100E0620120F1E7003C014046
:10078000FDF7E1FF00E0FFFFFE0E1FFF70470000D6
:1007900010B586B00021009101910291039100688B
:1007A0001A4988422FD11A48816941F40071816148
:1007B000816901F400710491816941F01001816146
:1007C000816901F010010491816941F008018161A2
:1007D0008069032400F0080004900F20CDE9000494
:1007E00069460C4800F02AF90220CDE90004694668
:1007F000094800F023F900221146122000F08CFA7B
:10080000122000F07BFA06B010BD00000024014069
:100810000010024000100140000C01402DE9F84397
:1008200000270D460446009700F00AFA804620682B
:100830008168C90508D5A06A40F02000A06284F84C
:1008400024700120BDE8F8834168C90503D4C06A5B
:1008500010F4700F2AD0022000F090FA3B4909688A
:10086000B1FBF0F62068036939490B424FEA610198
:100870004FEAA1121FD1C3684FEA611C13EA0C0FA3
:1008800019D103690B4225D1C068104222D114202E
:1008900023E0681C0AD02DB100F0D2F9A0EB0800CB
:1008A000A84203D920680068800725D52068006821
:1008B0008007EED52DE003690B4202D1C1681142D9
:1008C00006D0026923490A4206D1C068084203D112
:1008D000542002E0292000E0FC204643009816E066
:1008E000681C11D02DB100F0ABF9A0EB0800A842B4
:1008F0000AD90098B04207D2A06A40F00400A06272
:1009000084F8247003209DE70098401C0090B042BA
:10091000E6D321686FF012000860A06A40F400700E
:10092000A06220688068C0F3424007280CD1207B79
:1009300050B9A06A20F48070A062A06AC00403D4F9
:10094000A06A40F00100A06200207BE70C000020BC
:10095000244992244992240070B5044690F824005A
:1009600001280DD0012084F824002046FFF7C2FCA6
:1009700002004FF0000005D084F82400104670BD3E
:10098000022070BDA16A40F20123994341F48071B5
:10099000A1621F4D23681F49AB4218D10E6816F49F
:1009A000702F14D0A66A46F48016A6620E687605EB
:1009B00005D5A66A26F4005646F48056A662A66AB5
:1009C000F6040AD5E66A26F00606E66206E0A66A9E
:1009D00026F48016A6625E68E9E7E06284F82400E7
:1009E0006FF00200186020688368C3F34243072B4E
:1009F00005D1A84208D1096811F4702F04D081688C
:100A000041F480118160B9E7816841F4A001F9E700
:100A1000002801400424014070B5044600F010F99C
:100A20000546601C02D004480078044400F008F930
:100A3000401BA042FAD370BD000000202DE9F84F02
:100A4000DFF8C8910024A9F1040B23460F2709F110
:100A5000040AABF1040ED1E00125A54006EA050227
:100A6000AA4276D1DFF8A8C14E68A6EB0C0866450D
:100A70002BD00DDC032E34D005DC36B3012E19D07B
:100A8000022E2FD11BE0112E16D0122E2AD119E0E2
:100A9000B8F5881F19D006DCB8F5803F15D0B8F539
:100AA000801F1FD111E0B8F5001F0ED0B8F5041F4C
:100AB00018D10AE0CB6815E0CB681B1D12E0CB68AB
:100AC00008330FE0CB680C330CE08B682BB1012BA3
:100AD0004FF0080303D0456104E0042302E0056100
:100AE00000E00023FF2A01D8064601E000F10406D9
:100AF0004FEA840501D9A5F12005D6F8008007FA50
:100B000005FC28EA0C0803FA05F548EA0508C6F8CA
:100B100000804D68ED0070D53E4DAE6946F001068F
:100B2000AE61AD6924F0030605F0010500953A4D6C
:100B300006EB050CDCF80850A607360F07FA06F896
:100B400025EA0805DFF8D480404503D14FF00008BE
:100B500025E052E0DFF8C880404502D14FF001089F
:100B60001DE0DFF8C080404502D14FF0020816E0DA
:100B7000DFF8B480404502D14FF003080FE0DFF802
:100B8000AC80404502D14FF0040808E0DFF8A080B7
:100B9000404502D14FF0050801E04FF0060808FA81
:100BA00006F848EA0508CCF808804D68D9F80060D6
:100BB000ED024D4601D5164300E096432E604D6888
:100BC000DAF80060AD02554601D5164300E09643C1
:100BD0002E604D68DBF80060AD035D4601D516431D
:100BE00000E096432E604D68DEF80060ED03754628
:100BF00001D5164300E096432E60641C0A68164631
:100C0000E2407FF429AFBDE8F88F000008040140FE
:100C100000001110001002400000014000080140D7
:100C2000000C014000100140001401400018014078
:100C3000001C01400AB1016170470904FBE7000094
:100C40000148806870470000000000200248816869
:100C5000027811448160704700000020074810B5F9
:100C6000016841F010010160032000F075F80F20C9
:100C700000F006F800F024F8002010BD002002402B
:100C800070B50D4D04464FF47A712878B1FBF0F041
:100C90000A490968B1FBF0F000F00BFE48B9102CCE
:100CA00007D200222146501E00F036F800206C606A
:100CB00070BD012070BD0000000000200C0000206D
:100CC0000C4808B5816941F001018161816901F039
:100CD00001010091C16941F08051C161C06900F01A
:100CE000805000900448416821F0E06141F00071BB
:100CF000416008BD0010024000000140002809DBEF
:100D000000F01F02012191404009800000F1E02025
:100D1000C0F8001170470000F0B40E4B1B680C4681
:100D2000C3F30223C3F10705042D00D90425191DBF
:100D3000072901D2002300E0DB1E012606FA05F197
:100D4000491E214099409E40761E16403143F0BC1A
:100D500002F096B90CED00E0064900F007020868C1
:100D60004FF6FF03184040EA0220034A1043086090
:100D7000704700000CED00E00000FA0510B50146D8
:100D80000020284C04292FD00BDC012930D0022967
:100D900029D100F06BF96168C1F38131491C490028
:100DA0001FE0082920D010291DD161682268D201D6
:100DB00019D51D48C1F38342C903805C0AD5616817
:100DC000194AC1F34041921E515C184AB2FBF1F13D
:100DD000484301E0164948436168490203D4400092
:100DE0000321B0FBF1F010BDBDE8104000F04EB99A
:100DF000226AC2F30121012903D1920701D5C80358
:100E000010BD022905D1626A920702D549F6404019
:100E100010BD0329FCD121688903F9D54FF2244084
:100E200010BD0000001002406037000800127A0078
:100E300000093D002DE9F84305460078354CC00710
:100E400054D0E0690026C00008D4E06940F080502A
:100E5000E061E069012600F0805000902E480168B2
:100E6000C90512D40168804641F480710160FFF722
:100E7000E7FE074605E000BFFFF7E2FEC01B64285F
:100E800023D8D8F80000C005F6D5206A10F44070C9
:100E900021D0A98801F4407181421CD0206A1F49E9
:100EA000012220F440700A6000220A602062C0071C
:100EB00011D0FFF7C5FE074641F2883808E000BFB1
:100EC000FFF7BEFEC11B414502D90320BDE8F883F0
:100ED000206A8007F4D5206A696820F440700843CE
:100EE00020621EB1E06920F08050E0612878800720
:100EF00005D56068A96820F4404008436060287800
:100F0000C00605D56068696920F480000843606008
:100F10000020DBE700100240007000404004424225
:100F20002DE9F0470F46050061D0434E306800F0D0
:100F30000700B84209D2306820F00700384330601B
:100F4000306800F00700B84251D128683B4C810757
:100F500012D5400703D5606840F4E06060602878EF
:100F6000000703D5606840F4605060606068A9685D
:100F700020F0F000084360602878C00728D0686837
:100F8000012810D02168022810D0890700292EDA04
:100F9000616821F0030101436160FFF751FE804663
:100FA00041F288390DE021688903EFE78901EDE717
:100FB000FFF746FEA0EB0801494502D90320BDE832
:100FC000F0876068696800F00C00B0EB810FEFD12A
:100FD000306800F00700B8420BD9306820F00700F5
:100FE00038433060306800F00700B84201D001207B
:100FF000E5E72878400705D56068E96820F4E060F7
:10100000084360602878000706D56068296920F4E5
:10101000605040EAC100606000F038F86168084A3A
:10102000C1F30311515CC8400649086006480068D6
:10103000FFF726FE0020C2E7002002400010024019
:10104000703700080C000020040000200448054907
:1010500000684968044AC1F30221515CC8407047E6
:101060000C000020001002408037000804480549A9
:1010700000684968044AC1F3C221515CC840704706
:101080000C00002000100240803700080E4A516812
:101090000E4801F00C03042B11D0082B0FD10C4883
:1010A000C1F38343C903C05C0AD55168084AC1F340
:1010B0004041921E515C054A5043B0FBF1F070472D
:1010C00004494843704700000010024000127A00B3
:1010D0004E37000800093D002DE9F84F040070D09C
:1010E0002078C04DC00749D06868C0F3810001284E
:1010F00007D06868C0F38100022809D16868C0037E
:1011000006D52868800339D560680028E7D035E027
:101110006068B0F5803F0BD010B1B0F5A02F11D0B2
:10112000286820F480302860286820F4802002E0BD
:10113000286840F480302860606890B1FFF780FD37
:1011400006460AE0286840F480202860F0E700BFE7
:10115000FFF776FD801B642873D828688003F7D5D5
:101160000CE0FFF76DFD064605E000BFFFF768FDE8
:10117000801B6428F0D828688003F7D420789A4E22
:1011800080074FF001094FF0000839D5686810F06A
:101190000C0F07D06868C0F38100022809D1686885
:1011A000C00306D42868800714D52069012808D117
:1011B00010E02069B0B1C6F80090FFF741FD074686
:1011C00005E00AE1FFF73CFDC01B0228C4D82868EF
:1011D0008007F7D52868616920F0F80040EAC1006F
:1011E00028600DE0C6F80080FFF72AFD074604E0FE
:1011F000FFF726FDC01B022823D828688007F7D4F4
:10120000207800072CD57948A169D9B1C0F80090A1
:10121000FFF716FD074604E0FFF712FDC01B02288A
:101220000FD8686A8007F7D571484FF4FA51006803
:10123000B0FBF1F0009000BF0098411E0091FAD27F
:101240000EE080E0C0F80080FFF7FAFC074604E0FB
:10125000FFF7F6FCC01B022875D8686A8007F7D430
:101260002078400760D5E8690027C00008D4E86905
:1012700040F08050E861E869012700F0805000905C
:101280005C480168C90513D40168834641F4807144
:101290000160FFF7D5FC824606E000BFFFF7D0FCF7
:1012A000A0EB0A0064284ED8DBF80000C005F5D595
:1012B000E06801280AD008B1052813D0286A20F078
:1012C00001002862286A20F0040002E0286A40F049
:1012D00001002862E06841F2883B98B1FFF7B0FC5A
:1012E00082460BE0286A40F004002862EEE700BF67
:1012F000FFF7A6FCA0EB0A0159455AD8286A8007D7
:10130000F6D50CE0FFF79CFC824605E0FFF798FC61
:10131000A0EB0A0159454CD8286A8007F6D41FB1C2
:10132000E86920F08050E861E06988B36968C1F33A
:101330008101022944D00228C6F8608004D0FFF75A
:101340007FFC044638E034E0FFF77AFC074604E00F
:10135000FFF776FCC01B02282BD828688001F7D441
:10136000206AB0F5803F05D16868A16820F400309C
:1013700008436860D4E908010843696821F47411DE
:1013800008436860C6F86090FFF75AFC044606E020
:1013900025E000BFFFF754FC001B022809D828688D
:1013A0008001F7D51BE000BFFFF74AFC001B0228B5
:1013B00002D90320BDE8F88F28688001F4D40EE03C
:1013C0000128F7D06868226A00F48031914204D184
:1013D000616A00F47010884201D00120EAE7002021
:1013E000E8E7000000100240000042428004424250
:1013F0000C0000200070004070B5040009D0606A45
:10140000002540B125616561A56294F8510040B1A5
:101410000CE0012070BD6068B0F5827FF4D0E5611A
:10142000F2E784F85050204600F040F8022084F89B
:1014300051002068016821F040010160A0882189E5
:1014400000F4827001F404410843A18901F40061B1
:101450000843217C01F002010843217D01F00101D4
:101460000843218B01F400710843217F01F038010A
:10147000084394F8201001F080010843218D01F405
:101480000051084321680860A069042101EA104066
:10149000216848602068C16921F40061C161656507
:1014A000012084F85100002070BD000030B585B0E7
:1014B00000240094019402940394234D036823486C
:1014C00002210322AB4216D1836943F48053836126
:1014D000836903F480530493836943F004038361B5
:1014E0008069039200F004000490A020CDE900017F
:1014F0006946174823E0174DAB4222D1C36943F434
:101500008043C361C36903F480430493836943F058
:10151000080383618069104D00F0080004904FF4C7
:101520002040CDE90001039269462846FFF786FA7C
:101530004FF48040CDE90004694628460294FFF745
:101540007DFA05B030BD00000030014000100240BF
:101550000008014000380040000C01402DE9F84F20
:10156000984616468A460446FFF76AFB814694F879
:10157000510001281ED1BAF1000F73D0002E71D096
:1015800094F85000012815D0012784F850700320EA
:1015900084F8510000256565C4F830A0A686E6866B
:1015A000A563A587E58765642564A068B0F5004F4D
:1015B00003D00CE00220BDE8F88F2068016821F01C
:1015C000400101602068016841F4804101602068A9
:1015D0000168490603D4016841F040010160E068F8
:1015E000B0F5006F606803D048B3012E27D047E004
:1015F00008B1012E1FD1206B21680088C86006E069
:1016000020688168890709D5216B0988C160206B32
:10161000801C2063E08E401EE0860CE0FFF710FB8C
:10162000A0EB0901414503D3B8F1FF3F03D035E0FA
:10163000B8F1000F32D0E08E0028E1D123E0206B1A
:1016400021680078087306E02068816889070AD558
:10165000216B09780173206B401C2063E08E401ED3
:10166000E0860DE02BE0FFF7EBFAA0EB0901414526
:1016700003D3B8F1FF3F03D010E0B8F1000F0DD055
:10168000E08E0028E0D14A464146204601F072F93A
:1016900008B120206065A06830B109E084F851707D
:1016A00084F85050032086E72068C1688068009065
:1016B00084F8517004F8505F60680028F3D001206E
:1016C00079E72DE9FF4F81B01D46934604464FF060
:1016D00001090E9EFFF7B4FA074694F851006168BD
:1016E000012806D0B1F5827F3CD1A168C9BB04288E
:1016F00038D10298002871D0BBF1000FFBD0002D2B
:10170000F9D094F8500001282CD04FF0010A84F849
:1017100050A094F85100042802D0052084F851000C
:101720004FF00008C4F85480C4F838B0E587A587A6
:1017300002992163E586A586C4F84080C4F84480F8
:1017400020680168490603D4016841F04001016046
:10175000E068B0F5006F606808D0F0B3012D49D0A3
:1017600081E0FFE7022005B0BDE8F08F08B1012D50
:1017700039D1206B21680088C860206B801C2063F1
:10178000E08E401EE0862EE02068816889070FD534
:10179000E18E69B1B9F1010F0AD1216B0988C160ED
:1017A000206B801C2063E08E401EE0864FF0000915
:1017B00020688168C9070CD0E18F51B1C068A16B66
:1017C0000880A06B801CA063E08F401EE0874FF074
:1017D0000109FFF735FAC01B01E00BE067E0B042FA
:1017E00001D3701C50D1E08E0028CDD1E08F0028AD
:1017F000CAD13EE0206B216800780873206B401C42
:101800002063E08E401EE0862DE020688168890715
:101810000FD5E18E69B1B9F1010F0AD1216B0978B9
:101820000173206B401C2063E08E401EE0864FF069
:10183000000920688168C9070CD0E18F51B1C068E8
:10184000A16B0870A06B401CA063E08F401EE08776
:101850004FF00109FFF7F4F9C01BB04202D3701C2E
:1018600001D011E086B1E08E0028CED1E08F0028B3
:10187000CBD13A463146204601F07CF850B12020C9
:10188000606584F8508012E084F851A084F850809C
:10189000032068E7A06818B92068C16880680090D4
:1018A00084F851A084F85080606D0028F1D00120A8
:1018B00059E710B5401EB0F1807F01D3012010BD63
:1018C0004FF0E02460610F21601701F0D9FB002088
:1018D000A06107202061002010BD000070B590F8C5
:1018E0003C20012A2CD0012480F83C40022280F8C0
:1018F0003D2003685A689D6822F070060A683243EA
:101900005A60104B02689A420ED00F4B9A420BD08D
:10191000B2F1804F08D00D4B9A4205D00C4B9A4241
:1019200002D00C4B9A4204D1496825F08003194338
:10193000916080F83D40002180F83C10084670BD61
:10194000022070BD002C0140003401400004004022
:1019500000080040000C004010B5040003D094F8CB
:101960003D0010B107E0012010BD002084F83C00CC
:10197000204600F01FF8022084F83D00211D206859
:1019800001F0B0F8012084F8460084F83E0084F8A5
:101990003F0084F8400084F8410084F8420084F855
:1019A000430084F8440084F8450084F83D0000209A
:1019B00010BD000000B585B0002100910191029199
:1019C000039100680D49884216D10D48C16941F064
:1019D0000401C161C16901F004010491816941F010
:1019E000080181618069694600F008000490402088
:1019F00000900448FFF722F805B000BD0008004041
:101A000000100240000C014070B5044690F83C0004
:101A10000025012817D0012684F83C60022084F8B4
:101A20003D002068826822F0770222F47F428260C3
:101A30000868502838D00DDC20284FD005DC90B342
:101A4000102811D14AE0022070BD302846D040282D
:101A50000AD13BE060282FD070280DD0B0F5805F10
:101A600003D0B0F5005F12D0012584F83D6000205E
:101A700084F83C00284670BDCB68D1E9012120687C
:101A800001F08BF82068816841F0770109E0CB68AC
:101A9000D1E90121206801F080F82068816841F4D3
:101AA00080418160E1E719E0CA684968206801F077
:101AB00049F95021206806E0CA684968206801F0A9
:101AC00089F96021206801F072F8CEE7CA68496898
:101AD000206801F037F940212068F4E722680146C8
:101AE0001046F0E72DE9F041054690F83C0000264D
:101AF0000C46012810D0012085F83C0072B1042A60
:101B00001CD0082A2CD00C2A50D00126002085F8A1
:101B10003C003046BDE8F0810220FBE7D4E900122A
:101B2000E368286801F020F92868816921F00C0138
:101B3000816128688169A26811430FE0D4E900122D
:101B4000E368286801F058F92868816921F4406148
:101B5000816128688169A26841EA02218161D5E733
:101B60002868D4E9002C277B036A016A21F480717C
:101B70000162C16923F4007321F0030141EA0C0101
:101B800021F0F00C39074FF400774CEA116107EAB5
:101B900002221A43C16102622868C16921F00C0166
:101BA000C1612868C169A26811432BE02868D4E9A3
:101BB0000021E768036AD0F820C02CF4805CC0F8EC
:101BC00020C0D0F81CC023F400532CF4407C4CEA15
:101BD000012121F4704C4FF6FF7101EA07314FF4F7
:101BE000005741EA0C0107EA02321A43C16102625E
:101BF0002868C16921F44061C1612868C169A2688F
:101C000041EA0221C16181E710B5040003D094F8D4
:101C10003D0010B107E0012010BD002084F83C0019
:101C2000204600F01EF8022084F83D00211D2068A7
:101C300000F058FF012084F8460084F83E0084F844
:101C40003F0084F8400084F8410084F8420084F8A2
:101C5000430084F8440084F8450084F83D000020E7
:101C600010BD704700B585B000210091019102912F
:101C7000039100680B49884212D10B48816941F0F9
:101C8000080181618069694600F0080004904FF402
:101C9000607000900220019003900448FEF7CEFE91
:101CA00005B000BD0008004000100240000C0140DB
:101CB00070B5044690F83C0000260D4601280FD070
:101CC000012084F83C006AB1042A1DD0082A2FD0D4
:101CD0000C2A3FD00126002084F83C00304670BD1D
:101CE000022070BD206800F06BFF2068816941F020
:101CF000080181612068816921F004018161206807
:101D000081692A69114311E0206800F089FF206889
:101D1000816941F4006181612068816921F48061F9
:101D20008161206881692A6941EA02218161D2E7E3
:101D3000206800F0ABFF2068C16941F00801C16173
:101D40002068C16921F00401C1612068C1692A6964
:101D5000114311E0206800F0CDFF2068C16941F413
:101D60000061C1612068C16921F48061C16120689E
:101D7000C1692A6941EA0221C161ACE710B50400DA
:101D800003D094F83D0010B107E0012010BD002001
:101D900084F83C00204600F01EF8022084F83D0044
:101DA000211D206800F09EFE012084F8460084F882
:101DB0003E0084F83F0084F8400084F8410084F835
:101DC000420084F8430084F8440084F8450084F815
:101DD0003D00002010BD704710B50446022249B1F5
:101DE00004290ED0082913D094F84100012816D0F8
:101DF000012010BD94F83E000128F9D184F83E205E
:101E00000FE094F83F000128F2D184F83F2008E069
:101E100094F840000128EBD184F8402001E084F8D8
:101E200041200122206800F0ABFE13492068134ACC
:101E3000884201D0904203D1436C43F40043436491
:101E4000206888420DD090420BD0B0F1804F08D06E
:101E50000B49884205D00B49884202D00A49884282
:101E600004D1816801F00701062903D0016841F01F
:101E700001010160002010BD002C01400034014030
:101E80000004004000080040000C004070B5040051
:101E900004D094F84100002510B106E0012070BD87
:101EA00084F84050204600F023F8242084F84100B4
:101EB0002068C16821F40051C160204600F0DEFFB7
:101EC0002068016921F4904101612068416921F095
:101ED0002A0141612068C16841F40051C160656414
:101EE000202084F8410084F842006563002070BD22
:101EF00070B586B000240094019402940394234E9C
:101F00000368234902200322224DB34219D18B6971
:101F100043F480438B618B6903F4804304938B69A2
:101F200043F004038B618969039201F00401049179
:101F30000102CDE9001069462846FEF77FFD28150D
:101F40001BE0154EB3421FD1CB6943F40033CB6184
:101F5000CB6903F4003304938B6943F004038B6172
:101F60008969039201F0040104910421CDE9001074
:101F700069462846FEF762FD0820CDE9000469465F
:101F800028460294FEF75AFD06B070BD00380140A5
:101F90000010024000080140004400402DE9F843D1
:101FA000044690F84100984616460D46202802D077
:101FB0000220BDE8F88385B17EB100206064212055
:101FC00084F84100FEF73CFEA6848146E684A068C2
:101FD0002027B0F5805F02D003E00120E9E7206907
:101FE00010B12E4600250EE000260CE08021204690
:101FF00000F0A0FFA8B9C6B116F8010B216848602F
:10200000E08C401EE084E08C4B464FF00002CDF89F
:1020100000800028EAD14FF04001204600F08AFFFE
:1020200040B184F841700320C3E735F8020BC0F3D8
:102030000800E3E784F841700020BAE7FEE72DE9E5
:10204000F04107461C4615460E462A2000F060FA6D
:10205000380A00F06BFAF8B200F068FA280A00F0CB
:1020600065FAE8B200F062FA2B2000F051FA300A6B
:1020700000F05CFAF0B200F059FA200A00F056FACB
:10208000E0B200F053FABDE8F0412C2000F040BA75
:1020900070B5040AC5B2002140F23F13EF22084692
:1020A000FFF7CDFF0E4900204FF4407201F81040B9
:1020B00001EB4003401C80B25D709042F6D30122D8
:1020C00040210848FEF7B6FD00244FF4C0652946BC
:1020D000034800F057F9641CA4B2642CF7D370BD18
:1020E0002C030020000801402DE9FC5F0746002575
:1020F000144603200E46A0EB440858E0A6EB050961
:10210000A7EB040A1FFA89F11FFA8AF000F054F8CD
:10211000381901901FFA89F180B200F04DF830199A
:1021200081B2A7EB050B00901FFA8BF000F044F88A
:102130001FFA89F11FFA8AF000F03EF8A6EB0409B5
:102140001FFA89F11FFA8BF000F036F8019806EBC0
:10215000050B1FFA8BF180B200F02EF81FFA89F1FF
:1021600007EB05091FFA89F000F026F8009881B204
:102170001FFA89F000F020F81FFA8BF11FFA8AF09D
:1021800000F01AF86D1CB8F1000F04DA08EB8500B6
:1021900000F1060805E0291B08EB810000F10A08A0
:1021A000641E301981B2781980B200F005F8A5429A
:1021B000A4DDBDE8FC9F000010B50B460246FFF70A
:1021C0003EFF03480088BDE8104000F0BDB90000A4
:1021D0001000002010B56A4C002210212046FEF7A6
:1021E00029FD0C20FEF718FC012210212046FEF7E5
:1021F00021FD0C20FEF710FC112000F089F90C20C5
:10220000FEF70AFC362000F083F9002000F08EF97A
:102210003A2000F07DF9652000F088F9B22000F046
:1022200077F90C2000F082F90C2000F07FF90020F3
:1022300000F07CF9332000F079F9332000F076F9D2
:10224000B72000F065F9722000F070F9BB2000F0B3
:102250005FF93D2000F06AF9C02000F059F92C2008
:1022600000F064F9C22000F053F9012000F05EF99B
:10227000C32000F04DF9192000F058F9C42000F0F7
:1022800047F9202000F052F9C62000F041F90F2054
:1022900000F04CF9D02000F03BF9A42000F046F902
:1022A000A12000F043F9E02000F032F9D02000F046
:1022B0003DF9042000F03AF90D2000F037F9112023
:1022C00000F034F9132000F031F92B2000F02EF942
:1022D0003F2000F02BF9542000F028F94C2000F0AA
:1022E00025F9182000F022F90D2000F01FF90B202D
:1022F00000F01CF91F2000F019F9232000F016F956
:10230000E12000F005F9D02000F010F9042000F0E1
:102310000DF90C2000F00AF9112000F007F9132044
:1023200000F004F92C2000F001F93F2000F0FEF845
:10233000442000F0FBF8512000F0F8F82F2000F0C6
:10234000F5F81F2000F0F2F81F2000F0EFF8202031
:1023500000F0ECF8232000F0E9F8212000F0D8F894
:10236000292000F0D5F8002140F23F13EF22084663
:10237000FFF765FEBDE810404FF6FF70FFF788BE1F
:102380000010014000F0EEBA2DE9F05F203AD7B21C
:102390001C46F022A2EB540282425AD3C4F5A0722A
:1023A0008A4256D30A19521E93B200EB5402521EAF
:1023B00092B2FFF744FE3F4E102C1AD0202C18D0BA
:1023C0000C2C48D0182C44D13B4907EB47004FF068
:1023D000300A002401EB00194FEA060819F80460DE
:1023E000E00756D004270025300654D5B8F8000081
:1023F00053E0600700D0012000EBD400610848439F
:1024000000F0FF082D48002500EB071A00F5BE502C
:1024100000EBC71BB1461AE0102C09D0202C18D1B4
:102420001BF805600027300605D5B9F8000004E068
:102430001AF80560F6E7B9F8020000F085F87006B2
:102440007F1C060EFFB2082FEDD36D1CEDB2454583
:10245000E2D3BDE8F09F1A4807EB47014FF00C09A3
:10246000002400EB810800BF18F80470002538062E
:1024700001D5308800E0708800F066F878066D1CA1
:10248000070EEDB2062DF2D3641CE4B24C45EBD33B
:10249000DFE70827A7E7B8F8020000F055F8700654
:1024A0006D1C060EEDB2BD429ED3641CE4B25445D1
:1024B00094D3CEE710000020EC410008FC3B00085C
:1024C000883700082DE9F047044600F0FF0910198D
:1024D0000D46DDE908A61FFA80F8581987B210E00A
:1024E000444503D305EB0A004C4685B2BD420DD2EC
:1024F000534629462046FFF747FF04EB5A0084B2B3
:10250000761C3278A2F120005E28E9D9BDE8F08778
:1025100001B5002240210448FEF78CFB01216846EA
:10252000FFF730FF08BD00000008014001B501229F
:1025300040210448FEF77EFB01216846FFF722FF99
:1025400008BD00000008014008B500210091010A03
:102550008DF800108DF80100012240210348FEF79C
:1025600069FB02216846FFF70DFF08BD0008014026
:1025700030B50446002003460CE000BF34F8135089
:10258000954205D804EB43056D88954200D918465D
:102590005B1CDBB28B42F1D330BD0000FEB50025E1
:1025A00027480095019525490295016089158160AC
:1025B000057301240475052606614FF4602145600A
:1025C000C0E90641FEF752F808B1FDF7D3FE092035
:1025D0008DE8310069461A48FDF756FF08B1FDF74E
:1025E000C9FE0A2000900220019069461448FDF7B8
:1025F0004BFF08B1FDF7BEFE0B20009003200190B9
:1026000069460F48FDF740FF08B1FDF7B3FE0C2007
:1026100000900420019069460948FDF735FF08B194
:10262000FDF7A8FE0D20CDE9000669460448FDF738
:102630002BFF002801D0FDF79DFEFEBD00240140C8
:10264000740100202DE9F04F85B000243E4800942D
:10265000019402940394816941F0100181618169C0
:1026600001F010010491816941F0200181618169CB
:1026700001F020010491816941F0040181618169C7
:1026800001F004010491816941F0080181618069D0
:10269000DFF8B89000F0080049F6421504900022D7
:1026A00029464846FEF7C6FADFF8A4A041F61047CF
:1026B000002239465046FEF7BDFADFF898B041F6E1
:1026C0003C48002241465846FEF7B4FA0022042155
:1026D0002148FEF7AFFA0095022601250396CDE9C1
:1026E000015469464846FEF7A9F91020CDE90004D7
:1026F000694648460294FEF7A1F900970396CDE992
:10270000015469465046FEF799F94FF47870CDE9C7
:102710000004694650460294FEF790F9CDF8008017
:102720000396CDE9015469465846FEF787F904201F
:10273000CDE90005CDE9024669460748FEF77EF976
:1027400005B0BDE8F08F0000001002400008014015
:1027500000100140000C014000140140104810B569
:102760000E4901604FF482714160002102228160B4
:10277000C0E903121202C0E905121822C0E90721BC
:10278000416281620A21C162FEF736FE002803D051
:10279000BDE81040FDF7EEBD10BD00000030014067
:1027A000A40100200F4810B50D4901604FF482715B
:1027B000416000218160C1604FF400720161C0E995
:1027C0000512C1610162416281620A21C162FEF7A4
:1027D00013FE002803D0BDE81040FDF7CBBD10BDAF
:1027E00000380040FC01002010B592B000240B948A
:1027F0000C940D940E940F941094079408940994DB
:102800001C2168460A94FDF7C8FC37483549016029
:102810004721C0E9011440F2E731C0E903148021E7
:102820008161FFF799F808B1FDF7A4FD4FF48050DE
:102830000B900BA92C48FFF7E7F808B1FDF79AFDBC
:102840002948FFF7E1F908B1FDF794FD2648FFF7A5
:1028500095FA08B1FDF78EFD0F940FA92248109448
:10286000FFF73CF808B1FDF785FD0120CDE90740F1
:102870000994002207A91C480A94FFF733F908B10C
:10288000FDF778FD6020CDE900040294042269463A
:1028900015480494FFF70CFA08B1FDF76BFD022010
:1028A0000290082269461048FFF702FA08B1FDF7C6
:1028B00061FD0C2269460C48FFF7FAF908B1FDF7F3
:1028C00059FD04210848FFF787FA08210648FFF759
:1028D00083FA0C210448FFF77FFA0348FFF7C2F997
:1028E00012B010BD00080040540200200C4810B582
:1028F0000A4901604FF4E1314160002181600C22FE
:10290000C160C0E904128161C161FFF7BFFA00280C
:1029100003D0BDE81040FDF72DBD10BD00380140CB
:102920009C0200200C4810B50A4901604FF4E131C7
:102930004160002181600C22C160C0E90412816104
:10294000C161FFF7A3FA002803D0BDE81040FDF7EE
:1029500011BD10BD00440040E4020020FEE7FEE788
:10296000704700000A460146FF230148FEF7F6BD06
:10297000A4010020F8B515460E460B460092044609
:102980000122022100F010F840B9334600228021D4
:102990002046009500F008F8002804D0606D40F053
:1029A000200060650320F8BD2DE9F8431E469146DE
:1029B00088460446089DFEF743F9401B351AFEF78A
:1029C0003FF9074625480068C0F3CB30684338E03C
:1029D000701C37D0FEF734F9C01BA84203D215B1E2
:1029E000009860B32CE02068416821F0E00141606C
:1029F0006068B0F5827F0BD1A068B0F5004F02D0BF
:102A0000B0F5806F04D12068016821F040010160B9
:102A1000A06AB0F5005F09D12068016821F4005177
:102A200001602068016841F400510160012084F8D0
:102A30005100002084F850000320BDE8F8830025F1
:102A4000401E00902068816838EA010004D000210F
:102A50004945BDD10020F0E70121F9E70C00002035
:102A60007047FEF7F3B830B595B028216846FDF7FA
:102A700094FB14210AA8FDF790FB18210FA8FDF77D
:102A80008CFB01210804CDE90010002502950224E9
:102A90000491CDE907404FF4E01009906846FEF735
:102AA0001BFB08B172B6FEE70AA90F2081E83100CE
:102AB0004FF48060CDE90D0502210AA8FEF730FA37
:102AC00008B172B6FEE74FF4004011900F940FA8C2
:102AD000FEF7B0F9002801D072B6FEE715B030BDA0
:102AE00070470000F0B50268204C214D214E224F66
:102AF000224B4FF0804CA04209D0984207D060454D
:102B000005D0A84203D0B04201D0B84204D122F08F
:102B1000700E4A6842EA0E02A04209D0984207D0DD
:102B2000604505D0A84203D0B04201D0B84203D1DD
:102B300022F44075CA682A434D6922F080022A4374
:102B400002608A68C2620A688262A04201D098422A
:102B500001D109690163012141610169C90703D0FC
:102B6000016921F001010161F0BD0000002C01406C
:102B70000004004000080040000C00400034014008
:102B800010B501F01F030121046A99408C430462CF
:102B9000016A9A401143016210BD10B5846842EA8F
:102BA000032224F47F440A432243826010BD8268DA
:102BB00022F070020A4342F0070181607047000072
:102BC000F0B5036A026A22F0010202624268846977
:102BD000124E24F073050C682C4323F002058B6819
:102BE0002B430D4DA84201D0B04205D123F0080778
:102BF000CB683B4323F00403A84201D0B04205D187
:102C00004D6922F4407215438A692A434260846107
:102C1000496841630362F0BD002C0140003401406B
:102C2000F0B5026A036A23F0100303624368846903
:102C30000D6824F4E64444EA05248D6822F020025D
:102C400042EA05120F4D104EA84201D0B04206D103
:102C5000CF6822F0800242EA071222F04002A84226
:102C600001D0B04207D14D6923F4406343EA8503A4
:102C70008D6943EA85034360846149688163026228
:102C8000F0BD0000002C014000340140F0B5026AA4
:102C9000036A23F4807303624368C46922F40072F8
:102CA00024F073050C68124E2C438D6842EA05220D
:102CB0000E4DA84201D0B04206D1CF6822F4006286
:102CC00042EA072222F48062A84201D0B04207D132
:102CD0004D6923F4405343EA05138D6943EA051314
:102CE0004360C4614968C1630262F0BD002C0140C9
:102CF0000034014030B5046A026A22F48052026254
:102D00004268C3690D6823F4E64343EA05238D68EE
:102D100024F4005444EA0534084DA84202D0084D7A
:102D2000A84204D14D6922F4804242EA85124260F1
:102D3000C36149680164046230BD0000002C014099
:102D40000034014010B5036A046A24F001040462EF
:102D5000846924F0F00444EA021423F00A020A43CE
:102D60008461026210BD000070B5056A046A24F037
:102D7000010404628469124EB0420ED0114EB0427A
:102D80000BD0B0F1804F08D00F4EB04205D00F4E9F
:102D9000B04202D00E4EB04203D124F003041443DB
:102DA00001E044F001041A0724F0F00444EA12623E
:102DB00025F00A0301F00A0119438261016270BD26
:102DC000002C014000340140000400400008004095
:102DD000000C004010B5036A046A24F01004046279
:102DE000846923F0A00324F4704444EA023243EAE5
:102DF00001118261016210BD30B5046A056A25F0D7
:102E000010050562856925F4407545EA022222F421
:102E100070454FF6FF7202EA033224F0A0032A4302
:102E2000A02404EA011119438261016230BD0168E6
:102E30000C3151E8002F22F4907241E80023002B5E
:102E4000F5D10168143151E8002F22F0010241E868
:102E50000023002BF5D1016B012909D101680C3148
:102E600051E8002F22F0100241E80023002BF5D199
:102E7000202180F8421000210163704770B504469C
:102E800000680169E26821F4405111430161216940
:102E9000A0680843616908432168CA6841F20C636D
:102EA0009A430243CA6020684169A26921F44071D3
:102EB000114341611E492068884202D1FEF7D6F8CD
:102EC00001E0FEF7C3F800EBC00101EB00126068FF
:102ED00064218000B2FBF0F3B3FBF1F36FF018064E
:102EE0007343B2FBF0F5B2FBF0F605EB830532233A
:102EF00003EB0515B5FBF1F5B6FBF1F605F0F005B2
:102F000005EB0615B2FBF0F6B2FBF0F0B0FBF1F00A
:102F10006FF01802504306EB800003EB0010B0FB8B
:102F2000F1F0216800F00F002844886070BD0000B7
:102F3000003801402DE9F843984617460D460446EF
:102F4000089E24E0701C22D0FDF77AFEA0EB08005A
:102F5000B0421AD8CEB12068C168490717D5802D74
:102F600015D0402D13D00168C94309070FD401685B
:102F70000025406800902046FFF759FF0820606454
:102F800084F840500120BDE8F8830320FBE7206867
:102F9000006835EA000004D00020B842D2D00020FA
:102FA000F1E70120F9E7FEE7012211030148FDF7EF
:102FB00041BE0000000C014000224FF48051014846
:102FC000FDF738BE000C014008B5009313460A46D1
:102FD000014604480068FEF774FB002800D0012079
:102FE00008BD0000640100201CB516A00024006884
:102FF000CDE90040FFF7E0FF4FF4FA730422694681
:1030000001A8FFF7E1FFFFF7CFFF9DF800100EA02A
:1030100000F026F89DF801100BA000F021F89DF8B3
:10302000021009A000F01CF89DF8031006A000F0A3
:1030300017F89DF8010044EA00219DF800000843BC
:103040001CBD000090000000636869705F69642027
:10305000697320307825303278200D0A0000000096
:103060000FB4054B10B503A9044A029800F028F8E4
:1030700010BC5DF814FB0000193500087001002039
:103080000907090E002804DB00F1E02080F8001495
:10309000704700F00F0000F1E02080F8141D704729
:1030A00002E008C8121F08C1002AFAD17047704711
:1030B000002001E001C1121F002AFBD1704700006F
:1030C0002DE9FF4F8DB00F460546002606E0252866
:1030D0000BD0DDE90F1290476D1C761C2878002874
:1030E000F5D111B03046BDE8F08F0024A246A146CC
:1030F0000122E94900E0044315F8013F203B02FAB0
:1031000003F00842F7D128782A2810D06FF02F0258
:103110002878A0F13001092914D80AEB8A0102EBC2
:10312000410144F0020400EB010A6D1CF0E701CFFD
:103130005FEA000A03D544F40054CAF1000A44F0DF
:1031400002046D1C28782E2817D115F8010F44F0C1
:1031500004042A280ED06FF02F022878A0F1300145
:1031600009290AD809EB890102EB410100EB0109A9
:103170006D1CF2E757F8049B6D1C28786C280FD063
:1031800006DC4C2817D068280DD06A2814D104E03A
:10319000742810D07A280FD10DE044F400140AE00E
:1031A00044F4801401E044F440146978814202D16F
:1031B00004F580146D1C6D1C28786E281ED00CDC64
:1031C000632830D004DC00288BD0582811D19FE030
:1031D000642867D069280CD164E073282DD004DC02
:1031E0006F2872D0702804D194E075286ED07828AA
:1031F0006DD0DDE90F129047761C4BE1C4F302500D
:10320000022806D0032809D0042801CF09D006607F
:1032100040E101CFF117C0E900613BE101CF068039
:1032200038E1067036E117F8040B8DF80000002035
:103230008DF80100EB46012003E057F804BB4FF086
:10324000FF3061074FF0000102D40DE008F10101E9
:10325000884649450FDA8045F8DB1BF8081000293D
:10326000F4D108E008F1010188468142FADB1BF83D
:1032700008100029F6D1DDE90F23AAEB08008146EA
:10328000214600F031F9304400EB080604E0DDE9A6
:103290000F121BF8010B9047B8F10108F7D2214635
:1032A0004846F2E00A21C4F302524FF0000B0891A5
:1032B000022A04D001CFC117032A09D00AE0FF1D5A
:1032C00027F00707F7E8020108E02CE01EE01FE006
:1032D00000B2C117042A01D140B2C117021E71F118
:1032E000000206DA0023D0EB030063EB01012D227C
:1032F00002E0220504D52B228DF82420012203E0D0
:10330000E20701D02022F7E7904653E00A210BE0C4
:10331000102109E010214FF0000B44F004044FF09D
:103320000809089103E008214FF0000B0891C4F34D
:103330000252022A04D001CF0021032A06D006E05F
:10334000FF1D27F00707F7E8020103E080B2042A17
:1033500000D1C0B24FF0000822072BD52A78702A7E
:1033600007D0DDF820C08CF0100C5CEA0B0C05D007
:103370000EE040228DF82420012208E050EA0103EB
:1033800006D030238DF824308DF825200222904677
:10339000089B83F0080353EA0B030BD150EA0102A8
:1033A00001D1620706D530228DF824204FF00108A4
:1033B000A9F101092A78582A04D038A20B9208AA48
:1033C0000A920BE03AA2F9E75B46089AFCF7F0FE96
:1033D0000B9B9B5C0A9A521E0A92137050EA0102E0
:1033E000F2D10A98ADEB000000F1200B600702D586
:1033F00024F4803401E04FF00109D94502DDA9EB46
:103400000B0000E0002000EB0B0141440890AAEB08
:10341000010AE00306D4DDE90F232146504600F0FF
:1034200063F806444FF0000908E009A911F8090003
:10343000DDE90F12904709F10109761CC145F4DB63
:10344000E0030CD5DDE90F232146504600F04CF88F
:10345000064404E0DDE90F1230209047761C0899FD
:10346000481E08900029F5DC08E00A980A990078BF
:10347000491C0A91DDE90F129047761CBBF100014F
:10348000ABF1010BF1DC21465046DDE90F2300F0E2
:1034900019F806446D1C21E6092801003031323349
:1034A0003435363738396162636465660000000080
:1034B000303132333435363738394142434445466A
:1034C000000000002DE9F041044600251E46174685
:1034D000880404D405E039462020B0476D1C641EE2
:1034E000F9D52846BDE8F0812DE9F04104460025D4
:1034F0001E469046C80301D5302700E020278804E7
:1035000004D505E041463846B0476D1C641EF9D528
:103510002846BDE8F081000013B54FF6FF73012285
:1035200069460248FEF73AFD00981CBD9C02002047
:103530002DE9FE430020009001900546064607460F
:103540008046044602906846FCF716FFBDF802006C
:10355000BDF80810284485B2BDF80400641C30444E
:1035600086B2BDF80600E4B2384487B201EB080029
:103570001FFA80F80A2CE6D30A20B5FBF0F2B6FB5E
:10358000F0F5B7FBF0F6B8FBF0F7A6210D48FEF713
:10359000EFFF0C4C2A46241FA6212070201DFEF7A9
:1035A000E7FF60703246A621201DFEF7E1FFA07004
:1035B0003A46A621201DFEF7DBFFE0702046BDE85D
:1035C000FE830000180000201CB5FDF747FBFFF745
:1035D0004AFAFFF737F8FFF789F9FEF7DFFFFFF741
:1035E000A1F9FFF701F9FFF7B9F8FFF7DBF8384861
:1035F000FCF7DCFEFEF7EEFDFFF7F6FC35A0FFF76B
:103600002FFD4FF6E0754FF4FC6720244FF01008B3
:1036100040F2DC562846FEF73BFD3846FEF738FD03
:103620002846FEF735FD3846FEF732FD2846FEF700
:103630002FFD3846FEF72CFD2846FEF729FD3846BB
:10364000FEF726FD2CA0CDE900402023F0220A2120
:103650000520FEF737FF2BA1CDE900811023F022D2
:1036600032210A20FEF72EFF2DA0CDE900402023B5
:10367000F02252210520FEF725FF3046FDF7CCF958
:103680002846FEF705FD782164220846FEF72CFD4A
:10369000782150220846FEF727FD78213C22084673
:1036A000FEF722FD782128220846FEF71DFD78212D
:1036B00014220846FEF718FD782101220846FEF77D
:1036C00013FD00F033F83046FDF7A6F9A2E700003D
:1036D000740100203D3D3D3D3D3D3D3D3D20636F3E
:1036E0006465207374617274203D3D3D3D3D3D3DF8
:1036F0003D3D200D0A00000048656C6C6F576F72ED
:103700006C642100456D62656420536F6674776157
:10371000726520656E67696E656572210000000044
:103720005169616F4D696E672100000010B5FFF7A8
:10373000FFFE0549486002780A7042784A70827834
:103740008A70C078C87010BD6801002001020203B1
:103750000405060708090A0B0C0D0E0F10100102D4
:1037600002030405060708090A0B0C0D0E0F1010C2
:103770000000000000000000010203040607080921
:10378000000000000102030400000000000000002F
:103790000000000000002020202020000020000069
:1037A00028285000000000000000000000005050D9
:1037B000F85050F850500000002070A8A060302849
:1037C000A8702000000048A8B0A874345448000035
:1037D00000002050506CA8A8946800004040800071
:1037E0000000000000000000081010202020202011
:1037F0001010080040202010101010102020400051
:1038000000000020A87070A8200000000000001038
:10381000107C1010000000000000000000000000FC
:10382000404080000000000000FC0000000000009C
:103830000000000000000000004000000004080834
:103840001010202040408000000070888888888800
:1038500088700000000020602020202020700000E0
:10386000000070888810204080F8000000007088F8
:10387000083008088870000000001030305090F8C0
:10388000103800000000F88080F088088870000080
:103890000000304880B0C8888870000000007808B8
:1038A0001010202020200000000070888870888878
:1038B0008870000000007088889868089060000098
:1038C00000000000200000000020000000000000B8
:1038D00000200000002020000000081020404020B0
:1038E0001008000000000000FC00FC0000000000C8
:1038F00000004020100808102040000000007088E0
:1039000088102020002000000000384494B4B4B88F
:1039100044380000000020203050507848CC00008F
:103920000000F0484870484848F0000000007888DF
:1039300080808080887000000000F0484848484837
:1039400048F000000000F8485070504048F800006F
:103950000000F8485070504040E000000000384837
:1039600080809C88483000000000CC484878484857
:1039700048CC00000000F8202020202020F8000083
:1039800000007C1010101010101090E00000EC48A7
:103990005060504848EC00000000E040404040408B
:1039A00044FC00000000DCD8D8D8A8A8A8AC0000CF
:1039B0000000DC486868585848E80000000070883B
:1039C00088888888887000000000F048487040406F
:1039D00040E0000000007088888888E8987018002F
:1039E0000000F0484870504848EC0000000078881B
:1039F0008060100888F000000000F8A82020202037
:103A0000207000000000CC4848484848483000007A
:103A10000000CC4848505030202000000000A8A8EA
:103A2000A8A87050505000000000D85050202050DE
:103A300050D800000000D8505050202020700000C6
:103A40000000F8901020204048F800003820202086
:103A5000202020202020380000404020202010106E
:103A600010080800701010101010101010107000C6
:103A700020500000000000000000000000000000D6
:103A800000000000000000FC4020000000000000DA
:103A9000000000000000000000304838483C0000F2
:103AA00000C04040407048484870000000000000DE
:103AB00000384840483000000018080808384848D6
:103AC000483C00000000000000304878403800000A
:103AD000001824202078202020780000000000001A
:103AE000003C48304038443800C0404040704848AE
:103AF00048EC000000202000006020202070000022
:103B00000010100000301010101010E000C04040F5
:103B10004058506050C8000000E0202020202020A5
:103B200020F800000000000000F0A8A8A8A80000ED
:103B30000000000000F0484848EC000000000000D1
:103B400000304848483000000000000000F04848BD
:103B5000487040E000000000003848484838081C21
:103B60000000000000D8604040E0000000000000BD
:103B700000784030087800000000002020782020E5
:103B8000203800000000000000D84848483C0000F1
:103B90000000000000D8505020200000000000006D
:103BA00000A8A870505000000000000000D850206D
:103BB00050D800000000000000CC4848301020C061
:103BC000000000000078102020780000181010106D
:103BD00010301010101018001010101010101010CD
:103BE00010101010602020202010202020206000C5
:103BF00068900000000000000000000000000000CD
:103C000000000000000000000000000000000010A4
:103C100010101010101000001010000000122424CA
:103C2000480000000000000000000000000000123A
:103C300012127E2424247E24242400000000083C48
:103C40004A4A48380C0A0A4A4A3C0808000000441C
:103C5000A4A8A8B0541A2A2A4A4400000000003040
:103C6000484848506EA4949889760000006020204F
:103C700040000000000000000000000000020408F6
:103C80000810101010101008080402000040201046
:103C90001008080808080810102040000000000064
:103CA0001010D63838D610100000000000000000B8
:103CB000000808087F080808000000000000000055
:103CC0000000000000000000602020400000000014
:103CD000000000007E000000000000000000000066
:103CE000000000000000000060600000000002040E
:103CF00004040808101010202040400000000018A4
:103D0000244242424242424224180000000000087D
:103D10003808080808080808083E00000000003CB1
:103D20004242420204081020427E00000000003C93
:103D30004242020418040242423C00000000000417
:103D40000C0C142424447F04041F00000000007E97
:103D5000404040784402024244380000000000180D
:103D60002440405C62424242221C00000000007E6F
:103D70004204040808101010101000000000003C5D
:103D80004242422418244242423C000000000038D3
:103D900044424242463A0202241800000000000059
:103DA00000001818000000001818000000000000B3
:103DB00000000010000000000010101000000002C1
:103DC0000408102040201008040200000000000039
:103DD00000007E00007E00000000000000000040A7
:103DE0002010080402040810204000000000003CDD
:103DF0004242620408080800181800000000003859
:103E0000445AAAAAAAAAAA5C423C000000000010D8
:103E100010182828243C444242E70000000000F823
:103E2000444444784442424244F800000000003ECA
:103E3000424280808080804244380000000000F8C8
:103E4000444242424242424244F80000000000FC28
:103E5000424848784848404242FC0000000000FCCC
:103E6000424848784848404040E000000000003C9C
:103E700044448080808E844444380000000000E781
:103E8000424242427E42424242E700000000007C41
:103E90001010101010101010107C00000000003ED8
:103EA0000808080808080808080888F0000000EE5C
:103EB000444850705048484444EE0000000000E080
:103EC000404040404040404042FE0000000000EEC4
:103ED0006C6C6C6C6C54545454D60000000000C7D9
:103EE000626252524A4A4A4646E2000000000038E6
:103EF000448282828282828244380000000000FC78
:103F0000424242427C40404040E000000000003815
:103F100044828282828282B24C380600000000FC19
:103F20004242427C4848444442E300000000003ED4
:103F30004242402018040242427C0000000000FE81
:103F4000921010101010101010380000000000E740
:103F50004242424242424242423C0000000000E7EC
:103F6000424244242428281810100000000000D6E3
:103F700054545454546C282828280000000000E7AA
:103F8000422424181818242442E70000000000EE00
:103F90004444282810101010103800000000007E43
:103FA000840408081020204242FC0000001E10106B
:103FB000101010101010101010101E0000004020E3
:103FC00020201010100808040404020200780808D9
:103FD00008080808080808080808780000182400DD
:103FE00000000000000000000000000000000000D1
:103FF0000000000000000000000000FF0060100052
:1040000000000000000000000000000000000000B0
:1040100000000038440C34444C360000000000001E
:10402000C040405864424242645800000000000012
:104030000000001C22404040221C00000000000044
:104040000602023E42424242463B0000000000009F
:104050000000003C42427E40423C00000000000064
:104060000C12107C10101010107C000000000000DA
:104070000000003E444438403C42423C0000000006
:10408000C040405C6242424242E700000000003013
:104090003000007010101010107C00000000000CA8
:1040A0000C00001C04040404040444780000000014
:1040B000C040404E4850704844EE000000000010E0
:1040C0007010101010101010107C00000000000084
:1040D000000000FE4949494949ED00000000000088
:1040E000000000DC6242424242E7000000000000A3
:1040F0000000003C42424242423C000000000000FE
:10410000000000D864424242645840E000000000D1
:104110000000001A26424242261A02070000000050
:10412000000000EE3220202020F8000000000000F7
:104130000000003E42403C02427C000000000000C3
:104140000010107C10101010120C00000000000075
:10415000000000C642424242463B00000000000010
:10416000000000EE44442828101000000000000069
:10417000000000DB894A5A5424240000000000009B
:104180000000007624181818246E000000000000BB
:10419000000000E7422424181810106000000000FE
:1041A0000000007E44081010227E0000000304047A
:1041B00004040404080404040404030008080808B0
:1041C00008080808080808080808080800C020208F
:1041D00020202020102020202020C000205A040071
:1041E00000000000000000000000000000000000CF
:1041F00000000000000000000000000000000000BF
:1042000000000000000000000000000000000000AE
:10421000000000000000000000000000000000009E
:10422000000000000600060006000600060006006A
:10423000060002000400040004000000000000006A
:10424000060006000600000000000000000000005C
:10425000066006600CC019801100220000000000FA
:10426000000000000000000000000000000000004E
:10427000000000000000000000000000000000003E
:104280000000000008400840084008407FE07FE050
:10429000104010801080108010807FE07FE0208030
:1042A000208020802080000000000000000000002E
:1042B0000000020002000F801AC032C033C032007A
:1042C0001A000E0007000380038002C032C03AC00B
:1042D00032C012800F000200020000000000000047
:1042E00000000000708050808900890089008A00E9
:1042F0008A005C0075C005400A200A2012201220A6
:104300001220214021C00000000000000000000039
:10431000000000001C003600360036003600360073
:10432000340019E038805880CC80CC80C680C7002B
:10433000C31063903CE0000000000000000000009B
:1043400030003800080008001000200000000000C5
:10435000000000000000000000000000000000005D
:10436000000000000000000000000000000000004D
:104370000020004000800100010002000200040053
:104380000400040004000400040004000200020011
:10439000010001000080004000200000000000003B
:1043A0004000200010000800080004000400020083
:1043B00002000200020002000200020004000400E9
:1043C000080008001000200040000000000000006D
:1043D0000000000000000000020003000200623044
:1043E00072F00B800F807AF062300200020002004F
:1043F00000000000000000000000000000000000BD
:1044000000000000000000000000020002000200A6
:10441000020002007FF0020002000200020002001F
:10442000000000000000000000000000000000008C
:10443000000000000000000000000000000000007C
:10444000000000000000000000000000000000006C
:1044500030003800080008001000200000000000B4
:10446000000000000000000000000000000000004C
:10447000000000007FE000000000000000000000DD
:10448000000000000000000000000000000000002C
:10449000000000000000000000000000000000001C
:1044A000000000000000000000000000000000000C
:1044B0003800380038000000000000000000000054
:1044C00000200060004000C000800080010001006A
:1044D00002000200060004000400080008001000AA
:1044E00010003000200060004000000000000000CC
:1044F0000000000000000F00198030C030C0606074
:10450000606060606060606060606060606030C07B
:1045100030C019800F000000000000000000000003
:1045200000000000000002003E0006000600060039
:10453000060006000600060006000600060006004B
:10454000060006003FC00000000000000000000060
:104550000000000000001F00218040C060C060C05B
:1045600000C0008001800300060004000800104025
:10457000204060407FC000000000000000000000FC
:104580000000000000001E00630061806180018067
:10459000018003000E000180008000C000C060C0E8
:1045A00060C061801F0000000000000000000000EB
:1045B000000000000000018001800380058005806C
:1045C000098011801180218041807FF0018001806D
:1045D0000180018007E000000000000000000000F2
:1045E0000000000000003FC020002000200020004C
:1045F00020002F00318020C000C000C060C060C01B
:10460000418021801F000000000000000000000029
:10461000000000000000078018C030C030002000FB
:104620006000678068C0706060606060606020608B
:10463000304018C00F000000000000000000000023
:104640000000000000001FE030602040208000805B
:1046500000800100010002000200020006000600C6
:104660000600060006000000000000000000000038
:104670000000000000001F8030C06060606060606B
:10468000304038C00F00138030C0606060606060F0
:10469000606030C00F8000000000000000000000DB
:1046A0000000000000000F00308030C060406060FB
:1046B0006060606060E031601E60006000C000C04B
:1046C000308031801E00000000000000000000006B
:1046D00000000000000000000000000000000000DA
:1046E00007000700070000000000000000000000B5
:1046F00007000700070000000000000000000000A5
:1047000000000000000000000000000000000000A9
:10471000060006000000000000000000000000008D
:104720000000060006000200040004000000000073
:104730000000000000200040008001000200040092
:104740000800100020001000080004000200010012
:104750000080004000200000000000000000000079
:104760000000000000000000000000000000000049
:104770007FE00000000000007FE00000000000007B
:104780000000000000000000000000000000000029
:1047900000000000200010000800040002000100DA
:1047A0000080004000200040008001000200040062
:1047B00008001000200000000000000000000000C1
:1047C00000000000000007C01860203020303030AA
:1047D000303000E001800200020002000000000012
:1047E00007000700070000000000000000000000B4
:1047F00000000000070018C0304033A026A066A0CB
:1048000065A06D206D206D206D206D4027803020CB
:10481000304018C00F000000000000000000000041
:10482000000000000000060006000A000B0009005E
:1048300009001100118010801F8020C020C020407E
:1048400040404060F0F00000000000000000000068
:104850000000000000007F0031C030C030C030C018
:1048600030C031803F0030C0304030603060306058
:10487000306030C07F8000000000000000000000B9
:1048800000000000000007C018C030603020202069
:104890006000600060006000600060006020302008
:1048A000304018C00F0000000000000000000000B1
:1048B000000000000000FE00318030C030C03060D9
:1048C000306030603060306030603060306030C008
:1048D00030C03180FE000000000000000000000039
:1048E000000000000000FFC060C060206020600089
:1048F000610061007F006100610061006000602074
:1049000060206040FFC000000000000000000000C8
:10491000000000000000FFC060C060206020600058
:10492000610061007F006100610061006000600063
:1049300060006000F80000000000000000000000BF
:104940000000000000000F00188030403040204080
:10495000600060006000600063F060C060C030C054
:1049600030C018C00F000000000000000000000070
:10497000000000000000F0F0606060606060606057
:10498000606060607FE06060606060606060606088
:1049900060606060F0F000000000000000000000B7
:1049A0000000000000003FC00600060006000600F0
:1049B00006000600060006000600060006000600C7
:1049C000060006003FC000000000000000000000DC
:1049D0000000000000001FE00300030003000300CC
:1049E00003000300030003000300030003000300AF
:1049F000030003000300630066003C0000000000A9
:104A0000000000000000F3C06180630062006400E9
:104A100068006C00740076006200630061006180D1
:104A2000608060C0F1E000000000000000000000B5
:104A3000000000000000F8006000600060006000FE
:104A40006000600060006000600060006000602046
:104A500060206040FFC00000000000000000000077
:104A6000000000000000E0E061C061C071C071C0E2
:104A700072C072C052C05AC05AC05CC04CC04CC058
:104A80004CC048C0E1E00000000000000000000051
:104A900000000000000071F03040384038402C40E9
:104AA0002C402640264022402340214021C021C0E6
:104AB00020C020C0F84000000000000000000000FE
:104AC0000000000000000F00198030C0304060601E
:104AD0006060606060606060606060606060304026
:104AE00030C019800F00000000000000000000002E
:104AF000000000000000FF0060C060606060606057
:104B00006060606061C07F00600060006000600005
:104B100060006000F80000000000000000000000DD
:104B20000000000000000F00198030C030406060BD
:104B30006060606060606060606060606E603240B5
:104B400033C019800F0001E000C000000000000029
:104B5000000000000000FF8060C060606060606076
:104B6000606060C07F00620063006100618060C0BF
:104B700060C06060F07000000000000000000000F5
:104B80000000000000001F4030C060406040600036
:104B900070003C001F0007C001C000E040604060A2
:104BA000606030C00F8000000000000000000000C6
:104BB0000000000000007FE04620861086100600FE
:104BC00006000600060006000600060006000600B5
:104BD000060006001F80000000000000000000002A
:104BE00000000000000078E03040304030403040AD
:104BF0003040304030403040304030403040304035
:104C0000304018800F00000000000000000000008D
:104C1000000000000000F0E0604020802080308034
:104C2000308011001100190019000A000A000E005E
:104C30000C00040004000000000000000000000060
:104C4000000000000000EF70462042206220622039
:104C50002640264027402740394039801980198056
:104C60001180110011000000000000000000000091
:104C700000000000000079E03080108018800900FA
:104C80000D0006000400060006000B00090011805C
:104C9000108020C071E00000000000000000000053
:104CA000000000000000F0F0602020403040108044
:104CB00018801D000D000E0006000600060006000C
:104CC000060006001F800000000000000000000039
:104CD0000000000000003FE0304060C040800180E4
:104CE0000100020002000400040008001800102067
:104CF000302020407FC000000000000000000000C5
:104D000007C00400040004000400040004000400C0
:104D10000400040004000400040004000400040073
:104D2000040004000400040007C0000000000000AC
:104D30000000000020002000100010000800080003
:104D4000080004000400020002000300010001004A
:104D50000080008000400040004000200000000073
:104D60003E000200020002000200020002000200F7
:104D70000200020002000200020002000200020023
:104D800002000200020002003E00000000000600D7
:104D9000090010800000000000000000000000007A
:104DA0000000000000000000000000000000000003
:104DB00000000000000000000000000000000000F3
:104DC00000000000000000000000000000000000E3
:104DD00000000000000000000000000000000000D3
:104DE00000000000000000000000FFF000000000D4
:104DF0001800060000000000000000000000000095
:104E000000000000000000000000000000000000A2
:104E10000000000000000000000000000000000092
:104E20000000000000000000000000000000000082
:104E30000F8030C030C000C007C038C070C060C034
:104E400060C071D03E700000000000000000000053
:104E50000000000010007000300030003000300012
:104E600033803CC03860306030603060306030602B
:104E7000304038C027800000000000000000000023
:104E80000000000000000000000000000000000022
:104E90000F00318031806180600060006000604000
:104EA000304030800F0000000000000000000000D3
:104EB00000000000004003C000C000C000C000C0EF
:104EC0001EC031C030C060C060C060C060C060C083
:104ED00020C031E01E800000000000000000000043
:104EE00000000000000000000000000000000000C2
:104EF000078018C01040306030603FE03000300064
:104F0000182018400780000000000000000000008A
:104F100000000000000003C006600C600C000C00E4
:104F20007F800C000C000C000C000C000C000C002E
:104F30000C000C003F80000000000000000000009A
:104F40000000000000000000000000000000000061
:104F50000FE01B6031803180318019801F003000EC
:104F60003F0033C060C060C071C01F00000000007F
:104F700000000000100070003000300030003000F1
:104F8000378038C030C030C030C030C030C030C0D2
:104F900030C030C079E000000000000000000000D8
:104FA00000000000000006000600000000000200F3
:104FB0003E00060006000600060006000600060089
:104FC000060006003FC000000000000000000000D6
:104FD000000000000000038003800000000000804B
:104FE0000F800180018001800180018001800180AB
:104FF000018001800180018033003E00000000003C
:105000000000000010007000300030003000300060
:1050100031C031003100320036003A0031003180B9
:10502000308030C079E00000000000000000000087
:105030000000000002003E00060006000600060018
:105040000600060006000600060006000600060030
:10505000060006003FC00000000000000000000045
:105060000000000000000000000000000000000040
:10507000ECE07760666066606660666066606660E9
:1050800066606660FFF000000000000000000000A5
:105090000000000000000000000000000000000010
:1050A000778038C030C030C030C030C030C030C071
:1050B00030C030C079E000000000000000000000B7
:1050C00000000000000000000000000000000000E0
:1050D0000F00198030C06060606060606060606078
:1050E00030C030C00F0000000000000000000000D1
:1050F00000000000000000000000000000000000B0
:10510000778038C030603060306030603060306050
:1051100030C038C03780300030007C000000000014
:10512000000000000000000000000000000000007F
:105130001E4031C030C060C060C060C060C060C090
:1051400020C031C01EC000C000C003E0000000004D
:10515000000000000000000000000000000000004F
:10516000F9C01A601C601800180018001800180018
:1051700018001800FF000000000000000000000000
:10518000000000000000000000000000000000001F
:105190000FC038C0304030401C000F0003C020C09A
:1051A00020C031C03F80000000000000000000006F
:1051B0000000000000000000040004000C000C00CF
:1051C0007F800C000C000C000C000C000C000C008C
:1051D0000C400C40078000000000000000000000B0
:1051E000000000000000000000000000000010406F
:1051F00071C030C030C030C030C030C030C030C0EE
:1052000030C039E01E8000000000000000000000F7
:10521000000000000000000000000000000000008E
:1052200078E0304010801080188009000D000D00DB
:10523000060006000400000000000000000000005E
:10524000000000000000000000000000000000005E
:10525000EF70462062202640264037403980198072
:1052600019801980100000000000000000000000FC
:10527000000000000000000000000000000000002E
:105280003DE0188008800D000600060007000900B8
:10529000108010C079E00000000000000000000055
:1052A00000000000000000000000000000000000FE
:1052B00079E0108010801080090009000D000600C0
:1052C000060006000400040024003800000000006E
:1052D00000000000000000000000000000000000CE
:1052E0003F80218023002200060004000C001840AB
:1052F000104030C03F8000000000000000000000AF
:1053000000C00100010001000100010001000100D6
:105310000100020004000200010001000100010080
:10532000010001000100010000C0000002000200B5
:10533000020002000200020002000200020002005D
:10534000020002000200020002000200020002004D
:105350000200020002000200020002000000000041
:1053600030000800080008000800080008000800D5
:1053700008000400020004000800080008000800FB
:105380000800080008000800300000000000380095
:105390004420432001C00000000000000000000085
:1053A00000000000000000000000000000000000FD
:1053B00000000000000000000000000000000000ED
:1053C00000000000000000000000000000000000DD
:1053D00000000000000000000000000000000000CD
:1053E00000000000000000000000000000000000BD
:1053F00000000000000000000000000000000000AD
:10540000000000000000000000000000000000009C
:10541000000000000000000000000000000000008C
:10542000000000000000000000000000000000007C
:10543000000000000000000000000000000000006C
:10544000000000000000000003C003C003C003C050
:1054500003C003C001C00180018001800180018080
:10546000018001800180000000000000018003C075
:1054700003C00180000000000000000000000000E8
:10548000000000000000000000000000000000001C
:10549000000000000000000000000000000000000C
:1054A00000000000000000000000000000000000FC
:1054B00000000000000000000000000000000000EC
:1054C0000318073807380E700C6018C031802100AF
:1054D00000000000000000000000000000000000CC
:1054E00000000000000000000000000000000000BC
:1054F00000000000000000000000000000000000AC
:10550000000000000000000000000000000000009B
:10551000000000000000000000000000000000008B
:10552000000000000000000000000000000000007B
:10553000000000000000000000000000000000006B
:10554000000000000000000004080408040804082B
:1055500004087FFE7FFE7FFE081008100810081068
:10556000081008107FFE7FFE7FFE183010201020EC
:1055700010201020000000000000000000000000CB
:10558000000000000000000000000000000000001B
:10559000000000000000000000000000000000000B
:1055A00000000000000000000000000000000000FB
:1055B00000000000000000000000000000000000EB
:1055C000000000000100010003C00D300918191887
:1055D000193819381D000D000F00070003C001E045
:1055E00001F00130013801183918391831183130FB
:1055F000196007C001000100010000000000000068
:10560000000000000000000000000000000000009A
:10561000000000000000000000000000000000008A
:10562000000000000000000000000000000000007A
:10563000000000000000000000000000000000006A
:10564000000000000000000038106C104420C6204C
:10565000C640C640C640C680C68044806D38396C9E
:10566000024402C602C604C604C608C608C60844E8
:10567000106C103800000000000000000000000066
:10568000000000000000000000000000000000001A
:10569000000000000000000000000000000000000A
:1056A00000000000000000000000000000000000FA
:1056B00000000000000000000000000000000000EA
:1056C00000000000000000000F0019003180318050
:1056D00031803180310033003A001C00387C3C10AE
:1056E0004C10CE10C620C720C320C1C0C1C260E686
:1056F000317C1E38000000000000000000000000A7
:105700000000000000000000000000000000000099
:105710000000000000000000000000000000000089
:105720000000000000000000000000000000000079
:105730000000000000000000000000000000000069
:1057400038003C003C000C000C00080030006000F9
:105750000000000000000000000000000000000049
:105760000000000000000000000000000000000039
:105770000000000000000000000000000000000029
:105780000000000000000000000000000000000019
:105790000000000000000000000000000000000009
:1057A00000000000000000000000000000000000F9
:1057B00000000000000000000000000000000000E9
:1057C00000020004000800180030002000600040C3
:1057D00000C000C001800180018001800180018043
:1057E00001800180018000C000C0004000600020F6
:1057F0000030001800080004000200000000000053
:105800000000000000000000000000000000000098
:105810000000000000000000000000000000000088
:105820000000000000000000000000000000000078
:105830000000000000000000000000000000000068
:1058400040002000100018000C00040006000200B8
:10585000030003000180018001800180018001803C
:1058600001800180018003000300030006000400A2
:105870000C00180010002000400000000000000094
:105880000000000000000000000000000000000018
:105890000000000000000000000000000000000008
:1058A00000000000000000000000000000000000F8
:1058B00000000000000000000000000000000000E8
:1058C00000000000000000000000000000C001C057
:1058D00001C030C6388E1C9C06B001C001C006B0A5
:1058E0001C9C388E318601C001C001C00000000040
:1058F00000000000000000000000000000000000A8
:105900000000000000000000000000000000000097
:105910000000000000000000000000000000000087
:105920000000000000000000000000000000000077
:105930000000000000000000000000000000000067
:1059400000000000000000000000000000000080D7
:105950000080008000800080008000803FFE00808A
:105960000080008000800080008000800000000037
:105970000000000000000000000000000000000027
:105980000000000000000000000000000000000017
:105990000000000000000000000000000000000007
:1059A00000000000000000000000000000000000F7
:1059B00000000000000000000000000000000000E7
:1059C00000000000000000000000000000000000D7
:1059D00000000000000000000000000000000000C7
:1059E00000000000000000000000000038003C0043
:1059F0003C000C000C0008003000600000000000BB
:105A00000000000000000000000000000000000096
:105A10000000000000000000000000000000000086
:105A20000000000000000000000000000000000076
:105A30000000000000000000000000000000000066
:105A40000000000000000000000000000000000056
:105A50000000000000000000000000007FFE0000C9
:105A60000000000000000000000000000000000036
:105A70000000000000000000000000000000000026
:105A80000000000000000000000000000000000016
:105A90000000000000000000000000000000000006
:105AA00000000000000000000000000000000000F6
:105AB00000000000000000000000000000000000E6
:105AC00000000000000000000000000000000000D6
:105AD00000000000000000000000000000000000C6
