:020000040800F2
:10000000680F002049010008893900080F290008FD
:10001000C13400083903000839410008000000001D
:10002000000000000000000000000000513B00083C
:10003000A3030008000000008B390008533B0008B0
:100040006301000863010008630100086301000800
:1000500063010008630100086301000863010008F0
:1000600063010008630100086301000863010008E0
:10007000630100083D030008490300085503000818
:10008000610300086D0300085902000863010008BD
:10009000630100086301000863010008A50300086C
:1000A00063010008630100086301000863010008A0
:1000B0006301000863010008630100086301000890
:1000C0006301000863010008630100088D3900081E
:1000D000B9390008214100082D41000863010008DA
:1000E0006301000863010008630100086301000860
:1000F0006301000863010008630100086301000850
:100100006301000863010008D53B00086301000893
:100110006301000863010008E13B0008ED3B0008B3
:10012000630100086301000863010008630100081F
:10013000DFF810D000F06EF800480047FD4D0008D1
:10014000AFF30080680F002006488047064800474C
:10015000FEE7FEE7FEE7FEE7FEE7FEE7FEE7FEE777
:10016000FEE7FEE7D13B000831010008202A04DB4E
:10017000203A21FA02F00021704721FA02F3D04020
:10018000C2F120029140084319467047D2B201E003
:1001900000F8012B491EFBD270470022F6E710B58C
:1001A00013460A4604461946FFF7F0FF204610BDE5
:1001B0002DE9F05F0546002092469B46884606469C
:1001C000814640241BE02846414647462246FFF729
:1001D000CDFF53465A46C01A914110D311461846D6
:1001E000224600F029F82D1A67EB01084F462246F7
:1001F0000120002100F020F817EB00094E41201EDD
:10020000A4F10104DFDC484631462A464346BDE8F6
:10021000F09F0000064C074D06E0E06840F0010347
:1002200094E8070098471034AC42F6D3FFF784FFF8
:10023000F00E0108100F0108202A04DB203A00FA12
:1002400002F1002070479140C2F1200320FA03F32D
:100250001943904070470000014800F096B9000033
:100260003000002070B5044600688168C943C907A2
:1002700017D1816821F00101816000F04FFE054631
:100280000AE000BF00F04AFE401B022804D92068A3
:100290008068C043C00706D020688068C043C0079C
:1002A000F0D0002070BDA06A40F01000A062E06AAB
:1002B00040F00100E062012070BD0000F8B50026AA
:1002C0000446009600688168C943C9072DD081683B
:1002D00041F001018160164816490068B0FBF1F059
:1002E00000E0401E00900028FBD100F017FE0546FC
:1002F00016E000BF00F012FE401B022810D9206853
:100300008068C043C0070BD0A06A40F01000A06214
:10031000E06A40F00100E06284F824600120F8BD4A
:1003200020688068C043C007E4D10020F8BD000009
:100330001400002040420F00FEE70000014800F0DA
:1003400027BB000010010020014800F021BB000085
:1003500054010020014800F01BBB00009801002060
:10036000014800F015BB00008C030020014800F09C
:100370000FBB0000D003002030B590F8405001249E
:10038000AC40C56B6C60046863604368102B036805
:1003900003D099600068C26030BD9A600068C16097
:1003A00030BD7047402000F0A7BC72B6FEE70000E9
:1003B000F8B500250446009590F8240001280BD0DC
:1003C000012084F824002046FFF74CFF2046FFF769
:1003D00075FF060002D050E00220F8BDA06A20F4AC
:1003E000885040F00200A062022000F035FE25494E
:1003F0000968B1FBF0F0400000E0401E00900028CA
:10040000FBD12068816841F00801816000F086FD21
:10041000074608E000F082FDC01B0A2803D92068C7
:100420008068000715D4206880680007F2D420682F
:10043000816841F00401816000F070FD074612E020
:1004400000F06CFDC01B0A280DD9206880684007A9
:1004500009D5A06A20F0020040F01000A06284F8E4
:1004600024500120F8BD206880684007E8D4A06AC5
:1004700020F0020040F00100A06284F824503046D1
:10048000F8BD00001400002070470000F8B50024FB
:10049000009490F824202546012A12D0012280F8E9
:1004A00024204A681F23072A0DD20668776B521E44
:1004B00002EB820293409F430B6893401F43776394
:1004C00019E00220F8BD06680D2A0AD2376BD21F48
:1004D00002EB820293409F430B6893401F433763B4
:1004E00009E0F76A0D3A02EB820293409F430B68E2
:1004F00093401F43F7620A68072306680A2A0AD353
:10050000F7680A3A02EB420293409F438B6893409C
:100510001F43F76008E0376902EB420293409F43B4
:100520008B6893401F4337610A68102A01D0112A53
:1005300020D1124B02689A4217D193681B0219D43A
:10054000936843F4000393600968102912D10C49A1
:100550000C4A0968B1FBF2F101EB8101490000E0AE
:10056000491E00910029FBD104E0816A41F020017D
:100570008162012480F824502046F8BD0024014007
:100580001400002040420F00704770B50446006818
:1005900006684568A90625D5B10723D5A16AC9060D
:1005A00003D4A16A41F40071A1628168C1F34241A0
:1005B000072910D1217B71B9416821F020014160E8
:1005C000A06A20F48070A062A06AC00403D4A06A6C
:1005D00040F00100A0622046FFF7D6FF21686FF0CF
:1005E0001200086028062ED570072CD5A06AC00618
:1005F00003D4A06A40F40050A06220688168C1F36F
:100600000231072909D04168490515D48168C1F331
:100610004241072910D1217B71B9416821F0800145
:100620004160A06A20F48050A062A06AC00503D493
:10063000A06A40F00100A0622046FFF725FF216874
:100640006FF00C00086068060CD5F0070AD0A06AAD
:1006500040F48030A062204600F096F821686FF0E8
:100660000100086070BD00002DE9F04104004FF06A
:1006700000057FD0A06A002628B9E66284F82460CD
:10068000204600F083F82046FFF7ECFDA16AC9067A
:1006900000D420B1A06A40F01000A0626AE0A16A14
:1006A00021F4885141F00201A162334923688B4251
:1006B000E16904D1B1F5402F01D14FF40021277B2E
:1006C0004FF4807C41EA470261680A43A1686145B2
:1006D00008D0012906D0002194F814E0BEF1010FE2
:1006E00002D00AE06146F7E7C7B1A76A47F02007E2
:1006F000A762E76A47F00107E7625F6827F4694786
:100700000F435F60236899681C4F3940114399601B
:10071000A16861450BD0012909D00CE0DFF860E049
:10072000A7690EEB47370F4347F40061E5E7218ADD
:100730000D05A5F580152168CB6A23F470032B43C2
:10074000CB62216889680F4B1940914208D1E6625B
:10075000A16A21F0020141F00101A162BDE8F0812E
:10076000A06A20F0020040F01000A062E06A40F0B1
:100770000100E0620120F1E7003C0140FDF7E1FFEC
:1007800000E0FFFFFE0E1FFF7047000010B586B0AF
:100790000021009101910291039100681A49884259
:1007A0002FD11A48816941F400718161816901F496
:1007B00000710491816941F010018161816901F04A
:1007C00010010491816941F008018161806903246D
:1007D00000F0080004900F20CDE9000469460C48A1
:1007E00000F096FA0220CDE900046946094800F0BD
:1007F0008FFA00221146122000F0FCFB122000F0BC
:10080000EBFB06B010BD00000024014000100240C8
:1008100000100140000C014010B590F8211000229A
:10082000022905D00421816380F82020012010BD19
:1008300001680B6823F00E030B6001680B6823F05E
:1008400001030B6090F84030C46B012101FA03F3FF
:10085000636080F8211080F82020104610BD000051
:100860002DE9F05F90F821100024022903D0042123
:100870008163012485E001680A6822F00E020A60A3
:1008800001680A6822F001020A603F4E3E4FB2152D
:10089000DFF8F4C0DFF8F090DFF8ECA0DFF8E8B0A4
:1008A000DFF8E4E00168783F13011502ACF1640C55
:1008B000A9F15009AAF13C0AABF1280BAEF1140ED4
:1008C0004FF48018B14227D9B9420ED0614512D0F9
:1008D00049451DD0514518D0594518D0714501D111
:1008E000424615E0294EB14201D1012210E0274EC7
:1008F0001436B14201D110220AE0244E2836B1420A
:1009000006D0224A3C32914201D11A4600E02A46E2
:100910001E49091F0A602BE0B94213D0614517D068
:10092000494522D051451DD059451DD0714501D1B1
:1009300042461AE0B14202D14FF0807215E0134EE8
:10094000B14201D1012210E0104E1436B14201D162
:1009500010220AE00D4E2836B14206D00B4A3C3236
:10096000914201D11A4600E02A46074980394A607F
:10097000012180F82110002180F82010416B01B185
:1009800088472046BDE8F09F8000024008040240EE
:100990002DE9F05FC16B0A6801680B68046C4FF0C9
:1009A000040808FA04F8844D844E854FDFF814C219
:1009B000DFF81492DFF814A2DFF814B2DFF814E2C3
:1009C00018EA020F65D05FEA437862D50A6892069A
:1009D00003D40A6822F004020A60DFF8F0814FF4C1
:1009E0008062016808F1140813011402414524D9FA
:1009F000A9420DD0B1420FD0B9421AD0614515D0ED
:100A0000494515D0514501D1120312E0594501D194
:100A100004220EE0714501D140220AE06D4D1435EB
:100A2000A94206D06B4A2832914201D11A4600E011
:100A300022466749091F0A6029E0A94213D0B14242
:100A400015D0B94220D061451BD049451BD0514536
:100A500002D14FF4800217E0414502D14FF080628D
:100A600012E0594501D104220EE0714501D1402226
:100A70000AE0584D1435A94206D0564A2832914210
:100A800001D11A4600E022464B4908394A60C16A42
:100A900071E04FF0020808FA04F818EA020F70D06B
:100AA0005FEA83786DD50A68920606D40A6822F058
:100AB0000A020A60012180F82110DFF810814FF44A
:100AC0000072016808F1140813011402414524D989
:100AD000A9420DD0B1420FD0B9421AD0614515D00C
:100AE000494515D0514501D1120312E0594501D1B4
:100AF00002220EE0714501D120220AE0354D143565
:100B0000A94206D0334A2832914201D11A4600E068
:100B100022462F49091F0A6029E0A94213D0B14299
:100B200015D0B94220D061451BD049451BD0514555
:100B300002D14FF4001217E0414502D14FF000728C
:100B400012E0594501D102220EE0714501D1202267
:100B50000AE0204D1435A94206D01E4A283291429F
:100B600001D11A4600E02246134908394A600021A3
:100B700080F82010816A00291CD0BDE8F05F08478A
:100B8000FFE70825A540154214D01A0712D50A68B8
:100B900022F00E020A6090F84020C36B012101FA96
:100BA00002F25A60816380F82110002180F8201041
:100BB000016BE0E7BDE8F09F080002401C00024026
:100BC0003000024044000240580002406C000240E5
:100BD000080402401C04024030B560B11A4B0268A0
:100BE00014219A4209D2194B1344B3FBF1F1890045
:100BF000016417490AE0012030BD134B5B421344E6
:100C0000B3FBF1F1890001640F490839C163022186
:100C100080F82110136843F6F0718B43F0E901145A
:100C20002143D0E902452C4321430469214344690F
:100C3000214384692143194311600021416301224A
:100C400042770177084630BD08040240F8FFFDBF37
:100C50000000024070B5044690F8200000250128ED
:100C60000CD0012084F8200094F821600020012E8F
:100C700006D084F820000225284670BD022070BDF1
:100C8000022684F82160A0632068066826F0010629
:100C900006602046FFF770FBE06A002820680168C4
:100CA00002D041F00E0106E021F00401016020684D
:100CB000016841F00A0101602068016841F001010A
:100CC0000160D9E770B5044600F028F90546601CBC
:100CD00002D004480078044400F020F9401BA042F0
:100CE000FAD370BD08000020402802D1014901203C
:100CF0000870704726000020044910B50A680242B7
:100D000002D00860FFF7F0FF10BD0000140401409E
:100D10002DE9F84FDFF8C8910024A9F1040B234610
:100D20000F2709F1040AABF1040ED1E00125A5401B
:100D300006EA0502AA4276D1DFF8A8C14E68A6EB02
:100D40000C0866452BD00DDC032E34D005DC36B301
:100D5000012E19D0022E2FD11BE0112E16D0122EEB
:100D60002AD119E0B8F5881F19D006DCB8F5803F04
:100D700015D0B8F5801F1FD111E0B8F5001F0ED0B7
:100D8000B8F5041F18D10AE0CB6815E0CB681B1D2D
:100D900012E0CB6808330FE0CB680C330CE08B68B3
:100DA0002BB1012B4FF0080303D0456104E004236D
:100DB00002E0056100E00023FF2A01D8064601E0B9
:100DC00000F104064FEA840501D9A5F12005D6F803
:100DD000008007FA05FC28EA0C0803FA05F548EA42
:100DE0000508C6F800804D68ED0070D53E4DAE692F
:100DF00046F00106AE61AD6924F0030605F0010579
:100E000000953A4D06EB050CDCF80850A607360FA6
:100E100007FA06F825EA0805DFF8D480404503D133
:100E20004FF0000825E052E0DFF8C880404502D1CD
:100E30004FF001081DE0DFF8C080404502D14FF0BF
:100E4000020816E0DFF8B480404502D14FF00308F5
:100E50000FE0DFF8AC80404502D14FF0040808E015
:100E6000DFF8A080404502D14FF0050801E04FF0C7
:100E7000060808FA06F848EA0508CCF808804D6824
:100E8000D9F80060ED024D4601D5164300E09643C7
:100E90002E604D68DAF80060AD02554601D5164364
:100EA00000E096432E604D68DBF80060AD035D46C0
:100EB00001D5164300E096432E604D68DEF80060D1
:100EC000ED03754601D5164300E096432E60641C81
:100ED0000A681646E2407FF429AFBDE8F88F0000AB
:100EE0000804014000001110001002400000014001
:100EF00000080140000C01400010014000140140B6
:100F000000180140001C01408068084000D001200A
:100F100070470AB1016170470904FBE70148806826
:100F200070470000080000200248816802781144E0
:100F30008160704708000020074810B5016841F043
:100F400010010160032000F075F80F2000F006F892
:100F500000F024F8002010BD0020024070B50D4DB7
:100F600004464FF47A712878B1FBF0F00A49096819
:100F7000B1FBF0F000F04DFE48B9102C07D2002272
:100F80002146501E00F036F800206C6070BD012034
:100F900070BD000008000020140000200C4808B5B7
:100FA000816941F001018161816901F001010091D4
:100FB000C16941F08051C161C06900F0805000906A
:100FC0000448416821F0E06141F00071416008BDD2
:100FD0000010024000000140002809DB00F01F0261
:100FE000012191404009800000F1E020C0F800118B
:100FF00070470000F0B40E4B1B680C46C3F302238D
:10100000C3F10705042D00D90425191D072901D2B4
:10101000002300E0DB1E012606FA05F1491E2140EF
:1010200099409E40761E16403143F0BC03F096B8BE
:101030000CED00E0064900F0070208684FF6FF03D8
:10104000184040EA0220034A10430860704700003D
:101050000CED00E00000FA0510B501460020284C18
:1010600004292FD00BDC012930D0022929D100F02E
:101070006BF96168C1F38131491C49001FE00829FF
:1010800020D010291DD161682268D20119D51D48D0
:10109000C1F38342C903805C0AD56168194AC1F370
:1010A0004041921E515C184AB2FBF1F1484301E005
:1010B000164948436168490203D440000321B0FB4C
:1010C000F1F010BDBDE8104000F04EB9226AC2F345
:1010D0000121012903D1920701D5C80310BD0229BE
:1010E00005D1626A920702D549F6404010BD032936
:1010F000FCD121688903F9D54FF2244010BD0000CE
:10110000001002401455000800127A0000093D004A
:101110002DE9F84305460078354CC00754D0E06906
:101120000026C00008D4E06940F08050E061E0692A
:10113000012600F0805000902E480168C90512D4A5
:101140000168804641F480710160FFF7E7FE0746C1
:1011500005E000BFFFF7E2FEC01B642823D8D8F8E3
:101160000000C005F6D5206A10F4407021D0A9888F
:1011700001F4407181421CD0206A1F49012220F4F1
:1011800040700A6000220A602062C00711D0FFF799
:10119000C5FE074641F2883808E000BFFFF7BEFEF3
:1011A000C11B414502D90320BDE8F883206A8007AE
:1011B000F4D5206A696820F44070084320621EB1AB
:1011C000E06920F08050E0612878800705D56068EC
:1011D000A96820F44040084360602878C00605D51F
:1011E0006068696920F48000084360600020DBE7E4
:1011F0000010024000700040400442422DE9F047D8
:101200000F46050061D0434E306800F00700B84239
:1012100009D2306820F0070038433060306800F0B1
:101220000700B84251D128683B4C810712D54007CE
:1012300003D5606840F4E06060602878000703D55B
:10124000606840F4605060606068A96820F0F00059
:10125000084360602878C00728D06868012810D04B
:101260002168022810D0890700292EDA616821F050
:10127000030101436160FFF751FE804641F2883966
:101280000DE021688903EFE78901EDE7FFF746FEEE
:10129000A0EB0801494502D90320BDE8F08760684A
:1012A000696800F00C00B0EB810FEFD1306800F0FE
:1012B0000700B8420BD9306820F00700384330608F
:1012C000306800F00700B84201D00120E5E7287837
:1012D000400705D56068E96820F4E0600843606075
:1012E0002878000706D56068296920F4605040EA34
:1012F000C100606000F038F86168084AC1F303116A
:10130000515CC8400649086006480068FFF726FEA1
:101310000020C2E7002002400010024024550008CF
:10132000140000200C0000200448054900684968AA
:10133000044AC1F30221515CC840704714000020E8
:101340000010024034550008044805490068496807
:10135000044AC1F3C221515CC84070471400002008
:1013600000100240345500080E4A51680E4801F042
:101370000C03042B11D0082B0FD10C48C1F383436D
:10138000C903C05C0AD55168084AC1F34041921EA6
:10139000515C054A5043B0FBF1F0704704494843A3
:1013A000704700000010024000127A000255000849
:1013B00000093D002DE9F84F040070D02078C04DA1
:1013C000C00749D06868C0F38100012807D0686869
:1013D000C0F38100022809D16868C00306D52868D7
:1013E000800339D560680028E7D035E06068B0F543
:1013F000803F0BD010B1B0F5A02F11D0286820F499
:1014000080302860286820F4802002E0286840F4BA
:1014100080302860606890B1FFF780FD06460AE0E2
:10142000286840F480202860F0E700BFFFF776FDD1
:10143000801B642873D828688003F7D50CE0FFF779
:101440006DFD064605E000BFFFF768FD801B6428C0
:10145000F0D828688003F7D420789A4E80074FF0A0
:1014600001094FF0000839D5686810F00C0F07D05B
:101470006868C0F38100022809D16868C00306D4F7
:101480002868800714D52069012808D110E0206958
:10149000B0B1C6F80090FFF741FD074605E00AE14C
:1014A000FFF73CFDC01B0228C4D828688007F7D589
:1014B0002868616920F0F80040EAC10028600DE06A
:1014C000C6F80080FFF72AFD074604E0FFF726FD77
:1014D000C01B022823D828688007F7D4207800078B
:1014E0002CD57948A169D9B1C0F80090FFF716FD55
:1014F000074604E0FFF712FDC01B02280FD8686AF8
:101500008007F7D571484FF4FA510068B0FBF1F04D
:10151000009000BF0098411E0091FAD20EE080E0DA
:10152000C0F80080FFF7FAFC074604E0FFF7F6FC7E
:10153000C01B022875D8686A8007F7D42078400756
:1015400060D5E8690027C00008D4E86940F0805001
:10155000E861E869012700F0805000905C4801686C
:10156000C90513D40168834641F480710160FFF717
:10157000D5FC824606E000BFFFF7D0FCA0EB0A00D6
:1015800064284ED8DBF80000C005F5D5E0680128D6
:101590000AD008B1052813D0286A20F0010028627B
:1015A000286A20F0040002E0286A40F00100286266
:1015B000E06841F2883B98B1FFF7B0FC82460BE04F
:1015C000286A40F004002862EEE700BFFFF7A6FC9F
:1015D000A0EB0A0159455AD8286A8007F6D50CE0D5
:1015E000FFF79CFC824605E0FFF798FCA0EB0A01A0
:1015F00059454CD8286A8007F6D41FB1E86920F015
:101600008050E861E06988B36968C1F3810102290B
:1016100044D00228C6F8608004D0FFF77FFC04465F
:1016200038E034E0FFF77AFC074604E0FFF776FC89
:10163000C01B02282BD828688001F7D4206AB0F597
:10164000803F05D16868A16820F4003008436860D5
:10165000D4E908010843696821F4741108436860FB
:10166000C6F86090FFF75AFC044606E025E000BF8C
:10167000FFF754FC001B022809D828688001F7D521
:101680001BE000BFFFF74AFC001B022802D9032021
:10169000BDE8F88F28688001F4D40EE00128F7D067
:1016A0006868226A00F48031914204D1616A00F4D2
:1016B0007010884201D00120EAE70020E8E700002E
:1016C0000010024000004242800442421400002008
:1016D000007000407047000038B50446006842685A
:1016E0008168C9434B0606D5CB0704D1D3435B06BB
:1016F00001D4216C05E08B0708D4D3431B0605D425
:10170000616C01B02046BDE8304008478B0601D52A
:101710004B0646D4D3439B0643D44B060AD494F8D5
:101720005130032B3ED0636D43F004036365C368FF
:1017300083680093890609D4616D41F001016165F8
:1017400081680091016821F040010160606D00280E
:1017500027D02068416821F0E0014160012084F831
:101760005100900722D02068416821F003014160B8
:10177000104DE06C40B14563E06CFFF771F818B1B3
:10178000606D40F040006065A06C002809D04563A2
:10179000A06CFFF765F8002803D0606D40F04000B2
:1017A000606538BDC1688068009038BD2046FFF78D
:1017B00091FF38BDC539000870B5040009D0606AD2
:1017C000002540B125616561A56294F8510040B1E2
:1017D0000CE0012070BD6068B0F5827FF4D0E56157
:1017E000F2E784F85050204600F040F8022084F8D8
:1017F00051002068016821F040010160A088218922
:1018000000F4827001F404410843A18901F40061ED
:101810000843217C01F002010843217D01F0010110
:101820000843218B01F400710843217F01F0380146
:10183000084394F8201001F080010843218D01F441
:101840000051084321680860A069042101EA1040A2
:10185000216848602068C16921F40061C161656543
:10186000012084F85100002070BD00002DE9F041F6
:1018700086B00024009401940294039406464A4DD5
:1018800003684A480221032280274FF01008AB4228
:1018900030D1836943F480538361836903F48053B7
:1018A0000493836943F0040383618069039200F029
:1018B00004000490A020CDE9000169463C48FFF7F0
:1018C00027FA3D4D3B48C5E902472C616C61AC618C
:1018D000EC61C5E900082846FFF77EF908B1FEF77C
:1018E00064FDB5640022114623206E62FFF782FB7F
:1018F000232053E0314DAB4252D1C36943F48043BE
:10190000C361C36903F480430493836943F008030C
:10191000836180692A4D00F0080004904FF4204054
:10192000CDE90001039269462846FFF7F1F94FF42B
:101930008040CDE90004694628460294FFF7E8F9A3
:101940001D4D1C4844351430C5E90004C5E9024763
:101950002C616C61AC612846EC61FFF73DF908B180
:10196000FEF723FDF5646E62134D1248883528306A
:10197000C5E902472C616C61AC61EC61C5E9000806
:101980002846FFF729F908B1FEF70FFDB5640022DC
:10199000114624206E62FFF72DFB2420FFF71CFB6D
:1019A00006B0BDE8F08100000030014000100240A8
:1019B00000080140300002401001002000380040C3
:1019C000000C01402DE9F84F984616468A46044619
:1019D000FFF7A4FA814694F8510001281ED1BAF10C
:1019E000000F73D0002E71D094F85000012815D04C
:1019F000012784F85070032084F8510000256565A4
:101A0000C4F830A0A686E686A563A587E587656449
:101A10002564A068B0F5004F03D00CE00220BDE8BB
:101A2000F88F2068016821F040010160206801689A
:101A300041F48041016020680168490603D40168CF
:101A400041F040010160E068B0F5006F606803D0CC
:101A500048B3012E27D047E008B1012E1FD1206BDB
:101A600021680088C86006E020688168890709D578
:101A7000216B0988C160206B801C2063E08E401EB2
:101A8000E0860CE0FFF74AFAA0EB0901414503D3D9
:101A9000B8F1FF3F03D035E0B8F1000F32D0E08E4F
:101AA0000028E1D123E0206B21680078087306E06C
:101AB0002068816889070AD5216B09780173206B3A
:101AC000401C2063E08E401EE0860DE02BE0FFF717
:101AD00025FAA0EB0901414503D3B8F1FF3F03D03C
:101AE00010E0B8F1000F0DD0E08E0028E0D14A469A
:101AF0004146204601F0B6FF08B120206065A0688D
:101B000030B109E084F8517084F85050032086E722
:101B10002068C1688068009084F8517004F8505FB4
:101B200060680028F3D0012079E7000070B5044612
:101B300090F8510001281CD1C9B1C2B194F85000ED
:101B4000012816D0012084F85000032084F85100A9
:101B5000002565652163A286E286A5636564256428
:101B6000A587E587A068B0F5004F04D00DE00120FF
:101B700070BD022070BD2068016821F04001016045
:101B80002068016841F480410160A16C1748C86277
:101B9000A16C17488862A16C16480863A06C456365
:101BA000E38E2268216B0C32A06CFFF753F830B142
:101BB000606D40F01000606584F85050D7E72068F1
:101BC0000168490603D4016841F04001016084F8CE
:101BD00050502068416841F0200141602068416810
:101BE00041F002014160002070BD0000F73900089B
:101BF000013A0008D539000800680349884202D13B
:101C00000249012008707047003001402000002088
:101C1000704710B5401EB0F1807F01D3012010BD88
:101C20004FF0E02460610F21601702F097FA002066
:101C3000A06107202061002010BD704770470000A0
:101C400070B590F83C20012A2CD0012480F83C404B
:101C5000022280F83D2003685A689D6822F07006D1
:101C60000A6832435A60104B02689A420ED00F4BFA
:101C70009A420BD0B2F1804F08D00D4B9A4205D05A
:101C80000C4B9A4202D00C4B9A4204D1496825F081
:101C900080031943916080F83D40002180F83C109A
:101CA000084670BD022070BD002C01400034014088
:101CB0000004004000080040000C004010B5040083
:101CC00003D094F83D0010B107E0012010BD0020C2
:101CD00084F83C00204600F01FF8022084F83D0004
:101CE000211D206801F088FF012084F8460084F857
:101CF0003E0084F83F0084F8400084F8410084F8F6
:101D0000420084F8430084F8440084F8450084F8D5
:101D10003D00002010BD000008B5234A016823489B
:101D2000914208D1C16941F00401C161C06900F06C
:101D30000400009008BD1E4A91420ED1C16941F0D5
:101D40000801C161C069002200F00800009011463E
:101D50003220FFF74FF9322022E0164A91420ED18D
:101D6000C16941F01001C161C069002200F010009A
:101D7000009011463620FFF73DF9362010E00E4A5C
:101D80009142D7D1C16941F02001C161C0690022EF
:101D900000F02000009011463720FFF72BF9372084
:101DA000BDE80840FFF718B90008004000100240E5
:101DB000000C0040001000400014004090F83D105E
:101DC000012901D001207047022180F83D100168EF
:101DD000CA6842F00102CA6000680E4988420ED00B
:101DE0000D4988420BD0B0F1804F08D00B49884292
:101DF00005D00B49884202D00A49884204D1816843
:101E000001F00701062903D0016841F001010160DA
:101E100000207047002C01400034014000040040C5
:101E200000080040000C00400168CA6822F001026E
:101E3000CA6001680A6A41F211131A4207D10A6A9C
:101E40009B101A4203D10A6822F001020A600121A4
:101E500080F83D100020704770B5044690F83C00B3
:101E60000025012817D0012684F83C60022084F860
:101E70003D002068826822F0770222F47F4282606F
:101E80000868502838D00DDC20284FD005DC90B3EE
:101E9000102811D14AE0022070BD302846D04028D9
:101EA0000AD13BE060282FD070280DD0B0F5805FBC
:101EB00003D0B0F5005F12D0012584F83D6000200A
:101EC00084F83C00284670BDCB68D1E90121206828
:101ED00001F0EDFE2068816841F0770109E0CB68F0
:101EE000D1E90121206801F0E2FE2068816841F417
:101EF00080418160E1E719E0CA684968206801F023
:101F0000ABFF5021206806E0CA684968206801F0EC
:101F1000B4FF6021206801F0D4FECEE7CA684968AA
:101F2000206801F099FF40212068F4E7226801460B
:101F30001046F0E770472DE9F04104460068C66896
:101F400005694FF00007A90713D5B10711D5F91E90
:101F5000016101202077206880698007204602D037
:101F6000FFF7E8FF04E000F0A5F8204600F037F99D
:101F70002777680716D5700714D521686FF004001D
:101F80000861022020772068806910F4407F204695
:101F900002D0FFF7CFFF04E000F08CF8204600F0FD
:101FA0001EF92777280715D5300713D521686FF05C
:101FB00008000861042020772068C0698007204657
:101FC00002D0FFF7B7FF04E000F074F8204600F0FD
:101FD00006F92777E80616D5F00614D521686FF0C4
:101FE00010000861082020772068C06910F4407F45
:101FF000204602D0FFF79EFF04E000F05BF8204689
:1020000000F0EDF82777E80708D0F00706D0216840
:102010006FF001000861204600F03CF9280608D561
:10202000300606D521686FF0800008612046FFF772
:1020300004FE680608D5700606D521686FF04000DA
:102040000861204600F0DCF9A8060AD5B00608D5DC
:1020500021686FF0200008612046BDE8F041FFF7DD
:10206000EDBDBDE8F081000000B585B00021009114
:1020700001910291039100680B49884212D10B48EB
:10208000816941F0080181618069694600F00800BA
:1020900004904FF460700090022001900390044877
:1020A000FEF736FE05B000BD0008004000100240FB
:1020B000000C0140704770B5044690F83C000026C3
:1020C0000D4601280FD0012084F83C006AB1042A93
:1020D0001DD0082A2FD00C2A3FD00126002084F8DA
:1020E0003C00304670BD022070BD206801F0F2FD5A
:1020F0002068816941F0080181612068816921F0CF
:1021000004018161206881692A69114311E0206816
:1021100001F010FE2068816941F40061816120684E
:10212000816921F480618161206881692A6941EABD
:1021300002218161D2E7206801F032FE2068C16986
:1021400041F00801C1612068C16921F00401C16149
:102150002068C1692A69114311E0206801F054FE2A
:102160002068C16941F40061C1612068C16921F43E
:102170008061C1612068C1692A6941EA0221C161A7
:10218000ACE710B5040003D094F83D0010B107E0AF
:10219000012010BD002084F83C00204600F01EF80D
:1021A000022084F83D00211D206801F025FD01205A
:1021B00084F8460084F83E0084F83F0084F840002C
:1021C00084F8410084F8420084F8430084F8440015
:1021D00084F8450084F83D00002010BD704770472A
:1021E00010B50446022249B104290ED0082913D0A3
:1021F00094F84100012816D0012010BD94F83E004B
:102200000128F9D184F83E200FE094F83F0001281E
:10221000F2D184F83F2008E094F840000128EBD187
:1022200084F8402001E084F841200122206801F078
:1022300031FD13492068134A884201D0904203D1EE
:10224000436C43F400434364206888420DD09042BD
:102250000BD0B0F1804F08D00B49884205D00B4914
:10226000884202D00A49884204D1816801F00701FE
:10227000062903D0016841F001010160002010BD72
:10228000002C0140003401400004004000080040E0
:10229000000C00402DE9F0474F4A01680025126804
:1022A00001264E4C914224D1A1784D4A491CC9B215
:1022B000A170042902D0052902D003E0167101E0C3
:1022C0001571A57047494A78012A08D1E278521C55
:1022D000D2B2E2701E2A02D14D70E5708E700A787B
:1022E0003AB92279521CD2B22271642A01D12571E5
:1022F0000E70394A01684832126891420AD13A494F
:102300008A783AB10A78521CD2B20A70082A01D3EC
:102310008D70CE703049006890310968884228D1AC
:102320002078DFF8C8A0DFF8C890012815D1002276
:1023300004215046FEF7EDFD002208214F46484695
:10234000FEF7E7FD002210213846FEF7E2FD0022ED
:1023500020213846FEF7DDFD2570DFF8988098F8DB
:102360000000012807D06078012802D1E088401CD5
:10237000E080BDE8F08720496670E08809888842DF
:10238000F4D31E4F387808B1002200E00122042166
:102390005046FEF7BEFD387808B1002200E0012269
:1023A00008214846FEF7B5FD387808B1002200E064
:1023B000012210214846FEF7ACFD387808B1002212
:1023C00000E0012220214846FEF7A3FD267088F890
:1023D0000050E5806570CCE724020020000000205A
:1023E0001E0A0020190000202A0A002000140140C3
:1023F000000C014026000020280000202A000020B8
:102400007047704770470000F8B5016804460868D7
:10241000CA684B6910F00F0F4FF0000559D003F058
:10242000010602F49077374365D0C10705D0D10586
:1024300003D5616C41F001016164410705D5D907FD
:1024400003D0616C41F002016164810705D5D907B1
:1024500003D0616C41F004016164010707D502F00B
:102460002001314303D0616C41F008016164616C6B
:1024700000293AD0800604D5900602D5204601F006
:102480003DFD20684069616CC0F38010090700D4ED
:1024900060B3204601F00BFD20684069400621D55D
:1024A0002068143050E8001F21F0400140E800127D
:1024B000002AF5D1E06BA8B16D494163E06BFEF7EE
:1024C000CFF9002811D0E06B416B01B0BDE8F040BE
:1024D000084783060FD593060DD52046BDE8F84082
:1024E00001F00CBD2046FFF78DFFF8BD2046FFF739
:1024F00089FF6564F8BD266B2023012E7CD1C606BA
:102500007AD5D60678D508684868009048694FF0B3
:102510000206400640D5E16B086840680004000CE4
:10252000E8D0A28D8242E5D9E085886920282DD0A7
:1025300020680C3050E8001F21F4807140E8001240
:10254000002AF5D12068143050E8001F21F0010165
:1025500040E80012002AF5D12068143050E8001F2E
:1025600021F0400140E80012002AF5D184F8423001
:10257000256320680C3050E8001F21F0100140E86E
:102580000012002AF5D1E06BFEF746F96663A08DD4
:10259000E18D401A81B22AE0A08DE18D401A81B20E
:1025A000E08D0028A6D00029A4D022680C3252E881
:1025B000000F20F4907042E80007002FF5D120684A
:1025C000143050E8002F22F0010240E80027002FCD
:1025D000F5D184F84230256320680C3050E8002F94
:1025E00022F0100240E80023002BF5D1666320465C
:1025F000FFF707FFF8BDFFE705062BD5150629D520
:1026000094F841002128F5D1A068B0F5805F01D190
:102610002069B0B1206A411C2162216800784860BD
:10262000E08C401E0004000CE084E3D12068C16807
:1026300021F08001C1602068C16841F04001C160A3
:10264000D8E7206A0088C0F308004860206A801C30
:102650002062E5E74006CDD55006CBD5CA682046B6
:1026600022F04002CA6084F8413000F04FF9C1E71F
:102670009F3E000870B5040004D094F84100002586
:1026800010B106E0012070BD84F84050204600F0F3
:1026900023F8242084F841002068C16821F4005107
:1026A000C160204601F08CFC2068016921F4904152
:1026B00001612068416921F02A0141612068C168F7
:1026C00041F40051C1606564202084F8410084F821
:1026D00042006563002070BDF0B585B00024009411
:1026E0000194029403940646414F03684148022135
:1026F0000322414DBB4226D1836943F48043836169
:10270000836903F480430493836943F00403836182
:102710008069039200F0040004900802CDE90001F2
:1027200069462846FEF7F4FA2815CDE90004694603
:1027300028460294FEF7ECFA002211462520FEF707
:1027400059FC252050E02D4FBB424FD1C36943F4C3
:102750000033C361C36903F400330493836943F016
:10276000040383618069039200F004000490042054
:10277000CDE9000169462846FEF7CAFA0820CDE9EE
:102780000004694628460294FEF7C2FA1D4D1C4813
:102790008027C5E90004C5E902472C616C61AC6182
:1027A0002846EC61FEF718FA08B1FDF7FEFDF56367
:1027B0006E62144D12484435143001C5102091C585
:1027C000104845F8104944306C61AC61EC61FEF78B
:1027D00003FA08B1FDF7E9FDB56300221146262092
:1027E0006E62FEF707FC2620FEF7F6FB05B0F0BD93
:1027F0000038014000100240000801400044004041
:102800006C0002408C03002090F84230202B01D055
:102810000220704721B11AB10023036301F02CBCE0
:102820000120704700680E49884218D10D48C178D0
:10283000012914D00C49096849684378021D99544C
:1028400041780023491CC9B241700370012901D1AC
:1028500001238370114401220348FFF7D5BF70475D
:10286000004400402A0A0020440300202DE9F843D8
:10287000044690F84100984616460D46202802D09E
:102880000220BDE8F88385B17EB10020606421207C
:1028900084F84100FEF742FBA6848146E684A068E6
:1028A0002027B0F5805F02D003E00120E9E720692E
:1028B00010B12E4600250EE000260CE080212046B7
:1028C00001F0F5FBA8B9C6B116F8010B2168486004
:1028D000E08C401EE084E08C4B464FF00002CDF8C7
:1028E00000800028EAD14FF04001204601F0DFFBD4
:1028F00040B184F841700320C3E735F8020BC0F300
:102900000800E3E784F841700020BAE77047FEE76B
:102910002DE9F04104461D4616460F462A2000F0D8
:10292000D7FA204600F0F0FA304600F0EDFA2B20FE
:1029300000F0CEFA384600F0E7FA284600F0E4FA54
:10294000BDE8F0412C2000F0C3BA000070B5040AC5
:10295000C5B20021EF2340F23F120846FFF7D8FF2F
:102960000E4900204FF4407201F8104001EB400383
:10297000401C80B25D709042F6D30122402108488D
:10298000FEF7C7FA00244FF4C0652946034800F05B
:10299000ABF9641CA4B2642CF7D370BD1D040020F5
:1029A000000801402DE9FE4F4FF00008141A474679
:1029B000454699421FD1FFF7ABFF0C980C9A010ACC
:1029C0003148D2B206E000BF00F8151000EB450315
:1029D0006D1C5A70AC42F7D8012240212B48FEF7FB
:1029E00098FA4FF6FF7000EA440103B02648BDE8AC
:1029F000F04F00F079B9CDE900105E1A4FF0FF30CA
:102A0000002C02DD4FF0010102E003D14FF0000184
:102A10008B4602E08346C4F10004002E02DD4FF035
:102A2000010002E003D14FF00000824602E082463E
:102A3000C6F10006B44201DD254600E03546681CBB
:102A40004FF0000902901AE000980C9A81B20198A8
:102A500080B200F01DF8A0443744A84505DD019977
:102A6000A8EB050801EB0B000190AF4203DD0098D5
:102A70007F1B5044009009F101001FFA80F9029970
:102A80008945E1DDBDE8FE8F1D04002000080140FE
:102A900010B514460B460246FFF73AFF2046BDE844
:102AA000104000F031BA00002DE9F047141A5F1A07
:102AB000641C7F1C7C43002564004FF4C068089EA2
:102AC000444502D9A4F5C0654446FFF721FF370A03
:102AD000DFF84C90DFF84CA0F6B20020494606E043
:102AE00001F8107001EB4002401C567080B2B0EB50
:102AF000540FF5D3012240215046FEF70AFAA1B245
:102B0000074800F0F1F8002D07D0454502D9A5F59A
:102B1000C065E2E72C460025DFE7BDE8F08700004E
:102B20001D0400200008014010B56A4C002210214D
:102B30002046FEF7EEF90C20FEF7C4F80122102122
:102B40002046FEF7E6F90C20FEF7BCF8112000F055
:102B5000BFF90C20FEF7B6F8362000F0B9F9A02036
:102B600000F0C4F93A2000F0B3F9652000F0BEF996
:102B7000B22000F0ADF90C2000F0B8F90C2000F004
:102B8000B5F9002000F0B2F9332000F0AFF933209E
:102B900000F0ACF9B72000F09BF9722000F0A6F924
:102BA000BB2000F095F93D2000F0A0F9C02000F016
:102BB0008FF92C2000F09AF9C22000F089F9012049
:102BC00000F094F9C32000F083F9192000F08EF989
:102BD000C42000F07DF9202000F088F9C62000F024
:102BE00077F90F2000F082F9D02000F071F9A420CD
:102BF00000F07CF9A12000F079F9E02000F068F9FC
:102C0000D02000F073F9042000F070F90D2000F0DE
:102C10006DF9112000F06AF9132000F067F92B20FC
:102C200000F064F93F2000F061F9542000F05EF9F3
:102C30004C2000F05BF9182000F058F90D2000F04E
:102C400055F90B2000F052F91F2000F04FF9232016
:102C500000F04CF9E12000F03BF9D02000F046F9FB
:102C6000042000F043F90C2000F040F9112000F09E
:102C70003DF9132000F03AF92C2000F037F93F20FD
:102C800000F034F9442000F031F9512000F02EF921
:102C90002F2000F02BF91F2000F028F91F2000F052
:102CA00025F9202000F022F9232000F01FF921202F
:102CB00000F00EF9292000F00BF90021EF2340F27B
:102CC0003F120846FFF724FEBDE810404FF6FF70A4
:102CD000FFF73CBE001001400246012000E05043D7
:102CE000491EC9B2FBD2704700F056BE00F05CBE70
:102CF0002DE9F84F203AD6B21C46DDE90A984FF488
:102D0000A072A2EB5402824254D3C4F1F0028A4270
:102D100050DB0A19521E93B200EB5402521E92B2BB
:102D2000FFF7F6FD102C17D0202C15D00C2C43D01B
:102D3000182C3FD1364906EB46004FF0300B0024EB
:102D400001EB001AE0071AF8046051D004270025AF
:102D500030064FD548464EE0600700D0012000EB1A
:102D6000D4006108484300F0FF0A2A48002500EB20
:102D7000061B00F5BE5000EBC610009018E0102CAA
:102D800008D0202C16D10098465D0027300604D5C7
:102D9000484603E01BF80560F7E7404600F0B4F84A
:102DA00070067F1C060EFFB2082FEFD36D1CEDB22C
:102DB0005545E4D3BDE8F88F174806EB46014FF0C0
:102DC0000C0A002400EB810700253E5D300601D58A
:102DD000484600E0404600F097F870066D1C060E6D
:102DE000EDB2062DF2D3641CE4B25445ECD3E1E716
:102DF0000827ACE7404600F087F870066D1C060E09
:102E0000EDB2BD42A4D3641CE4B25C459AD3D1E7D1
:102E100016CD000826C70008B2C200082DE9FF4FF2
:102E200083B00026DDE911A9DDF840B01D468046DB
:102E300034464FEA5B0726E0281B401EC1B20A2039
:102E4000FFF74AFF0599B1FBF0F00A21B0FBF1F260
:102E500001FB120026B9691E8C4201DA38B1012645
:102E60003030C2B207FB048080B25B4604E007FB4F
:102E7000048080B25B462022CDE900A90499FFF7C7
:102E800037FF641CE4B2AC42D6D307B0BDE8F08F84
:102E900070B50244DDE90454B2F5A07F15D80B44A7
:102EA000F02B12D85B1E521E9BB292B2FFF730FD80
:102EB000012240210548FEF72CF821462846FFF75D
:102EC00015FFBDE8704002F011BB70BD0008014065
:102ED00001B5002240210448FEF71BF80121684695
:102EE000FFF702FF08BD00000008014001B5012204
:102EF00040210448FEF70DF801216846FFF7F4FE73
:102F000008BD00000008014008B500210091010A39
:102F10008DF800108DF80100012240210348FDF7D3
:102F2000F8FF02216846FFF7DFFE08BD00080140F8
:102F300030B503464FF6FF704AF201041A7850404C
:102F40000022C50702D084EA500000E04008521C6D
:102F5000D2B2082AF5D3491E5B1C11F0FF01EDD156
:102F600030BD0000FEB50025274800950195254994
:102F70000295016089158160057301240475052699
:102F800006614FF460214560C0E90641FDF76CFB26
:102F900008B1FDF70AFA09208DE8310069461A48A0
:102FA000FDF774FA08B1FDF700FA0A20009002203C
:102FB000019069461448FDF769FA08B1FDF7F5F983
:102FC0000B2000900320019069460F48FDF75EFA40
:102FD00008B1FDF7EAF90C20009004200190694641
:102FE0000948FDF753FA08B1FDF7DFF90D20CDE9E7
:102FF000000669460448FDF749FA002801D0FDF7AC
:10300000D4F9FEBD0024014030000020194808B565
:10301000416941F0010141614069002200F0010075
:10302000009011460D20FDF7E5FF0D20FDF7D4FFC0
:10303000002211460E20FDF7DDFF0E20FDF7CCFF2C
:10304000002211460F20FDF7D5FF0F20FDF7C4FF2A
:10305000002211461020FDF7CDFF1020FDF7BCFF28
:10306000002211461120FDF7C5FFBDE808401120E0
:10307000FDF7B2BF001002402DE9F04F85B00024EB
:1030800052480094019402940394816941F0100124
:103090008161816901F010010491816941F0200191
:1030A0008161816901F020010491816941F004018D
:1030B0008161816901F004010491816941F0080195
:1030C00081618069002200F00800049049F64211F5
:1030D0003F48FDF71EFF41F61049002249463D4892
:1030E000FDF717FF40F63C4A002251463A48FDF7EB
:1030F00010FF4FF4805B012259463748FDF709FF66
:10310000002204213548FDF704FF49F6021001258D
:103110000226CDE90005CDE9024669462C48FDF7B7
:10312000F7FD1020CDE90004694629480294FDF717
:10313000EFFD40274FF00308CDF80C800097CDE954
:10314000015469462248FDF7E3FDCDF8009003964F
:10315000CDE9015469461F48FDF7DAFD4FF4787058
:10316000CDE9000469461B480294FDF7D1FDCDF876
:1031700000A00396CDE9015469461748FDF7C8FD44
:10318000CDF800B0CDF80C80CDE901546946124865
:10319000FDF7BEFD0420CDE90005CDE902466946F4
:1031A0000E48FDF7B5FD0E480097CDE901046946CC
:1031B0000948FDF7ADFD002211461720FDF71AFF63
:1031C0001720FDF709FF05B0BDE8F08F00100240A1
:1031D0000008014000100140000C014000140140B3
:1031E00000002110104810B50E4901604FF48271A3
:1031F0004160002102228160C0E903121202C0E98D
:1032000005120822C0E90721416281620A21C162D8
:10321000FEF7D2FA002803D0BDE81040FDF7C5B88C
:1032200010BD000000300140600000200F4810B5C4
:103230000D4901604FF48271416000218160C160DD
:103240004FF400720161C0E90512C161016241627F
:1032500081620A21C162FEF7AFFA002803D0BDE8FF
:103260001040FDF7A2B810BD00380040B8000020A3
:1032700030B58DB000250795089509950A950B95F1
:103280001C2168460C95FCF788FF344C32482060BE
:103290004720C4E9010540F2E730C4E903052046B0
:1032A000A561FEF70BFD08B1FDF77FF84FF48050E4
:1032B000079007A92948FEF7CFFD08B1FDF775F87B
:1032C0002648FEF75EFF08B1FDF76FF80B950BA9D6
:1032D00022480C95FEF7B4FC08B1FDF766F86020B3
:1032E000CDE900050295042269461C480495FEF7C5
:1032F000E2FE08B1FDF759F82068816921F4006108
:103300008161082269461548FEF7D5FE08B1FDF730
:103310004CF82068C16921F00801C1610C2269469E
:103320000E48FEF7C8FE08B1FDF73FF82068C169F6
:1033300021F40061C16104210848FEF751FF082112
:103340000648FEF74DFF0C210448FEF749FF0348ED
:10335000FEF78AFE0DB030BD00080040DC01002001
:1033600010B586B000241748009401940294039489
:1033700004941349059401604721C0E9011442F205
:103380000F71C0E903148461FEF798FC08B1FDF7E2
:103390000CF84FF48050009069460A48FEF75CFD37
:1033A00008B1FDF702F8049404A906480594FEF755
:1033B00047FC002801D0FCF7F8FF06B010BD000064
:1033C000000C0040240200201CB500240E4800948C
:1033D0000C49019401604721C0E9011440F2E73132
:1033E0008461C160FEF76AFC08B1FCF7DEFF00945F
:1033F000694605480194FEF723FC002801D0FCF73C
:10340000D4FF1CBD001000406C0200201CB500243D
:103410000E4800940C49019401604721C0E9011451
:1034200009218461C160FEF749FC08B1FCF7BDFFCA
:103430000094694605480194FEF702FC002801D07B
:10344000FCF7B3FF1CBD000000140040B4020020D4
:103450000C4810B50A4901604FF4E1314160002188
:1034600081600C22C160C0E904128161C161FFF773
:1034700001F9002803D0BDE81040FCF796BF10BD4D
:1034800000380140FC0200200C4810B50A490160D8
:103490004FF4E1314160002181600C22C160C0E93C
:1034A00004128161C161FFF7E5F8002803D0BDE88F
:1034B0001040FCF77ABF10BD0044004044030020D8
:1034C000FEE7000070B5154CE078012825D10025F5
:1034D000E5706078801EC1B2201DFFF729FD62787B
:1034E000A11C11440988657049BA884215D1207918
:1034F000352812D16079032807D0042809D006287E
:103500000BD1BDE8704000F037B8BDE8704000F066
:1035100007B8BDE8704000F01DB870BD2A0A002051
:103520000A490B488A7900F8602FCA7942700A7AF2
:1035300082704A7A82718A7AC271CA7A02720A7B6E
:10354000C272497B41720121C17370472A0A00206F
:10355000F60A002010B500224FF480710448FDF7F0
:10356000D8FC0022BDE8104004210248FDF7D1BC80
:1035700000080140001401401CB506A14FF47A7305
:10358000D1E90001CDE90001052269460348FFF7B2
:103590006DF91CBD0001020304000000440300207B
:1035A0002DE9F047DFF8DC9005463520032689F841
:1035B000000089F80160280A89F8020089F80350A0
:1035C000080A89F804000F4689F805104C46B046F1
:1035D00006214846FFF7ACFC010AA171E071082101
:1035E000484601F093FC01F0A3FC274CE078012849
:1035F0002BD108EB4700C1B2201DFFF799FC627880
:10360000A11C1144098849BA81421BD12F4417E0FB
:10361000052D11D2DFE805F003091B212F00A019A9
:10362000417989F8691019A004E0A019417989F855
:103630006A101BA000F082FDB61C6D1CF6B2ADB284
:10364000AF42E5D80020E0706070BDE8F087A019B7
:10365000417989F86B1017A0ECE7A019417989F836
:103660006C10027989F86D2017A000F067FD99F8B9
:103670006D101AA0DEE7A019417989F86E101CA020
:10368000D8E70000F60A00202A0A002076616C754F
:103690006531206973203078253032780D0A0000BA
:1036A00076616C7565332069732030782530327807
:1036B0000D0A000076616C756535206973203078DD
:1036C000253032780D0A000076616C756537206907
:1036D00073203078253032780D0A000076616C75E1
:1036E0006538206973203078253032780D0A000063
:1036F00076616C75653920697320307825303278B1
:103700000D0A00002DE9F041DFF80C810546352057
:1037100088F80000042088F80100280A88F80200D0
:1037200088F80350080A88F804000F4688F8051046
:103730000326444606214046FFF7FAFB010AA17121
:10374000E0710821404601F0E1FB01F0F1FB334C50
:10375000E07801283CD1032000EB4700C1B2201DD6
:10376000FFF7E6FB6278A11C1144098849BA81423F
:103770002BD12F4427E0052D21D2DFE805F00311DE
:103780002B394700A019417988F86010027988F830
:10379000612023A000F0D2FC98F8611025A00CE075
:1037A000A019417988F86210027988F8632026A070
:1037B00000F0C4FC98F8631028A000F0BFFCB61C11
:1037C0006D1CF6B2ADB2AF42D5D80020E07060708B
:1037D000BDE8F081A019417988F86410027988F871
:1037E000652023A000F0AAFC98F8651025A0E4E766
:1037F000A019417988F86610027988F8672026A018
:1038000000F09CFC98F8671028A0D6E7A019417931
:1038100088F868102AA0D0E7F60A00202A0A0020BB
:1038200076616C7565312069732030782530327887
:103830000D0A000076616C7565322069732030785E
:10384000253032780D0A000076616C756533206989
:1038500073203078253032780D0A000076616C755F
:103860006534206973203078253032780D0A0000E5
:1038700076616C7565352069732030782530327833
:103880000D0A000076616C7565362069732030780A
:10389000253032780D0A000076616C756537206935
:1038A00073203078253032780D0A000076616C750F
:1038B0006538206973203078253032780D0A000091
:1038C00076616C75653920697320307825303278DF
:1038D0000D0A000070B5254C0E46352121700621D9
:1038E0006170010AA1700025E070D3B205280BD2E7
:1038F000DFE800F003062F32390084F8693001E078
:1039000084F86A302571637106211848FFF710FBAF
:10391000010AA171E0710821144801F0F7FA01F0E1
:1039200007FB134CE078012812D1032000EB46007E
:10393000C1B2201DFFF7FCFA6278A11C114409886E
:1039400049BA814202D10BA000F0F8FBE570657026
:1039500070BD84F86B30D5E784F86C30100A84F8B9
:103960006D002071CFE784F86E30CBE7F60A0020B7
:103970002A0A00207265706C792073756363657321
:1039800073200D0A00000000FEE770470148FDF7B4
:10399000A3BE0000600000200A460146FF23014844
:1039A000FEF710B8600000200A4601460148FEF705
:1039B000BDB80000600000200148FDF78DBE00008A
:1039C000B800002010B5406A0021C187C186FDF70C
:1039D00081FE10BD10B5406A01684A6822F00302FA
:1039E0004A60416D41F010014165012180F851109C
:1039F000FDF770FE10BD10B5406AFEF709F910BD65
:103A000038B50546446AFDF789FA02462868006819
:103A1000800623D42068416821F02001416020689D
:103A2000416821F0020141606421204600F01AF84B
:103A300018B1606D40F020006065A068002118B9E1
:103A40002068C26880680090E186012084F85100F7
:103A5000606D18B12046FDF73DFE38BD2046FEF7EB
:103A6000CBF838BDF8B515460E460B460092044615
:103A70000122022100F010F840B9334600228021D3
:103A80002046009500F008F8002804D0606D40F052
:103A9000200060650320F8BD2DE9F8431E469146DD
:103AA00088460446089DFDF739FA401B351AFDF794
:103AB00035FA074625480068C0F3CB30684338E044
:103AC000701C37D0FDF72AFAC01BA84203D215B1EB
:103AD000009860B32CE02068416821F0E00141606B
:103AE0006068B0F5827F0BD1A068B0F5004F02D0BE
:103AF000B0F5806F04D12068016821F040010160B9
:103B0000A06AB0F5005F09D12068016821F4005176
:103B100001602068016841F400510160012084F8CF
:103B20005100002084F850000320BDE8F8830025F0
:103B3000401E00902068816838EA010004D000210E
:103B40004945BDD10020F0E70121F9E7140000202C
:103B50007047FDF7E9B930B595B028216846FCF704
:103B60001CFB14210AA8FCF718FB18210FA8FCF76E
:103B700014FB01210804CDE9001000250295022460
:103B80000491CDE907404FF4E01009906846FDF735
:103B900011FC08B172B6FEE70AA90F2081E83100D6
:103BA0004FF48060CDE90D0502210AA8FDF726FB40
:103BB00008B172B6FEE74FF4004011900F940FA8C1
:103BC000FDF7A6FA002801D072B6FEE715B030BDA9
:103BD000704700000148FEF7AEB900002402002043
:103BE0000148FEF7A8B900006C0200200148FEF76A
:103BF000A2B90000B4020020F0B50268204C214DAB
:103C0000214E224F224B4FF0804CA04209D09842C7
:103C100007D0604505D0A84203D0B04201D0B842D9
:103C200004D122F0700E4A6842EA0E02A04209D086
:103C3000984207D0604505D0A84203D0B04201D0D9
:103C4000B84203D122F44075CA682A434D6922F074
:103C500080022A4302608A68C2620A688262A042C5
:103C600001D0984201D109690163012141610169D3
:103C7000C90703D0016921F001010161F0BD000015
:103C8000002C01400004004000080040000C0040EF
:103C90000034014010B501F01F030121046A99406E
:103CA0008C430462016A9A401143016210BD10B551
:103CB000846842EA032224F47F440A432243826058
:103CC00010BD826822F070020A4342F00701816051
:103CD00070470000F0B5036A026A22F00102026236
:103CE00042688469124E24F073050C682C4323F05B
:103CF00002058B682B430D4DA84201D0B04205D17F
:103D000023F00807CB683B4323F00403A84201D00B
:103D1000B04205D14D6922F4407215438A692A43A5
:103D200042608461496841630362F0BD002C014038
:103D300000340140F0B5026A036A23F01003036205
:103D4000436884690D6824F4E64444EA05248D68D8
:103D500022F0200242EA05120F4D104EA84201D077
:103D6000B04206D1CF6822F0800242EA071222F068
:103D70004002A84201D0B04207D14D6923F440630C
:103D800043EA85038D6943EA85034360846149689A
:103D900081630262F0BD0000002C0140003401404C
:103DA000F0B5026A036A23F4807303624368C4694E
:103DB00022F4007224F073050C68124E2C438D68B7
:103DC00042EA05220E4DA84201D0B04206D1CF688A
:103DD00022F4006242EA072222F48062A84201D063
:103DE000B04207D14D6923F4405343EA05138D696E
:103DF00043EA05134360C4614968C1630262F0BDD0
:103E0000002C01400034014030B5046A026A22F4FB
:103E1000805202624268C3690D6823F4E64343EAB4
:103E200005238D6824F4005444EA0534084DA84263
:103E300002D0084DA84204D14D6922F4804242EAE2
:103E400085124260C36149680164046230BD0000AC
:103E5000002C01400034014010B5036A046A24F0CC
:103E600001040462846924F0F00444EA021423F09B
:103E70000A020A438461026210BD10B5036A046A33
:103E800024F010040462846923F0A00324F4704435
:103E900044EA023243EA01118261016210BD10B5A9
:103EA000406A0021C185C184FEF7ACFA10BD0168EB
:103EB0000C3151E8002F22F4907241E80023002BCE
:103EC000F5D10168143151E8002F22F0010241E8D8
:103ED0000023002BF5D1016B012909D101680C31B8
:103EE00051E8002F22F0100241E80023002BF5D109
:103EF000202180F8421000210163704708B590F836
:103F00004210222901D0022008BD82684FF480535C
:103F10009A4201D1016921B1816A9A421BD04AB10A
:103F20000AE00268816A5268C2F308020A80816A64
:103F3000891C08E0026972B10268526802F07F02CF
:103F40000A70816A491C8162C18D491E0904090CED
:103F5000C18503D01BE002685268F1E70168CA68B6
:103F600022F02002CA600168CA6822F48072CA6026
:103F700001684A6922F001024A61202180F842105A
:103F800000214163026B012A03D0FEF74BFC0020A5
:103F900008BD016301680C3151E8002F22F01002C6
:103FA00041E80023002BF5D101680A68D20602D54A
:103FB0000A6849680091818DFEF723FAE7E700005F
:103FC00070B5044600680169E26821F4405111436C
:103FD00001612169A0680843616908432168CA68D2
:103FE00041F20C639A430243CA6020684169A269A6
:103FF00021F44071114341611E492068884202D179
:10400000FDF7A2F901E0FDF78FF900EBC00101EB2C
:104010000012606864218000B2FBF0F3B3FBF1F39F
:104020006FF018067343B2FBF0F5B2FBF0F605EB48
:104030008305322303EB0515B5FBF1F5B6FBF1F66D
:1040400005F0F00505EB0615B2FBF0F6B2FBF0F05B
:10405000B0FBF1F06FF01802504306EB800003EB69
:104060000010B0FBF1F0216800F00F0028448860D8
:1040700070BD00000038014081628285C285002148
:104080004164222180F84210016921B10168CA68A7
:1040900042F48072CA6001684A6942F001024A61D2
:1040A0000068C16841F02001C160002070472DE91F
:1040B000F843984617460D460446089E24E0701CB7
:1040C00022D0FCF72BFFA0EB0800B0421AD8CEB1EB
:1040D0002068C168490717D5802D15D0402D13D011
:1040E0000168C94309070FD40168002540680090A2
:1040F0002046FFF7DCFE0820606484F84050012071
:10410000BDE8F8830320FBE72068006835EA00007B
:1041100004D00020B842D2D00020F1E70120F9E716
:104120000148FEF771B90000FC0200200148FEF7CB
:104130006BB9000044030020FEE770470FB4054B45
:1041400010B503A9044A029800F028F810BC5DF8E5
:1041500014FB0000714600082C0000200907090E1E
:10416000002804DB00F1E02080F80014704700F024
:104170000F0000F1E02080F8141D704702E008C82D
:10418000121F08C1002AFAD170477047002001E0D1
:1041900001C1121F002AFBD1704700002DE9FF4F1B
:1041A0008DB00F460546002606E025280BD0DDE938
:1041B0000F1290476D1C761C28780028F5D111B09D
:1041C0003046BDE8F08F0024A246A1460122E9490D
:1041D00000E0044315F8013F203B02FA03F00842D7
:1041E000F7D128782A2810D06FF02F022878A0F174
:1041F0003001092914D80AEB8A0102EB410144F08D
:10420000020400EB010A6D1CF0E701CF5FEA000A2F
:1042100003D544F40054CAF1000A44F002046D1CB2
:1042200028782E2817D115F8010F44F004042A2805
:104230000ED06FF02F022878A0F1300109290AD89A
:1042400009EB890102EB410100EB01096D1CF2E76A
:1042500057F8049B6D1C28786C280FD006DC4C287E
:1042600017D068280DD06A2814D104E0742810D023
:104270007A280FD10DE044F400140AE044F48014CD
:1042800001E044F440146978814202D104F58014BD
:104290006D1C6D1C28786E281ED00CDC632830D075
:1042A00004DC00288BD0582811D19FE0642867D007
:1042B00069280CD164E073282DD004DC6F2872D0FB
:1042C000702804D194E075286ED078286DD0DDE98F
:1042D0000F129047761C4BE1C4F30250022806D01F
:1042E000032809D0042801CF09D0066040E101CF9E
:1042F000F117C0E900613BE101CF068038E10670AB
:1043000036E117F8040B8DF8000000208DF801004D
:10431000EB46012003E057F804BB4FF0FF30610784
:104320004FF0000102D40DE008F101018846494533
:104330000FDA8045F8DB1BF808100029F4D108E0FB
:1043400008F1010188468142FADB1BF808100029B8
:10435000F6D1DDE90F23AAEB08008146214600F0E3
:1043600031F9304400EB080604E0DDE90F121BF8D8
:10437000010B9047B8F10108F7D221464846F2E018
:104380000A21C4F302524FF0000B0891022A04D014
:1043900001CFC117032A09D00AE0FF1D27F0070744
:1043A000F7E8020108E02CE01EE01FE000B2C117B0
:1043B000042A01D140B2C117021E71F1000206DACF
:1043C0000023D0EB030063EB01012D2202E0220564
:1043D00004D52B228DF82420012203E0E20701D02E
:1043E0002022F7E7904653E00A210BE0102109E074
:1043F00010214FF0000B44F004044FF0080908911D
:1044000003E008214FF0000B0891C4F30252022A86
:1044100004D001CF0021032A06D006E0FF1D27F0BB
:104420000707F7E8020103E080B2042A00D1C0B216
:104430004FF0000822072BD52A78702A07D0DDF824
:1044400020C08CF0100C5CEA0B0C05D00EE0402272
:104450008DF82420012208E050EA010306D0302321
:104460008DF824308DF8252002229046089B83F099
:10447000080353EA0B030BD150EA010201D1620792
:1044800006D530228DF824204FF00108A9F101094A
:104490002A78582A04D038A20B9208AA0A920BE074
:1044A0003AA2F9E75B46089AFBF782FE0B9B9B5CFE
:1044B0000A9A521E0A92137050EA0102F2D10A9827
:1044C000ADEB000000F1200B600702D524F480342E
:1044D00001E04FF00109D94502DDA9EB0B0000E036
:1044E000002000EB0B0141440890AAEB010AE00315
:1044F00006D4DDE90F232146504600F063F8064458
:104500004FF0000908E009A911F80900DDE90F12D0
:10451000904709F10109761CC145F4DBE0030CD595
:10452000DDE90F232146504600F04CF8064404E034
:10453000DDE90F1230209047761C0899481E08903C
:104540000029F5DC08E00A980A990078491C0A91CC
:10455000DDE90F129047761CBBF10001ABF1010BB6
:10456000F1DC21465046DDE90F2300F019F806443E
:104570006D1C21E6092801003031323334353637DD
:10458000383961626364656600000000303132339F
:10459000343536373839414243444546000000003F
:1045A0002DE9F041044600251E461746880404D430
:1045B00005E039462020B0476D1C641EF9D5284619
:1045C000BDE8F0812DE9F041044600251E469046E5
:1045D000C80301D5302700E02027880404D505E072
:1045E00041463846B0476D1C641EF9D52846BDE8E3
:1045F000F08100001CB511484FF6FF714FF49A721C
:1046000004780F4841F21C43012C40790BD001285B
:104610000DD00C48CDE90003272342226421F2206B
:10462000FEF736FC1CBD012801D00748F2E70091D7
:104630008B236421F220FEF737FA1CBD14040020FE
:10464000190000203C8D00082079000842F2283132
:1046500048434FF0E02148610020886101220A614F
:104660000A69D30701D0D203FAD50861886170477F
:1046700013B54FF6FF73012269460248FEF7F6F8BC
:1046800000981CBD440300200C48012101704170BA
:10469000092181700521C170042101713721417107
:1046A0002C2181712121C171054800210622417010
:1046B0008170C270017141717047000014040020C4
:1046C000190000202DE9FE4FB34C012900D0002134
:1046D0006170A17801296FD16179DFF8C0B2C1F1B1
:1046E0000101AF4FDFF8BC82AF4D61714FF6FF762D
:1046F0004FF400694FF0180A0B2830D007DC072868
:104700005AD2DFE800F05919A0A5AADCF100A449AB
:1047100029280A88A349098872D004DC0C284CD0C7
:104720000D28D8D16EE04FF00C0B4FF48C7A332863
:1047300067D03428CFD106E100F054FC607901281D
:1047400006D02023CDE900B938211A46FA2090E09E
:10475000572338214FF48D72FA2000962AE0CDE9D4
:1047600000B920231A463821FA20FEF791FB398838
:10477000B8F80020CDF800A0CDE90121B9464746A0
:10478000EA7903234121B320FEF748FB6079012831
:104790000BD0B9F800103A88CDF800A0CDE901217E
:1047A000032341216A791F2021E05923432241211B
:1047B0001F200096FEF778F9E9E0CDF800A0CDE9DA
:1047C0000112B94657466A79032341211F20FEF79B
:1047D00025FB607901280DD0B9F80010B8F8000069
:1047E0000097CDE90101AA79032341216920FEF751
:1047F00015FBCCE059238D22412169200096D9E791
:1048000040E072E0CDF800A0CDE90112B94657466C
:10481000AA79032341216920FEF700FB6079012872
:104820000BD0B9F80010B8F800000097CDE90101ED
:1048300003234121EA79B320D9E75923D722412123
:10484000B3200096B6E700F0CDFBFFF7D3FE9EE065
:1048500000F0C8FB00F0A6FA99E000F0C3FB607915
:10486000012809D05149CDE9001920231A46A62173
:104870005E20FEF70DFB8AE0C6237E22A6215E2085
:10488000009697E74949CDE9001920231A46A62149
:104890005E20FEF7FDFA607901280AD03A88B8F860
:1048A000001020208DE807000123A521AA78872089
:1048B0009DE7C5239722A521872000967AE700F07F
:1048C00091FB6079012809D04FF4BD613848CDE9EA
:1048D000000115232422AC21B420CAE7C123D82229
:1048E000AC21B420009665E74FE04FF4BD6130483D
:1048F000CDE9000115232422AC21B420FEF7C8FA2B
:104900003988B8F80000CDF800B0CDE90101B9460A
:104910005F462A790123C4215046FEF77FFA607969
:1049200001280AD0B9F80010B8F800000097CDE9C6
:1049300001010123EA78A8211EE0B4234FF490720C
:10494000A82100961FE0CDF800B0CDE90112B946CC
:104950005F46EA780123A8215046FEF75FFA6079A6
:1049600001280BD0B9F80010B8F800000097CDE985
:1049700001012A790123C421504638E7D0234FF49E
:104980009072C4210096504614E700F02BFB0020E3
:10499000A070BDE8FE8F0000190000202071000803
:1049A00024000020220000201404002058B1000838
:1049B00058B900080648012100228171C171054BD8
:1049C000427282721A710622DA700170704700001A
:1049D0001E0A0020190000202DE9F04121A0FFF758
:1049E000ADFB0122234FD60231463846FCF791FA3F
:1049F000214801250570214C6079012819D1607A80
:104A00000022062800D162721D48C1780B291BD0F4
:104A10000C291BD00D291BD033291BD034291BD0C6
:104A200029291CD0617A491C6172C1700571A2717B
:104A3000E27125729620FFF709FE31463846BDE83F
:104A4000F0410022FCF765BA0C2106E00D2104E0DC
:104A50000B2102E0342100E03321C170E9E7FFF7C8
:104A6000A9FFE6E76B657931207072657373200DDD
:104A70000A000000000801402B0000201E0A002050
:104A800019000020FEB52AA0FFF758FB01222C4F89
:104A9000D60231463846FCF73CFA2A4D2A4C287992
:104AA00078B9A078294B401CC2B22949A2701B8852
:104AB000098820208DE80B000123A5218720FEF71F
:104AC000ADF924488079012826D1E878292818D022
:104AD00006DC0B2809D00C280BD00D281CD10CE0CB
:104AE000332812D0342817D113E06079401C60714C
:104AF00012E0A079401CA0710EE0E079401CE0714A
:104B00000AE0A078401CA07006E0E078401CE0704D
:104B100002E02079401C20719620FFF797FD03B03A
:104B200031463846BDE8F0400022FCF7F2B90000FB
:104B30006B657932207072657373200D0A00000076
:104B40000008014019000020140400202400002067
:104B5000220000201E0A0020FEB52BA0FFF7EEFA6F
:104B600001222D4FD60231463846FCF7D2F92B49A7
:104B7000012008702A4D2B4C287978B9A0782A4B4F
:104B8000401EC2B22949A2701B88098820208DE8E6
:104B90000B000123A5218720FEF740F92448C079A6
:104BA000012826D1E878292818D006DC0B2809D05E
:104BB0000C280BD00D281CD10CE0332812D034283F
:104BC00017D113E06079401E607112E0A079401E99
:104BD000A0710EE0E079401EE0710AE0A078401E6E
:104BE000A07006E0E078401EE07002E02079401EF0
:104BF00020719620FFF72AFD03B031463846BDE804
:104C0000F0400022FCF785B96B657933207072653E
:104C10007373200D0A000000000801402B000020E3
:104C2000190000201404002024000020220000208D
:104C30001E0A00202DE9F04125A0FFF77FFA01228E
:104C4000274DD40221462846FCF763F92548012365
:104C500003702549254A087930B1907A401CC0B2CA
:104C60009072022802D008E0537026E00020907273
:104C7000507208710620C8701370107A01281CD178
:104C8000CE781B48062E18D2DFE806F01703050A77
:104C900011130B200EE00178C1F10101017003E056
:104CA0004178C1F101014170FFF784FE05E0292040
:104CB00000E03320C8709371D3719620FFF7C6FCD3
:104CC00021462846BDE8F0410022FCF722B9000049
:104CD0006B657934207072657373200D0A000000D3
:104CE000000801402B000020190000201E0A0020AF
:104CF0001404002006480121017041718171C171C5
:104D00000021017241704180417281727047000040
:104D10001E0A002070B521490979012918D1204DBA
:104D200049022846FCF7F0F80446A9152846FCF786
:104D3000EBF844EA400480212846FCF7E5F844EA11
:104D4000800440212846FCF7DFF844EAC000C0B2E6
:104D500007280CD00B2811D00D2816D00E281BD1F7
:104D6000C820FFF773FCBDE87040FFF763BFC820A1
:104D7000FFF76CFCBDE87040FFF72EBEC820FFF7C0
:104D800065FCBDE87040FFF77DBEC820FFF75EFC04
:104D9000BDE87040FFF7E0BE70BD00001E0A0020B5
:104DA000001001401CB511484FF6FF714FF400622E
:104DB00043780F48012B40790BD001280DD00D48C6
:104DC000CDE9000220231A46A6211846FEF760F816
:104DD0001CBD012801D00848F2E70091C6234022FB
:104DE000A6212020FDF760FE1CBD00001404002059
:104DF0001900002058A9000858A10008FCF79CF8E9
:104E0000FEF7A9FEFEF738F9FEF700F9FEF720FBE2
:104E1000FEF7A8F8FEF738FBFEF72AFAFEF7E2F9EC
:104E2000FEF704FAFEF7D0FAFEF7F0FAFEF798FA6A
:104E30002C48FBF7BDFA2C48FCF7C0FF2B48FCF7C9
:104E4000BDFF2B48FCF7BAFF012202212948FCF7DD
:104E500060F829480026C6704670011D01222748C7
:104E6000FDF7D2FCFDF760FEFFF767F94B22C82380
:104E70001146642000F098F8462000F07DF84FF6C7
:104E8000FF70FDF763FDFF2303220221042000F0E1
:104E9000ABFAFFF72FFFFFF7F7FB00F043F9184DD0
:104EA000184C194F85F86F60FEF70CFB95F86F00F2
:104EB000012803D100F0D8FA85F86F6060780128E6
:104EC00002D1667000F0ACFA2078012802D100F01F
:104ED00089F826703979F878FFF7F4FBFFF71AFFA5
:104EE000E2E7000030000020240200206C020020D5
:104EF000B4020020000801402A0A002044030020D8
:104F0000F60A00201E0A0020190000200A4610B5EB
:104F100001464FF47A730548FDF7A8FC0348006882
:104F20000168C9434906FBD410BD000044030020BA
:104F300070B54FF496740A4D04E0641EA4B20120CB
:104F4000FFF784FBE878012802D0002CF5D102E0BD
:104F50000CB1012070BD03A0FFF7F0F8002070BD78
:104F60002A0A002072656365697665206572726F32
:104F700072200D0A0000000010B5040008480BD094
:104F8000FCF71CFFC4F16400532148430A2190FB45
:104F9000F1F00449488010BDBDE81040FCF744BF63
:104FA000B40200202600002070B50C4CB4FBF3F3D3
:104FB0000B4C5B1E2568EB6258436425B0FBF5F093
:104FC0002668B0635943B1FBF5F02168C8635A43C2
:104FD000B2FBF5F02168086470BD000040420F008C
:104FE000DC0100202DE9FE43444C41F21C402178B5
:104FF00001297FD04249CDE90010272342226421B4
:10500000F220FDF745FF60784FF40065012873D06A
:105010003C48CDE9000520231A46A6211846FDF795
:1050200037FF3948CDE9000520231A463821FA20F8
:10503000FDF72EFF3548CDE9000520231A46A621AD
:105040005E20FDF725FF4FF4BD613148CDE9000139
:1050500015232422AC21B420FDF71AFF2D4D2E4E2E
:105060001827288831880097CDE901106279032339
:1050700041211F20FDF7D2FE288831880097CDE915
:105080000110A279032341216920FDF7C7FE28887A
:1050900031880097CDE90110E27903234121B32043
:1050A000FDF7BCFE2A88318820208DE80700A27811
:1050B0000123A5218720FDF7B1FE288831880C2720
:1050C0000097CDE901104FF48C78E2780123A821F4
:1050D0004046FDF7A3FE288831880097CDE90110EE
:1050E00022790123C4214046FDF798FEBDE8FE83E6
:1050F00000E001E009497EE709488AE7140400203E
:105100003C8D000858A900082071000858B100081B
:1051100058B900082400002022000020207900084F
:1051200058A100082DE9FE4340F2CC61A348CDE927
:1051300000011E231D2203210F20FDF7A9FE4FF4BD
:10514000E1649F48CDE900041E231A4603212D2067
:10515000FDF79EFE9B4DCDE900541E231A465C21AF
:105160002E20FDF795FECDE900541E231A465C2142
:105170007820FDF78DFE05F5E160CDE900041E23E2
:105180001A465C21C220FDF783FE4FF4006405F54A
:105190006160CDE9000420231A463821FA20FDF78A
:1051A00077FE41F21C418848CDE9000127234222C5
:1051B0006421F220FDF76CFE8448CDE90004202331
:1051C0001A46A6211846FDF763FE8148CDE9000482
:1051D00020231A46A6215E20FDF75AFE4FF4BD613A
:1051E0007C48CDE9000115232422AC21B420FDF731
:1051F0004FFE48F2304424234FF49B752A4619464B
:105200000A200094FDF7CEFB44F2BF309A230090B1
:1052100040F21D1219462320FDF7C4FBD2232A4673
:1052200019460A200094FDF7BDFB6B4C6B4D0C2317
:1052300021882888CDE90001462232213820FDF757
:1052400057FD21882888CDE900010C234D22322109
:105250008220FDF74DFD21882888CDE900010C232F
:1052600052223221CC20FDF743FD208829881826C0
:105270000096CDE90110DFF868910323412199F8E8
:1052800005201F20FDF7CAFD40F27237DFF8548178
:10529000CDE9008715231A4643214520FDF7F8FD87
:1052A000208829880096CDE9011099F8062003236B
:1052B00041216920FDF7B2FDCDE9008715231A468B
:1052C00043218F20FDF7E4FD208829880096CDE951
:1052D000011099F8072003234121B320FDF79EFD1B
:1052E000CDE9008715231A464321D920FDF7D0FDCB
:1052F000208829880096CDE90110032340F29A22E4
:105300007D211F20FDF78AFDCDE9008715231A4670
:105310007F214520FDF7BCFD208829880096CDE936
:105320000110032340F22B227D216920FDF776FD39
:10533000CDE9008715231A467F218F20FDF7A8FDB0
:10534000208829880096CDE9011003234FF4DE72EE
:105350007D21B320FDF762FDCDE9008715231A46B4
:105360007F21D920FDF794FD2288298820208DE80F
:10537000070099F802200123A5218720FDF74EFDA3
:10538000208829880C260096CDE901104FF48C77EF
:1053900099F803200123A8213846FDF73FFD208816
:1053A00029880096CDE9011099F804200123C42131
:1053B0003846FDF733FDBDE8FE8300003C5500088C
:1053C000085C0008106300083C8D000858A1000824
:1053D00058B1000858B9000824000020220000201D
:1053E0001404002040BF000830B414460D460328C2
:1053F00009D004280CD006280FD12146284630BCFD
:105400001A46FEF767BA284630BC1146FEF7C8B800
:10541000284630BC1146FEF775B930BC7047000015
:105420001CB50F4C207801280DD04FF6FF7000906E
:1054300021234B2203212D20FDF736FB2078C0F1DC
:10544000010020701CBD4FF4E1610648CDE9000168
:105450001E231A4603212D20FDF71AFDEEE700005A
:1054600018000020085C0008FEB50122022118483F
:10547000FBF74FFD0520FFF7E9F816A0FEF75EFEEB
:10548000174C184D1826208829880096CDE9011060
:10549000154F03237D2117F8602F1F20FDF7BEFC59
:1054A000208829880096CDE901107A7803237D2190
:1054B0006920FDF7B3FC208829880096CDE901100A
:1054C000BA7803237D21B320FDF7A8FCFEBD0000C0
:1054D000000801406765742068657265200D0A0048
:1054E0002400002022000020F60A00200348017852
:1054F0000029FCD00021017070470000200000202E
:10550000010202030405060708090A0B0C0D0E0F21
:105510001010010202030405060708090A0B0C0D0E
:105520000E0F101000000000000000000102030434
:10553000060708090000000001020304FFFFFFFF47
:10554000FFFFFFFFFFFFFFFFFFFFFFFFFFFEFFFF6C
:10555000FFFFFFFFFFFFFFFFFFFFFFFFFFDFFFDF9B
:10556000F7FFFFFFFFDFFFFFF7FFFFFFFFFFFFFF7B
:10557000FFFFFFFFFFFFFFFFFFFFFFFFFFFFFFFF3B
:10558000FFFFFFFFFFFFFFFFFFFFFFFFFFFFFFFF2B
:10559000FFFFFFFFF7FFF7FFFFFFFFFEF7FEFFDF55
:1055A000FFDFFFFFFFFFFFFFFFFFFFFFFFFFFFFF2B
:1055B000FFFFFFFFFFFFFFFFFFFFFFFFFFFFFFFFFB
:1055C000FFFFFFFFFFFFFFFFFFFFFFFFFFFFFFFFEB
:1055D000FFFEFFDFFFFFFFFFFFFFFFFFFFFFFFFFFC
:1055E000FFFFFFFFFFFFFFFFFFFFFFFFFFFFFFFFCB
:1055F000FFFFFFFFFFFFFFFFFFFFFFFFFFFFFFFFBB
:10560000FFFFFFFFFFDFFFDFFFFFFFFFFFFFFFDF0A
:10561000FFFFFFFFFFFFFFDFFFFFFFFFFFFFFFFFBA
:10562000FFFFFFFFFFFFFFFFFFFFFFFFFFFFFFFF8A
:10563000FFFFFFFFFFFFFFFFFFFFFFFFFFFFFFDF9A
:10564000FFFFFFFFFFFFFFDFFFDEFFFFFFFFF7FFB3
:10565000F7FEFFFFFFFFFFFFFFFFFFFFFFFFFFFF63
:10566000FFFFFFFFFFFFFFFFFFFFFFFFFFFFFFFF4A
:10567000FFFFFFFFFFDFFFFFFFFFFFFFFFFFFEBD9D
:10568000E31AD1B9D999DA19EC3BFF9FFFFFFFFF6D
:10569000FFFFFFFFFFFFFFFFFFFFFFFFFFFFFFFF1A
:1056A000FFFFFFFFFFFFFFFFFFFFFFFFFFFFFFFF0A
:1056B000FFFFF7FFFF7FFDDEE1F8D1D9D279F4BD1E
:1056C000DAD8D978D278FF7FFFFFFFFFFFFFFFFF17
:1056D000FFFFFFFFFFFFFFFFFFFFFFFFFFFFFFFFDA
:1056E000FFFFFFFFF7FFFFFFFFFFFFFEFFFFF5BD1F
:1056F000D1D6D219F65DFFFFFFDFFFFEFD3DC9B831
:10570000EBFCFFFFFFFFFFFFFFFFFFFFFFFFFFFFC0
:10571000FFFFFFFFFFFFFFFFFFFFFFFFFFFFFFDFB9
:10572000FFFFFFDEFFFEED9CD998DA19FEDDFFDFFB
:10573000FFFEFFFFFFFFFFFFE359D999FFDFFFFFE8
:10574000FFFFFFFFFFFFFFFFFFFFFFFFFFFFFFFF69
:10575000FFFFFFFFFFFFFFFFFFFEFFFFFFFFEDBDAE
:10576000D1F8D218FE9DFFFFFFFFFFDFF7FFFFFF1D
:10577000FFDFEC9CD1B8E6DCFFDFFFFFFFFFFFFFA0
:10578000FFFFFFFFFFFFFFFFFFFFFFFFFFFFFFFF29
:10579000FFFFFFDFFFFFFFFEF5DDD2D9FEDEFFFFDB
:1057A000FFFFFD9EFEFFFFDFFFFEFFFFEC5BD1B7BB
:1057B000EEFCFFFFFFFFFFFFFFFFFFFFFFFFFFFF0D
:1057C000F7FEFFFFFFFFFFFFFFFFFFFEFFDFFFFF13
:1057D000FFFFFFFFFFFFFFDFFFFFDC3AD1B8ECFB6D
:1057E000FFFFFFFEF77FE23AD298FFDFFFFFFFFFE8
:1057F000FFFFFFFFFFFFFFFFFFFFFFFFFFFFFFFFB9
:10580000FFFFFFFEFFFFEE7EEDBDFFDFFFFFFFFFAF
:10581000FFFEE41AE198DAB9FF7EFFFFFF9FE2B9CD
:10582000D998FDDDFFFFFFFFFFFFFFFFFFFFFFFF39
:10583000FFFFFFFFFFFFFFFFFFFFF7FFFFFFEDDCB5
:10584000D1D9DB59FFFFFFFFFFFEEC1BD999DAF737
:10585000FF9FFFFFF79FEA9BD1F8E43AFFFFFFFFAE
:10586000FFFFFFFFFFFFFFFFFFFFFFFFFFFFFFFF48
:10587000FFFFF7FFFF7FFDBDD1B8E1F8F6BFFFFFE7
:10588000F7FEEC1AC9B8EABAFF7FFFFFFFBFD2F9F3
:10589000D1B7E3FBFFFEFFFFFFFFFFFFFFFFFFFFAF
:1058A000FFFFFFFFFFFFFFFFFFFFFFFEFFFFFDBD4D
:1058B000D1D5D1F8FEBEFFFFFFFFE3FAE19AE2B8CF
:1058C000FFBEFFFFFFBFE399C9D8F3FBFFDFFFFE79
:1058D000FFFFFFFFFFFFFFFFFFFFFFFFFFFFFFFFD8
:1058E000FFFEFFFFFFFFF65DE197D219F6DCFFFF39
:1058F000FFFFE3FAD1B9DAD8FFBFFFDFFFFFFFBF39
:10590000DBF8F4BBFFDFFFFFFFFFFFFFFFFFFFFF41
:10591000FFFFFFFFFFFFF7FFFFDFFFDFFFFFFFFFDF
:10592000DAFAC9D7FEBEFFFFF7FFFE5FD9B7D2DABA
:10593000FF7FFFDEFFFFFFFFF7FFFF9FFFFFFFDFA0
:10594000FFDFF7FEFFFFFFFFFFFFFFFFFFFFFFFF90
:10595000FFFEFFFFFFFFF7DFFF3FD198EBFBFFFFED
:10596000FFFFFFFEF73FEC1AF7BEFFFFF79FE4399A
:10597000FEDEF7FFFFFFF7FEF7FFFFDFFFFFFFFF92
:10598000FFFFFFFFFFFFFFFFFFFFFFFEF7FFFFFE31
:10599000FFFFF65DD1B7ED1CFFDFFFDFFFFFFFFF6D
:1059A000FFDFF7FFFF5EDAFAD1B7F61DFFFFFFBE9C
:1059B000FFDFFFFFFFBFFFDFFFFFFFFFFFFFFFFF77
:1059C000FFFFFFFFFFFFFFFFF7FEFFFFFF3ED9993D
:1059D000EC5BF7FEFFFFF7FFF7FEFFFEFF9FE29B8A
:1059E000D1D7ED1EFFDFFFFFFFDFFFFFFFFFFFFF50
:1059F000FFFFFFDFFFFFFFFFFFFFFFFFFFFFFFDFF7
:105A0000FFFFF7FFFFFFFFFFDA79E219FE3FFFDE3E
:105A1000FFFFFFFFFF1FDABAE197E3DAFFFFF7FFAF
:105A2000FFFFFFFFFFFFFFFFFFFFFFFFFFDFFFFFA6
:105A3000FFFFFFFFFFFFFFFFFFFFFFFFFFFFFFDF96
:105A4000FFFEFE5ED1F7C9B7E2D9ECFDEBBAD19803
:105A5000D1B8E49BFFFFFFFFFFFFFFFFFFFFFFFF4A
:105A6000FFFFFFDFFFFFFFDFFFFFFFFFFFFFFFFF86
:105A7000FFFFFFFEFFDFFFFFFFFFFFFFF7FEF5DE8B
:105A8000E279D1D8D978D1B8DA37F59DFFFFFFFF99
:105A9000FFFFFFFFFFFFFFFFFFFEFFFFFFFFFFDF37
:105AA000FFFFFFFFFFFFFFFFFFFFFFFFFFFFFFFF06
:105AB000FFFFFFFFFFFFFFFFFFFFFFFFFE9EE5DB96
:105AC000E65CFF7FFFDFFFFFFFFFFFFFFFFFFFFF42
:105AD000FFFFFFFFFFFFFFFFFFFFFFFFFFFFFFFFD6
