:020000040800F2
:10000000780B00204901000823210008B9180008D6
:1000100021210008950200080926000800000000C0
:100020000000000000000000000000002522000881
:100030009702000800000000252100082722000880
:100040006301000863010008630100086301000800
:1000500063010008630100086301000863010008F0
:1000600063010008630100086301000863010008E0
:1000700063010008630100086301000863010008D0
:100080006301000863010008B5010008630100086E
:1000900063010008630100086301000863010008B0
:1000A00063010008630100086301000863010008A0
:1000B0006301000863010008630100086301000890
:1000C0006301000863010008630100086301000880
:1000D0006301000863010008630100086301000870
:1000E0006301000863010008630100086301000860
:1000F0006301000863010008630100086301000850
:10010000630100086301000863010008630100083F
:10011000630100086301000863010008630100082F
:10012000630100086301000863010008630100081F
:10013000DFF810D000F02CF80048004749260008EE
:10014000AFF30080780B0020064880470648004740
:10015000FEE7FEE7FEE7FEE7FEE7FEE7FEE7FEE777
:10016000FEE7FEE7A522000831010008D2B201E057
:1001700000F8012B491EFBD270470022F6E710B5AC
:1001800013460A4604461946FFF7F0FF204610BD05
:10019000064C074D06E0E06840F0010394E80700D4
:1001A00098471034AC42F6D3FFF7C6FF74730008CB
:1001B00094730008014800F05EB9000014000020AC
:1001C00070B5044600688168C943C90717D18168C2
:1001D00021F00101816000F0B9FB05460AE000BF93
:1001E00000F0B4FB401B022804D920688068C0439B
:1001F000C00706D020688068C043C007F0D0002048
:1002000070BDA06A40F01000A062E06A40F00100FA
:10021000E062012070BD0000F8B50026044600969B
:1002200000688168C943C9072DD0816841F0010188
:100230008160164816490068B0FBF1F000E0401EEE
:1002400000900028FBD100F081FB054616E000BFBE
:1002500000F07CFB401B022810D920688068C04356
:10026000C0070BD0A06A40F01000A062E06A40F026
:100270000100E06284F824600120F8BD20688068F5
:10028000C043C007E4D10020F8BD00000C000020EE
:1002900040420F00FEE7704772B6FEE7F8B5002552
:1002A0000446009590F8240001280BD0012084F822
:1002B00024002046FFF784FF2046FFF7ADFF06002D
:1002C00002D050E00220F8BDA06A20F4885040F02F
:1002D0000200A062022000F0D7FB25490968B1FBAB
:1002E000F0F0400000E0401E00900028FBD12068A4
:1002F000816841F00801816000F028FB074608E0B2
:1003000000F024FBC01B0A2803D92068806800077E
:1003100015D4206880680007F2D42068816841F015
:100320000401816000F012FB074612E000F00EFBB2
:10033000C01B0A280DD920688068400709D5A06A2B
:1003400020F0020040F01000A06284F82450012048
:10035000F8BD206880684007E8D4A06A20F0020059
:1003600040F00100A06284F824503046F8BD00003F
:100370000C00002070470000F8B50024009490F8AD
:1003800024202546012A12D0012280F824204A6820
:100390001F23072A0DD20668776B521E02EB8202DA
:1003A00093409F430B6893401F43776319E00220FB
:1003B000F8BD06680D2A0AD2376BD21F02EB820203
:1003C00093409F430B6893401F43376309E0F76AEC
:1003D0000D3A02EB820293409F430B6893401F4308
:1003E000F7620A68072306680A2A0AD3F7680A3AF6
:1003F00002EB420293409F438B6893401F43F76098
:1004000008E0376902EB420293409F438B689340B8
:100410001F4337610A68102A01D0112A20D1124BDC
:1004200002689A4217D193681B0219D4936843F467
:10043000000393600968102912D10C490C4A09681D
:10044000B1FBF2F101EB8101490000E0491E00918E
:100450000029FBD104E0816A41F02001816201247E
:1004600080F824502046F8BD002401400C000020F4
:1004700040420F00704770B5044600680668456842
:10048000A90625D5B10723D5A16AC90603D4A16A57
:1004900041F40071A1628168C1F34241072910D182
:1004A000217B71B9416821F020014160A06A20F4EC
:1004B0008070A062A06AC00403D4A06A40F001006A
:1004C000A0622046FFF7D6FF21686FF01200086097
:1004D00028062ED570072CD5A06AC00603D4A06AC2
:1004E00040F40050A06220688168C1F302310729FE
:1004F00009D04168490515D48168C1F342410729F3
:1005000010D1217B71B9416821F080014160A06A5E
:1005100020F48050A062A06AC00503D4A06A40F015
:100520000100A0622046FFF725FF21686FF00C0054
:10053000086068060CD5F0070AD0A06A40F4803045
:10054000A062204600F096F821686FF00100086074
:1005500070BD00002DE9F04104004FF000057FD090
:10056000A06A002628B9E66284F82460204600F0DC
:1005700083F82046FFF724FEA16AC90600D420B103
:10058000A06A40F01000A0626AE0A16A21F48851DC
:1005900041F00201A162334923688B42E16904D131
:1005A000B1F5402F01D14FF40021277B4FF4807C1F
:1005B00041EA470261680A43A168614508D0012900
:1005C00006D0002194F814E0BEF1010F02D00AE039
:1005D0006146F7E7C7B1A76A47F02007A762E76A55
:1005E00047F00107E7625F6827F469470F435F60E0
:1005F000236899681C4F394011439960A16861458F
:100600000BD0012909D00CE0DFF860E0A7690EEB00
:1006100047370F4347F40061E5E7218A0D05A5F54B
:1006200080152168CB6A23F470032B43CB622168C9
:1006300089680F4B1940914208D1E662A16A21F006
:10064000020141F00101A162BDE8F081A06A20F041
:10065000020040F01000A062E06A40F00100E06299
:100660000120F1E7003C0140FDF7E1FF00E0FFFF62
:10067000FE0E1FFF7047000010B586B000210091EC
:100680000191029103910068214988423ED121489D
:10069000816941F400718161816901F40071049103
:1006A000816941F010018161816901F010010491BB
:1006B000816941F004018161816901F004010491C3
:1006C000816941F0080181618069032400F008001C
:1006D00004900F20CDE9000469460F4800F034F87B
:1006E0005020CDE9000469460C4800F02DF80220A6
:1006F000CDE9000469460A4800F026F800221146B8
:10070000122000F08FF9122000F07EF906B010BD23
:100710000024014000100240001001400008014088
:10072000000C014070B5044600F010F90546601C4D
:1007300002D004480078044400F008F9401BA042AD
:10074000FAD370BD000000202DE9F84FDFF8C89102
:100750000024A9F1040B23460F2709F1040AABF189
:10076000040ED1E00125A54006EA0502AA4276D191
:10077000DFF8A8C14E68A6EB0C0866452BD00DDC4F
:10078000032E34D005DC36B3012E19D0022E2FD122
:100790001BE0112E16D0122E2AD119E0B8F5881FB1
:1007A00019D006DCB8F5803F15D0B8F5801F1FD1F1
:1007B00011E0B8F5001F0ED0B8F5041F18D10AE0FB
:1007C000CB6815E0CB681B1D12E0CB6808330FE047
:1007D000CB680C330CE08B682BB1012B4FF0080376
:1007E00003D0456104E0042302E0056100E000233A
:1007F000FF2A01D8064601E000F104064FEA84050D
:1008000001D9A5F12005D6F8008007FA05FC28EAF1
:100810000C0803FA05F548EA0508C6F800804D689B
:10082000ED0070D53E4DAE6946F00106AE61AD6992
:1008300024F0030605F0010500953A4D06EB050C82
:10084000DCF80850A607360F07FA06F825EA08056F
:10085000DFF8D480404503D14FF0000825E052E096
:10086000DFF8C880404502D14FF001081DE0DFF8F5
:10087000C080404502D14FF0020816E0DFF8B48096
:10088000404502D14FF003080FE0DFF8AC8040454F
:1008900002D14FF0040808E0DFF8A080404502D103
:1008A0004FF0050801E04FF0060808FA06F848EA9C
:1008B0000508CCF808804D68D9F80060ED024D4677
:1008C00001D5164300E096432E604D68DAF80060CB
:1008D000AD02554601D5164300E096432E604D68A3
:1008E000DBF80060AD035D4601D5164300E096439A
:1008F0002E604D68DEF80060ED03754601D51643A5
:1009000000E096432E60641C0A681646E2407FF4BD
:1009100029AFBDE8F88F0000080401400000111065
:10092000001002400000014000080140000C01409E
:10093000001001400014014000180140001C01405B
:100940000AB1016170470904FBE7000001488068B3
:1009500070470000000000200248816802781144BE
:100960008160704700000020074810B5016841F021
:1009700010010160032000F075F80F2000F006F868
:1009800000F024F8002010BD0020024070B50D4D8D
:1009900004464FF47A712878B1FBF0F00A490968EF
:1009A000B1FBF0F000F0E9FC48B9102C07D20022AE
:1009B0002146501E00F036F800206C6070BD01200A
:1009C00070BD0000000000200C0000200C4808B59D
:1009D000816941F001018161816901F001010091AA
:1009E000C16941F08051C161C06900F08050009040
:1009F0000448416821F0E06141F00071416008BDA8
:100A00000010024000000140002809DB00F01F0236
:100A1000012191404009800000F1E020C0F8001160
:100A200070470000F0B40E4B1B680C46C3F3022362
:100A3000C3F10705042D00D90425191D072901D28A
:100A4000002300E0DB1E012606FA05F1491E2140C5
:100A500099409E40761E16403143F0BC01F0D5BD52
:100A60000CED00E0064900F0070208684FF6FF03AE
:100A7000184040EA0220034A104308607047000013
:100A80000CED00E00000FA0510B501460020284CEE
:100A900004292FD00BDC012930D0022929D100F004
:100AA0006BF96168C1F38131491C49001FE00829D5
:100AB00020D010291DD161682268D20119D51D48A6
:100AC000C1F38342C903805C0AD56168194AC1F346
:100AD0004041921E515C184AB2FBF1F1484301E0DB
:100AE000164948436168490203D440000321B0FB22
:100AF000F1F010BDBDE8104000F04EB9226AC2F31B
:100B00000121012903D1920701D5C80310BD022993
:100B100005D1626A920702D549F6404010BD03290B
:100B2000FCD121688903F9D54FF2244010BD0000A3
:100B3000001002409827000800127A0000093D00CA
:100B40002DE9F84305460078354CC00754D0E069DC
:100B50000026C00008D4E06940F08050E061E06900
:100B6000012600F0805000902E480168C90512D47B
:100B70000168804641F480710160FFF7E7FE074697
:100B800005E000BFFFF7E2FEC01B642823D8D8F8B9
:100B90000000C005F6D5206A10F4407021D0A98865
:100BA00001F4407181421CD0206A1F49012220F4C7
:100BB00040700A6000220A602062C00711D0FFF76F
:100BC000C5FE074641F2883808E000BFFFF7BEFEC9
:100BD000C11B414502D90320BDE8F883206A800784
:100BE000F4D5206A696820F44070084320621EB181
:100BF000E06920F08050E0612878800705D56068C2
:100C0000A96820F44040084360602878C00605D5F4
:100C10006068696920F48000084360600020DBE7B9
:100C20000010024000700040400442422DE9F047AD
:100C30000F46050061D0434E306800F00700B8420F
:100C400009D2306820F0070038433060306800F087
:100C50000700B84251D128683B4C810712D54007A4
:100C600003D5606840F4E06060602878000703D531
:100C7000606840F4605060606068A96820F0F0002F
:100C8000084360602878C00728D06868012810D021
:100C90002168022810D0890700292EDA616821F026
:100CA000030101436160FFF751FE804641F288393C
:100CB0000DE021688903EFE78901EDE7FFF746FEC4
:100CC000A0EB0801494502D90320BDE8F087606820
:100CD000696800F00C00B0EB810FEFD1306800F0D4
:100CE0000700B8420BD9306820F007003843306065
:100CF000306800F00700B84201D00120E5E728780D
:100D0000400705D56068E96820F4E060084360604A
:100D10002878000706D56068296920F4605040EA09
:100D2000C100606000F038F86168084AC1F303113F
:100D3000515CC8400649086006480068FFF726FE77
:100D40000020C2E70020024000100240A82700084F
:100D50000C00002004000020044805490068496890
:100D6000044AC1F30221515CC84070470C000020C6
:100D700000100240B8270008044805490068496887
:100D8000044AC1F3C221515CC84070470C000020E6
:100D900000100240B82700080E4A51680E4801F0C2
:100DA0000C03042B11D0082B0FD10C48C1F3834343
:100DB000C903C05C0AD55168084AC1F34041921E7C
:100DC000515C054A5043B0FBF1F070470449484379
:100DD000704700000010024000127A0086270008C9
:100DE00000093D002DE9F84F040070D02078C04D77
:100DF000C00749D06868C0F38100012807D068683F
:100E0000C0F38100022809D16868C00306D52868AC
:100E1000800339D560680028E7D035E06068B0F518
:100E2000803F0BD010B1B0F5A02F11D0286820F46E
:100E300080302860286820F4802002E0286840F490
:100E400080302860606890B1FFF780FD06460AE0B8
:100E5000286840F480202860F0E700BFFFF776FDA7
:100E6000801B642873D828688003F7D50CE0FFF74F
:100E70006DFD064605E000BFFFF768FD801B642896
:100E8000F0D828688003F7D420789A4E80074FF076
:100E900001094FF0000839D5686810F00C0F07D031
:100EA0006868C0F38100022809D16868C00306D4CD
:100EB0002868800714D52069012808D110E020692E
:100EC000B0B1C6F80090FFF741FD074605E00AE122
:100ED000FFF73CFDC01B0228C4D828688007F7D55F
:100EE0002868616920F0F80040EAC10028600DE040
:100EF000C6F80080FFF72AFD074604E0FFF726FD4D
:100F0000C01B022823D828688007F7D42078000760
:100F10002CD57948A169D9B1C0F80090FFF716FD2A
:100F2000074604E0FFF712FDC01B02280FD8686ACD
:100F30008007F7D571484FF4FA510068B0FBF1F023
:100F4000009000BF0098411E0091FAD20EE080E0B0
:100F5000C0F80080FFF7FAFC074604E0FFF7F6FC54
:100F6000C01B022875D8686A8007F7D4207840072C
:100F700060D5E8690027C00008D4E86940F08050D7
:100F8000E861E869012700F0805000905C48016842
:100F9000C90513D40168834641F480710160FFF7ED
:100FA000D5FC824606E000BFFFF7D0FCA0EB0A00AC
:100FB00064284ED8DBF80000C005F5D5E0680128AC
:100FC0000AD008B1052813D0286A20F00100286251
:100FD000286A20F0040002E0286A40F0010028623C
:100FE000E06841F2883B98B1FFF7B0FC82460BE025
:100FF000286A40F004002862EEE700BFFFF7A6FC75
:10100000A0EB0A0159455AD8286A8007F6D50CE0AA
:10101000FFF79CFC824605E0FFF798FCA0EB0A0175
:1010200059454CD8286A8007F6D41FB1E86920F0EA
:101030008050E861E06988B36968C1F381010229E1
:1010400044D00228C6F8608004D0FFF77FFC044635
:1010500038E034E0FFF77AFC074604E0FFF776FC5F
:10106000C01B02282BD828688001F7D4206AB0F56D
:10107000803F05D16868A16820F4003008436860AB
:10108000D4E908010843696821F4741108436860D1
:10109000C6F86090FFF75AFC044606E025E000BF62
:1010A000FFF754FC001B022809D828688001F7D5F7
:1010B0001BE000BFFFF74AFC001B022802D90320F7
:1010C000BDE8F88F28688001F4D40EE00128F7D03D
:1010D0006868226A00F48031914204D1616A00F4A8
:1010E0007010884201D00120EAE70020E8E7000004
:1010F0000010024000004242800442420C000020E6
:101100000070004070B5040009D0606A002540B14D
:1011100025616561A56294F8510040B10CE00120A1
:1011200070BD6068B0F5827FF4D0E561F2E784F8C5
:101130005050204600F040F8022084F8510020680A
:10114000016821F040010160A088218900F48270CB
:1011500001F404410843A18901F400610843217CA2
:1011600001F002010843217D01F001010843218BB8
:1011700001F400710843217F01F03801084394F81D
:10118000201001F080010843218D01F40051084333
:1011900021680860A069042101EA104021684860C4
:1011A0002068C16921F40061C1616565012084F88E
:1011B0005100002070BD000000B585B000210091F5
:1011C00001910291039100680F4988421AD10F489A
:1011D000816941F480518161816901F480510491F8
:1011E000816941F0040181618069694600F0040071
:1011F0000490A02000900220019003200390044856
:10120000FFF7A2FA05B000BD003001400010024017
:10121000000801402DE9F84F984616468A460446D4
:10122000FFF794FB814694F8510001281ED1BAF1D2
:10123000000F73D0002E71D094F85000012815D003
:10124000012784F85070032084F85100002565655B
:10125000C4F830A0A686E686A563A587E587656401
:101260002564A068B0F5004F03D00CE00220BDE873
:10127000F88F2068016821F0400101602068016852
:1012800041F48041016020680168490603D4016887
:1012900041F040010160E068B0F5006F606803D084
:1012A00048B3012E27D047E008B1012E1FD1206B93
:1012B00021680088C86006E020688168890709D530
:1012C000216B0988C160206B801C2063E08E401E6A
:1012D000E0860CE0FFF73AFBA0EB0901414503D3A0
:1012E000B8F1FF3F03D035E0B8F1000F32D0E08E07
:1012F0000028E1D123E0206B21680078087306E024
:101300002068816889070AD5216B09780173206BF1
:10131000401C2063E08E401EE0860DE02BE0FFF7CE
:1013200015FBA0EB0901414503D3B8F1FF3F03D002
:1013300010E0B8F1000F0DD0E08E0028E0D14A4651
:101340004146204600F0F8FE08B120206065A06804
:1013500030B109E084F8517084F85050032086E7DA
:101360002068C1688068009084F8517004F8505F6C
:1013700060680028F3D0012079E710B5401EB0F175
:10138000807F01D3012010BD4FF0E02460610F2168
:10139000601701F03AF90020A061072020610020C9
:1013A00010BD000070B590F83C20012A2CD001241B
:1013B00080F83C40022280F83D2003685A689D680E
:1013C00022F070060A6832435A60104B02689A4253
:1013D0000ED00F4B9A420BD0B2F1804F08D00D4B7C
:1013E0009A4205D00C4B9A4202D00C4B9A4204D13F
:1013F000496825F080031943916080F83D40002141
:1014000080F83C10084670BD022070BD002C0140E1
:10141000003401400004004000080040000C00407F
:1014200010B5040003D094F83D0010B107E001208E
:1014300010BD002084F83C00204600F01FF8022078
:1014400084F83D00211D206800F02EFF012084F863
:10145000460084F83E0084F83F0084F8400084F899
:10146000410084F8420084F8430084F8440084F882
:10147000450084F83D00002010BD000008B500685C
:101480000649884208D10648C16941F00401C1619A
:10149000C06900F00400009008BD00000008004092
:1014A0000010024070B5044690F83C000025012869
:1014B00017D0012684F83C60022084F83D002068A3
:1014C000826822F0770222F47F4282600868502806
:1014D00038D00DDC20284FD005DC90B3102811D176
:1014E0004AE0022070BD302846D040280AD13BE0B7
:1014F00060282FD070280DD0B0F5805F03D0B0F5F4
:10150000005F12D0012584F83D60002084F83C0083
:10151000284670BDCB68D1E90121206800F01FFF8B
:101520002068816841F0770109E0CB68D1E90121A9
:10153000206800F014FF2068816841F480418160D8
:10154000E1E719E0CA684968206800F0DDFF502132
:10155000206806E0CA684968206800F0E6FF60215C
:10156000206800F006FFCEE7CA684968206800F0EE
:10157000CBFF40212068F4E7226801461046F0E7DF
:1015800000B585B00021009101910291039100689E
:101590000B49884212D10B48816941F008018161F1
:1015A0008069694600F0080004904FF46070009074
:1015B0000220019003900448FFF7C6F805B000BD73
:1015C0000008004000100240000C014070B50446C5
:1015D00090F83C0000260D4601280FD0012084F829
:1015E0003C006AB1042A1DD0082A2FD00C2A3FD013
:1015F0000126002084F83C00304670BD022070BDFA
:10160000206800F0BFFE2068816941F00801816117
:101610002068816921F004018161206881692A695B
:10162000114311E0206800F0DDFE2068816941F47B
:10163000006181612068816921F480618161206895
:1016400081692A6941EA02218161D2E7206800F0BC
:10165000FFFE2068C16941F00801C1612068C169CD
:1016600021F00401C1612068C1692A69114311E0B8
:10167000206800F021FF2068C16941F40061C16168
:101680002068C16921F48061C1612068C1692A694B
:1016900041EA0221C161ACE710B5040003D094F81F
:1016A0003D0010B107E0012010BD002084F83C008F
:1016B000204600F01EF8022084F83D00211D20681D
:1016C00000F0F2FD012084F8460084F83E0084F822
:1016D0003F0084F8400084F8410084F8420084F818
:1016E000430084F8440084F8450084F83D0000205D
:1016F00010BD704710B50446022249B104290ED02E
:10170000082913D094F84100012816D0012010BDFB
:1017100094F83E000128F9D184F83E200FE094F8B7
:101720003F000128F2D184F83F2008E094F84000FF
:101730000128EBD184F8402001E084F84120012207
:10174000206800F0FFFD13492068134A884201D049
:10175000904203D1436C43F40043436420688842C1
:101760000DD090420BD0B0F1804F08D00B49884289
:1017700005D00B49884202D00A49884204D18168C9
:1017800001F00701062903D0016841F00101016061
:10179000002010BD002C0140003401400004004036
:1017A00000080040000C004070B5040004D094F81C
:1017B0004100002510B106E0012070BD84F84050C2
:1017C000204600F023F8242084F841002068C168F6
:1017D00021F40051C160204600F0BAFE2068016982
:1017E00021F4904101612068416921F02A014161A1
:1017F0002068C16841F40051C1606564202084F80C
:10180000410084F842006563002070BD70B586B069
:1018100000240094019402940394234E0368234906
:1018200002200322224DB34219D18B6943F4804335
:101830008B618B6903F4804304938B6943F0040349
:101840008B618969039201F0040104910102CDE9E1
:10185000001069462846FEF777FF28151BE0154E55
:10186000B3421FD1CB6943F40033CB61CB6903F49E
:10187000003304938B6943F004038B6189690392FD
:1018800001F0040104910421CDE9001069462846C5
:10189000FEF75AFF0820CDE9000469462846029465
:1018A000FEF752FF06B070BD003801400010024044
:1018B0000008014000440040FEE72DE9F0410746E2
:1018C0001C4615460E462A2000F060FA380A00F041
:1018D0006BFAF8B200F068FA280A00F065FAE8B28C
:1018E00000F062FA2B2000F051FA300A00F05CFAA6
:1018F000F0B200F059FA200A00F056FAE0B200F017
:1019000053FABDE8F0412C2000F040BA70B5040A4B
:10191000C5B2002140F23F13EF220846FFF7CDFF8A
:101920000E4900204FF4407201F8104001EB4003D3
:10193000401C80B25D709042F6D3012240210848DD
:10194000FEF7FEFF00244FF4C0652946034800F06F
:1019500057F9641CA4B2642CF7D370BD7401002045
:10196000000801402DE9FC5F0746002514460320CE
:101970000E46A0EB440858E0A6EB0509A7EB040AC5
:101980001FFA89F11FFA8AF000F054F83819019013
:101990001FFA89F180B200F04DF8301981B2A7EB3F
:1019A000050B00901FFA8BF000F044F81FFA89F144
:1019B0001FFA8AF000F03EF8A6EB04091FFA89F13D
:1019C0001FFA8BF000F036F8019806EB050B1FFAB2
:1019D0008BF180B200F02EF81FFA89F107EB0509B0
:1019E0001FFA89F000F026F8009881B21FFA89F0FA
:1019F00000F020F81FFA8BF11FFA8AF000F01AF8B5
:101A00006D1CB8F1000F04DA08EB850000F1060840
:101A100005E0291B08EB810000F10A08641E30195B
:101A200081B2781980B200F005F8A542A4DDBDE8C6
:101A3000FC9F000010B50B460246FFF73EFF03482F
:101A40000088BDE8104000F0BDB900001000002083
:101A500010B56A4C002201212046FEF771FF0C20D0
:101A6000FEF760FE012211462046FEF769FF0C20BA
:101A7000FEF758FE112000F089F90C20FEF752FE07
:101A8000362000F083F9002000F08EF93A2000F0B3
:101A90007DF9652000F088F9B22000F077F90C207C
:101AA00000F082F90C2000F07FF9002000F07CF9B2
:101AB000332000F079F9332000F076F9B72000F0F8
:101AC00065F9722000F070F9BB2000F05FF93D204D
:101AD00000F06AF9C02000F059F92C2000F064F9F8
:101AE000C22000F053F9012000F05EF9C32000F09D
:101AF0004DF9192000F058F9C42000F047F92020D2
:101B000000F052F9C62000F041F90F2000F04CF926
:101B1000D02000F03BF9A42000F046F9A12000F00D
:101B200043F9E02000F032F9D02000F03DF9042024
:101B300000F03AF90D2000F037F9112000F034F9E7
:101B4000132000F031F92B2000F02EF93F2000F097
:101B50002BF9542000F028F94C2000F025F918202A
:101B600000F022F90D2000F01FF90B2000F01CF905
:101B70001F2000F019F9232000F016F9E12000F0F1
:101B800005F9D02000F010F9042000F00DF90C2028
:101B900000F00AF9112000F007F9132000F004F911
:101BA0002C2000F001F93F2000F0FEF8442000F066
:101BB000FBF8512000F0F8F82F2000F0F5F81F2076
:101BC00000F0F2F81F2000F0EFF8202000F0ECF811
:101BD000232000F0E9F8212000F0D8F8292000F0B7
:101BE000D5F8002140F23F13EF220846FFF765FECB
:101BF000BDE810404FF6FF70FFF788BE000C0140B3
:101C000000F092BA2DE9F05F203AD7B21C46F022DC
:101C1000A2EB540282425AD3C4F5A0728A4256D330
:101C20000A19521E93B200EB5402521E92B2FFF7F1
:101C300044FE3F4E102C1AD0202C18D00C2C48D02B
:101C4000182C44D13B4907EB47004FF0300A0024E1
:101C500001EB00194FEA060819F80460E00756D0B6
:101C600004270025300654D5B8F8000053E060077B
:101C700000D0012000EBD4006108484300F0FF08C9
:101C80002D48002500EB071A00F5BE5000EBC71BDE
:101C9000B1461AE0102C09D0202C18D11BF8056091
:101CA0000027300605D5B9F8000004E01AF80560F1
:101CB000F6E7B9F8020000F085F870067F1C060E02
:101CC000FFB2082FEDD36D1CEDB24545E2D3BDE860
:101CD000F09F1A4807EB47014FF00C09002400EB76
:101CE000810800BF18F804700025380601D5308837
:101CF00000E0708800F066F878066D1C070EEDB203
:101D0000062DF2D3641CE4B24C45EBD3DFE7082781
:101D1000A7E7B8F8020000F055F870066D1C060E33
:101D2000EDB2BD429ED3641CE4B2544594D3CEE7D9
:101D30001000002024320008342C0008C0270008BE
:101D40002DE9F047044600F0FF0910190D46DDE9C2
:101D500008A61FFA80F8581987B210E0444503D34B
:101D600005EB0A004C4685B2BD420DD253462946CA
:101D70002046FFF747FF04EB5A0084B2761C327806
:101D8000A2F120005E28E9D9BDE8F08701B5002264
:101D900040210448FEF7D4FD01216846FFF730FFDB
:101DA00008BD00000008014001B50122402104489F
:101DB000FEF7C6FD01216846FFF722FF08BD0000BF
:101DC0000008014008B500210091010A8DF80010BB
:101DD0008DF80100012240210348FEF7B1FD0221E8
:101DE0006846FFF70DFF08BD00080140FEB500255D
:101DF000324800950195304902950160891581604E
:101E0000057301240475072606614FF460214560BF
:101E1000C0E90641FEF79EFB08B1FEF73DFA042734
:101E2000009769462548CDE90145FEF7A5FA08B1B6
:101E3000FEF732FA06240220CDE9004069461F4829
:101E4000FEF79AFA08B1FEF727FA0920009003205E
:101E5000019069461948FEF78FFA08B1FEF71CFA9F
:101E60000A20CDE9000769461448FEF785FA08B153
:101E7000FEF712FA0B2000900520019069460F48EA
:101E8000FEF77AFA08B1FEF707FA0C20CDE9000454
:101E900069460A48FEF770FA08B1FEF7FDF90D2011
:101EA000CDE9000669460548FEF766FA002801D02C
:101EB000FEF7F2F9FEBD00000024014014000020EE
:101EC0002DE9F04F85B000242E480094019402942F
:101ED0000394816941F010018161816901F0100171
:101EE0000491816941F020018161816901F0200143
:101EF0000491816941F004018161816901F004016B
:101F00000491816941F0080181618069DFF878906E
:101F100000F0080041F602150490002229464846C8
:101F2000FEF70EFDDFF864A04FF47C7700223946FF
:101F30005046FEF705FDDFF858B04FF67D48002209
:101F400041465846FEF7FCFC009502260125039603
:101F5000CDE9015469464846FEF7F6FB0097039623
:101F6000CDE9015469465046FEF7EEFBCDF80080FE
:101F70000396CDE9015469465846FEF7E5FB05B0E6
:101F8000BDE8F08F00100240000801400010014041
:101F9000000C0140104810B50E4901604FF48271E9
:101FA0004160002102228160C0E903121202C0E9EF
:101FB00005121822C0E90721416281620A21C1622B
:101FC000FFF7A0F8002803D0BDE81040FEF764B981
:101FD00010BD0000003001404400002010B58EB05C
:101FE00000240794089409940A940B941C216846D1
:101FF0000C94FEF7C2F82D482B4901604721C0E937
:10200000011440F2E731C0E9031480218161FFF738
:1020100007FA08B1FEF740F94FF48050079007A97E
:102020002248FFF73FFA08B1FEF736F91F48FFF7DD
:1020300033FB08B1FEF730F90B940BA91B480C9445
:10204000FFF7B0F908B1FEF727F96020CDE90004E9
:10205000022002900422694604941448FFF7B6FA5D
:1020600008B1FEF719F9082269461048FFF7AEFAE1
:1020700008B1FEF711F90C2269460C48FFF7A6FAE1
:1020800008B1FEF709F904210848FFF733FB0821DE
:102090000648FFF72FFB0C210448FFF72BFB0348F2
:1020A000FFF76EFA0EB010BD000800409C00002043
:1020B0000C4810B50A4901604FF4E131416000213C
:1020C00081600C22C160C0E904128161C161FFF727
:1020D0006BFB002803D0BDE81040FEF7DDB810BD53
:1020E00000380140E40000200C4810B50A490160A6
:1020F0004FF4E1314160002181600C22C160C0E9F0
:1021000004128161C161FFF74FFB002803D0BDE8D5
:102110001040FEF7C1B810BD004400402C01002063
:10212000FEE7FEE7704700000A460146FF2301482C
:10213000FFF770B844000020F8B515460E460B4670
:10214000009204460122022100F010F840B9334603
:10215000002280212046009500F008F8002804D0D5
:10216000606D40F0200060650320F8BD2DE9F84364
:102170001E46914688460446089DFEF7E7FB401B35
:10218000351AFEF7E3FB074625480068C0F3CB305D
:10219000684338E0701C37D0FEF7D8FBC01BA8425C
:1021A00003D215B1009860B32CE02068416821F09B
:1021B000E00141606068B0F5827F0BD1A068B0F5A6
:1021C000004F02D0B0F5806F04D12068016821F083
:1021D00040010160A06AB0F5005F09D12068016884
:1021E00021F4005101602068016841F40051016050
:1021F000012084F85100002084F850000320BDE83D
:10220000F8830025401E00902068816838EA0100AC
:1022100004D000214945BDD10020F0E70121F9E7B4
:102220000C0000207047FEF797BB30B595B0282111
:102230006846FDF7A2FF14210AA8FDF79EFF1821AA
:102240000FA8FDF79AFF01210804CDE90010002531
:10225000029502240491CDE907404FF4E010099063
:102260006846FEF7BFFD08B172B6FEE70AA90F2067
:1022700081E831004FF48060CDE90D0502210AA804
:10228000FEF7D4FC08B172B6FEE74FF4004011909F
:102290000F940FA8FEF754FC002801D072B6FEE799
:1022A00015B030BD70470000F0B50268204C214DDC
:1022B000214E224F224B4FF0804CA04209D0984231
:1022C00007D0604505D0A84203D0B04201D0B84243
:1022D00004D122F0700E4A6842EA0E02A04209D0F0
:1022E000984207D0604505D0A84203D0B04201D043
:1022F000B84203D122F44075CA682A434D6922F0DE
:1023000080022A4302608A68C2620A688262A0422E
:1023100001D0984201D1096901630121416101693C
:10232000C90703D0016921F001010161F0BD00007E
:10233000002C01400004004000080040000C004058
:102340000034014010B501F01F030121046A9940D7
:102350008C430462016A9A401143016210BD10B5BA
:10236000846842EA032224F47F440A4322438260C1
:1023700010BD826822F070020A4342F007018160BA
:1023800070470000F0B5036A026A22F0010202629F
:1023900042688469124E24F073050C682C4323F0C4
:1023A00002058B682B430D4DA84201D0B04205D1E8
:1023B00023F00807CB683B4323F00403A84201D075
:1023C000B04205D14D6922F4407215438A692A430F
:1023D00042608461496841630362F0BD002C0140A2
:1023E00000340140F0B5026A036A23F0100303626F
:1023F000436884690D6824F4E64444EA05248D6842
:1024000022F0200242EA05120F4D104EA84201D0E0
:10241000B04206D1CF6822F0800242EA071222F0D1
:102420004002A84201D0B04207D14D6923F4406375
:1024300043EA85038D6943EA850343608461496803
:1024400081630262F0BD0000002C014000340140B5
:10245000F0B5026A036A23F4807303624368C469B7
:1024600022F4007224F073050C68124E2C438D6820
:1024700042EA05220E4DA84201D0B04206D1CF68F3
:1024800022F4006242EA072222F48062A84201D0CC
:10249000B04207D14D6923F4405343EA05138D69D7
:1024A00043EA05134360C4614968C1630262F0BD39
:1024B000002C01400034014030B5046A026A22F465
:1024C000805202624268C3690D6823F4E64343EA1E
:1024D00005238D6824F4005444EA0534084DA842CD
:1024E00002D0084DA84204D14D6922F4804242EA4C
:1024F00085124260C36149680164046230BD000016
:10250000002C01400034014010B5036A046A24F035
:1025100001040462846924F0F00444EA021423F004
:102520000A020A438461026210BD10B5036A046A9C
:1025300024F010040462846923F0A00324F470449E
:1025400044EA023243EA01118261016210BD0000D7
:1025500070B5044600680169E26821F440511143F6
:1025600001612169A0680843616908432168CA685C
:1025700041F20C639A430243CA6020684169A26930
:1025800021F44071114341611E492068884202D103
:10259000FEF7F2FB01E0FEF7DFFB00EBC00101EB11
:1025A0000012606864218000B2FBF0F3B3FBF1F32A
:1025B0006FF018067343B2FBF0F5B2FBF0F605EBD3
:1025C0008305322303EB0515B5FBF1F5B6FBF1F6F8
:1025D00005F0F00505EB0615B2FBF0F6B2FBF0F0E6
:1025E000B0FBF1F06FF01802504306EB800003EBF4
:1025F0000010B0FBF1F0216800F00F002844886063
:1026000070BD000000380140FEE70907090E0028F0
:1026100004DB00F1E02080F80014704700F00F00A8
:1026200000F1E02080F8141D704702E008C8121F76
:1026300008C1002AFAD170477047002001E001C1AB
:10264000121F002AFBD170471CB5FEF78DF9FFF76A
:10265000ECFDFFF735FCFFF72BFDFFF7C7FBFFF79E
:1026600043FDFFF7BBFCFFF795FC3848FDF716FE6E
:10267000FFF7EEF90122D1023548FEF761F940F289
:10268000DC542046FEF74EF84FF6E0764FF4FC6738
:1026900020254FF010083046FFF738F93846FFF78D
:1026A00035F93046FFF732F93846FFF72FF9304653
:1026B000FFF72CF93846FFF729F93046FFF726F9DE
:1026C0003846FFF723F923A0CDE900502023F0225C
:1026D0000A210520FFF734FB21A1CDE90081102359
:1026E000F02232210A20FFF72BFB24A0CDE9005075
:1026F0002023F02252210520FFF722FB2046FEF77F
:1027000011F83046FFF702F9782164220846FFF7F6
:1027100029F9782150220846FFF724F978213C2234
:102720000846FFF71FF9782128220846FFF71AF913
:10273000782114220846FFF715F97821012208466E
:10274000FFF710F92046FDF7EDFFA4E71400002085
:102750000008014048656C6C6F576F726C64210013
:10276000456D62656420536F66747761726520659C
:102770006E67696E656572210000000042616966DE
:10278000656E6700010202030405060708090A0BCB
:102790000C0D0E0F101001020203040506070809B4
:1027A0000A0B0C0D0E0F10100000000000000000BE
:1027B00001020304060708090000000001020304E7
:1027C00000000000000000000000000000002020C9
:1027D00020202000002000002828500000000000D9
:1027E0000000000000005050F85050F85050000019
:1027F000002070A8A0603028A8702000000048A821
:10280000B0A874345448000000002050506CA8A8B0
:1028100094680000404080000000000000000000BC
:102820000810102020202020101008004020201028
:10283000101010102020400000000020A87070A888
:102840002000000000000010107C101000000000AC
:102850000000000000000000404080000000000078
:1028600000FC00000000000000000000000000006C
:1028700000400000000408081010202040408000A4
:1028800000007088888888888870000000002060B8
:102890002020202020700000000070888810204038
:1028A00080F8000000007088083008088870000078
:1028B00000001030305090F8103800000000F88010
:1028C00080F08808887000000000304880B0C88818
:1028D00088700000000078081010202020200000E0
:1028E00000007088887088888870000000007088F8
:1028F0008898680890600000000000002000000038
:102900000020000000000000002000000020200047
:1029100000000810204040201008000000000000C7
:10292000FC00FC000000000000004020100808101F
:102930002040000000007088881020200020000047
:102940000000384494B4B4B844380000000020209B
:102950003050507848CC00000000F048487048489B
:1029600048F0000000007888808080808870000037
:102970000000F0484848484848F000000000F84887
:102980005070504048F800000000F8485070504027
:1029900040E000000000384880809C8848300000FB
:1029A0000000CC484878484848CC00000000F82097
:1029B0002020202020F8000000007C1010101010B3
:1029C000101090E00000EC485060504848EC0000C7
:1029D0000000E0404040404044FC00000000DCD8E3
:1029E000D8D8A8A8A8AC00000000DC4868685858EF
:1029F00048E8000000007088888888888870000097
:102A00000000F0484870404040E00000000070883E
:102A1000888888E8987018000000F048487050488E
:102A200048EC0000000078888060100888F0000002
:102A30000000F8A820202020207000000000CC48D2
:102A400048484848483000000000CC4848505030C2
:102A5000202000000000A8A8A8A870505050000036
:102A60000000D8505020205050D800000000D8500E
:102A700050502020207000000000F89010202040CE
:102A800048F8000038202020202020202020380076
:102A90000040402020201010100808007010101076
:102AA00010101010101070002050000000000000E6
:102AB000000000000000000000000000000000FC1A
:102AC00040200000000000000000000000000000A6
:102AD00000304838483C000000C040404070484842
:102AE00048700000000000000038484048300000F6
:102AF0000018080808384848483C0000000000005A
:102B00000030487840380000001824202078202029
:102B10002078000000000000003C48304038443875
:102B200000C040404070484848EC000000202000B1
:102B300000602020207000000010100000301010F5
:102B4000101010E000C040404058506050C80000D5
:102B500000E020202020202020F8000000000000BD
:102B600000F0A8A8A8A800000000000000F0484855
:102B700048EC0000000000000030484848300000E9
:102B80000000000000F04848487040E000000000ED
:102B9000003848484838081C0000000000D8604051
:102BA00040E000000000000000784030087800009D
:102BB00000000020207820202038000000000000C5
:102BC00000D84848483C00000000000000D85050A1
:102BD000202000000000000000A8A8705050000055
:102BE0000000000000D8502050D800000000000075
:102BF00000CC4848301020C00000000000781020B1
:102C0000207800001810101010301010101018004C
:102C10001010101010101010101010106020202034
:102C2000201020202020600068900000000000009C
:102C30000000000000000000000000000000000094
:102C40000000000000000010101010101010000014
:102C500010100000001224244800000000000000B2
:102C6000000000000000001212127E2424247E24A2
:102C7000242400000000083C4A4A48380C0A0A4A4A
:102C80004A3C080800000044A4A8A8B0541A2A2A04
:102C90004A44000000000030484848506EA4949810
:102CA0008976000000602020400000000000000045
:102CB0000000000000020408081010101010100896
:102CC0000804020000402010100808080808081036
:102CD00010204000000000001010D63838D6101028
:102CE0000000000000000000000808087F08080835
:102CF00000000000000000000000000000000000D4
:102D00006020204000000000000000007E00000065
:102D100000000000000000000000000000000000B3
:102D20006060000000000204040408081010102075
:102D300020404000000000182442424242424242E9
:102D400024180000000000083808080808080808CF
:102D5000083E00000000003C4242420204081020ED
:102D6000427E00000000003C42420204180402427D
:102D7000423C0000000000040C0C142424447F0496
:102D8000041F00000000007E4040407844020242E0
:102D900044380000000000182440405C6242424277
:102DA000221C00000000007E4204040808101010DD
:102DB000101000000000003C42424224182442420D
:102DC000423C00000000003844424242463A0202BF
:102DD0002418000000000000000018180000000087
:102DE00018180000000000000000001000000000A3
:102DF00000101010000000020408102040201008ED
:102E0000040200000000000000007E00007E0000C0
:102E10000000000000000040201008040204081018
:102E2000204000000000003C424262040808080004
:102E30001818000000000038445AAAAAAAAAAA5CDE
:102E4000423C00000000001010182828243C444296
:102E500042E70000000000F8444444784442424203
:102E600044F800000000003E4242808080808042A2
:102E700044380000000000F84442424242424242CC
:102E800044F80000000000FC4248487848484042AE
:102E900042FC0000000000FC42484878484840409E
:102EA00040E000000000003C44448080808E844468
:102EB00044380000000000E7424242427E42424263
:102EC00042E700000000007C1010101010101010DD
:102ED000107C00000000003E0808080808080808E8
:102EE000080888F0000000EE4448507050484844FC
:102EF00044EE0000000000E04040404040404040C0
:102F000042FE0000000000EE6C6C6C6C6C5454547B
:102F100054D60000000000C7626252524A4A4A4634
:102F200046E200000000003844828282828282826F
:102F300044380000000000FC424242427C404040D5
:102F400040E000000000003844828282828282B227
:102F50004C380600000000FC4242427C4848444491
:102F600042E300000000003E4242402018040242BA
:102F7000427C0000000000FE921010101010101093
:102F800010380000000000E7424242424242424202
:102F9000423C0000000000E7424244242428281854
:102FA00010100000000000D654545454546C2828CB
:102FB00028280000000000E74224241818182424C0
:102FC00042E70000000000EE4444282810101010D2
:102FD000103800000000007E840408081020204201
:102FE00042FC0000001E10101010101010101010E5
:102FF00010101E00000040202020101010080804AF
:1030000004040202007808080808080808080808EC
:1030100008087800001824000000000000000000EC
:1030200000000000000000000000000000000000A0
:10303000000000FF00601000000000000000000021
:10304000000000000000000000000038440C344480
:103050004C36000000000000C0404058644242422C
:1030600064580000000000000000001C22404040A6
:10307000221C0000000000000602023E42424242C2
:10308000463B0000000000000000003C42427E4041
:10309000423C0000000000000C12107C10101010C8
:1030A000107C0000000000000000003E4444384056
:1030B0003C42423C00000000C040405C6242424250
:1030C00042E70000000000303000007010101010C7
:1030D000107C00000000000C0C00001C0404040420
:1030E0000404447800000000C040404E485070483E
:1030F00044EE0000000000107010101010101010AE
:10310000107C000000000000000000FE4949494911
:1031100049ED000000000000000000DC6242424275
:1031200042E70000000000000000003C4242424232
:10313000423C000000000000000000D8644242420F
:10314000645840E0000000000000001A264242429D
:10315000261A020700000000000000EE32202020A6
:1031600020F80000000000000000003E42403C0249
:10317000427C0000000000000010107C10101010B5
:10318000120C000000000000000000C64242424253
:10319000463B000000000000000000EE44442828E8
:1031A0001010000000000000000000DB894A5A54A3
:1031B00024240000000000000000007624181818E5
:1031C000246E000000000000000000E742242418E4
:1031D00018101060000000000000007E440810106D
:1031E000227E000000030404040404040804040410
:1031F0000404030008080808080808080808080864
:103200000808080800C020202020202010202020AE
:103210002020C000205A0400000000000000000030
:10322000000000000000000000000000000000009E
:10323000000000000000000000000000000000008E
:10324000000000000000000000000000000000007E
:103250000000000000000000000000000600060062
:103260000600060006000600060002000400040036
:103270000400000000000000060006000600000038
:103280000000000000000000066006600CC019800D
:1032900011002200000000000000000000000000FB
:1032A000000000000000000000000000000000001E
:1032B000000000000000000000000000084008407E
:1032C000084008407FE07FE01040108010801080B0
:1032D00010807FE07FE02080208020802080000020
:1032E00000000000000000000000020002000F804B
:1032F0001AC032C033C032001A000E00070003802B
:10330000038002C032C03AC032C012800F000200F7
:1033100002000000000000000000000070805080EB
:103320008900890089008A008A005C0075C0054018
:103330000A200A20122012201220214021C0000061
:103340000000000000000000000000001C0036002B
:103350003600360036003600340019E038805880D8
:10336000CC80CC80C680C700C31063903CE00000D6
:1033700000000000000000003000380008000800D5
:10338000100020000000000000000000000000000D
:10339000000000000000000000000000000000002D
:1033A000000000000000000000200040008001003C
:1033B00001000200020004000400040004000400F4
:1033C000040004000200020001000100008000402F
:1033D0000020000000000000400020001000080055
:1033E00008000400040002000200020002000200C3
:1033F0000200020004000400080008001000200081
:10340000400000000000000000000000000000007C
:10341000020003000200623072F00B800F807AF02D
:103420006230020002000200000000000000000004
:10343000000000000000000000000000000000008C
:103440000000020002000200020002007FF0020001
:103450000200020002000200000000000000000064
:10346000000000000000000000000000000000005C
:10347000000000000000000000000000000000004C
:1034800000000000000000003000380008000800C4
:1034900010002000000000000000000000000000FC
:1034A0000000000000000000000000007FE00000BD
:1034B000000000000000000000000000000000000C
:1034C00000000000000000000000000000000000FC
:1034D00000000000000000000000000000000000EC
:1034E0000000000000000000380038003800000034
:1034F000000000000000000000200060004000C04C
:1035000000800080010001000200020006000400AB
:1035100004000800080010001000300020006000C7
:1035200040000000000000000000000000000F004C
:10353000198030C030C06060606060606060606052
:1035400060606060606030C030C019800F000000B3
:103550000000000000000000000000000000020069
:103560003E000600060006000600060006000600F3
:103570000600060006000600060006003FC0000028
:1035800000000000000000000000000000001F001C
:10359000218040C060C060C000C000800180030086
:1035A0000600040008001040204060407FC000007A
:1035B00000000000000000000000000000001E00ED
:1035C0006300618061800180018003000E00018042
:1035D000008000C000C060C060C061801F000000AB
:1035E000000000000000000000000000000001805A
:1035F0000180038005800580098011801180218071
:1036000041807FF0018001800180018007E000009F
:1036100000000000000000000000000000003FC0AB
:10362000200020002000200020002F00318020C03A
:1036300000C000C060C060C0418021801F00000049
:1036400000000000000000000000000000000780F3
:1036500018C030C0300020006000678068C0706013
:103660006060606060602060304018C00F00000043
:1036700000000000000000000000000000001FE04B
:1036800030602040208000800080010001000200A6
:103690000200020006000600060006000600000008
:1036A00000000000000000000000000000001F807B
:1036B00030C0606060606060304038C00F001380D0
:1036C00030C0606060606060606030C00F8000008B
:1036D00000000000000000000000000000000F00DB
:1036E000308030C0604060606060606060E0316089
:1036F0001E60006000C000C0308031801E000000ED
:1037000000000000000000000000000000000000B9
:103710000000000000000000070007000700000094
:103720000000000000000000070007000700000084
:103730000000000000000000000000000000000089
:10374000000000000000000006000600000000006D
:10375000000000000000000000000600060002005B
:1037600004000400000000000000000000200040F1
:10377000008001000200040008001000200010007A
:10378000080004000200010000800040002000004A
:103790000000000000000000000000000000000029
:1037A00000000000000000007FE0000000000000BA
:1037B0007FE00000000000000000000000000000AA
:1037C00000000000000000000000000020001000C9
:1037D00008000400020001000080004000200040BA
:1037E000008001000200040008001000200000001A
:1037F000000000000000000000000000000007C002
:103800001860203020303030303000E0018002007D
:10381000020002000000000007000700070000008F
:10382000000000000000000000000000070018C0B9
:10383000304033A026A066A065A06D206D206D20CD
:103840006D206D4027803020304018C00F000000F0
:103850000000000000000000000000000000060062
:1038600006000A000B0009000900110011801080F9
:103870001F8020C020C0204040404060F0F0000089
:1038800000000000000000000000000000007F00B9
:1038900031C030C030C030C030C031803F0030C097
:1038A0003040306030603060306030C07F80000079
:1038B000000000000000000000000000000007C041
:1038C00018C0306030202020600060006000600080
:1038D0006000600060203020304018C00F00000001
:1038E0000000000000000000000000000000FE00DA
:1038F000318030C030C03060306030603060306067
:1039000030603060306030C030C03180FE00000078
:103910000000000000000000000000000000FFC0E8
:1039200060C0602060206000610061007F00610075
:10393000610061006000602060206040FFC0000006
:103940000000000000000000000000000000FFC0B8
:1039500060C0602060206000610061007F00610045
:10396000610061006000600060006000F80000001D
:1039700000000000000000000000000000000F0038
:1039800018803040304020406000600060006000DF
:1039900063F060C060C030C030C018C00F000000CD
:1039A0000000000000000000000000000000F0F037
:1039B0006060606060606060606060607FE0606068
:1039C000606060606060606060606060F0F0000097
:1039D00000000000000000000000000000003FC0E8
:1039E00006000600060006000600060006000600A7
:1039F0000600060006000600060006003FC00000A4
:103A000000000000000000000000000000001FE0B7
:103A1000030003000300030003000300030003008E
:103A2000030003000300030003000300030063001E
:103A300066003C0000000000000000000000F3C031
:103A4000618063006200640068006C0074007600AE
:103A50006200630061006180608060C0F1E000008E
:103A60000000000000000000000000000000F8005E
:103A70006000600060006000600060006000600046
:103A8000600060006000602060206040FFC00000B7
:103A90000000000000000000000000000000E0E066
:103AA00061C061C071C071C072C072C052C05AC0E2
:103AB0005AC05CC04CC04CC04CC048C0E1E00000E3
:103AC000000000000000000000000000000071F095
:103AD0003040384038402C402C4026402640224080
:103AE0002340214021C021C020C020C0F840000058
:103AF00000000000000000000000000000000F00B7
:103B0000198030C0304060606060606060606060FC
:103B1000606060606060304030C019800F0000005D
:103B20000000000000000000000000000000FF0096
:103B300060C06060606060606060606061C07F0005
:103B4000600060006000600060006000F80000003D
:103B500000000000000000000000000000000F0056
:103B6000198030C03040606060606060606060609C
:103B7000606060606E60324033C019800F0001E009
:103B800000C0000000000000000000000000FF80F6
:103B900060C0606060606060606060C07F00620004
:103BA00063006100618060C060C06060F070000010
:103BB00000000000000000000000000000001F40A6
:103BC00030C060406040600070003C001F0007C0D3
:103BD00001C000E040604060606030C00F800000C5
:103BE00000000000000000000000000000007FE076
:103BF0004620861086100600060006000600060015
:103C00000600060006000600060006001F800000F1
:103C1000000000000000000000000000000078E04C
:103C20003040304030403040304030403040304014
:103C30003040304030403040304018800F000000AD
:103C40000000000000000000000000000000F0E0A4
:103C500060402080208030803080110011001900E9
:103C600019000A000A000E000C0004000400000005
:103C70000000000000000000000000000000EF70E5
:103C800046204220622062202640264027402740CE
:103C9000394039801980198011801100110000000D
:103CA000000000000000000000000000000079E0BB
:103CB00030801080188009000D0006000400060006
:103CC00006000B0009001180108020C071E0000088
:103CD0000000000000000000000000000000F0F004
:103CE000602020403040108018801D000D000E0024
:103CF0000600060006000600060006001F80000001
:103D000000000000000000000000000000003FE094
:103D1000304060C0408001800100020002000400C9
:103D20000400080018001020302020407FC0000050
:103D3000000000000000000007C0040004000400B0
:103D40000400040004000400040004000400040053
:103D50000400040004000400040004000400040043
:103D600007C000000000000000000000200020004C
:103D70001000100008000800080004000400020001
:103D800002000300010001000080008000400040AC
:103D900000400020000000003E000200020002007F
:103DA0000200020002000200020002000200020003
:103DB00002000200020002000200020002000200F3
:103DC0003E00000000000600090010800000000016
:103DD00000000000000000000000000000000000E3
:103DE00000000000000000000000000000000000D3
:103DF00000000000000000000000000000000000C3
:103E000000000000000000000000000000000000B2
:103E100000000000000000000000000000000000A2
:103E20000000FFF000000000180006000000000085
:103E30000000000000000000000000000000000082
:103E40000000000000000000000000000000000072
:103E50000000000000000000000000000000000062
:103E600000000000000000000F8030C030C000C023
:103E700007C038C070C060C060C071D03E70000024
:103E800000000000000000000000000010007000B2
:103E9000300030003000300033803CC0386030608B
:103EA0003060306030603060304038C027800000C3
:103EB0000000000000000000000000000000000002
:103EC00000000000000000000F00318031806180A0
:103ED0006000600060006040304030800F000000F3
:103EE000000000000000000000000000004003C0CF
:103EF00000C000C000C000C01EC031C030C060C0E3
:103F000060C060C060C060C020C031E01E800000A2
:103F100000000000000000000000000000000000A1
:103F20000000000000000000078018C01040306052
:103F300030603FE03000300018201840078000005B
:103F4000000000000000000000000000000003C0AE
:103F500006600C600C000C007F800C000C000C0054
:103F60000C000C000C000C000C000C003F8000004A
:103F70000000000000000000000000000000000041
:103F800000000000000000000FE01B603180318065
:103F9000318019801F0030003F0033C060C060C016
:103FA00071C01F0000000000000000001000700041
:103FB0003000300030003000378038C030C030C0B2
:103FC00030C030C030C030C030C030C079E00000F8
:103FD00000000000000000000000000000000600DB
:103FE00006000000000002003E0006000600060079
:103FF0000600060006000600060006003FC000009E
:10400000000000000000000000000000000003802D
:1040100003800000000000800F800180018001808B
:104020000180018001800180018001800180018088
:1040300033003E000000000000000000100070008F
:10404000300030003000300031C03100310032002B
:1040500036003A0031003180308030C079E0000015
:1040600000000000000000000000000002003E0010
:104070000600060006000600060006000600060010
:104080000600060006000600060006003FC000000D
:104090000000000000000000000000000000000020
:1040A0000000000000000000ECE0776066606660E1
:1040B000666066606660666066606660FFF000006D
:1040C00000000000000000000000000000000000F0
:1040D0000000000000000000778038C030C030C011
:1040E00030C030C030C030C030C030C079E00000D7
:1040F00000000000000000000000000000000000C0
:1041000000000000000000000F00198030C0606057
:10411000606060606060606030C030C00F000000B0
:10412000000000000000000000000000000000008F
:104130000000000000000000778038C03060306070
:10414000306030603060306030C038C03780300060
:1041500030007C00000000000000000000000000B3
:1041600000000000000000001E4031C030C060C0F0
:1041700060C060C060C060C020C031C01EC000C050
:1041800000C003E00000000000000000000000008C
:104190000000000000000000F9C01A601C60180058
:1041A000180018001800180018001800FF00000080
:1041B00000000000000000000000000000000000FF
:1041C00000000000000000000FC038C03040304048
:1041D0001C000F0003C020C020C031C03F80000081
:1041E00000000000000000000000000000000000CF
:1041F000040004000C000C007F800C000C000C007C
:104200000C000C000C000C000C400C40078000005F
:10421000000000000000000000000000000000009E
:10422000000000000000104071C030C030C030C03D
:1042300030C030C030C030C030C039E01E80000017
:10424000000000000000000000000000000000006E
:10425000000000000000000078E030401080108076
:10426000188009000D000D00060006000400000083
:10427000000000000000000000000000000000003E
:104280000000000000000000EF7046206220264081
:1042900026403740398019801980198010000000AD
:1042A000000000000000000000000000000000000E
:1042B00000000000000000003DE0188008800D00B4
:1042C0000600060007000900108010C079E0000019
:1042D00000000000000000000000000000000000DE
:1042E000000000000000000079E0108010801080C5
:1042F000090009000D000600060006000400040085
:104300002400380000000000000000000000000051
:1043100000000000000000003F80218023002200F8
:10432000060004000C001840104030C03F80000020
:10433000000000000000000000C0010001000100BA
:104340000100010001000100010002000400020060
:104350000100010001000100010001000100010055
:1043600000C0000002000200020002000200020081
:10437000020002000200020002000200020002002D
:10438000020002000200020002000200020002001D
:1043900002000200000000003000080008000800D1
:1043A00008000800080008000800040002000400DB
:1043B00008000800080008000800080008000800BD
:1043C00030000000000038004420432001C00000FD
:1043D00000000000000000000000000000000000DD
:1043E00000000000000000000000000000000000CD
:1043F00000000000000000000000000000000000BD
:1044000000000000000000000000000000000000AC
:10441000000000000000000000000000000000009C
:10442000000000000000000000000000000000008C
:10443000000000000000000000000000000000007C
:10444000000000000000000000000000000000006C
:10445000000000000000000000000000000000005C
:10446000000000000000000000000000000000004C
:10447000000000000000000000000000000000003C
:1044800003C003C003C003C003C003C001C0018058
:104490000180018001800180018001800180000095
:1044A00000000000018003C003C001800000000084
:1044B00000000000000000000000000000000000FC
:1044C00000000000000000000000000000000000EC
:1044D00000000000000000000000000000000000DC
:1044E00000000000000000000000000000000000CC
:1044F00000000000000000000318073807380E70A5
:104500000C6018C031802100000000000000000095
:10451000000000000000000000000000000000009B
:10452000000000000000000000000000000000008B
:10453000000000000000000000000000000000007B
:10454000000000000000000000000000000000006B
:10455000000000000000000000000000000000005B
:10456000000000000000000000000000000000004B
:10457000000000000000000000000000000000003B
:10458000040804080408040804087FFE7FFE7FFE78
:104590000810081008100810081008107FFE7FFE91
:1045A0007FFE183010201020102010200000000086
:1045B00000000000000000000000000000000000FB
:1045C00000000000000000000000000000000000EB
:1045D00000000000000000000000000000000000DB
:1045E00000000000000000000000000000000000CB
:1045F00000000000000000000000000001000100B9
:1046000003C00D3009181918193819381D000D008C
:104610000F00070003C001E001F00130013801186C
:104620003918391831183130196007C001000100FC
:104630000100000000000000000000000000000079
:10464000000000000000000000000000000000006A
:10465000000000000000000000000000000000005A
:10466000000000000000000000000000000000004A
:10467000000000000000000000000000000000003A
:1046800038106C104420C620C640C640C640C680C4
:10469000C68044806D38396C024402C602C604C626
:1046A00004C608C608C60844106C10380000000094
:1046B00000000000000000000000000000000000FA
:1046C00000000000000000000000000000000000EA
:1046D00000000000000000000000000000000000DA
:1046E00000000000000000000000000000000000CA
:1046F00000000000000000000000000000000000BA
:104700000F00190031803180318031803100330059
:104710003A001C00387C3C104C10CE10C620C7203C
:10472000C320C1C0C1C260E6317C1E380000000059
:104730000000000000000000000000000000000079
:104740000000000000000000000000000000000069
:104750000000000000000000000000000000000059
:104760000000000000000000000000000000000049
:10477000000000000000000038003C003C000C007D
:104780000C00080030006000000000000000000085
:104790000000000000000000000000000000000019
:1047A0000000000000000000000000000000000009
:1047B00000000000000000000000000000000000F9
:1047C00000000000000000000000000000000000E9
:1047D00000000000000000000000000000000000D9
:1047E00000000000000000000000000000000000C9
:1047F0000000000000000000000200040008001893
:10480000003000200060004000C000C00180018036
:10481000018001800180018001800180018000C051
:1048200000C00040006000200030001800080004B4
:104830000002000000000000000000000000000076
:104840000000000000000000000000000000000068
:104850000000000000000000000000000000000058
:104860000000000000000000000000000000000048
:1048700000000000000000004000200010001800B0
:104880000C00040006000200030003000180018008
:10489000018001800180018001800180018003008E
:1048A00003000300060004000C00180010002000A4
:1048B00040000000000000000000000000000000B8
:1048C00000000000000000000000000000000000E8
:1048D00000000000000000000000000000000000D8
:1048E00000000000000000000000000000000000C8
:1048F00000000000000000000000000000000000B8
:104900000000000000C001C001C030C6388E1C9CF1
:1049100006B001C001C006B01C9C388E318601C0B3
:1049200001C001C000000000000000000000000005
:104930000000000000000000000000000000000077
:104940000000000000000000000000000000000067
:104950000000000000000000000000000000000057
:104960000000000000000000000000000000000047
:104970000000000000000000000000000000000037
:1049800000000000000000800080008000800080A7
:10499000008000803FFE008000800080008000805A
:1049A0000080008000000000000000000000000007
:1049B00000000000000000000000000000000000F7
:1049C00000000000000000000000000000000000E7
:1049D00000000000000000000000000000000000D7
:1049E00000000000000000000000000000000000C7
:1049F00000000000000000000000000000000000B7
:104A000000000000000000000000000000000000A6
:104A10000000000000000000000000000000000096
:104A20000000000038003C003C000C000C000800B6
:104A300030006000000000000000000000000000E6
:104A40000000000000000000000000000000000066
:104A50000000000000000000000000000000000056
:104A60000000000000000000000000000000000046
:104A70000000000000000000000000000000000036
:104A80000000000000000000000000000000000026
:104A9000000000007FFE0000000000000000000099
:104AA0000000000000000000000000000000000006
:104AB00000000000000000000000000000000000F6
:104AC00000000000000000000000000000000000E6
:104AD00000000000000000000000000000000000D6
:104AE00000000000000000000000000000000000C6
:104AF00000000000000000000000000000000000B6
:104B000000000000000000000000000000000000A5
:104B10000000000000000000000000000000000095
:104B20000000000018003C003C00180000000000DD
:104B30000000000000000000000000000000000075
:104B40000000000000000000000000000000000065
:104B50000000000000000000000000000000000055
:104B60000000000000000000000000000000000045
:104B70000000000000000000000000020006000429
:104B8000000C0008001800100030002000600040F9
:104B900000C0008001800100030002000600040044
:104BA0000C000800180010003000200060004000D9
:104BB00000000000000000000000000000000000F5
:104BC00000000000000000000000000000000000E5
:104BD00000000000000000000000000000000000D5
:104BE00000000000000000000000000000000000C5
:104BF00000000000000000000000000000000000B5
:104C000003C006200C30181818181808300C300C87
:104C1000300C300C300C300C300C300C300C300CB4
:104C20001808181818180C30062003C000000000DF
:104C30000000000000000000000000000000000074
:104C40000000000000000000000000000000000064
:104C50000000000000000000000000000000000054
:104C60000000000000000000000000000000000044
:104C70000000000000000000000000000000000034
:104C8000008001801F8001800180018001800180FF
:104C9000018001800180018001800180018001800C
:104CA000018001800180018003C01FF80000000026
:104CB00000000000000000000000000000000000F4
:104CC00000000000000000000000000000000000E4
:104CD00000000000000000000000000000000000D4
:104CE00000000000000000000000000000000000C4
:104CF00000000000000000000000000000000000B4
:104D000007E008381018200C200C300C300C000C78
:104D1000001800180030006000C00180030002008D
:104D2000040408041004200C3FF83FF800000000C1
:104D30000000000000000000000000000000000073
:104D40000000000000000000000000000000000063
:104D50000000000000000000000000000000000053
:104D60000000000000000000000000000000000043
:104D70000000000000000000000000000000000033
:104D800007C018603030301830183018001800187C
:104D90000030006003C0007000180008000C000C18
:104DA000300C300C30083018183007C000000000FC
:104DB00000000000000000000000000000000000F3
:104DC00000000000000000000000000000000000E3
:104DD00000000000000000000000000000000000D3
:104DE00000000000000000000000000000000000C3
:104DF00000000000000000000000000000000000B3
:104E00000060006000E000E001600160026004609A
:104E100004600860086010603060206040607FFCC3
:104E20000060006000600060006003FC00000000A3
:104E30000000000000000000000000000000000072
:104E40000000000000000000000000000000000062
:104E50000000000000000000000000000000000052
:104E60000000000000000000000000000000000042
:104E70000000000000000000000000000000000032
:104E80000FFC0FFC100010001000100010001000AC
:104E900013E0143018181008000C000C000C000C63
:104EA000300C300C20182018183007C0000000000B
:104EB00000000000000000000000000000000000F2
:104EC00000000000000000000000000000000000E2
:104ED00000000000000000000000000000000000D2
:104EE00000000000000000000000000000000000C2
:104EF00000000000000000000000000000000000B2
:104F000001E006180C1808181800100010003000F6
:104F100033E0363038183808300C300C300C300C98
:104F2000300C180C18080C180E3003E000000000BC
:104F30000000000000000000000000000000000071
:104F40000000000000000000000000000000000061
:104F50000000000000000000000000000000000051
:104F60000000000000000000000000000000000041
:104F70000000000000000000000000000000000031
:104F80001FFC1FFC100830102010202000200040C3
:104F9000004000400080008001000100010001008D
:104FA00003000300030003000300030000000000EF
:104FB00000000000000000000000000000000000F1
:104FC00000000000000000000000000000000000E1
:104FD00000000000000000000000000000000000D1
:104FE00000000000000000000000000000000000C1
:104FF00000000000000000000000000000000000B1
:1050000007E00C301818300C300C300C380C380815
:105010001E180F2007C018F030783038601C600C64
:10502000600C600C600C3018183007C000000000E5
:105030000000000000000000000000000000000070
:105040000000000000000000000000000000000060
:105050000000000000000000000000000000000050
:105060000000000000000000000000000000000040
:105070000000000000000000000000000000000030
:1050800007C01820301030186008600C600C600CED
:10509000600C600C701C302C186C0F8C000C00180D
:1050A000001800103030306030C00F800000000069
:1050B00000000000000000000000000000000000F0
:1050C00000000000000000000000000000000000E0
:1050D00000000000000000000000000000000000D0
:1050E00000000000000000000000000000000000C0
:1050F00000000000000000000000000000000000B0
:10510000000000000000000000000000000001801E
:1051100003C003C001800000000000000000000088
:1051200000000000018003C003C0018000000000F7
:10513000000000000000000000000000000000006F
:10514000000000000000000000000000000000005F
:10515000000000000000000000000000000000004F
:10516000000000000000000000000000000000003F
:10517000000000000000000000000000000000002F
:10518000000000000000000000000000000000001F
:105190000380038003800000000000000000000086
:1051A00000000000000003800380038001800300F2
:1051B00003000000000000000000000000000000EC
:1051C00000000000000000000000000000000000DF
:1051D00000000000000000000000000000000000CF
:1051E00000000000000000000000000000000000BF
:1051F00000000000000000000000000000000000AF
:10520000000400080010002000400080010002009F
:105210000400080010001000080004000200010053
:105220000080004000200010000800040000000082
:10523000000000000000000000000000000000006E
:10524000000000000000000000000000000000005E
:10525000000000000000000000000000000000004E
:10526000000000000000000000000000000000003E
:10527000000000000000000000000000000000002E
:1052800000000000000000000000000000007FFEA1
:10529000000000000000000000007FFE0000000091
:1052A00000000000000000000000000000000000FE
:1052B00000000000000000000000000000000000EE
:1052C00000000000000000000000000000000000DE
:1052D00000000000000000000000000000000000CE
:1052E00000000000000000000000000000000000BE
:1052F00000000000000000000000000000000000AE
:10530000200010000800040002000100008000409E
:10531000002000100008000800100020004000805D
:10532000010002000400080010002000000000003E
:10533000000000000000000000000000000000006D
:10534000000000000000000000000000000000005D
:10535000000000000000000000000000000000004D
:10536000000000000000000000000000000000003D
:10537000000000000000000000000000000000002D
:1053800003E00C18180C10063006380638063806EC
:10539000000C0018007000C00080008000800080B9
:1053A00000000000018003C003C001800000000075
:1053B00000000000000000000000000000000000ED
:1053C00000000000000000000000000000000000DD
:1053D00000000000000000000000000000000000CD
:1053E00000000000000000000000000000000000BD
:1053F00000000000000000000000000000000000AD
:1054000003E006100C08180430D431B221326332A4
:10541000632266226622662266626664666426E805
:10542000333030021004180C0C1803E000000000A8
:10543000000000000000000000000000000000006C
:10544000000000000000000000000000000000005C
:10545000000000000000000000000000000000004C
:10546000000000000000000000000000000000003C
:10547000000000000000000000000000000000002C
:10548000038003800380038004C004C004C004C000
:105490000C4008600860086008201FF010301030D1
:1054A0001030201820182018601CF83E0000000062
:1054B00000000000000000000000000000000000EC
:1054C00000000000000000000000000000000000DC
:1054D00000000000000000000000000000000000CC
:1054E00000000000000000000000000000000000BC
:1054F00000000000000000000000000000000000AC
:105500007FE018381818180C180C180C180C180C08
:10551000181818301FE01818180C18041806180668
:10552000180618061806180C18187FF0000000005E
:10553000000000000000000000000000000000006B
:10554000000000000000000000000000000000005B
:10555000000000000000000000000000000000004B
:10556000000000000000000000000000000000003B
:10557000000000000000000000000000000000002B
:1055800003E0061C080C18063002300230006000F0
:10559000600060006000600060006000600060000B
:1055A00030023002100418080C1003E00000000064
:1055B00000000000000000000000000000000000EB
:1055C00000000000000000000000000000000000DB
:1055D00000000000000000000000000000000000CB
:1055E00000000000000000000000000000000000BB
:1055F00000000000000000000000000000000000AB
:105600007FC0187018181808180C180C18061806FF
:10561000180618061806180618061806180618049C
:10562000180C180C1818181818607FC0000000001B
:10563000000000000000000000000000000000006A
:10564000000000000000000000000000000000005A
:10565000000000000000000000000000000000004A
:10566000000000000000000000000000000000003A
:10567000000000000000000000000000000000002A
:105680007FFC180C180418021802180018001810D3
:10569000181018301FF018301810181018001800C3
:1056A0001800180218021804180C7FFC00000000F3
:1056B00000000000000000000000000000000000EA
:1056C00000000000000000000000000000000000DA
:1056D00000000000000000000000000000000000CA
:1056E00000000000000000000000000000000000BA
:1056F00000000000000000000000000000000000AA
:105700007FFC181C18041802180218001800181042
:10571000181018301FF01830181018101810180032
:10572000180018001800180018007E000000000083
:105730000000000000000000000000000000000069
:105740000000000000000000000000000000000059
:105750000000000000000000000000000000000049
:105760000000000000000000000000000000000039
:105770000000000000000000000000000000000029
:1057800003C00C30081018183008300820006000E2
:105790006000600060006000607E60186018201883
:1057A00030183018101818180C2007C0000000001E
:1057B00000000000000000000000000000000000E9
:1057C00000000000000000000000000000000000D9
:1057D00000000000000000000000000000000000C9
:1057E00000000000000000000000000000000000B9
:1057F00000000000000000000000000000000000A9
:10580000FC3F300C300C300C300C300C300C300CB9
:10581000300C300C3FFC300C300C300C300C300CA9
:10582000300C300C300C300C300CFC3F0000000011
:105830000000000000000000000000000000000068
:105840000000000000000000000000000000000058
:105850000000000000000000000000000000000048
:105860000000000000000000000000000000000038
:105870000000000000000000000000000000000028
:105880001FF801800180018001800180018001807A
:105890000180018001800180018001800180018000
:1058A000018001800180018001801FF8000000005C
:1058B00000000000000000000000000000000000E8
:1058C00000000000000000000000000000000000D8
:1058D00000000000000000000000000000000000C8
:1058E00000000000000000000000000000000000B8
:1058F00000000000000000000000000000000000A8
:1059000007FE0060006000600060006000600060F2
:105910000060006000600060006000600060006087
:10592000006000600060006000600060706070C037
:1059300071803F0000000000000000000000000037
:105940000000000000000000000000000000000057
:105950000000000000000000000000000000000047
:105960000000000000000000000000000000000037
:105970000000000000000000000000000000000027
:105980007E7C183018201860184018801880190084
:1059900019001B001D801D8018C018C018601860F9
:1059A000183018301830181818187E3E0000000003
:1059B00000000000000000000000000000000000E7
:1059C00000000000000000000000000000000000D7
:1059D00000000000000000000000000000000000C7
:1059E00000000000000000000000000000000000B7
:1059F00000000000000000000000000000000000A7
:105A00007E00180018001800180018001800180070
:105A100018001800180018001800180018001800C6
:105A20001800180218021804180C7FFC000000006F
:105A30000000000000000000000000000000000066
:105A40000000000000000000000000000000000056
:105A50000000000000000000000000000000000046
:105A60000000000000000000000000000000000036
:105A70000000000000000000000000000000000026
:105A8000F00F381C381C381C381C382C2C2C2C2CB3
:105A90002C2C2C4C2C4C264C264C264C268C228C08
:105AA000238C238C230C230C210CF13F00000000DD
:105AB00000000000000000000000000000000000E6
:105AC00000000000000000000000000000000000D6
:105AD00000000000000000000000000000000000C6
