:020000040800F2
:10000000980E002049010008C7350008D72D0008C8
:10001000C535000839030008B93E0008000000009B
:10002000000000000000000000000000DD380008B3
:10003000A303000800000000C9350008DF380008ED
:100040006301000863010008630100086301000800
:1000500063010008630100086301000863010008F0
:1000600063010008630100086301000863010008E0
:10007000630100083D030008490300085503000818
:10008000610300086D0300085902000863010008BD
:10009000630100086301000863010008A50300086C
:1000A00063010008630100086301000863010008A0
:1000B0006301000863010008630100086301000890
:1000C000630100086301000863010008CD350008E2
:1000D000F9350008A13E0008AD3E000863010008A4
:1000E0006301000863010008630100086301000860
:1000F0006301000863010008630100086301000850
:10010000630100086301000863010008630100083F
:100110006301000863010008613900086D390008B7
:10012000630100086301000863010008630100081F
:10013000DFF810D000F06EF800480047C544000812
:10014000AFF30080980E002006488047064800471D
:10015000FEE7FEE7FEE7FEE7FEE7FEE7FEE7FEE777
:10016000FEE7FEE75D39000831010008202A04DBC4
:10017000203A21FA02F00021704721FA02F3D04020
:10018000C2F120029140084319467047D2B201E003
:1001900000F8012B491EFBD270470022F6E710B58C
:1001A00013460A4604461946FFF7F0FF204610BDE5
:1001B0002DE9F05F0546002092469B46884606469C
:1001C000814640241BE02846414647462246FFF729
:1001D000CDFF53465A46C01A914110D311461846D6
:1001E000224600F029F82D1A67EB01084F462246F7
:1001F0000120002100F020F817EB00094E41201EDD
:10020000A4F10104DFDC484631462A464346BDE8F6
:10021000F09F0000064C074D06E0E06840F0010347
:1002200094E8070098471034AC42F6D3FFF784FFF8
:100230003846000858460008202A04DB203A00FA15
:1002400002F1002070479140C2F1200320FA03F32D
:100250001943904070470000014800F096B9000033
:100260002C00002070B5044600688168C943C907A6
:1002700017D1816821F00101816000F04BFE054635
:100280000AE000BF00F046FE401B022804D92068A7
:100290008068C043C00706D020688068C043C0079C
:1002A000F0D0002070BDA06A40F01000A062E06AAB
:1002B00040F00100E062012070BD0000F8B50026AA
:1002C0000446009600688168C943C9072DD081683B
:1002D00041F001018160164816490068B0FBF1F059
:1002E00000E0401E00900028FBD100F013FE054600
:1002F00016E000BF00F00EFE401B022810D9206857
:100300008068C043C0070BD0A06A40F01000A06214
:10031000E06A40F00100E06284F824600120F8BD4A
:1003200020688068C043C007E4D10020F8BD000009
:100330001000002040420F00FEE70000014800F0DE
:1003400027BB00000C010020014800F021BB000089
:1003500050010020014800F01BBB00009401002068
:10036000014800F015BB000040030020014800F0E8
:100370000FBB00008403002030B590F840500124EA
:10038000AC40C56B6C60046863604368102B036805
:1003900003D099600068C26030BD9A600068C16097
:1003A00030BD7047402000F0A7BC72B6FEE70000E9
:1003B000F8B500250446009590F8240001280BD0DC
:1003C000012084F824002046FFF74CFF2046FFF769
:1003D00075FF060002D050E00220F8BDA06A20F4AC
:1003E000885040F00200A062022000F031FE254952
:1003F0000968B1FBF0F0400000E0401E00900028CA
:10040000FBD12068816841F00801816000F082FD25
:10041000074608E000F07EFDC01B0A2803D92068CB
:100420008068000715D4206880680007F2D420682F
:10043000816841F00401816000F06CFD074612E024
:1004400000F068FDC01B0A280DD9206880684007AD
:1004500009D5A06A20F0020040F01000A06284F8E4
:1004600024500120F8BD206880684007E8D4A06AC5
:1004700020F0020040F00100A06284F824503046D1
:10048000F8BD00001000002070470000F8B50024FF
:10049000009490F824202546012A12D0012280F8E9
:1004A00024204A681F23072A0DD20668776B521E44
:1004B00002EB820293409F430B6893401F43776394
:1004C00019E00220F8BD06680D2A0AD2376BD21F48
:1004D00002EB820293409F430B6893401F433763B4
:1004E00009E0F76A0D3A02EB820293409F430B68E2
:1004F00093401F43F7620A68072306680A2A0AD353
:10050000F7680A3A02EB420293409F438B6893409C
:100510001F43F76008E0376902EB420293409F43B4
:100520008B6893401F4337610A68102A01D0112A53
:1005300020D1124B02689A4217D193681B0219D43A
:10054000936843F4000393600968102912D10C49A1
:100550000C4A0968B1FBF2F101EB8101490000E0AE
:10056000491E00910029FBD104E0816A41F020017D
:100570008162012480F824502046F8BD0024014007
:100580001000002040420F00704770B5044600681C
:1005900006684568A90625D5B10723D5A16AC9060D
:1005A00003D4A16A41F40071A1628168C1F34241A0
:1005B000072910D1217B71B9416821F020014160E8
:1005C000A06A20F48070A062A06AC00403D4A06A6C
:1005D00040F00100A0622046FFF7D6FF21686FF0CF
:1005E0001200086028062ED570072CD5A06AC00618
:1005F00003D4A06A40F40050A06220688168C1F36F
:100600000231072909D04168490515D48168C1F331
:100610004241072910D1217B71B9416821F0800145
:100620004160A06A20F48050A062A06AC00503D493
:10063000A06A40F00100A0622046FFF725FF216874
:100640006FF00C00086068060CD5F0070AD0A06AAD
:1006500040F48030A062204600F096F821686FF0E8
:100660000100086070BD00002DE9F04104004FF06A
:1006700000057FD0A06A002628B9E66284F82460CD
:10068000204600F083F82046FFF7ECFDA16AC9067A
:1006900000D420B1A06A40F01000A0626AE0A16A14
:1006A00021F4885141F00201A162334923688B4251
:1006B000E16904D1B1F5402F01D14FF40021277B2E
:1006C0004FF4807C41EA470261680A43A1686145B2
:1006D00008D0012906D0002194F814E0BEF1010FE2
:1006E00002D00AE06146F7E7C7B1A76A47F02007E2
:1006F000A762E76A47F00107E7625F6827F4694786
:100700000F435F60236899681C4F3940114399601B
:10071000A16861450BD0012909D00CE0DFF860E049
:10072000A7690EEB47370F4347F40061E5E7218ADD
:100730000D05A5F580152168CB6A23F470032B43C2
:10074000CB62216889680F4B1940914208D1E6625B
:10075000A16A21F0020141F00101A162BDE8F0812E
:10076000A06A20F0020040F01000A062E06A40F0B1
:100770000100E0620120F1E7003C0140FDF7E1FFEC
:1007800000E0FFFFFE0E1FFF7047000010B586B0AF
:100790000021009101910291039100681A49884259
:1007A0002FD11A48816941F400718161816901F496
:1007B00000710491816941F010018161816901F04A
:1007C00010010491816941F008018161806903246D
:1007D00000F0080004900F20CDE9000469460C48A1
:1007E00000F096FA0220CDE900046946094800F0BD
:1007F0008FFA00221146122000F0F8FB122000F0C0
:10080000E7FB06B010BD00000024014000100240CC
:1008100000100140000C014010B590F8211000229A
:10082000022905D00421816380F82020012010BD19
:1008300001680B6823F00E030B6001680B6823F05E
:1008400001030B6090F84030C46B012101FA03F3FF
:10085000636080F8211080F82020104610BD000051
:100860002DE9F05F90F821100024022903D0042123
:100870008163012485E001680A6822F00E020A60A3
:1008800001680A6822F001020A603F4E3E4FB2152D
:10089000DFF8F4C0DFF8F090DFF8ECA0DFF8E8B0A4
:1008A000DFF8E4E00168783F13011502ACF1640C55
:1008B000A9F15009AAF13C0AABF1280BAEF1140ED4
:1008C0004FF48018B14227D9B9420ED0614512D0F9
:1008D00049451DD0514518D0594518D0714501D111
:1008E000424615E0294EB14201D1012210E0274EC7
:1008F0001436B14201D110220AE0244E2836B1420A
:1009000006D0224A3C32914201D11A4600E02A46E2
:100910001E49091F0A602BE0B94213D0614517D068
:10092000494522D051451DD059451DD0714501D1B1
:1009300042461AE0B14202D14FF0807215E0134EE8
:10094000B14201D1012210E0104E1436B14201D162
:1009500010220AE00D4E2836B14206D00B4A3C3236
:10096000914201D11A4600E02A46074980394A607F
:10097000012180F82110002180F82010416B01B185
:1009800088472046BDE8F09F8000024008040240EE
:100990002DE9F05FC16B0A6801680B68046C4FF0C9
:1009A000040808FA04F8844D844E854FDFF814C219
:1009B000DFF81492DFF814A2DFF814B2DFF814E2C3
:1009C00018EA020F65D05FEA437862D50A6892069A
:1009D00003D40A6822F004020A60DFF8F0814FF4C1
:1009E0008062016808F1140813011402414524D9FA
:1009F000A9420DD0B1420FD0B9421AD0614515D0ED
:100A0000494515D0514501D1120312E0594501D194
:100A100004220EE0714501D140220AE06D4D1435EB
:100A2000A94206D06B4A2832914201D11A4600E011
:100A300022466749091F0A6029E0A94213D0B14242
:100A400015D0B94220D061451BD049451BD0514536
:100A500002D14FF4800217E0414502D14FF080628D
:100A600012E0594501D104220EE0714501D1402226
:100A70000AE0584D1435A94206D0564A2832914210
:100A800001D11A4600E022464B4908394A60C16A42
:100A900071E04FF0020808FA04F818EA020F70D06B
:100AA0005FEA83786DD50A68920606D40A6822F058
:100AB0000A020A60012180F82110DFF810814FF44A
:100AC0000072016808F1140813011402414524D989
:100AD000A9420DD0B1420FD0B9421AD0614515D00C
:100AE000494515D0514501D1120312E0594501D1B4
:100AF00002220EE0714501D120220AE0354D143565
:100B0000A94206D0334A2832914201D11A4600E068
:100B100022462F49091F0A6029E0A94213D0B14299
:100B200015D0B94220D061451BD049451BD0514555
:100B300002D14FF4001217E0414502D14FF000728C
:100B400012E0594501D102220EE0714501D1202267
:100B50000AE0204D1435A94206D01E4A283291429F
:100B600001D11A4600E02246134908394A600021A3
:100B700080F82010816A00291CD0BDE8F05F08478A
:100B8000FFE70825A540154214D01A0712D50A68B8
:100B900022F00E020A6090F84020C36B012101FA96
:100BA00002F25A60816380F82110002180F8201041
:100BB000016BE0E7BDE8F09F080002401C00024026
:100BC0003000024044000240580002406C000240E5
:100BD000080402401C04024030B560B11A4B0268A0
:100BE00014219A4209D2194B1344B3FBF1F1890045
:100BF000016417490AE0012030BD134B5B421344E6
:100C0000B3FBF1F1890001640F490839C163022186
:100C100080F82110136843F6F0718B43F0E901145A
:100C20002143D0E902452C4321430469214344690F
:100C3000214384692143194311600021416301224A
:100C400042770177084630BD08040240F8FFFDBF37
:100C50000000024070B5044690F8200000250128ED
:100C60000CD0012084F8200094F821600020012E8F
:100C700006D084F820000225284670BD022070BDF1
:100C8000022684F82160A0632068066826F0010629
:100C900006602046FFF770FBE06A002820680168C4
:100CA00002D041F00E0106E021F00401016020684D
:100CB000016841F00A0101602068016841F001010A
:100CC0000160D9E770B5044600F024F90546601CC0
:100CD00002D004480078044400F01CF9401BA042F4
:100CE000FAD370BD04000020402802D10149012040
:100CF0000870704720000020044910B50A680242BD
:100D000002D00860FFF7F0FF10BD0000140401409E
:100D10002DE9F84FDFF8C8910024A9F1040B234610
:100D20000F2709F1040AABF1040ED1E00125A5401B
:100D300006EA0502AA4276D1DFF8A8C14E68A6EB02
:100D40000C0866452BD00DDC032E34D005DC36B301
:100D5000012E19D0022E2FD11BE0112E16D0122EEB
:100D60002AD119E0B8F5881F19D006DCB8F5803F04
:100D700015D0B8F5801F1FD111E0B8F5001F0ED0B7
:100D8000B8F5041F18D10AE0CB6815E0CB681B1D2D
:100D900012E0CB6808330FE0CB680C330CE08B68B3
:100DA0002BB1012B4FF0080303D0456104E004236D
:100DB00002E0056100E00023FF2A01D8064601E0B9
:100DC00000F104064FEA840501D9A5F12005D6F803
:100DD000008007FA05FC28EA0C0803FA05F548EA42
:100DE0000508C6F800804D68ED0070D53E4DAE692F
:100DF00046F00106AE61AD6924F0030605F0010579
:100E000000953A4D06EB050CDCF80850A607360FA6
:100E100007FA06F825EA0805DFF8D480404503D133
:100E20004FF0000825E052E0DFF8C880404502D1CD
:100E30004FF001081DE0DFF8C080404502D14FF0BF
:100E4000020816E0DFF8B480404502D14FF00308F5
:100E50000FE0DFF8AC80404502D14FF0040808E015
:100E6000DFF8A080404502D14FF0050801E04FF0C7
:100E7000060808FA06F848EA0508CCF808804D6824
:100E8000D9F80060ED024D4601D5164300E09643C7
:100E90002E604D68DAF80060AD02554601D5164364
:100EA00000E096432E604D68DBF80060AD035D46C0
:100EB00001D5164300E096432E604D68DEF80060D1
:100EC000ED03754601D5164300E096432E60641C81
:100ED0000A681646E2407FF429AFBDE8F88F0000AB
:100EE0000804014000001110001002400000014001
:100EF00000080140000C01400010014000140140B6
:100F000000180140001C01400AB10161704709044A
:100F1000FBE70000014880687047000004000020E3
:100F20000248816802781144816070470400002003
:100F3000074810B5016841F010010160032000F07E
:100F400075F80F2000F006F800F024F8002010BD1E
:100F50000020024070B50D4D04464FF47A71287898
:100F6000B1FBF0F00A490968B1FBF0F001F0F7F8C5
:100F700048B9102C07D200222146501E00F036F846
:100F800000206C6070BD012070BD000004000020D6
:100F9000100000200C4808B5816941F00101816111
:100FA000816901F001010091C16941F08051C16185
:100FB000C06900F0805000900448416821F0E06171
:100FC00041F00071416008BD001002400000014086
:100FD000002809DB00F01F02012191404009800038
:100FE00000F1E020C0F8001170470000F0B40E4B93
:100FF0001B680C46C3F30223C3F10705042D00D977
:101000000425191D072901D2002300E0DB1E01265B
:1010100006FA05F1491E214099409E40761E164071
:101020003143F0BC02F0F6BF0CED00E0064900F0E1
:10103000070208684FF6FF03184040EA0220034AFF
:1010400010430860704700000CED00E00000FA0556
:1010500010B501460020284C04292FD00BDC0129B3
:1010600030D0022929D100F06BF96168C1F38131D8
:10107000491C49001FE0082920D010291DD16168B2
:101080002268D20119D51D48C1F38342C903805C8F
:101090000AD56168194AC1F34041921E515C184A51
:1010A000B2FBF1F1484301E0164948436168490247
:1010B00003D440000321B0FBF1F010BDBDE81040A7
:1010C00000F04EB9226AC2F30121012903D192072F
:1010D00001D5C80310BD022905D1626A920702D565
:1010E00049F6404010BD0329FCD121688903F9D598
:1010F0004FF2244010BD00000010024010460008CE
:1011000000127A0000093D002DE9F84305460078F9
:10111000354CC00754D0E0690026C00008D4E0690F
:1011200040F08050E061E069012600F080500090BE
:101130002E480168C90512D40168804641F48071C7
:101140000160FFF7E7FE074605E000BFFFF7E2FE9C
:10115000C01B642823D8D8F80000C005F6D5206A43
:1011600010F4407021D0A98801F4407181421CD054
:10117000206A1F49012220F440700A6000220A60A0
:101180002062C00711D0FFF7C5FE074641F288383C
:1011900008E000BFFFF7BEFEC11B414502D9032096
:1011A000BDE8F883206A8007F4D5206A696820F4D6
:1011B0004070084320621EB1E06920F08050E06179
:1011C0002878800705D56068A96820F44040084366
:1011D00060602878C00605D56068696920F48000E1
:1011E000084360600020DBE7001002400070004010
:1011F000400442422DE9F0470F46050061D0434EBE
:10120000306800F00700B84209D2306820F00700CB
:1012100038433060306800F00700B84251D1286888
:101220003B4C810712D5400703D5606840F4E0606D
:1012300060602878000703D5606840F46050606003
:101240006068A96820F0F000084360602878C00753
:1012500028D06868012810D02168022810D089079A
:1012600000292EDA616821F0030101436160FFF774
:1012700051FE804641F288390DE021688903EFE78D
:101280008901EDE7FFF746FEA0EB0801494502D9C9
:101290000320BDE8F0876068696800F00C00B0EBDF
:1012A000810FEFD1306800F00700B8420BD93068E9
:1012B00020F0070038433060306800F00700B84283
:1012C00001D00120E5E72878400705D56068E96886
:1012D00020F4E060084360602878000706D5606865
:1012E000296920F4605040EAC100606000F038F8DD
:1012F0006168084AC1F30311515CC840064908609F
:1013000006480068FFF726FE0020C2E700200240E2
:1013100000100240204600081000002008000020B5
:101320000448054900684968044AC1F30221515C38
:10133000C8407047100000200010024030460008EE
:101340000448054900684968044AC1F3C221515C58
:10135000C8407047100000200010024030460008CE
:101360000E4A51680E4801F00C03042B11D0082BD3
:101370000FD10C48C1F38343C903C05C0AD551683F
:10138000084AC1F34041921E515C054A5043B0FBEC
:10139000F1F07047044948437047000000100240D4
:1013A00000127A00FE45000800093D002DE9F84FC3
:1013B000040070D02078C04DC00749D06868C0F3E1
:1013C0008100012807D06868C0F38100022809D194
:1013D0006868C00306D52868800339D5606800288E
:1013E000E7D035E06068B0F5803F0BD010B1B0F5C4
:1013F000A02F11D0286820F480302860286820F4BD
:10140000802002E0286840F480302860606890B155
:10141000FFF780FD06460AE0286840F48020286037
:10142000F0E700BFFFF776FD801B642873D82868BB
:101430008003F7D50CE0FFF76DFD064605E000BF21
:10144000FFF768FD801B6428F0D828688003F7D474
:1014500020789A4E80074FF001094FF0000839D5E7
:10146000686810F00C0F07D06868C0F3810002288C
:1014700009D16868C00306D42868800714D520699C
:10148000012808D110E02069B0B1C6F80090FFF73C
:1014900041FD074605E00AE1FFF73CFDC01B0228BD
:1014A000C4D828688007F7D52868616920F0F8005B
:1014B00040EAC10028600DE0C6F80080FFF72AFD71
:1014C000074604E0FFF726FDC01B022823D8286842
:1014D0008007F7D4207800072CD57948A169D9B1C5
:1014E000C0F80090FFF716FD074604E0FFF712FD75
:1014F000C01B02280FD8686A8007F7D571484FF4DF
:10150000FA510068B0FBF1F0009000BF0098411E56
:101510000091FAD20EE080E0C0F80080FFF7FAFCFC
:10152000074604E0FFF7F6FCC01B022875D8686A7E
:101530008007F7D42078400760D5E8690027C0000D
:1015400008D4E86940F08050E861E869012700F0BC
:10155000805000905C480168C90513D40168834637
:1015600041F480710160FFF7D5FC824606E000BFC0
:10157000FFF7D0FCA0EB0A0064284ED8DBF800008F
:10158000C005F5D5E06801280AD008B1052813D0B8
:10159000286A20F001002862286A20F0040002E096
:1015A000286A40F001002862E06841F2883B98B167
:1015B000FFF7B0FC82460BE0286A40F00400286286
:1015C000EEE700BFFFF7A6FCA0EB0A0159455AD889
:1015D000286A8007F6D50CE0FFF79CFC824605E000
:1015E000FFF798FCA0EB0A0159454CD8286A800700
:1015F000F6D41FB1E86920F08050E861E06988B353
:101600006968C1F38101022944D00228C6F86080CC
:1016100004D0FFF77FFC044638E034E0FFF77AFCA3
:10162000074604E0FFF776FCC01B02282BD8286889
:101630008001F7D4206AB0F5803F05D16868A168C1
:1016400020F4003008436860D4E908010843696861
:1016500021F4741108436860C6F86090FFF75AFCE3
:10166000044606E025E000BFFFF754FC001B0228FB
:1016700009D828688001F7D51BE000BFFFF74AFCB6
:10168000001B022802D90320BDE8F88F28688001DA
:10169000F4D40EE00128F7D06868226A00F48031A3
:1016A000914204D1616A00F47010884201D0012097
:1016B000EAE70020E8E70000001002400000424294
:1016C000800442421000002000700040704700007B
:1016D00038B50446006842688168C9434B0606D5A0
:1016E000CB0704D1D3435B0601D4216C05E08B0703
:1016F00008D4D3431B0605D4616C01B02046BDE875
:10170000304008478B0601D54B0646D4D3439B0691
:1017100043D44B060AD494F85130032B3ED0636D6A
:1017200043F004036365C36883680093890609D4A2
:10173000616D41F00101616581680091016821F0EE
:1017400040010160606D002827D02068416821F0C9
:10175000E0014160012084F85100900722D0206808
:10176000416821F003014160104DE06C40B14563D8
:10177000E06CFFF775F818B1606D40F040006065EF
:10178000A06C002809D04563A06CFFF769F8002819
:1017900003D0606D40F04000606538BDC16880686E
:1017A000009038BD2046FFF791FF38BD0536000890
:1017B00070B5040009D0606A002540B125616561FB
:1017C000A56294F8510040B10CE0012070BD606842
:1017D000B0F5827FF4D0E561F2E784F850502046FE
:1017E00000F040F8022084F851002068016821F0E0
:1017F00040010160A088218900F4827001F4044155
:101800000843A18901F400610843217C01F0020131
:101810000843217D01F001010843218B01F400718F
:101820000843217F01F03801084394F8201001F0AB
:1018300080010843218D01F40051084321680860AC
:10184000A069042101EA1040216848602068C1694C
:1018500021F40061C1616565012084F85100002018
:1018600070BD00002DE9F04186B000240094019481
:101870000294039406464A4D03684A480221032213
:1018800080274FF01008AB4230D1836943F4805376
:101890008361836903F480530493836943F00403F1
:1018A00083618069039200F004000490A020CDE9D8
:1018B000000169463C48FFF72BFA3D4D3B48C5E91E
:1018C00002472C616C61AC61EC61C5E900082846F7
:1018D000FFF782F908B1FEF768FDB56400221146F2
:1018E00023206E62FFF782FB232053E0314DAB4291
:1018F00052D1C36943F48043C361C36903F4804395
:101900000493836943F00803836180692A4D00F0E2
:10191000080004904FF42040CDE90001039269468D
:101920002846FFF7F5F94FF48040CDE900046946F9
:1019300028460294FFF7ECF91D4D1C48443514303D
:10194000C5E90004C5E902472C616C61AC61284619
:10195000EC61FFF741F908B1FEF727FDF5646E620F
:10196000134D124888352830C5E902472C616C6157
:10197000AC61EC61C5E900082846FFF72DF908B114
:10198000FEF713FDB5640022114624206E62FFF7B6
:101990002DFB2420FFF71CFB06B0BDE8F081000002
:1019A00000300140001002400008014030000240B9
:1019B0000C01002000380040000C01402DE9F84FD8
:1019C000044690F851001D4616460F46012838D1AE
:1019D00060684FF00408B0F5827F01D1A06830B391
:1019E000FFF798FA8246002F75D0002E73D094F836
:1019F0005000012825D04FF0010984F8509084F858
:101A000051804FF00008C4F85480A763A687E6878A
:101A1000C4F83080A4F83480A4F83680C4F840803C
:101A2000C4F84480A068B0F5004F0CD015E084F8ED
:101A30005180009313460A46204600F09BF9BDE80A
:101A4000F88F0220FBE72068016821F04001016067
:101A50002068016821F4804101602068016849061E
:101A600003D4016841F040010160E068C0B134E096
:101A700020688168C90709D0007BA16B0870A06B42
:101A8000401CA063E08F401EE08709E0FFF742FAA8
:101A9000A0EB0A00A84202D3681C01D032E085B353
:101AA000E08F0028E4D11BE020688168C90709D0D5
:101AB000C068A16B0880A06B801CA063E08F401EF3
:101AC000E0870AE0FFF726FAA0EB0A00A84203D35A
:101AD000681C02D016E012E09DB1E08F0028E3D12F
:101AE00052462946204601F049FE08B12020606593
:101AF00084F8519084F85080606D00289FD00120B8
:101B00009DE7FFE784F8519084F85080032096E722
:101B100070B5044690F85100012829D1A06804232B
:101B200018B96568B5F5827F17D0F9B1F2B194F8AC
:101B30005050012D1CD0012584F8505084F85130AC
:101B400000256565A163A287E28725646564A58693
:101B5000E586B0F5004F0DD016E084F851302046F0
:101B6000BDE8704013460A4600F0FCB9012070BD84
:101B7000022070BD2068016821F0400101602068EA
:101B8000016821F480410160E16C1748C862E16C92
:101B900016488862E16C16480863E06C4563E38F81
:101BA0002168A26B0C31E06CFFF754F830B1606D26
:101BB00040F01000606584F85050D7E72068016855
:101BC000490603D4016841F04001016084F8505097
:101BD0002068416841F0200141602068416841F07F
:101BE00001014160002070BD3736000855360008FD
:101BF0001536000800680349884202D102490120D5
:101C000008707047003800401800002070472DE928
:101C1000F84F984616468A460446FFF77BF98146F8
:101C200094F8510001281ED1BAF1000F73D0002E94
:101C300071D094F85000012815D0012784F8507015
:101C4000032084F8510000256565C4F830A0A686FD
:101C5000E686A563A587E58765642564A068B0F579
:101C6000004F03D00CE00220BDE8F88F2068016827
:101C700021F0400101602068016841F48041016069
:101C800020680168490603D4016841F04001016001
:101C9000E068B0F5006F606803D048B3012E27D02C
:101CA00047E008B1012E1FD1206B21680088C86071
:101CB00006E020688168890709D5216B0988C16021
:101CC000206B801C2063E08E401EE0860CE0FFF756
:101CD00021F9A0EB0901414503D3B8F1FF3F03D03F
:101CE00035E0B8F1000F32D0E08E0028E1D123E0DA
:101CF000206B21680078087306E0206881688907F6
:101D00000AD5216B09780173206B401C2063E08E9B
:101D1000401EE0860DE02BE0FFF7FCF8A0EB090188
:101D2000414503D3B8F1FF3F03D010E0B8F1000FF5
:101D30000DD0E08E0028E0D14A464146204601F011
:101D40004BFD08B120206065A06830B109E084F83F
:101D5000517084F85050032086E72068C16880687D
:101D6000009084F8517004F8505F60680028F3D048
:101D7000012079E72DE9FF4F81B01D4693460446C7
:101D80004FF001090E9EFFF7C5F8074694F8510081
:101D90006168012806D0B1F5827F3CD1A168C9BB3A
:101DA000042838D10298002871D0BBF1000FFBD075
:101DB000002DF9D094F8500001282CD04FF0010AE2
:101DC00084F850A094F85100042802D0052084F82B
:101DD00051004FF00008C4F85480C4F838B0E587CB
:101DE000A58702992163E586A586C4F84080C4F8DA
:101DF000448020680168490603D4016841F040012D
:101E00000160E068B0F5006F606808D0F0B3012DA4
:101E100049D081E0FFE7022005B0BDE8F08F08B1AE
:101E2000012D39D1206B21680088C860206B801C8F
:101E30002063E08E401EE0862EE0206881688907DE
:101E40000FD5E18E69B1B9F1010F0AD1216B098873
:101E5000C160206B801C2063E08E401EE0864FF046
:101E6000000920688168C9070CD0E18F51B1C068B2
:101E7000A16B0880A06B801CA063E08F401EE087F0
:101E80004FF00109FFF746F8C01B01E00BE067E0E7
:101E9000B04201D3701C50D1E08E0028CDD1E08F2C
:101EA0000028CAD13EE0206B216800780873206BBF
:101EB000401C2063E08E401EE0862DE02068816893
:101EC00089070FD5E18E69B1B9F1010F0AD1216BF4
:101ED00009780173206B401C2063E08E401EE08671
:101EE0004FF0000920688168C9070CD0E18F51B11B
:101EF000C068A16B0870A06B401CA063E08F401EFF
:101F0000E0874FF00109FFF705F8C01BB04202D38C
:101F1000701C01D011E086B1E08E0028CED1E08F98
:101F20000028CBD13A463146204601F055FC50B14D
:101F30002020606584F8508012E084F851A084F875
:101F40005080032068E7A06818B92068C1688068DD
:101F5000009084F851A084F85080606D0028F1D082
:101F6000012059E770B5044690F8510065680128D2
:101F700006D0B5F5827F3AD1A568A5BB042836D135
:101F800091B38AB383B394F8500001282FD0012075
:101F900084F8500094F85100042802D0052084F8F9
:101FA0005100002565652163A386E386A263A387AC
:101FB000E3872564656494F85100042819D0E16C26
:101FC0002748C8622748E16C8862E16C26480863AC
:101FD000E06C4563E38F2168A26B0C31E06CFEF787
:101FE00039FE00BB0AE002E0FFE7012070BD0220DD
:101FF00070BDE16C1D48C8621D48E4E72068416877
:1020000041F001014160A06CC562A06C8562A06CCA
:102010000563A06C4563E38E2268216B0C32A06CD3
:10202000FEF718FE30B1606D40F01000606584F876
:102030005050DAE720680168490603D4016841F08E
:102040004001016084F850502068416841F020014F
:1020500041602068416841F002014160002070BD8C
:102060004B360008233700081536000837360008BD
:102070005536000870B5044690F8510001281CD16F
:10208000C9B1C2B194F85000012816D0012084F8DB
:102090005000032084F85100002565652163A28665
:1020A000E286A56365642564A587E587A068B0F529
:1020B000004F04D00DE0012070BD022070BD2068EB
:1020C000016821F0400101602068016841F480410D
:1020D0000160A16C1748C862A16C17488862A16CA6
:1020E00016480863A06C4563E38E2268216B0C32AE
:1020F000A06CFEF7AFFD30B1606D40F01000606580
:1021000084F85050D7E720680168490603D4016875
:1021100041F04001016084F850502068416841F06E
:10212000200141602068416841F0020141600020C7
:1021300070BD000041360008BF36000815360008A3
:1021400000680349884202D10249012008707047A3
:10215000003001401400002070477047704710B5F0
:10216000401EB0F1807F01D3012010BD4FF0E0246C
:1021700060610F21601701F04DFF0020A061072072
:102180002061002010BD70477047000070B590F8C6
:102190003C20012A2CD0012480F83C40022280F807
:1021A0003D2003685A689D6822F070060A68324331
:1021B0005A60104B02689A420ED00F4B9A420BD0D5
:1021C000B2F1804F08D00D4B9A4205D00C4B9A4289
:1021D00002D00C4B9A4204D1496825F08003194380
:1021E000916080F83D40002180F83C10084670BDA9
:1021F000022070BD002C014000340140000400406A
:1022000000080040000C004010B5040003D094F812
:102210003D0010B107E0012010BD002084F83C0013
:10222000204600F01FF8022084F83D00211D2068A0
:1022300001F0A2FB012084F8460084F83E0084F8F7
:102240003F0084F8400084F8410084F8420084F89C
:10225000430084F8440084F8450084F83D000020E1
:1022600010BD000008B51A4A01681A48914208D109
:10227000C16941F00401C161C06900F0040000902F
:1022800008BD154A91420ED1C16941F01001C161EA
:10229000C069002200F01000009011463620FEF7C1
:1022A000A5FE362010E00D4A9142E9D1C16941F006
:1022B0002001C161C069002200F020000090114699
:1022C0003720FEF793FE3720BDE80840FEF780BEBA
:1022D00000080040001002400010004000140040C0
:1022E00090F83D10012901D001207047022180F8AB
:1022F0003D100168CA6842F00102CA6000680E49D8
:1023000088420ED00D4988420BD0B0F1804F08D0E2
:102310000B49884205D00B49884202D00A498842BD
:1023200004D1816801F00701062903D0016841F05A
:102330000101016000207047002C01400034014081
:102340000004004000080040000C00400168CA681A
:1023500022F00102CA6001680A6A41F211131A42AE
:1023600007D10A6A9B101A4203D10A6822F00102BF
:102370000A60012180F83D100020704770B50446C6
:1023800090F83C000025012817D0012684F83C6015
:10239000022084F83D002068826822F0770222F44F
:1023A0007F4282600868502838D00DDC20284FD04A
:1023B00005DC90B3102811D14AE0022070BD30280E
:1023C00046D040280AD13BE060282FD070280DD09D
:1023D000B0F5805F03D0B0F5005F12D0012584F81E
:1023E0003D60002084F83C00284670BDCB68D1E9F0
:1023F0000121206801F01BFB2068816841F0770112
:1024000009E0CB68D1E90121206801F010FB2068C8
:10241000816841F480418160E1E719E0CA68496858
:10242000206801F0D9FB5021206806E0CA6849689D
:10243000206801F0E2FB6021206801F002FBCEE79A
:10244000CA684968206801F0C7FB40212068F4E7AA
:10245000226801461046F0E770472DE9F041044636
:102460000068C66805694FF00007A90713D5B107D2
:1024700011D5F91E0161012020772068806980074D
:10248000204602D0FFF7E8FF04E000F0A5F8204660
:1024900000F037F92777680716D5700714D521683B
:1024A0006FF004000861022020772068806910F432
:1024B000407F204602D0FFF7CFFF04E000F08CF809
:1024C000204600F01EF92777280715D5300713D5C9
:1024D00021686FF008000861042020772068C06937
:1024E0008007204602D0FFF7B7FF04E000F074F841
:1024F000204600F006F92777E80616D5F00614D531
:1025000021686FF010000861082020772068C069FA
:1025100010F4407F204602D0FFF79EFF04E000F059
:102520005BF8204600F0EDF82777E80708D0F007C1
:1025300006D021686FF001000861204600F03CF9E8
:10254000280608D5300606D521686FF0800008619E
:102550002046FFF718FE680608D5700606D52168E4
:102560006FF040000861204600F0AEF9A8060AD5D9
:10257000B00608D521686FF0200008612046BDE84C
:10258000F041FFF701BEBDE8F081000000B585B065
:102590000021009101910291039100680B4988424A
:1025A00012D10B48816941F0080181618069694657
:1025B00000F0080004904FF4607000900220019039
:1025C00003900448FEF7A4FB05B000BD00080040DE
:1025D00000100240000C0140704770B5044690F8AE
:1025E0003C0000260D4601280FD0012084F83C0055
:1025F0006AB1042A1DD0082A2FD00C2A3FD0012608
:10260000002084F83C00304670BD022070BD206878
:1026100001F020FA2068816941F008018161206899
:10262000816921F004018161206881692A6911436F
:1026300011E0206801F03EFA2068816941F40061F0
:1026400081612068816921F48061816120688169EC
:102650002A6941EA02218161D2E7206801F060FA2B
:102660002068C16941F00801C1612068C16921F099
:102670000401C1612068C1692A69114311E0206821
:1026800001F082FA2068C16941F40061C1612068EB
:10269000C16921F48061C1612068C1692A6941EA88
:1026A0000221C161ACE710B5040003D094F83D00ED
:1026B00010B107E0012010BD002084F83C00204646
:1026C00000F01EF8022084F83D00211D206801F072
:1026D00053F9012084F8460084F83E0084F83F0056
:1026E00084F8400084F8410084F8420084F84300F4
:1026F00084F8440084F8450084F83D00002010BDB3
:102700007047704710B50446022249B104290ED023
:10271000082913D094F84100012816D0012010BDDB
:1027200094F83E000128F9D184F83E200FE094F897
:102730003F000128F2D184F83F2008E094F84000DF
:102740000128EBD184F8402001E084F841200122E7
:10275000206801F05FF913492068134A884201D0CC
:10276000904203D1436C43F40043436420688842A1
:102770000DD090420BD0B0F1804F08D00B49884269
:1027800005D00B49884202D00A49884204D18168A9
:1027900001F00701062903D0016841F00101016041
:1027A000002010BD002C0140003401400004004016
:1027B00000080040000C00402DE9F0473A4A01684B
:1027C00000251268012691420AD13849CA783AB1E7
:1027D0004A78521CD2B24A70082A01D3CD700E71C9
:1027E0003149006848310968884229D1304CDFF806
:1027F000C4A0DFF8C4902078012815D1002204215C
:102800005046FEF781FB002208214F464846FEF75E
:102810007BFB002210213846FEF776FB00222021A8
:102820003846FEF771FB2570DFF8908098F80000BD
:10283000012807D06078012802D16088401C6080A0
:10284000BDE8F0871E496670608809888842F4D325
:102850001C4F387808B1002200E0012204215046C4
:10286000FEF752FB387808B1002200E0012208216F
:102870004846FEF749FB387808B1002200E0012203
:1028800010214846FEF740FB387808B1002200E0EE
:10289000012220214846FEF737FB267088F80050B9
:1028A00065806570CCE7000020020020C809002088
:1028B0000000002000140140000C01402000002016
:1028C000220000202400002070477047704700005D
:1028D000F8B5016804460868CA684B6910F00F0F24
:1028E0004FF0000559D003F0010602F4907737430A
:1028F00065D0C10705D0D10503D5616C41F0010158
:102900006164410705D5D90703D0616C41F002012C
:102910006164810705D5D90703D0616C41F00401DA
:102920006164010707D502F02001314303D0616CD7
:1029300041F008016164616C00293AD0800604D539
:10294000900602D5204601F099F920684069616C33
:10295000C0F38010090700D460B3204601F067F986
:1029600020684069400621D52068143050E8001FD7
:1029700021F0400140E80012002AF5D1E06BA8B137
:102980006D494163E06BFDF76BFF002811D0E06BF0
:10299000416B01B0BDE8F040084783060FD59306B0
:1029A0000DD52046BDE8F84001F068B92046FFF794
:1029B0008DFFF8BD2046FFF789FF6564F8BD266BE3
:1029C0002023012E7CD1C6067AD5D60678D5086894
:1029D0004868009048694FF00206400640D5E16B18
:1029E000086840680004000CE8D0A28D8242E5D956
:1029F000E085886920282DD020680C3050E8001F21
:102A000021F4807140E80012002AF5D120681430CA
:102A100050E8001F21F0010140E80012002AF5D122
:102A20002068143050E8001F21F0400140E80012F7
:102A3000002AF5D184F84230256320680C3050E834
:102A4000001F21F0100140E80012002AF5D1E06BD0
:102A5000FDF7E2FE6663A08DE18D401A81B22AE0A7
:102A6000A08DE18D401A81B2E08D0028A6D000290A
:102A7000A4D022680C3252E8000F20F4907042E893
:102A80000007002FF5D12068143050E8002F22F005
:102A9000010240E80027002FF5D184F84230256379
:102AA00020680C3050E8002F22F0100240E800238C
:102AB000002BF5D166632046FFF707FFF8BDFFE75F
:102AC00005062BD5150629D594F841002128F5D106
:102AD000A068B0F5805F01D12069B0B1206A411CC7
:102AE0002162216800784860E08C401E0004000CE0
:102AF000E084E3D12068C16821F08001C1602068D2
:102B0000C16841F04001C160D8E7206A0088C0F385
:102B100008004860206A801C2062E5E74006CDD5A9
:102B20005006CBD5CA68204622F04002CA6084F81D
:102B3000413000F04FF9C1E71F3C000870B50400B8
:102B400004D094F84100002510B106E0012070BDCA
:102B500084F84050204600F023F8242084F84100F7
:102B60002068C16821F40051C160204601F0E8F8F6
:102B70002068016921F4904101612068416921F0D8
:102B80002A0141612068C16841F40051C160656457
:102B9000202084F8410084F842006563002070BD65
:102BA000F0B585B000240094019402940394064685
:102BB000414F0368414802210322414DBB4226D1C7
:102BC000836943F480438361836903F480430493FE
:102BD000836943F0040383618069039200F0040079
:102BE00004900802CDE9000169462846FEF790F8F6
:102BF0002815CDE90004694628460294FEF788F8B6
:102C0000002211462520FEF7F1F9252050E02D4F36
:102C1000BB424FD1C36943F40033C361C36903F4BA
:102C200000330493836943F0040383618069039252
:102C300000F0040004900420CDE900016946284614
:102C4000FEF766F80820CDE900046946284602949C
:102C5000FEF75EF81D4D1C488027C5E90004C5E954
:102C600002472C616C61AC612846EC61FDF7B4FF52
:102C700008B1FDF79AFBF5636E62144D12484435B6
:102C8000143001C5102091C5104845F81049443052
:102C90006C61AC61EC61FDF79FFF08B1FDF785FB4E
:102CA000B5630022114626206E62FEF79FF92620AA
:102CB000FEF78EF905B0F0BD00380140001002406B
:102CC00000080140004400406C0002404003002026
:102CD00090F84230202B01D00220704721B11AB168
:102CE0000023036301F088B80120704700680E4993
:102CF000884218D10D480179012914D00C4909687E
:102D000049688378421D995481780023491CC9B2CF
:102D100081704370012901D10123C3701144012244
:102D20000348FFF7D5BF704700440040C8090020A2
:102D3000F80200202DE9F843044690F84100984637
:102D400016460D46202802D00220BDE8F88385B142
:102D50007EB100206064212084F84100FEF7DAF89B
:102D6000A6848146E684A0682027B0F5805F02D063
:102D700003E00120E9E7206910B12E4600250EE0AE
:102D800000260CE08021204601F051F8A8B9C6B118
:102D900016F8010B21684860E08C401EE084E08C4E
:102DA0004B464FF00002CDF800800028EAD14FF0EA
:102DB0004001204601F03BF840B184F84170032007
:102DC000C3E735F8020BC0F30800E3E784F841706D
:102DD0000020BAE77047FEE72DE9F04104461D46A2
:102DE00016460F462A2000F043F9204600F05CF911
:102DF000304600F059F92B2000F03AF9384600F03F
:102E000053F9284600F050F9BDE8F0412C2000F0BD
:102E10002FB9000070B5040AC5B2002140F23F137B
:102E2000EF220846FFF7D8FF0E4900204FF440720A
:102E300001F8104001EB4003401C80B25D709042ED
:102E4000F6D3012240210848FEF75EF800244FF433
:102E5000C0652946034800F0E1F8641CA4B2642C64
:102E6000F7D370BDC80300200008014010B56A4CBC
:102E7000002210212046FEF747F80C20FDF722FF24
:102E8000012210212046FEF73FF80C20FDF71AFF23
:102E9000112000F0EDF80C20FDF714FF362000F0B3
:102EA000E7F8002000F0F2F83A2000F0E1F86520A1
:102EB00000F0ECF8B22000F0DBF80C2000F0E6F8AF
:102EC0000C2000F0E3F8002000F0E0F8332000F0E0
:102ED000DDF8332000F0DAF8B72000F0C9F87220EE
:102EE00000F0D4F8BB2000F0C3F83D2000F0CEF88D
:102EF000C02000F0BDF82C2000F0C8F8C22000F07F
:102F0000B7F8012000F0C2F8C32000F0B1F8192092
:102F100000F0BCF8C42000F0ABF8202000F0B6F8B8
:102F2000C62000F0A5F80F2000F0B0F8D02000F087
:102F30009FF8A42000F0AAF8A12000F0A7F8E02054
:102F400000F096F8D02000F0A1F8042000F09EF8E0
:102F50000D2000F09BF8112000F098F8132000F0ED
:102F600095F82B2000F092F83F2000F08FF85420C5
:102F700000F08CF84C2000F089F8182000F086F85A
:102F80000D2000F083F80B2000F080F81F2000F0E7
:102F90007DF8232000F07AF8E12000F069F8D020D5
:102FA00000F074F8042000F071F80C2000F06EF8C6
:102FB000112000F06BF8132000F068F82C2000F0CE
:102FC00065F83F2000F062F8442000F05FF85120DF
:102FD00000F05CF82F2000F059F81F2000F056F8A0
:102FE0001F2000F053F8202000F050F8232000F0BC
:102FF0004DF8212000F03CF8292000F039F800219C
:1030000040F23F13EF220846FFF7E6FEBDE810400E
:103010004FF6FF70FFF7FEBE0010014000F0DCBA73
:1030200030B50244BDB0F02A1CD80B44B3F5A07FE4
:1030300018D85B1E521E9BB292B2FFF7CDFE012242
:1030400040210948FDF760FF084D0024F022694641
:10305000204600F033FF6846F02100F0C5FAF03456
:10306000AC42F3D33DB030BD0008014000C40E00B7
:1030700001B5002240210448FDF746FF01216846C2
:10308000FFF7CCFF08BD00000008014001B5012298
:1030900040210448FDF738FF01216846FFF7BEFFD5
:1030A00008BD00000008014008B500210091010A98
:1030B0008DF800108DF80100012240210348FDF732
:1030C00023FF02216846FFF7A9FF08BD0008014061
:1030D000FEB5002527480095019525490295016018
:1030E00089158160057301240475052606614FF476
:1030F00060214560C0E90641FDF7B6FA08B1FDF769
:1031000054F909208DE8310069461A48FDF7BEF9E7
:1031100008B1FDF74AF90A200090022001906946A3
:103120001448FDF7B3F908B1FDF73FF90B20009003
:103130000320019069460F48FDF7A8F908B1FDF793
:1031400034F90C2000900420019069460948FDF7ED
:103150009DF908B1FDF729F90D20CDE90006694672
:103160000448FDF793F9002801D0FDF71EF9FEBDD4
:10317000002401402C000020194808B5416941F0A5
:10318000010141614069002200F0010000901146F8
:103190000D20FDF72BFF0D20FDF71AFF0022114631
:1031A0000E20FDF723FF0E20FDF712FF002211462F
:1031B0000F20FDF71BFF0F20FDF70AFF002211462D
:1031C0001020FDF713FF1020FDF702FF002211462B
:1031D0001120FDF70BFFBDE808401120FDF7F8BEF8
:1031E000001002402DE9F04F85B0002452480094B1
:1031F000019402940394816941F010018161816915
:1032000001F010010491816941F02001816181691F
:1032100001F020010491816941F00401816181691B
:1032200001F004010491816941F008018161806924
:10323000002200F00800049049F642113F48FDF7D3
:1032400063FE41F61049002249463D48FDF75CFE09
:1032500040F63C4A002251463A48FDF755FE4FF4ED
:10326000805B012259463748FDF74EFE00220421BB
:103270003548FDF749FE49F6021001250226CDE941
:103280000005CDE9024669462C48FDF741FD1020B6
:10329000CDE90004694629480294FDF739FD40272D
:1032A0004FF00308CDF80C800097CDE90154694632
:1032B0002248FDF72DFDCDF800900396CDE901548D
:1032C00069461F48FDF724FD4FF47870CDE90004EE
:1032D00069461B480294FDF71BFDCDF800A003963C
:1032E000CDE9015469461748FDF712FDCDF800B04D
:1032F000CDF80C80CDE9015469461248FDF708FD70
:103300000420CDE90005CDE9024669460E48FDF7E7
:10331000FFFC0E480097CDE9010469460948FDF716
:10332000F7FC002211461720FDF760FE1720FDF77D
:103330004FFE05B0BDE8F08F0010024000080140CC
:1033400000100140000C0140001401400000211059
:10335000104810B50E4901604FF4827141600021A0
:1033600002228160C0E903121202C0E9051208229C
:10337000C0E90721416281620A21C162FEF718FAA1
:10338000002803D0BDE81040FDF70FB810BD0000C5
:10339000003001405C0000200F4810B50D4901606D
:1033A0004FF48271416000218160C1604FF400726E
:1033B0000161C0E90512C1610162416281620A21B5
:1033C000C162FEF7F5F9002803D0BDE81040FCF714
:1033D000ECBF10BD00380040B400002030B58DB007
:1033E00000250795089509950A950B951C216846B7
:1033F0000C95FCF7D2FE344C324820604720C4E9DB
:10340000010540F2E730C4E903052046A561FEF757
:10341000FBFE08B1FCF7C9FF4FF48050079007A9E5
:103420002948FEF7ABFF08B1FCF7BFFF2648FFF7BE
:103430003AF908B1FCF7B9FF0B950BA922480C9596
:10344000FEF7A4FE08B1FCF7B0FF6020CDE900054F
:103450000295042269461C480495FFF7BEF808B19E
:10346000FCF7A3FF2068816921F4006181610822D3
:1034700069461548FFF7B1F808B1FCF796FF2068D8
:10348000C16921F00801C1610C2269460E48FFF7AD
:10349000A4F808B1FCF789FF2068C16921F4006134
:1034A000C16104210848FFF72DF908210648FFF7FC
:1034B00029F90C210448FFF725F90348FFF766F8BE
:1034C0000DB030BD00080040D80100201CB500241C
:1034D0000E4800940C49019401604721C0E9011491
:1034E00040F2E7318461C160FEF78EFE08B1FCF75F
:1034F0005CFF0094694605480194FEF747FE0028EA
:1035000001D0FCF752FF1CBD00100040200200203B
:103510001CB500240E4800940C4901940160472119
:10352000C0E9011409218461C160FEF76DFE08B194
:10353000FCF73BFF0094694605480194FEF726FE20
:10354000002801D0FCF731FF1CBD00000014004032
:10355000680200200C4810B50A4901604FF4E131BF
:103560004160002181600C22C160C0E904128161C8
:10357000C161FFF7E3FA002803D0BDE81040FCF773
:1035800014BF10BD00380140B00200200C4810B537
:103590000A4901604FF4E1314160002181600C2251
:1035A000C160C0E904128161C161FFF7C7FA002858
:1035B00003D0BDE81040FCF7F8BE10BD0044004049
:1035C000F8020020FEE7FEE7704700000148FEF722
:1035D0007FB800005C0000200A460146FF23014836
:1035E000FEF715BB5C0000200A4601460148FEF7C5
:1035F00041BD00005C0000200148FEF769B80000F2
:10360000B400002010B5406A0021C187C186FEF7D2
:103610005DF810BD10B5406A01684A6822F00302E7
:103620004A60416D41F010014165012180F851105F
:10363000FEF74CF810BD10B5406AFEF7E7FA10BD72
:1036400010B5406AFEF788FD10BD10B5406AFEF760
:1036500085FD10BD70B50546446AFDF75BFC02466A
:1036600028680068800626D42068416821F020017F
:103670004160A06818B96068B0F5827F16D02068F4
:10368000416821F0010141606421204600F076F894
:1036900008B1202060650020E087012084F85100F7
:1036A000606D40B12046FEF711F870BD206841689A
:1036B00021F00301E7E72046FEF79CFA70BD38B51C
:1036C0000546446AFDF726FC024628680068800625
:1036D00023D42068416821F02001416020684168BE
:1036E00021F0020141606421204600F075F818B114
:1036F000606D40F020006065A068002118B9206866
:10370000C26880680090E186012084F85100606DF5
:1037100018B12046FDF7DAFF38BD2046FEF710FD50
:1037200038BD70B50546446AFDF7F4FB02462868CB
:10373000006880061ED42068416821F020014160A5
:103740006421204600F048F818B1606D40F0200078
:1037500060652068416821F0030141600020E08637
:10376000E087012084F85100606D18B12046FDF714
:10377000ADFF70BD2046FEF7F0FC70BDF8B5044605
:1037800040684FF48273984217D1A0684FF4806567
:10379000B0F5004F01D0A8420FD12068066826F08E
:1037A000400606606068984207D1A068A84204D12C
:1037B00000920B460022012103E000920B460022FA
:1037C0008021204600F022F8002804D0606D40F0EF
:1037D000200060650320F8BDF8B515460E460B467F
:1037E000009204460122022100F010F840B933464D
:1037F000002280212046009500F008F8002804D01F
:10380000606D40F0200060650320F8BD2DE9F843AD
:103810001E46914688460446089DFDF77BFB401BEB
:10382000351AFDF777FB074625480068C0F3CB3013
:10383000684338E0701C37D0FDF76CFBC01BA84212
:1038400003D215B1009860B32CE02068416821F0E4
:10385000E00141606068B0F5827F0BD1A068B0F5EF
:10386000004F02D0B0F5806F04D12068016821F0CC
:1038700040010160A06AB0F5005F09D120680168CD
:1038800021F4005101602068016841F40051016099
:10389000012084F85100002084F850000320BDE886
:1038A000F8830025401E00902068816838EA0100F6
:1038B00004D000214945BDD10020F0E70121F9E7FE
:1038C0001000002010B5FC23F02223210020FFF778
:1038D000A7FBBDE810400120FDF7F4B97047FDF7E4
:1038E0001FBB30B595B028216846FCF756FC142163
:1038F0000AA8FCF752FC18210FA8FCF74EFC012186
:103900000804CDE900100025029502240491CDE9B8
:1039100007404FF4E01009906846FDF747FD08B1F5
:1039200072B6FEE70AA90F2081E831004FF48060EB
:10393000CDE90D0502210AA8FDF75CFC08B172B6BD
:10394000FEE74FF4004011900F940FA8FDF7DCFB49
:10395000002801D072B6FEE715B030BD70470000F8
:103960000148FEF77ABD0000200200200148FEF762
:1039700074BD000068020020F0B50268204C214DA3
:10398000214E224F224B4FF0804CA04209D098424A
:1039900007D0604505D0A84203D0B04201D0B8425C
:1039A00004D122F0700E4A6842EA0E02A04209D009
:1039B000984207D0604505D0A84203D0B04201D05C
:1039C000B84203D122F44075CA682A434D6922F0F7
:1039D00080022A4302608A68C2620A688262A04248
:1039E00001D0984201D10969016301214161016956
:1039F000C90703D0016921F001010161F0BD000098
:103A0000002C01400004004000080040000C004071
:103A10000034014010B501F01F030121046A9940F0
:103A20008C430462016A9A401143016210BD10B5D3
:103A3000846842EA032224F47F440A4322438260DA
:103A400010BD826822F070020A4342F007018160D3
:103A500070470000F0B5036A026A22F001020262B8
:103A600042688469124E24F073050C682C4323F0DD
:103A700002058B682B430D4DA84201D0B04205D101
:103A800023F00807CB683B4323F00403A84201D08E
:103A9000B04205D14D6922F4407215438A692A4328
:103AA00042608461496841630362F0BD002C0140BB
:103AB00000340140F0B5026A036A23F01003036288
:103AC000436884690D6824F4E64444EA05248D685B
:103AD00022F0200242EA05120F4D104EA84201D0FA
:103AE000B04206D1CF6822F0800242EA071222F0EB
:103AF0004002A84201D0B04207D14D6923F440638F
:103B000043EA85038D6943EA85034360846149681C
:103B100081630262F0BD0000002C014000340140CE
:103B2000F0B5026A036A23F4807303624368C469D0
:103B300022F4007224F073050C68124E2C438D6839
:103B400042EA05220E4DA84201D0B04206D1CF680C
:103B500022F4006242EA072222F48062A84201D0E5
:103B6000B04207D14D6923F4405343EA05138D69F0
:103B700043EA05134360C4614968C1630262F0BD52
:103B8000002C01400034014030B5046A026A22F47E
:103B9000805202624268C3690D6823F4E64343EA37
:103BA00005238D6824F4005444EA0534084DA842E6
:103BB00002D0084DA84204D14D6922F4804242EA65
:103BC00085124260C36149680164046230BD00002F
:103BD000002C01400034014010B5036A046A24F04F
:103BE00001040462846924F0F00444EA021423F01E
:103BF0000A020A438461026210BD10B5036A046AB6
:103C000024F010040462846923F0A00324F47044B7
:103C100044EA023243EA01118261016210BD10B52B
:103C2000406A0021C185C184FEF750FE10BD0168C5
:103C30000C3151E8002F22F4907241E80023002B50
:103C4000F5D10168143151E8002F22F0010241E85A
:103C50000023002BF5D1016B012909D101680C313A
:103C600051E8002F22F0100241E80023002BF5D18B
:103C7000202180F8421000210163704708B590F8B8
:103C80004210222901D0022008BD82684FF48053DF
:103C90009A4201D1016921B1816A9A421BD04AB18D
:103CA0000AE00268816A5268C2F308020A80816AE7
:103CB000891C08E0026972B10268526802F07F0252
:103CC0000A70816A491C8162C18D491E0904090C70
:103CD000C18503D01BE002685268F1E70168CA6839
:103CE00022F02002CA600168CA6822F48072CA60A9
:103CF00001684A6922F001024A61202180F84210DD
:103D000000214163026B012A03D0FEF7EFFF002080
:103D100008BD016301680C3151E8002F22F0100248
:103D200041E80023002BF5D101680A68D20602D5CC
:103D30000A6849680091818DFEF7C7FDE7E700003A
:103D400070B5044600680169E26821F440511143EE
:103D500001612169A0680843616908432168CA6854
:103D600041F20C639A430243CA6020684169A26928
:103D700021F44071114341611E492068884202D1FB
:103D8000FDF7DEFA01E0FDF7CBFA00EBC00101EB35
:103D90000012606864218000B2FBF0F3B3FBF1F322
:103DA0006FF018067343B2FBF0F5B2FBF0F605EBCB
:103DB0008305322303EB0515B5FBF1F5B6FBF1F6F0
:103DC00005F0F00505EB0615B2FBF0F6B2FBF0F0DE
:103DD000B0FBF1F06FF01802504306EB800003EBEC
:103DE0000010B0FBF1F0216800F00F00284488605B
:103DF00070BD00000038014081628285C2850021CB
:103E00004164222180F84210016921B10168CA6829
:103E100042F48072CA6001684A6942F001024A6154
:103E20000068C16841F02001C160002070472DE9A1
:103E3000F843984617460D460446089E24E0701C39
:103E400022D0FDF767F8A0EB0800B0421AD8CEB137
:103E50002068C168490717D5802D15D0402D13D093
:103E60000168C94309070FD4016800254068009024
:103E70002046FFF7DCFE0820606484F840500120F3
:103E8000BDE8F8830320FBE72068006835EA0000FE
:103E900004D00020B842D2D00020F1E70120F9E799
:103EA0000148FEF715BD0000B00200200148FEF7F2
:103EB0000FBD0000F8020020FEE70000F8B50D4637
:103EC00003218DF80010010C8DF80110010A8DF806
:103ED0000210184F14468DF803004FF4805600224C
:103EE00031463846FDF710F84FF4FA72042168465F
:103EF00000F03EF870B92946A2B20F48FDF708FE5F
:103F000078B14FF0FF310D480278002AFCD0002232
:103F1000027041B1012231463846FCF7F5FF01201D
:103F2000F8BD0021EFE7012231463846FCF7ECFFEF
:103F30002046F8BD000C0140B4000020180000200D
:103F400010B500F025F80146BDE8104001A000F0D2
:103F500051B8000054686520636869702069642066
:103F6000697320307825303478200D0A0000000075
:103F700013460A460146054810B54068FDF747FE5E
:103F8000002801D04FF0FF3010BD000018000020C5
:103F90002DE9FC4114A000240068144FCDE9004035
:103FA0004FF48056224631463846FCF7ADFF4FF4B9
:103FB000FA752A46042101A8FFF7DAFF0C48694682
:103FC00002222B464068FDF7F9FC012231463846B3
:103FD000FCF79AFF9DF8000044EA00219DF80100DB
:103FE0000843BDE8FC81000090000000000C014087
:103FF000180000200FB4054B10B503A9044A02981D
:1040000000F028F810BC5DF814FB0000AD44000877
:10401000280000200907090E002804DB00F1E02039
:1040200080F80014704700F00F0000F1E02080F8E5
:10403000141D704702E008C8121F08C1002AFAD1F7
:1040400070477047002001E001C1121F002AFBD118
:10405000704700002DE9FF4F8DB00F460546002642
:1040600006E025280BD0DDE90F1290476D1C761C69
:1040700028780028F5D111B03046BDE8F08F002433
:10408000A246A1460122E94900E0044315F8013F98
:10409000203B02FA03F00842F7D128782A2810D0F2
:1040A0006FF02F022878A0F13001092914D80AEB0B
:1040B0008A0102EB410144F0020400EB010A6D1C8D
:1040C000F0E701CF5FEA000A03D544F40054CAF1D7
:1040D000000A44F002046D1C28782E2817D115F828
:1040E000010F44F004042A280ED06FF02F02287824
:1040F000A0F1300109290AD809EB890102EB41013D
:1041000000EB01096D1CF2E757F8049B6D1C287841
:104110006C280FD006DC4C2817D068280DD06A28F0
:1041200014D104E0742810D07A280FD10DE044F4A3
:1041300000140AE044F4801401E044F44014697867
:10414000814202D104F580146D1C6D1C28786E2804
:104150001ED00CDC632830D004DC00288BD058281B
:1041600011D19FE0642867D069280CD164E07328DE
:104170002DD004DC6F2872D0702804D194E075280B
:104180006ED078286DD0DDE90F129047761C4BE198
:10419000C4F30250022806D0032809D0042801CF16
:1041A00009D0066040E101CFF117C0E900613BE1B1
:1041B00001CF068038E1067036E117F8040B8DF860
:1041C000000000208DF80100EB46012003E057F8C5
:1041D00004BB4FF0FF3061074FF0000102D40DE047
:1041E00008F10101884649450FDA8045F8DB1BF8E4
:1041F00008100029F4D108E008F101018846814245
:10420000FADB1BF808100029F6D1DDE90F23AAEB31
:1042100008008146214600F031F9304400EB0806E1
:1042200004E0DDE90F121BF8010B9047B8F101081B
:10423000F7D221464846F2E00A21C4F302524FF079
:10424000000B0891022A04D001CFC117032A09D01C
:104250000AE0FF1D27F00707F7E8020108E02CE05D
:104260001EE01FE000B2C117042A01D140B2C117FD
:10427000021E71F1000206DA0023D0EB030063EBAB
:1042800001012D2202E0220504D52B228DF82420E5
:10429000012203E0E20701D02022F7E7904653E035
:1042A0000A210BE0102109E010214FF0000B44F02F
:1042B00004044FF00809089103E008214FF0000BB7
:1042C0000891C4F30252022A04D001CF0021032A2C
:1042D00006D006E0FF1D27F00707F7E8020103E01C
:1042E00080B2042A00D1C0B24FF0000822072BD5BB
:1042F0002A78702A07D0DDF820C08CF0100C5CEA18
:104300000B0C05D00EE040228DF82420012208E09D
:1043100050EA010306D030238DF824308DF8252093
:1043200002229046089B83F0080353EA0B030BD14B
:1043300050EA010201D1620706D530228DF824200F
:104340004FF00108A9F101092A78582A04D038A2AF
:104350000B9208AA0A920BE03AA2F9E75B46089A88
:10436000FBF726FF0B9B9B5C0A9A521E0A92137066
:1043700050EA0102F2D10A98ADEB000000F1200BE7
:10438000600702D524F4803401E04FF00109D945DB
:1043900002DDA9EB0B0000E0002000EB0B01414423
:1043A0000890AAEB010AE00306D4DDE90F232146B9
:1043B000504600F063F806444FF0000908E009A9F0
:1043C00011F80900DDE90F12904709F10109761C87
:1043D000C145F4DBE0030CD5DDE90F23214650464F
:1043E00000F04CF8064404E0DDE90F12302090475D
:1043F000761C0899481E08900029F5DC08E00A9808
:104400000A990078491C0A91DDE90F129047761C41
:10441000BBF10001ABF1010BF1DC21465046DDE9B7
:104420000F2300F019F806446D1C21E6092801004D
:10443000303132333435363738396162636465661A
:1044400000000000303132333435363738394142DC
:1044500043444546000000002DE9F0410446002594
:104460001E461746880404D405E039462020B0478C
:104470006D1C641EF9D52846BDE8F0812DE9F04198
:10448000044600251E469046C80301D5302700E0AB
:104490002027880404D505E041463846B0476D1C06
:1044A000641EF9D52846BDE8F081000013B54FF62B
:1044B000FF73012269460248FEF73CFC00981CBDD0
:1044C000F8020020FCF734FDFFF70BFAFEF78AFE36
:1044D000FEF752FEFFF73EF8FEF7FAFDFFF756F83B
:1044E000FEF77CFFFEF734FFFEF756FFFEF7EEFF08
:1044F000FFF70EF81748FBF75BFF1748FDF7F0FED4
:104500001648FDF7EDFE012202211548FCF7FCFCE0
:10451000144C0122601DA17801441348FEF7D8FB1A
:10452000FEF7A4FC3220207000202071A070FFF75D
:1045300007FD4B22C8231146322000F041F84620E7
:1045400000F026F809A0FFF755FD00BFFFF7BAF904
:10455000FCE700002C000020200200206802002060
:1045600000080140C8090020F80200203D3D3D3D03
:104570003D3D3D3D3D20636F646520737461727401
:10458000203D3D3D3D3D3D3D3D3D200D0A000000AF
:1045900010B5040008480BD0FDF7A2FEC4F164007A
:1045A000532148430A2190FBF1F00449488010BD93
:1045B000BDE81040FDF7CABE6802002020000020C0
:1045C00070B50C4CB4FBF3F30B4C5B1E2568EB622F
:1045D00058436425B0FBF5F02668B0635943B1FB3E
:1045E000F5F02168C8635A43B2FBF5F0216808640E
:1045F00070BD000040420F00D801002001020203FC
:104600000405060708090A0B0C0D0E0F1010010215
:1046100002030405060708090A0B0C0D0E0F101003
:104620000000000000000000010203040607080962
:1046300000000000010203045846000800000020AA
:104640002C00000034400008844600082C000020A4
:104650006C0E000044400008000000000100000053
:10466000100000000000000000127A0000000000AE
:1046700000000000B4000020000000000000000066
:044680000000000036
:0400000508000131BD
:00000001FF
