:020000040800F2
:10000000E80E00204901000877340008BF2A0008E4
:100010007534000839030008353C00080000000072
:100020000000000000000000000000005936000839
:100030007903000800000000793400085B360008EE
:100040006301000863010008630100086301000800
:1000500063010008630100086301000863010008F0
:1000600063010008630100086301000863010008E0
:10007000630100083D030008490300085503000818
:10008000610300086D0300085902000863010008BD
:100090006301000863010008630100087B03000896
:1000A00063010008630100086301000863010008A0
:1000B0006301000863010008630100086301000890
:1000C0006301000863010008630100087D34000833
:1000D000993400081D3C0008293C00086301000811
:1000E0006301000863010008630100086301000860
:1000F0006301000863010008630100086301000850
:10010000630100086301000863010008630100083F
:100110006301000863010008DD360008E9360008C5
:10012000630100086301000863010008630100081F
:10013000DFF810D000F06EF800480047E1410008F9
:10014000AFF30080E80E00200648804706480047CD
:10015000FEE7FEE7FEE7FEE7FEE7FEE7FEE7FEE777
:10016000FEE7FEE7D936000831010008202A04DB4B
:10017000203A21FA02F00021704721FA02F3D04020
:10018000C2F120029140084319467047D2B201E003
:1001900000F8012B491EFBD270470022F6E710B58C
:1001A00013460A4604461946FFF7F0FF204610BDE5
:1001B0002DE9F05F0546002092469B46884606469C
:1001C000814640241BE02846414647462246FFF729
:1001D000CDFF53465A46C01A914110D311461846D6
:1001E000224600F029F82D1A67EB01084F462246F7
:1001F0000120002100F020F817EB00094E41201EDD
:10020000A4F10104DFDC484631462A464346BDE8F6
:10021000F09F0000064C074D06E0E06840F0010347
:1002200094E8070098471034AC42F6D3FFF784FFF8
:10023000A48F0008C48F0008202A04DB203A00FAAB
:1002400002F1002070479140C2F1200320FA03F32D
:100250001943904070470000014800F080B9000049
:100260003400002070B5044600688168C943C9079E
:1002700017D1816821F00101816000F001FE05467F
:100280000AE000BF00F0FCFD401B022804D92068F2
:100290008068C043C00706D020688068C043C0079C
:1002A000F0D0002070BDA06A40F01000A062E06AAB
:1002B00040F00100E062012070BD0000F8B50026AA
:1002C0000446009600688168C943C9072DD081683B
:1002D00041F001018160164816490068B0FBF1F059
:1002E00000E0401E00900028FBD100F0C9FD05464B
:1002F00016E000BF00F0C4FD401B022810D92068A2
:100300008068C043C0070BD0A06A40F01000A06214
:10031000E06A40F00100E06284F824600120F8BD4A
:1003200020688068C043C007E4D10020F8BD000009
:100330001400002040420F00FEE70000014800F0DA
:1003400011BB000014010020014800F00BBB0000AD
:1003500058010020014800F005BB00009C0100206E
:10036000014800F0FFBA000090030020014800F0AF
:10037000F9BA0000D40300207047402000F06EBCA2
:1003800072B6FEE7F8B500250446009590F8240003
:1003900001280BD0012084F824002046FFF762FFDB
:1003A0002046FFF78BFF060002D050E00220F8BD88
:1003B000A06A20F4885040F00200A062022000F001
:1003C000FDFD25490968B1FBF0F0400000E0401E4A
:1003D00000900028FBD12068816841F0080181600D
:1003E00000F04EFD074608E000F04AFDC01B0A2859
:1003F00003D920688068000715D42068806800074A
:10040000F2D42068816841F00401816000F038FD79
:10041000074612E000F034FDC01B0A280DD9206801
:100420008068400709D5A06A20F0020040F0100063
:10043000A06284F824500120F8BD2068806840073D
:10044000E8D4A06A20F0020040F00100A06284F825
:1004500024503046F8BD0000140000207047000012
:10046000F8B50024009490F824202546012A12D0E3
:10047000012280F824204A681F23072A0DD206682B
:10048000776B521E02EB820293409F430B689340AE
:100490001F43776319E00220F8BD06680D2A0AD2CF
:1004A000376BD21F02EB820293409F430B6893404D
:1004B0001F43376309E0F76A0D3A02EB820293406B
:1004C0009F430B6893401F43F7620A68072306683F
:1004D0000A2A0AD3F7680A3A02EB420293409F4382
:1004E0008B6893401F43F76008E0376902EB4202D4
:1004F00093409F438B6893401F4337610A68102ADB
:1005000001D0112A20D1124B02689A4217D1936868
:100510001B0219D4936843F40003936009681029FF
:1005200012D10C490C4A0968B1FBF2F101EB8101CF
:10053000490000E0491E00910029FBD104E0816AD6
:1005400041F020018162012480F824502046F8BD4A
:10055000002401401400002040420F00704770B595
:100560000446006806684568A90625D5B10723D565
:10057000A16AC90603D4A16A41F40071A16281682D
:10058000C1F34241072910D1217B71B9416821F0A3
:1005900020014160A06A20F48070A062A06AC004BB
:1005A00003D4A06A40F00100A0622046FFF7D6FF06
:1005B00021686FF01200086028062ED570072CD530
:1005C000A06AC00603D4A06A40F40050A06220686C
:1005D0008168C1F30231072909D04168490515D462
:1005E0008168C1F34241072910D1217B71B941686B
:1005F00021F080014160A06A20F48050A062A06ACE
:10060000C00503D4A06A40F00100A0622046FFF7B5
:1006100025FF21686FF00C00086068060CD5F00714
:100620000AD0A06A40F48030A062204600F096F81C
:1006300021686FF00100086070BD00002DE9F041F5
:1006400004004FF000057FD0A06A002628B9E662BA
:1006500084F82460204600F083F82046FFF702FE6D
:10066000A16AC90600D420B1A06A40F01000A062BF
:100670006AE0A16A21F4885141F00201A162334984
:1006800023688B42E16904D1B1F5402F01D14FF4C9
:100690000021277B4FF4807C41EA470261680A43CE
:1006A000A168614508D0012906D0002194F814E022
:1006B000BEF1010F02D00AE06146F7E7C7B1A76AB1
:1006C00047F02007A762E76A47F00107E7625F6823
:1006D00027F469470F435F60236899681C4F3940CE
:1006E00011439960A16861450BD0012909D00CE044
:1006F000DFF860E0A7690EEB47370F4347F400616E
:10070000E5E7218A0D05A5F580152168CB6A23F45C
:1007100070032B43CB62216889680F4B19409142CB
:1007200008D1E662A16A21F0020141F00101A16253
:10073000BDE8F081A06A20F0020040F01000A06245
:10074000E06A40F00100E0620120F1E7003C014076
:10075000FDF7E1FF00E0FFFFFE0E1FFF7047000006
:1007600010B586B0002100910191029103910068BB
:100770001A4988422FD11A48816941F40071816178
:10078000816901F400710491816941F01001816176
:10079000816901F010010491816941F008018161D2
:1007A0008069032400F0080004900F20CDE90004C4
:1007B00069460C4800F05EFA0220CDE90004694663
:1007C000094800F057FA00221146122000F0C4FB3D
:1007D000122000F0B3FB06B010BD00000024014061
:1007E0000010024000100140000C014010B590F8CC
:1007F00021100022022905D00421816380F82020E5
:10080000012010BD01680B6823F00E030B60016826
:100810000B6823F001030B6090F84030C46B01219A
:1008200001FA03F3636080F8211080F8202010465D
:1008300010BD00002DE9F05F90F82110002402297E
:1008400003D004218163012485E001680A6822F055
:100850000E020A6001680A6822F001020A603F4E37
:100860003E4FB215DFF8F4C0DFF8F090DFF8ECA0EF
:10087000DFF8E8B0DFF8E4E00168783F1301150223
:10088000ACF1640CA9F15009AAF13C0AABF1280BB8
:10089000AEF1140E4FF48018B14227D9B9420ED0F0
:1008A000614512D049451DD0514518D0594518D041
:1008B000714501D1424615E0294EB14201D10122D4
:1008C00010E0274E1436B14201D110220AE0244E26
:1008D0002836B14206D0224A3C32914201D11A4612
:1008E00000E02A461E49091F0A602BE0B94213D0D6
:1008F000614517D0494522D051451DD059451DD0DD
:10090000714501D142461AE0B14202D14FF08072E6
:1009100015E0134EB14201D1012210E0104E143601
:10092000B14201D110220AE00D4E2836B14206D064
:100930000B4A3C32914201D11A4600E02A4607494F
:1009400080394A60012180F82110002180F82010B0
:10095000416B01B188472046BDE8F09F800002400E
:10096000080402402DE9F05FC16B0A6801680B685A
:10097000046C4FF0040808FA04F8844D844E854F47
:10098000DFF814C2DFF81492DFF814A2DFF814B213
:10099000DFF814E218EA020F65D05FEA437862D507
:1009A0000A68920603D40A6822F004020A60DFF89B
:1009B000F0814FF48062016808F1140813011402F9
:1009C000414524D9A9420DD0B1420FD0B9421AD025
:1009D000614515D0494515D0514501D1120312E0AA
:1009E000594501D104220EE0714501D140220AE0AF
:1009F0006D4D1435A94206D06B4A2832914201D17F
:100A00001A4600E022466749091F0A6029E0A94208
:100A100013D0B14215D0B94220D061451BD0494511
:100A20001BD0514502D14FF4800217E0414502D15D
:100A30004FF0806212E0594501D104220EE0714569
:100A400001D140220AE0584D1435A94206D0564A39
:100A50002832914201D11A4600E022464B4908391A
:100A60004A60C16A71E04FF0020808FA04F818EA17
:100A7000020F70D05FEA83786DD50A68920606D4BB
:100A80000A6822F00A020A60012180F82110DFF8CA
:100A900010814FF40072016808F114081301140268
:100AA000414524D9A9420DD0B1420FD0B9421AD044
:100AB000614515D0494515D0514501D1120312E0C9
:100AC000594501D102220EE0714501D120220AE0F0
:100AD000354D1435A94206D0334A2832914201D10E
:100AE0001A4600E022462F49091F0A6029E0A94260
:100AF00013D0B14215D0B94220D061451BD0494531
:100B00001BD0514502D14FF4001217E0414502D1EC
:100B10004FF0007212E0594501D102220EE07145FA
:100B200001D120220AE0204D1435A94206D01E4AE8
:100B30002832914201D11A4600E022461349083971
:100B40004A60002180F82010816A00291CD0BDE88D
:100B5000F05F0847FFE70825A540154214D01A07A3
:100B600012D50A6822F00E020A6090F84020C36B8A
:100B7000012101FA02F25A60816380F821100021FC
:100B800080F82010016BE0E7BDE8F09F080002400C
:100B90001C00024030000240440002405800024065
:100BA0006C000240080402401C04024030B560B1F1
:100BB0001A4B026814219A4209D2194B1344B3FB11
:100BC000F1F18900016417490AE0012030BD134B9F
:100BD0005B421344B3FBF1F1890001640F4908390A
:100BE000C163022180F82110136843F6F0718B4332
:100BF000F0E901142143D0E902452C432143046963
:100C00002143446921438469214319431160002130
:100C10004163012242770177084630BD0804024053
:100C2000F8FFFDBF0000024070B5044600F028F94F
:100C30000546601C02D004480078044400F020F906
:100C4000401BA042FAD370BD08000020402802D10A
:100C5000014901200870704728000020044910B5A0
:100C60000A68024202D00860FFF7F0FF10BD0000E2
:100C7000140401402DE9F84FDFF8C8910024A9F1D0
:100C8000040B23460F2709F1040AABF1040ED1E04F
:100C90000125A54006EA0502AA4276D1DFF8A8C1DF
:100CA0004E68A6EB0C0866452BD00DDC032E34D025
:100CB00005DC36B3012E19D0022E2FD11BE0112EE8
:100CC00016D0122E2AD119E0B8F5881F19D006DCEB
:100CD000B8F5803F15D0B8F5801F1FD111E0B8F5E9
:100CE000001F0ED0B8F5041F18D10AE0CB6815E03C
:100CF000CB681B1D12E0CB6808330FE0CB680C33C8
:100D00000CE08B682BB1012B4FF0080303D0456139
:100D100004E0042302E0056100E00023FF2A01D87B
:100D2000064601E000F104064FEA840501D9A5F169
:100D30002005D6F8008007FA05FC28EA0C0803FA1B
:100D400005F548EA0508C6F800804D68ED0070D545
:100D50003E4DAE6946F00106AE61AD6924F0030672
:100D600005F0010500953A4D06EB050CDCF808503E
:100D7000A607360F07FA06F825EA0805DFF8D4803B
:100D8000404503D14FF0000825E052E0DFF8C8806D
:100D9000404502D14FF001081DE0DFF8C08040451A
:100DA00002D14FF0020816E0DFF8B480404502D1CE
:100DB0004FF003080FE0DFF8AC80404502D14FF060
:100DC000040808E0DFF8A080404502D14FF0050894
:100DD00001E04FF0060808FA06F848EA0508CCF8E2
:100DE00008804D68D9F80060ED024D4601D51643E4
:100DF00000E096432E604D68DAF80060AD0255467B
:100E000001D5164300E096432E604D68DBF8006084
:100E1000AD035D4601D5164300E096432E604D6854
:100E2000DEF80060ED03754601D5164300E09643F9
:100E30002E60641C0A681646E2407FF429AFBDE8C4
:100E4000F88F00000804014000001110001002405B
:100E50000000014000080140000C0140001001406A
:100E60000014014000180140001C01408068084047
:100E700000D0012070470AB1016170470904FBE707
:100E8000014880687047000008000020024881681F
:100E9000027811448160704708000020074810B5AF
:100EA000016841F010010160032000F075F80F2087
:100EB00000F006F800F024F8002010BD00200240E9
:100EC00070B50D4D04464FF47A712878B1FBF0F0FF
:100ED0000A490968B1FBF0F000F07BFF48B9102C1B
:100EE00007D200222146501E00F036F800206C6028
:100EF00070BD012070BD000008000020140000201B
:100F00000C4808B5816941F001018161816901F0F6
:100F100001010091C16941F08051C161C06900F0D7
:100F2000805000900448416821F0E06141F0007178
:100F3000416008BD0010024000000140002809DBAC
:100F400000F01F02012191404009800000F1E020E3
:100F5000C0F8001170470000F0B40E4B1B680C463F
:100F6000C3F30223C3F10705042D00D90425191D7D
:100F7000072901D2002300E0DB1E012606FA05F155
:100F8000491E214099409E40761E16403143F0BCD8
:100F900002F0BCBE0CED00E0064900F00702086854
:100FA0004FF6FF03184040EA0220034A104308604E
:100FB000704700000CED00E00000FA0510B5014696
:100FC0000020284C04292FD00BDC012930D0022925
:100FD00029D100F06BF96168C1F38131491C4900E6
:100FE0001FE0082920D010291DD161682268D20194
:100FF00019D51D48C1F38342C903805C0AD56168D5
:10100000194AC1F34041921E515C184AB2FBF1F1FA
:10101000484301E0164948436168490203D440004F
:101020000321B0FBF1F010BDBDE8104000F04EB957
:10103000226AC2F30121012903D1920701D5C80315
:1010400010BD022905D1626A920702D549F64040D7
:1010500010BD0329FCD121688903F9D54FF2244042
:1010600010BD0000001002404043000800127A004A
:1010700000093D002DE9F84305460078354CC007CE
:1010800054D0E0690026C00008D4E06940F08050E8
:10109000E061E069012600F0805000902E48016870
:1010A000C90512D40168804641F480710160FFF7E0
:1010B000E7FE074605E000BFFFF7E2FEC01B64281D
:1010C00023D8D8F80000C005F6D5206A10F4407087
:1010D00021D0A98801F4407181421CD0206A1F49A7
:1010E000012220F440700A6000220A602062C007DA
:1010F00011D0FFF7C5FE074641F2883808E000BF6F
:10110000FFF7BEFEC11B414502D90320BDE8F883AD
:10111000206A8007F4D5206A696820F4407008438B
:1011200020621EB1E06920F08050E06128788007DD
:1011300005D56068A96820F44040084360602878BD
:10114000C00605D56068696920F4800008436060C6
:101150000020DBE7001002400070004040044242E3
:101160002DE9F0470F46050061D0434E306800F08E
:101170000700B84209D2306820F0070038433060D9
:10118000306800F00700B84251D128683B4C810715
:1011900012D5400703D5606840F4E06060602878AD
:1011A000000703D5606840F4605060606068A9681B
:1011B00020F0F000084360602878C00728D06868F5
:1011C000012810D02168022810D0890700292EDAC2
:1011D000616821F0030101436160FFF751FE804621
:1011E00041F288390DE021688903EFE78901EDE7D5
:1011F000FFF746FEA0EB0801494502D90320BDE8F0
:10120000F0876068696800F00C00B0EB810FEFD1E7
:10121000306800F00700B8420BD9306820F00700B2
:1012200038433060306800F00700B84201D0012038
:10123000E5E72878400705D56068E96820F4E060B4
:10124000084360602878000706D56068296920F4A3
:10125000605040EAC100606000F038F86168084AF8
:10126000C1F30311515CC840064908600648006894
:10127000FFF726FE0020C2E70020024000100240D7
:1012800050430008140000200C00002004480549C9
:1012900000684968044AC1F30221515CC8407047A4
:1012A0001400002000100240604300080448054973
:1012B00000684968044AC1F3C221515CC8407047C4
:1012C0001400002000100240604300080E4A5168DC
:1012D0000E4801F00C03042B11D0082B0FD10C4841
:1012E000C1F38343C903C05C0AD55168084AC1F3FE
:1012F0004041921E515C054A5043B0FBF1F07047EB
:1013000004494843704700000010024000127A0070
:101310002E43000800093D002DE9F84F040070D06D
:101320002078C04DC00749D06868C0F3810001280B
:1013300007D06868C0F38100022809D16868C0033B
:1013400006D52868800339D560680028E7D035E0E5
:101350006068B0F5803F0BD010B1B0F5A02F11D070
:10136000286820F480302860286820F4802002E07B
:10137000286840F480302860606890B1FFF780FDF5
:1013800006460AE0286840F480202860F0E700BFA5
:10139000FFF776FD801B642873D828688003F7D593
:1013A0000CE0FFF76DFD064605E000BFFFF768FDA6
:1013B000801B6428F0D828688003F7D420789A4EE0
:1013C00080074FF001094FF0000839D5686810F028
:1013D0000C0F07D06868C0F38100022809D1686843
:1013E000C00306D42868800714D52069012808D1D5
:1013F00010E02069B0B1C6F80090FFF741FD074644
:1014000005E00AE1FFF73CFDC01B0228C4D82868AC
:101410008007F7D52868616920F0F80040EAC1002C
:1014200028600DE0C6F80080FFF72AFD074604E0BB
:10143000FFF726FDC01B022823D828688007F7D4B1
:10144000207800072CD57948A169D9B1C0F800905F
:10145000FFF716FD074604E0FFF712FDC01B022848
:101460000FD8686A8007F7D571484FF4FA510068C1
:10147000B0FBF1F0009000BF0098411E0091FAD23D
:101480000EE080E0C0F80080FFF7FAFC074604E0B9
:10149000FFF7F6FCC01B022875D8686A8007F7D4EE
:1014A0002078400760D5E8690027C00008D4E869C3
:1014B00040F08050E861E869012700F0805000901A
:1014C0005C480168C90513D40168834641F4807102
:1014D0000160FFF7D5FC824606E000BFFFF7D0FCB5
:1014E000A0EB0A0064284ED8DBF80000C005F5D553
:1014F000E06801280AD008B1052813D0286A20F036
:1015000001002862286A20F0040002E0286A40F006
:1015100001002862E06841F2883B98B1FFF7B0FC17
:1015200082460BE0286A40F004002862EEE700BF24
:10153000FFF7A6FCA0EB0A0159455AD8286A800794
:10154000F6D50CE0FFF79CFC824605E0FFF798FC1F
:10155000A0EB0A0159454CD8286A8007F6D41FB180
:10156000E86920F08050E861E06988B36968C1F3F8
:101570008101022944D00228C6F8608004D0FFF718
:101580007FFC044638E034E0FFF77AFC074604E0CD
:10159000FFF776FCC01B02282BD828688001F7D4FF
:1015A000206AB0F5803F05D16868A16820F400305A
:1015B00008436860D4E908010843696821F474119C
:1015C00008436860C6F86090FFF75AFC044606E0DE
:1015D00025E000BFFFF754FC001B022809D828684B
:1015E0008001F7D51BE000BFFFF74AFC001B022873
:1015F00002D90320BDE8F88F28688001F4D40EE0FA
:101600000128F7D06868226A00F48031914204D141
:10161000616A00F47010884201D00120EAE70020DE
:10162000E8E700000010024000004242800442420D
:1016300014000020007000407047000038B50446D8
:10164000006842688168C9434B0606D5CB0704D1C0
:10165000D3435B0601D4216C05E08B0708D4D34348
:101660001B0605D4616C01B02046BDE83040084738
:101670008B0601D54B0646D4D3439B0643D44B0679
:101680000AD494F85130032B3ED0636D43F0040329
:101690006365C36883680093890609D4616D41F06E
:1016A0000101616581680091016821F040010160DC
:1016B000606D002827D02068416821F0E00141607A
:1016C000012084F85100900722D02068416821F061
:1016D00003014160104DE06C40B14563E06CFFF7E1
:1016E000A9F818B1606D40F040006065A06C00285A
:1016F00009D04563A06CFFF79DF8002803D0606D0A
:1017000040F04000606538BDC1688068009038BD19
:101710002046FFF791FF38BDA534000870B50400DE
:1017200009D0606A002540B125616561A56294F821
:10173000510040B10CE0012070BD6068B0F5827FBF
:10174000F4D0E561F2E784F85050204600F040F80C
:10175000022084F851002068016821F040010160F6
:10176000A088218900F4827001F404410843A18912
:1017700001F400610843217C01F002010843217D4E
:1017800001F001010843218B01F400710843217F1E
:1017900001F03801084394F8201001F0800108435B
:1017A000218D01F40051084321680860A0690421DB
:1017B00001EA1040216848602068C16921F4006195
:1017C000C1616565012084F85100002070BD0000F2
:1017D0002DE9F04186B00024009401940294039412
:1017E00006464A4D03684A480221032280274FF0EB
:1017F0001008AB4230D1836943F48053836183691D
:1018000003F480530493836943F004038361806984
:10181000039200F004000490A020CDE90001694685
:101820003C48FFF727FA3D4D3B48C5E902472C618C
:101830006C61AC61EC61C5E900082846FFF7B6F9B8
:1018400008B1FEF79DFDB5640022114623206E62AB
:10185000FFF782FB232053E0314DAB4252D1C369E5
:1018600043F48043C361C36903F4804304938369F1
:1018700043F00803836180692A4D00F0080004905A
:101880004FF42040CDE90001039269462846FFF756
:10189000F1F94FF48040CDE90004694628460294EE
:1018A000FFF7E8F91D4D1C4844351430C5E9000424
:1018B000C5E902472C616C61AC612846EC61FFF719
:1018C00075F908B1FEF75CFDF5646E62134D1248C0
:1018D00088352830C5E902472C616C61AC61EC6148
:1018E000C5E900082846FFF761F908B1FEF748FD91
:1018F000B5640022114624206E62FFF72DFB2420E0
:10190000FFF71CFB06B0BDE8F0810000003001408D
:101910000010024000080140300002401401002085
:1019200000380040000C01402DE9F84F044690F8C3
:1019300051001D4616460F46012838D160684FF009
:101940000408B0F5827F01D1A06830B3FFF798FAA0
:101950008246002F75D0002E73D094F850000128D5
:1019600025D04FF0010984F8509084F851804FF051
:101970000008C4F85480A763A687E687C4F83080BF
:10198000A4F83480A4F83680C4F84080C4F84480B9
:10199000A068B0F5004F0CD015E084F8518000939A
:1019A00013460A46204600F01CF9BDE8F88F0220D5
:1019B000FBE72068016821F04001016020680168B0
:1019C00021F48041016020680168490603D4016860
:1019D00041F040010160E068C0B134E020688168F6
:1019E000C90709D0007BA16B0870A06B401CA063E5
:1019F000E08F401EE08709E0FFF742FAA0EB0A0003
:101A0000A84202D3681C01D032E085B3E08F0028E1
:101A1000E4D11BE020688168C90709D0C068A16BC8
:101A20000880A06B801CA063E08F401EE0870AE066
:101A3000FFF726FAA0EB0A00A84203D3681C02D0E5
:101A400016E012E09DB1E08F0028E3D1524629460E
:101A5000204601F02FFD08B12020606584F85190E8
:101A600084F85080606D00289FD001209DE7FFE73B
:101A700084F8519084F85080032096E72DE9F84FC0
:101A8000984616468A460446FFF7FAF9814694F8C6
:101A9000510001281ED1BAF1000F73D0002E71D071
:101AA00094F85000012815D0012784F850700320C5
:101AB00084F8510000256565C4F830A0A686E68646
:101AC000A563A587E58765642564A068B0F5004F28
:101AD00003D00CE00220BDE8F88F2068016821F0F7
:101AE000400101602068016841F480410160206884
:101AF0000168490603D4016841F040010160E068D3
:101B0000B0F5006F606803D048B3012E27D047E0DE
:101B100008B1012E1FD1206B21680088C86006E043
:101B200020688168890709D5216B0988C160206B0D
:101B3000801C2063E08E401EE0860CE0FFF7A0F9D9
:101B4000A0EB0901414503D3B8F1FF3F03D035E0D5
:101B5000B8F1000F32D0E08E0028E1D123E0206BF5
:101B600021680078087306E02068816889070AD533
:101B7000216B09780173206B401C2063E08E401EAE
:101B8000E0860DE02BE0FFF77BF9A0EB0901414572
:101B900003D3B8F1FF3F03D010E0B8F1000F0DD030
:101BA000E08E0028E0D14A464146204601F0B0FCD4
:101BB00008B120206065A06830B109E084F8517058
:101BC00084F85050032086E72068C1688068009040
:101BD00084F8517004F8505F60680028F3D0012049
:101BE00079E72DE9FF4F81B01D46934604464FF03B
:101BF00001090E9EFFF744F9074694F85100616809
:101C0000012806D0B1F5827F3CD1A168C9BB042868
:101C100038D10298002871D0BBF1000FFBD0002D05
:101C2000F9D094F8500001282CD04FF0010A84F824
:101C300050A094F85100042802D0052084F85100E7
:101C40004FF00008C4F85480C4F838B0E587A58781
:101C500002992163E586A586C4F84080C4F84480D3
:101C600020680168490603D4016841F04001016021
:101C7000E068B0F5006F606808D0F0B3012D49D07E
:101C800081E0FFE7022005B0BDE8F08F08B1012D2B
:101C900039D1206B21680088C860206B801C2063CC
:101CA000E08E401EE0862EE02068816889070FD50F
:101CB000E18E69B1B9F1010F0AD1216B0988C160C8
:101CC000206B801C2063E08E401EE0864FF00009F0
:101CD00020688168C9070CD0E18F51B1C068A16B41
:101CE0000880A06B801CA063E08F401EE0874FF04F
:101CF0000109FFF7C5F8C01B01E00BE067E0B04247
:101D000001D3701C50D1E08E0028CDD1E08F002887
:101D1000CAD13EE0206B216800780873206B401C1C
:101D20002063E08E401EE0862DE0206881688907F0
:101D30000FD5E18E69B1B9F1010F0AD1216B097894
:101D40000173206B401C2063E08E401EE0864FF044
:101D5000000920688168C9070CD0E18F51B1C068C3
:101D6000A16B0870A06B401CA063E08F401EE08751
:101D70004FF00109FFF784F8C01BB04202D3701C7A
:101D800001D011E086B1E08E0028CED1E08F00288E
:101D9000CBD13A463146204601F0BAFB50B1202063
:101DA000606584F8508012E084F851A084F8508077
:101DB000032068E7A06818B92068C16880680090AF
:101DC00084F851A084F85080606D0028F1D0012083
:101DD00059E710B5401EB0F1807F01D3012010BD3E
:101DE0004FF0E02460610F21601701F08FFF0020A9
:101DF000A06107202061002010BD704770470000DF
:101E000070B590F83C20012A2CD0012480F83C4089
:101E1000022280F83D2003685A689D6822F070060F
:101E20000A6832435A60104B02689A420ED00F4B38
:101E30009A420BD0B2F1804F08D00D4B9A4205D098
:101E40000C4B9A4202D00C4B9A4204D1496825F0BF
:101E500080031943916080F83D40002180F83C10D8
:101E6000084670BD022070BD002C014000340140C6
:101E70000004004000080040000C004010B50400C1
:101E800003D094F83D0010B107E0012010BD002000
:101E900084F83C00204600F01FF8022084F83D0042
:101EA000211D206801F026FC012084F8460084F8FA
:101EB0003E0084F83F0084F8400084F8410084F834
:101EC000420084F8430084F8440084F8450084F814
:101ED0003D00002010BD000008B5204A01682048E0
:101EE000914207D1C16941F00401C161C06900F0AC
:101EF000040009E01B4A914208D1C16941F0080180
:101F0000C161C06900F00800009008BD164A914206
:101F10000ED1C16941F01001C161C069002200F019
:101F20001000009011463620FFF716F8362010E01A
:101F30000E4A9142E9D1C16941F02001C161C069F5
:101F4000002200F02000009011463720FFF704F82F
:101F50003720BDE80840FEF7F1BF00000008004050
:101F600000100240000C004000100040001400402F
:101F700090F83D10012901D001207047022180F81E
:101F80003D100168CA6842F00102CA6000680E494B
:101F900088420ED00D4988420BD0B0F1804F08D056
:101FA0000B49884205D00B49884202D00A49884231
:101FB00004D1816801F00701062903D0016841F0CE
:101FC0000101016000207047002C014000340140F5
:101FD0000004004000080040000C00400168CA688E
:101FE00022F00102CA6001680A6A41F211131A4222
:101FF00007D10A6A9B101A4203D10A6822F0010233
:102000000A60012180F83D100020704770B5044639
:1020100090F83C000025012817D0012684F83C6088
:10202000022084F83D002068826822F0770222F4C2
:102030007F4282600868502838D00DDC20284FD0BD
:1020400005DC90B3102811D14AE0022070BD302881
:1020500046D040280AD13BE060282FD070280DD010
:10206000B0F5805F03D0B0F5005F12D0012584F891
:102070003D60002084F83C00284670BDCB68D1E963
:102080000121206801F091FB2068816841F077010F
:1020900009E0CB68D1E90121206801F086FB2068C6
:1020A000816841F480418160E1E719E0CA684968CC
:1020B000206801F04FFC5021206806E0CA6849689A
:1020C000206801F058FC6021206801F078FBCEE721
:1020D000CA684968206801F03DFC40212068F4E7A7
:1020E000226801461046F0E770472DE9F0410446AA
:1020F0000068C66805694FF00007A90713D5B10746
:1021000011D5F91E016101202077206880698007C0
:10211000204602D0FFF7E8FF04E000F0A5F82046D3
:1021200000F037F92777680716D5700714D52168AE
:102130006FF004000861022020772068806910F4A5
:10214000407F204602D0FFF7CFFF04E000F08CF87C
:10215000204600F01EF92777280715D5300713D53C
:1021600021686FF008000861042020772068C069AA
:102170008007204602D0FFF7B7FF04E000F074F8B4
:10218000204600F006F92777E80616D5F00614D5A4
:1021900021686FF010000861082020772068C0696E
:1021A00010F4407F204602D0FFF79EFF04E000F0CD
:1021B0005BF8204600F0EDF82777E80708D0F00735
:1021C00006D021686FF001000861204600F03CF95C
:1021D000280608D5300606D521686FF08000086112
:1021E0002046FFF70AFE680608D5700606D5216866
:1021F0006FF040000861204600F0DAF9A8060AD521
:10220000B00608D521686FF0200008612046BDE8BF
:10221000F041FFF7F3BDBDE8F081000000B585B0E7
:102220000021009101910291039100680B498842BD
:1022300012D10B48816941F00801816180696946CA
:1022400000F0080004904FF46070009002200190AC
:1022500003900448FEF70EFD05B000BD00080040E5
:1022600000100240000C0140704770B5044690F821
:102270003C0000260D4601280FD0012084F83C00C8
:102280006AB1042A1DD0082A2FD00C2A3FD001267B
:10229000002084F83C00304670BD022070BD2068EC
:1022A00001F096FA2068816941F008018161206897
:1022B000816921F004018161206881692A691143E3
:1022C00011E0206801F0B4FA2068816941F40061EE
:1022D00081612068816921F4806181612068816960
:1022E0002A6941EA02218161D2E7206801F0D6FA29
:1022F0002068C16941F00801C1612068C16921F00D
:102300000401C1612068C1692A69114311E0206894
:1023100001F0F8FA2068C16941F40061C1612068E8
:10232000C16921F48061C1612068C1692A6941EAFB
:102330000221C161ACE710B5040003D094F83D0060
:1023400010B107E0012010BD002084F83C002046B9
:1023500000F01EF8022084F83D00211D206801F0E5
:10236000C9F9012084F8460084F83E0084F83F0053
:1023700084F8400084F8410084F8420084F8430067
:1023800084F8440084F8450084F83D00002010BD26
:102390007047704710B50446022249B104290ED097
:1023A000082913D094F84100012816D0012010BD4F
:1023B00094F83E000128F9D184F83E200FE094F80B
:1023C0003F000128F2D184F83F2008E094F8400053
:1023D0000128EBD184F8402001E084F8412001225B
:1023E000206801F0D5F913492068134A884201D0CA
:1023F000904203D1436C43F4004343642068884215
:102400000DD090420BD0B0F1804F08D00B498842DC
:1024100005D00B49884202D00A49884204D181681C
:1024200001F00701062903D0016841F001010160B4
:10243000002010BD002C0140003401400004004089
:1024400000080040000C00402DE9F0474E490746C7
:10245000006809684D4C884220D1A078401CC0B269
:10246000A07005281AD14A4E4FF400713046FEF78D
:10247000FDFC0546B1153046FEF7F8FC45EA40057F
:1024800080213046FEF7F2FC45EA800540213046C7
:10249000FEF7ECFC3F4945EAC00008703A4938684D
:1024A000483100250968012688420AD13A48C17896
:1024B00039B14178491CC9B24170082901D3C570AE
:1024C00006713149386890310968884228D12078EE
:1024D000DFF8C8A0DFF8C890012815D10022042138
:1024E0005046FEF7C8FC002208214F464846FEF73A
:1024F000C2FC002210213846FEF7BDFC002220213C
:102500003846FEF7B8FC2570DFF8988098F8000090
:10251000012807D06078012802D1A088401CA08043
:10252000BDE8F08720496670A08809888842F4D306
:102530001E4F387808B1002200E0012204215046E5
:10254000FEF799FC387808B1002200E0012208214A
:102550004846FEF790FC387808B1002200E00122DE
:1025600010214846FEF787FC387808B1002200E0C9
:10257000012220214846FEF77EFC267088F8005094
:10258000A5806570CCE70000280200200000002034
:10259000001001402D000020180A00200014014006
:1025A000000C0140280000202A0000202C00002000
:1025B0007047704770470000F8B501680446086826
:1025C000CA684B6910F00F0F4FF0000559D003F0A7
:1025D000010602F49077374365D0C10705D0D105D5
:1025E00003D5616C41F001016164410705D5D9074C
:1025F00003D0616C41F002016164810705D5D90700
:1026000003D0616C41F004016164010707D502F059
:102610002001314303D0616C41F008016164616CB9
:1026200000293AD0800604D5900602D5204601F054
:10263000E3F920684069616CC0F38010090700D499
:1026400060B3204601F0B1F920684069400621D509
:102650002068143050E8001F21F0400140E80012CB
:10266000002AF5D1E06BA8B16D494163E06BFEF73C
:10267000E1F8002811D0E06B416B01B0BDE8F040FB
:10268000084783060FD593060DD52046BDE8F840D0
:1026900001F0B2B92046FFF78DFFF8BD2046FFF7E5
:1026A00089FF6564F8BD266B2023012E7CD1C60608
:1026B0007AD5D60678D508684868009048694FF002
:1026C0000206400640D5E16B086840680004000C33
:1026D000E8D0A28D8242E5D9E085886920282DD0F6
:1026E00020680C3050E8001F21F4807140E800128F
:1026F000002AF5D12068143050E8001F21F00101B4
:1027000040E80012002AF5D12068143050E8001F7C
:1027100021F0400140E80012002AF5D184F842304F
:10272000256320680C3050E8001F21F0100140E8BC
:102730000012002AF5D1E06BFEF758F86663A08D11
:10274000E18D401A81B22AE0A08DE18D401A81B25C
:10275000E08D0028A6D00029A4D022680C3252E8CF
:10276000000F20F4907042E80007002FF5D1206898
:10277000143050E8002F22F0010240E80027002F1B
:10278000F5D184F84230256320680C3050E8002FE2
:1027900022F0100240E80023002BF5D166632046AA
:1027A000FFF707FFF8BDFFE705062BD5150629D56E
:1027B00094F841002128F5D1A068B0F5805F01D1DF
:1027C0002069B0B1206A411C21622168007848600C
:1027D000E08C401E0004000CE084E3D12068C16856
:1027E00021F08001C1602068C16841F04001C160F2
:1027F000D8E7206A0088C0F308004860206A801C7F
:102800002062E5E74006CDD55006CBD5CA68204604
:1028100022F04002CA6084F8413000F04FF9C1E76D
:102820009B39000870B5040004D094F841000025DD
:1028300010B106E0012070BD84F84050204600F041
:1028400023F8242084F841002068C16821F4005155
:10285000C160204601F032F92068016921F49041FD
:1028600001612068416921F02A0141612068C16845
:1028700041F40051C1606564202084F8410084F86F
:1028800042006563002070BDF0B585B0002400945F
:102890000194029403940646414F03684148022183
:1028A0000322414DBB4226D1836943F480438361B7
:1028B000836903F480430493836943F004038361D1
:1028C0008069039200F0040004900802CDE9000141
:1028D00069462846FEF7CEF92815CDE90004694679
:1028E00028460294FEF7C6F9002211462520FEF77D
:1028F00033FB252050E02D4FBB424FD1C36943F439
:102900000033C361C36903F400330493836943F064
:10291000040383618069039200F0040004900420A2
:10292000CDE9000169462846FEF7A4F90820CDE963
:102930000004694628460294FEF79CF91D4D1C4888
:102940008027C5E90004C5E902472C616C61AC61D0
:102950002846EC61FEF72AF908B1FDF711FDF56391
:102960006E62144D12484435143001C5102091C5D3
:10297000104845F8104944306C61AC61EC61FEF7D9
:1029800015F908B1FDF7FCFCB563002211462620BD
:102990006E62FEF7E1FA2620FEF7D0FA05B0F0BD30
:1029A000003801400010024000080140004400408F
:1029B0006C0002409003002090F84230202B01D0A0
:1029C0000220704721B11AB10023036301F0D2B88D
:1029D0000120704700680E49884218D10D480179DE
:1029E000012914D00C49096849688378421D99541B
:1029F00081780023491CC9B281704370012901D13B
:102A00000123C370114401220348FFF7D5BF70476B
:102A100000440040180A0020480300202DE9F84334
:102A2000044690F84100984616460D46202802D0EC
:102A30000220BDE8F88385B17EB1002060642120CA
:102A400084F84100FEF71CFAA6848146E684A0685B
:102A50002027B0F5805F02D003E00120E9E720697C
:102A600010B12E4600250EE000260CE08021204605
:102A700001F09BF8A8B9C6B116F8010B21684860AF
:102A8000E08C401EE084E08C4B464FF00002CDF815
:102A900000800028EAD14FF04001204601F085F87F
:102AA00040B184F841700320C3E735F8020BC0F34E
:102AB0000800E3E784F841700020BAE77047FEE7BA
:102AC0002DE9F04104461D4616460F462A2000F027
:102AD000F3F9204600F00CFA304600F009FA2B20FA
:102AE00000F0EAF9384600F003FA284600F000FA50
:102AF000BDE8F0412C2000F0DFB9000070B5040AF9
:102B0000C5B20021EF2340F23F120846FFF7D8FF7D
:102B10000E4900204FF4407201F8104001EB4003D1
:102B2000401C80B25D709042F6D3012240210848DB
:102B3000FEF7A1F900244FF4C0652946034800F0D0
:102B4000E9F8641CA4B2642CF7D370BD180400200B
:102B50000008014010B56A4C002210212046FEF703
:102B60008AF90C20FEF760F8012210212046FEF7BA
:102B700082F90C20FEF758F8112000F09DF90C2086
:102B8000FEF752F8362000F097F9602000F0A2F925
:102B90003A2000F091F9652000F09CF9B22000F095
:102BA0008BF90C2000F096F90C2000F093F900202E
:102BB00000F090F9332000F08DF9332000F08AF90D
:102BC000B72000F079F9722000F084F9BB2000F002
:102BD00073F93D2000F07EF9C02000F06DF92C2043
:102BE00000F078F9C22000F067F9012000F072F9D6
:102BF000C32000F061F9192000F06CF9C42000F046
:102C00005BF9202000F066F9C62000F055F90F208E
:102C100000F060F9D02000F04FF9A42000F05AF93C
:102C2000A12000F057F9E02000F046F9D02000F094
:102C300051F9042000F04EF90D2000F04BF911205D
:102C400000F048F9132000F045F92B2000F042F97C
:102C50003F2000F03FF9542000F03CF94C2000F0F8
:102C600039F9182000F036F90D2000F033F90B2067
:102C700000F030F91F2000F02DF9232000F02AF990
:102C8000E12000F019F9D02000F024F9042000F030
:102C900021F90C2000F01EF9112000F01BF913207F
:102CA00000F018F92C2000F015F93F2000F012F97F
:102CB000442000F00FF9512000F00CF92F2000F013
:102CC00009F91F2000F006F91F2000F003F9202069
:102CD00000F000F9232000F0FDF8212000F0ECF8CE
:102CE000292000F0E9F80021EF2340F23F120846C6
:102CF000FFF7E6FEBDE810404FF6FF70FFF7FEBE9F
:102D0000001001400246012000E05043491EC9B2B4
:102D1000FBD2704700F0B8BB2DE9F84F203AD6B28D
:102D20001C46DDE90A984FF4A072A2EB54028242DD
:102D300054D3C4F1F0028A4250DB0A19521E93B2F6
:102D400000EB5402521E92B2FFF7BAFE102C17D0BD
:102D5000202C15D00C2C43D0182C3FD1364906EB33
:102D600046004FF0300B002401EB001AE0071AF880
:102D7000046051D00427002530064FD548464EE068
:102D8000600700D0012000EBD4006108484300F048
:102D9000FF0A2A48002500EB061B00F5BE5000EB99
:102DA000C610009018E0102C08D0202C16D10098E6
:102DB000465D0027300604D5484603E01BF8056051
:102DC000F7E7404600F094F870067F1C060EFFB24D
:102DD000082FEFD36D1CEDB25545E4D3BDE8F88F55
:102DE000174806EB46014FF00C0A002400EB810760
:102DF00000253E5D300601D5484600E0404600F023
:102E000077F870066D1C060EEDB2062DF2D3641C29
:102E1000E4B25445ECD3E1E70827ACE7404600F0C4
:102E200067F870066D1C060EEDB2BD42A4D3641C9B
:102E3000E4B25C459AD3D1E7CC4D0008DC470008EA
:102E4000684300082DE9FF4F83B00026DDE911A992
:102E5000DDF840B01D46804634464FEA5B0726E069
:102E6000281B401EC1B20A20FFF74CFF0599B1FB99
:102E7000F0F00A21B0FBF1F201FB120026B9691E45
:102E80008C4201DA38B101263030C2B207FB04802F
:102E900080B25B4604E007FB048080B25B462022E0
:102EA000CDE900A90499FFF737FF641CE4B2AC42F6
:102EB000D6D307B0BDE8F08F01B500224021044809
:102EC000FDF7D9FF01216846FFF724FF08BD000088
:102ED0000008014001B5012240210448FDF7CBFF65
:102EE00001216846FFF716FF08BD000000080140F9
:102EF00008B500210091010A8DF800108DF801003D
:102F0000012240210348FDF7B6FF02216846FFF782
:102F100001FF08BD00080140FEB5002527480095C7
:102F20000195254902950160891581600573012489
:102F30000475052606614FF460214560C0E906412D
:102F4000FDF77CFB08B1FDF71BFA09208DE8310085
:102F500069461A48FDF784FA08B1FDF711FA0A200C
:102F600000900220019069461448FDF779FA08B1F3
:102F7000FDF706FA0B2000900320019069460F48E8
:102F8000FDF76EFA08B1FDF7FBF90C200090042064
:102F9000019069460948FDF763FA08B1FDF7F0F9B9
:102FA0000D20CDE9000669460448FDF759FA0028CE
:102FB00001D0FDF7E5F9FEBD0024014034000020FA
:102FC000194808B5416941F0010141614069002299
:102FD00000F00100009011460D20FDF7BDFF0D200F
:102FE000FDF7ACFF002211460E20FDF7B5FF0E20C5
:102FF000FDF7A4FF002211460F20FDF7ADFF0F20C3
:10300000FDF79CFF002211461020FDF7A5FF1020C0
:10301000FDF794FF002211461120FDF79DFFBDE84A
:1030200008401120FDF78ABF001002402DE9F04F43
:1030300085B000245248009401940294039481695D
:1030400041F010018161816901F0100104918169F1
:1030500041F020018161816901F0200104918169C1
:1030600041F004018161816901F0040104918169E9
:1030700041F0080181618069002200F0080004909D
:1030800049F642113F48FDF7F6FE41F6104900228D
:1030900049463D48FDF7EFFE40F63C4A00225146C6
:1030A0003A48FDF7E8FE4FF4805B01225946374865
:1030B000FDF7E1FE002204213548FDF7DCFE49F66C
:1030C000021001250226CDE90005CDE90246694638
:1030D0002C48FDF7CFFD1020CDE9000469462948B2
:1030E0000294FDF7C7FD40274FF00308CDF80C8090
:1030F0000097CDE9015469462248FDF7BBFDCDF8A4
:1031000000900396CDE9015469461F48FDF7B2FDD2
:103110004FF47870CDE9000469461B480294FDF72E
:10312000A9FDCDF800A00396CDE9015469461748E2
:10313000FDF7A0FDCDF800B0CDF80C80CDE901542D
:1031400069461248FDF796FD0420CDE90005CDE95A
:10315000024669460E48FDF78DFD0E480097CDE901
:10316000010469460948FDF785FD00221146172034
:10317000FDF7F2FE1720FDF7E1FE05B0BDE8F08F88
:10318000001002400008014000100140000C014006
:103190000014014000002110104810B50E490160D4
:1031A0004FF482714160002102228160C0E9031264
:1031B0001202C0E905120822C0E9072141628162BA
:1031C0000A21C162FEF7AAFA002803D0BDE8104028
:1031D000FDF7D6B810BD00000030014064000020AB
:1031E0000F4810B50D4901604FF482714160002114
:1031F0008160C1604FF400720161C0E90512C161D4
:103200000162416281620A21C162FEF787FA0028E9
:1032100003D0BDE81040FDF7B3B810BD0038004042
:10322000BC00002030B58DB00025079508950995A4
:103230000A950B951C2168460C95FCF7AEFF344CA3
:10324000324820604720C4E9010540F2E730C4E974
:1032500003052046A561FEF711FE08B1FDF790F8C1
:103260004FF48050079007A92948FEF7CFFE08B118
:10327000FDF786F82648FFF75EF808B1FDF780F8FD
:103280000B950BA922480C95FEF7BAFD08B1FDF786
:1032900077F86020CDE900050295042269461C48B4
:1032A0000495FEF7E2FF08B1FDF76AF8206881692E
:1032B00021F400618161082269461548FEF7D5FFB7
:1032C00008B1FDF75DF82068C16921F00801C1610E
:1032D0000C2269460E48FEF7C8FF08B1FDF750F80A
:1032E0002068C16921F40061C16104210848FFF729
:1032F00051F808210648FFF74DF80C210448FFF764
:1033000049F80348FEF78AFF0DB030BD00080040C1
:10331000E001002010B586B0002417480094019405
:103320000294039404941349059401604721C0E971
:10333000011442F20F71C0E903148461FEF79EFD8F
:1033400008B1FDF71DF84FF48050009069460A4817
:10335000FEF75CFE08B1FDF713F8049404A90648D3
:103360000594FEF74DFD002801D0FDF709F806B0E1
:1033700010BD0000000C0040280200201CB50024F5
:103380000E4800940C49019401604721C0E90114E2
:1033900040F2E7318461C160FEF770FD08B1FCF7CF
:1033A000EFFF0094694605480194FEF729FD0028C7
:1033B00001D0FCF7E5FF1CBD0010004070020020AA
:1033C0001CB500240E4800940C490194016047216B
:1033D000C0E9011409218461C160FEF74FFD08B105
:1033E000FCF7CEFF0094694605480194FEF708FDFE
:1033F000002801D0FCF7C4FF1CBD000000140040F1
:10340000B80200200C4810B50A4901604FF4E131C0
:103410004160002181600C22C160C0E90412816119
:10342000C161FFF7FFF9002803D0BDE81040FCF7A9
:10343000A7BF10BD00380140000300200C4810B5A4
:103440000A4901604FF4E1314160002181600C22A2
:10345000C160C0E904128161C161FFF7E3F900288E
:1034600003D0BDE81040FCF78BBF10BD0044004006
:1034700048030020FEE7FEE7704700000148FEF722
:10348000DDB80000640000200A460146FF23014821
:10349000FEF7F4BA640000200148FEF7CFB8000040
:1034A000BC00002010B5406A0021C187C186FEF72C
:1034B000C3F810BDF8B5044640684FF482739842D3
:1034C00017D1A0684FF48065B0F5004F01D0A84235
:1034D0000FD12068066826F04006066060689842B2
:1034E00007D1A068A84204D100920B460022012116
:1034F00003E000920B4600228021204600F022F8D3
:10350000002804D0606D40F0200060650320F8BD05
:10351000F8B515460E460B460092044601220221DC
:1035200000F010F840B93346002280212046009573
:1035300000F008F8002804D0606D40F020006065BD
:103540000320F8BD2DE9F8431E46914688460446FF
:10355000089DFDF795FC401B351AFDF791FC0746C9
:1035600025480068C0F3CB30684338E0701C37D082
:10357000FDF786FCC01BA84203D215B1009860B3CA
:103580002CE02068416821F0E00141606068B0F5FE
:10359000827F0BD1A068B0F5004F02D0B0F5806FEC
:1035A00004D12068016821F040010160A06AB0F5F3
:1035B000005F09D12068016821F400510160206892
:1035C000016841F400510160012084F8510000209D
:1035D00084F850000320BDE8F8830025401E0090C9
:1035E0002068816838EA010004D000214945BDD136
:1035F0000020F0E70121F9E7140000203EB5144C4B
:1036000020212046FDF732FCE8B9142000F0C9FD66
:1036100020212046FDF72AFC78B90E484FF4FC63C0
:103620004FF478414268521C426020208DE80B0024
:1036300002237821A020FFF705FC20212046FDF77A
:1036400015FC0028F9D0BDE83E40642000F0A9BD7B
:1036500000100140180000207047FDF717BC30B57E
:1036600095B028216846FCF798FD14210AA8FCF7BC
:1036700094FD18210FA8FCF790FD01210804CDE965
:1036800000100025029502240491CDE907404FF473
:10369000E01009906846FDF73FFE08B172B6FEE7FC
:1036A0000AA90F2081E831004FF48060CDE90D05B3
:1036B00002210AA8FDF754FD08B172B6FEE74FF4E7
:1036C000004011900F940FA8FDF7D4FC002801D002
:1036D00072B6FEE715B030BD704700000148FEF736
:1036E00004BD0000700200200148FEF7FEBC00008F
:1036F000B8020020F0B50268204C214D214E224F27
:10370000224B4FF0804CA04209D0984207D0604530
:1037100005D0A84203D0B04201D0B84204D122F073
:10372000700E4A6842EA0E02A04209D0984207D0C1
:10373000604505D0A84203D0B04201D0B84203D1C1
:1037400022F44075CA682A434D6922F080022A4358
:1037500002608A68C2620A688262A04201D098420E
:1037600001D109690163012141610169C90703D0E0
:10377000016921F001010161F0BD0000002C014050
:103780000004004000080040000C004000340140EC
:1037900010B501F01F030121046A99408C430462B3
:1037A000016A9A401143016210BD10B5846842EA73
:1037B000032224F47F440A432243826010BD8268BE
:1037C00022F070020A4342F0070181607047000056
:1037D000F0B5036A026A22F001020262426884695B
:1037E000124E24F073050C682C4323F002058B68FD
:1037F0002B430D4DA84201D0B04205D123F008075C
:10380000CB683B4323F00403A84201D0B04205D16A
:103810004D6922F4407215438A692A4342608461EB
:10382000496841630362F0BD002C0140003401404F
:10383000F0B5026A036A23F01003036243688469E7
:103840000D6824F4E64444EA05248D6822F0200241
:1038500042EA05120F4D104EA84201D0B04206D1E7
:10386000CF6822F0800242EA071222F04002A8420A
:1038700001D0B04207D14D6923F4406343EA850388
:103880008D6943EA8503436084614968816302620C
:10389000F0BD0000002C014000340140F0B5026A88
:1038A000036A23F4807303624368C46922F40072DC
:1038B00024F073050C68124E2C438D6842EA0522F1
:1038C0000E4DA84201D0B04206D1CF6822F400626A
:1038D00042EA072222F48062A84201D0B04207D116
:1038E0004D6923F4405343EA05138D6943EA0513F8
:1038F0004360C4614968C1630262F0BD002C0140AD
:103900000034014030B5046A026A22F48052026237
:103910004268C3690D6823F4E64343EA05238D68D2
:1039200024F4005444EA0534084DA84202D0084D5E
:10393000A84204D14D6922F4804242EA85124260D5
:10394000C36149680164046230BD0000002C01407D
:103950000034014010B5036A046A24F001040462D3
:10396000846924F0F00444EA021423F00A020A43B2
:103970008461026210BD10B5036A046A24F0100469
:103980000462846923F0A00324F4704444EA023200
:1039900043EA01118261016210BD10B5406A002145
:1039A000C185C184FEF706FE10BD01680C3151E8E7
:1039B000002F22F4907241E80023002BF5D101681A
:1039C000143151E8002F22F0010241E80023002BBE
:1039D000F5D1016B012909D101680C3151E8002FA3
:1039E00022F0100241E80023002BF5D1202180F8BD
:1039F000421000210163704708B590F84210222957
:103A000001D0022008BD82684FF480539A4201D150
:103A1000016921B1816A9A421BD04AB10AE0026869
:103A2000816A5268C2F308020A80816A891C08E030
:103A3000026972B10268526802F07F020A70816AFC
:103A4000491C8162C18D491E0904090CC18503D03E
:103A50001BE002685268F1E70168CA6822F02002A0
:103A6000CA600168CA6822F48072CA6001684A6943
:103A700022F001024A61202180F8421000214163B6
:103A8000026B012A03D0FEF7A5FF002008BD0163E9
:103A900001680C3151E8002F22F0100241E80023A8
:103AA000002BF5D101680A68D20602D50A68496878
:103AB0000091818DFEF77DFDE7E7000070B50446BB
:103AC00000680169E26821F44051114301612169F4
:103AD000A0680843616908432168CA6841F20C6321
:103AE0009A430243CA6020684169A26921F4407187
:103AF000114341611E492068884202D1FDF7D6FB7F
:103B000001E0FDF7C3FB00EBC00101EB00126068B0
:103B100064218000B2FBF0F3B3FBF1F36FF0180601
:103B20007343B2FBF0F5B2FBF0F605EB83053223ED
:103B300003EB0515B5FBF1F5B6FBF1F605F0F00565
:103B400005EB0615B2FBF0F6B2FBF0F0B0FBF1F0BE
:103B50006FF01802504306EB800003EB0010B0FB3F
:103B6000F1F0216800F00F002844886070BD00006B
:103B70000038014081628285C28500214164222192
:103B800080F84210016921B10168CA6842F480726C
:103B9000CA6001684A6942F001024A610068C1686E
:103BA00041F02001C160002070472DE9F84398469C
:103BB00017460D460446089E24E0701C22D0FDF7EF
:103BC0005FF9A0EB0800B0421AD8CEB12068C168F6
:103BD000490717D5802D15D0402D13D00168C94352
:103BE00009070FD401680025406800902046FFF7C0
:103BF000DCFE0820606484F840500120BDE8F883B2
:103C00000320FBE72068006835EA000004D00020AC
:103C1000B842D2D00020F1E70120F9E70148FEF7D1
:103C2000CBBC0000000300200148FEF7C5BC00002B
:103C300048030020FEE7000010B500F025F801461B
:103C4000BDE8104001A000F051B8000054686520A4
:103C50006368697020696420697320307825303486
:103C600078200D0A0000000013460A460146054868
:103C700010B54068FDF702FF002801D04FF0FF307B
:103C800010BD0000200000202DE9FC4114A00024FC
:103C90000068144FCDE900404FF48056224631466B
:103CA0003846FDF7E8F84FF4FA752A46042101A8D2
:103CB000FFF7DAFF0C48694602222B464068FDF701
:103CC00033FE012231463846FDF7D5F89DF8000055
:103CD00044EA00219DF801000843BDE8FC81000092
:103CE00090000000000C0140200000200FB4054BA4
:103CF00010B503A9044A029800F028F810BC5DF83A
:103D000014FB0000C9410008300000200907090E1B
:103D1000002804DB00F1E02080F80014704700F078
:103D20000F0000F1E02080F8141D704702E008C881
:103D3000121F08C1002AFAD170477047002001E025
:103D400001C1121F002AFBD1704700002DE9FF4F6F
:103D50008DB00F460546002606E025280BD0DDE98C
:103D60000F1290476D1C761C28780028F5D111B0F1
:103D70003046BDE8F08F0024A246A1460122E94961
:103D800000E0044315F8013F203B02FA03F008422B
:103D9000F7D128782A2810D06FF02F022878A0F1C8
:103DA0003001092914D80AEB8A0102EB410144F0E1
:103DB000020400EB010A6D1CF0E701CF5FEA000A84
:103DC00003D544F40054CAF1000A44F002046D1C07
:103DD00028782E2817D115F8010F44F004042A285A
:103DE0000ED06FF02F022878A0F1300109290AD8EF
:103DF00009EB890102EB410100EB01096D1CF2E7BF
:103E000057F8049B6D1C28786C280FD006DC4C28D2
:103E100017D068280DD06A2814D104E0742810D077
:103E20007A280FD10DE044F400140AE044F4801421
:103E300001E044F440146978814202D104F5801411
:103E40006D1C6D1C28786E281ED00CDC632830D0C9
:103E500004DC00288BD0582811D19FE0642867D05B
:103E600069280CD164E073282DD004DC6F2872D04F
:103E7000702804D194E075286ED078286DD0DDE9E3
:103E80000F129047761C4BE1C4F30250022806D073
:103E9000032809D0042801CF09D0066040E101CFF2
:103EA000F117C0E900613BE101CF068038E10670FF
:103EB00036E117F8040B8DF8000000208DF80100A2
:103EC000EB46012003E057F804BB4FF0FF306107D9
:103ED0004FF0000102D40DE008F101018846494588
:103EE0000FDA8045F8DB1BF808100029F4D108E050
:103EF00008F1010188468142FADB1BF8081000290D
:103F0000F6D1DDE90F23AAEB08008146214600F037
:103F100031F9304400EB080604E0DDE90F121BF82C
:103F2000010B9047B8F10108F7D221464846F2E06C
:103F30000A21C4F302524FF0000B0891022A04D068
:103F400001CFC117032A09D00AE0FF1D27F0070798
:103F5000F7E8020108E02CE01EE01FE000B2C11704
:103F6000042A01D140B2C117021E71F1000206DA23
:103F70000023D0EB030063EB01012D2202E02205B8
:103F800004D52B228DF82420012203E0E20701D082
:103F90002022F7E7904653E00A210BE0102109E0C8
:103FA00010214FF0000B44F004044FF00809089171
:103FB00003E008214FF0000B0891C4F30252022ADB
:103FC00004D001CF0021032A06D006E0FF1D27F010
:103FD0000707F7E8020103E080B2042A00D1C0B26B
:103FE0004FF0000822072BD52A78702A07D0DDF879
:103FF00020C08CF0100C5CEA0B0C05D00EE04022C7
:104000008DF82420012208E050EA010306D0302375
:104010008DF824308DF8252002229046089B83F0ED
:10402000080353EA0B030BD150EA010201D16207E6
:1040300006D530228DF824204FF00108A9F101099E
:104040002A78582A04D038A20B9208AA0A920BE0C8
:104050003AA2F9E75B46089AFCF7AAF80B9B9B5C2F
:104060000A9A521E0A92137050EA0102F2D10A987B
:10407000ADEB000000F1200B600702D524F4803482
:1040800001E04FF00109D94502DDA9EB0B0000E08A
:10409000002000EB0B0141440890AAEB010AE00369
:1040A00006D4DDE90F232146504600F063F80644AC
:1040B0004FF0000908E009A911F80900DDE90F1225
:1040C000904709F10109761CC145F4DBE0030CD5EA
:1040D000DDE90F232146504600F04CF8064404E089
:1040E000DDE90F1230209047761C0899481E089091
:1040F0000029F5DC08E00A980A990078491C0A9121
:10410000DDE90F129047761CBBF10001ABF1010B0A
:10411000F1DC21465046DDE90F2300F019F8064492
:104120006D1C21E609280100303132333435363731
:1041300038396162636465660000000030313233F3
:104140003435363738394142434445460000000093
:104150002DE9F041044600251E461746880404D484
:1041600005E039462020B0476D1C641EF9D528466D
:10417000BDE8F0812DE9F041044600251E46904639
:10418000C80301D5302700E02027880404D505E0C6
:1041900041463846B0476D1C641EF9D52846BDE837
:1041A000F08142F2283148434FF0E021486100207D
:1041B000886101220A610A69D30701D0D203FAD5C6
:1041C000086188617047000013B54FF6FF73012244
:1041D00069460248FEF722FC00981CBD48030020F7
:1041E000FCF75CFEFFF73BFAFEF720FFFEF7E8FE68
:1041F000FFF708F9FEF790FEFFF720F9FFF712F836
:10420000FEF7CAFFFEF7ECFFFFF7B8F8FFF7D8F8A4
:10421000FFF780F81A48FCF7B5F81A48FDF7A8FE32
:104220001948FDF7A5FE1948FDF7A2FE012202215B
:104230001748FCF720FE174C0122601DA1780144AD
:104240001548FEF7B9FBFEF785FC322020700020F0
:104250002071A070FFF7F0FC4B22C82311463220DA
:1042600000F046F8462000F02BF84FF6FF70FEF7FE
:1042700045FC0AA0FFF73AFDFFF7C0F9FCE7000094
:10428000340000202802002070020020B802002024
:1042900000080140180A0020480300203D3D3D3D34
:1042A0003D3D3D3D3D20636F6465207374617274D4
:1042B000203D3D3D3D3D3D3D3D3D200D0A00000082
:1042C00010B5040008480BD0FDF752FEC4F164009D
:1042D000532148430A2190FBF1F00449488010BD66
:1042E000BDE81040FDF77ABEB8020020280000208B
:1042F00070B50C4CB4FBF3F30B4C5B1E2568EB6202
:1043000058436425B0FBF5F02668B0635943B1FB10
:10431000F5F02168C8635A43B2FBF5F021680864E0
:1043200070BD000040420F00E001002001020203C6
:104330000405060708090A0B0C0D0E0F10100102E8
:1043400002030405060708090A0B0C0D0E0F1010D6
:104350000000000000000000010203040607080935
:104360000000000001020304000000000000000043
:10437000000000000000202020202000002000007D
:1043800028285000000000000000000000005050ED
:10439000F85050F850500000002070A8A06030285D
:1043A000A8702000000048A8B0A874345448000049
:1043B00000002050506CA8A8946800004040800085
:1043C0000000000000000000081010202020202025
:1043D0001010080040202010101010102020400065
:1043E00000000020A87070A820000000000000104D
:1043F000107C101000000000000000000000000011
:10440000404080000000000000FC000000000000B0
:104410000000000000000000004000000004080848
:104420001010202040408000000070888888888814
:1044300088700000000020602020202020700000F4
:10444000000070888810204080F80000000070880C
:10445000083008088870000000001030305090F8D4
:10446000103800000000F88080F088088870000094
:104470000000304880B0C8888870000000007808CC
:10448000101020202020000000007088887088888C
:1044900088700000000070888898680890600000AC
:1044A00000000000200000000020000000000000CC
:1044B00000200000002020000000081020404020C4
:1044C0001008000000000000FC00FC0000000000DC
:1044D00000004020100808102040000000007088F4
:1044E00088102020002000000000384494B4B4B8A4
:1044F00044380000000020203050507848CC0000A4
:104500000000F0484870484848F0000000007888F3
:1045100080808080887000000000F048484848484B
:1045200048F000000000F8485070504048F8000083
:104530000000F8485070504040E00000000038484B
:1045400080809C88483000000000CC48487848486B
:1045500048CC00000000F8202020202020F8000097
:1045600000007C1010101010101090E00000EC48BB
:104570005060504848EC00000000E040404040409F
:1045800044FC00000000DCD8D8D8A8A8A8AC0000E3
:104590000000DC486868585848E80000000070884F
:1045A00088888888887000000000F0484870404083
:1045B00040E0000000007088888888E89870180043
:1045C0000000F0484870504848EC0000000078882F
:1045D0008060100888F000000000F8A8202020204B
:1045E000207000000000CC4848484848483000008F
:1045F0000000CC4848505030202000000000A8A8FF
:10460000A8A87050505000000000D85050202050F2
:1046100050D800000000D8505050202020700000DA
:104620000000F8901020204048F80000382020209A
:104630002020202020203800004040202020101082
:1046400010080800701010101010101010107000DA
:1046500020500000000000000000000000000000EA
:1046600000000000000000FC4020000000000000EE
:10467000000000000000000000304838483C000006
:1046800000C04040407048484870000000000000F2
:1046900000384840483000000018080808384848EA
:1046A000483C00000000000000304878403800001E
:1046B000001824202078202020780000000000002E
:1046C000003C48304038443800C0404040704848C2
:1046D00048EC000000202000006020202070000036
:1046E0000010100000301010101010E000C040400A
:1046F0004058506050C8000000E0202020202020BA
:1047000020F800000000000000F0A8A8A8A8000001
:104710000000000000F0484848EC000000000000E5
:1047200000304848483000000000000000F04848D1
:10473000487040E000000000003848484838081C35
:104740000000000000D8604040E0000000000000D1
:1047500000784030087800000000002020782020F9
:10476000203800000000000000D84848483C000005
:104770000000000000D85050202000000000000081
:1047800000A8A870505000000000000000D8502081
:1047900050D800000000000000CC4848301020C075
:1047A0000000000000781020207800001810101081
:1047B00010301010101018001010101010101010E1
:1047C00010101010602020202010202020206000D9
:1047D00068900000000000000000000000000000E1
:1047E00000000000000000000000000000000010B9
:1047F00010101010101000001010000000122424DF
:10480000480000000000000000000000000000124E
:1048100012127E2424247E24242400000000083C5C
:104820004A4A48380C0A0A4A4A3C08080000004430
:10483000A4A8A8B0541A2A2A4A4400000000003054
:10484000484848506EA49498897600000060202063
:10485000400000000000000000000000000204080A
:10486000081010101010100808040200004020105A
:104870001008080808080810102040000000000078
:104880001010D63838D610100000000000000000CC
:10489000000808087F080808000000000000000069
:1048A0000000000000000000602020400000000028
:1048B000000000007E00000000000000000000007A
:1048C0000000000000000000606000000000020422
:1048D00004040808101010202040400000000018B8
:1048E0002442424242424242241800000000000892
:1048F0003808080808080808083E00000000003CC6
:104900004242420204081020427E00000000003CA7
:104910004242020418040242423C0000000000042B
:104920000C0C142424447F04041F00000000007EAB
:104930004040407844020242443800000000001821
:104940002440405C62424242221C00000000007E83
:104950004204040808101010101000000000003C71
:104960004242422418244242423C000000000038E7
:1049700044424242463A020224180000000000006D
:1049800000001818000000001818000000000000C7
:1049900000000010000000000010101000000002D5
:1049A000040810204020100804020000000000004D
:1049B00000007E00007E00000000000000000040BB
:1049C0002010080402040810204000000000003CF1
:1049D000424262040808080018180000000000386D
:1049E000445AAAAAAAAAAA5C423C000000000010ED
:1049F00010182828243C444242E70000000000F838
:104A0000444444784442424244F800000000003EDE
:104A1000424280808080804244380000000000F8DC
:104A2000444242424242424244F80000000000FC3C
:104A3000424848784848404242FC0000000000FCE0
:104A4000424848784848404040E000000000003CB0
:104A500044448080808E844444380000000000E795
:104A6000424242427E42424242E700000000007C55
:104A70001010101010101010107C00000000003EEC
:104A80000808080808080808080888F0000000EE70
:104A9000444850705048484444EE0000000000E094
:104AA000404040404040404042FE0000000000EED8
:104AB0006C6C6C6C6C54545454D60000000000C7ED
:104AC000626252524A4A4A4646E2000000000038FA
:104AD000448282828282828244380000000000FC8C
:104AE000424242427C40404040E00000000000382A
:104AF00044828282828282B24C380600000000FC2E
:104B00004242427C4848444442E300000000003EE8
:104B10004242402018040242427C0000000000FE95
:104B2000921010101010101010380000000000E754
:104B30004242424242424242423C0000000000E700
:104B4000424244242428281810100000000000D6F7
:104B500054545454546C282828280000000000E7BE
:104B6000422424181818242442E70000000000EE14
:104B70004444282810101010103800000000007E57
:104B8000840408081020204242FC0000001E10107F
:104B9000101010101010101010101E0000004020F7
:104BA00020201010100808040404020200780808ED
:104BB00008080808080808080808780000182400F1
:104BC00000000000000000000000000000000000E5
:104BD0000000000000000000000000FF0060100066
:104BE00000000000000000000000000000000000C5
:104BF00000000038440C34444C3600000000000033
:104C0000C040405864424242645800000000000026
:104C10000000001C22404040221C00000000000058
:104C20000602023E42424242463B000000000000B3
:104C30000000003C42427E40423C00000000000078
:104C40000C12107C10101010107C000000000000EE
:104C50000000003E444438403C42423C000000001A
:104C6000C040405C6242424242E700000000003027
:104C70003000007010101010107C00000000000CBC
:104C80000C00001C04040404040444780000000028
:104C9000C040404E4850704844EE000000000010F4
:104CA0007010101010101010107C00000000000098
:104CB000000000FE4949494949ED0000000000009C
:104CC000000000DC6242424242E7000000000000B7
:104CD0000000003C42424242423C00000000000012
:104CE000000000D864424242645840E000000000E6
:104CF0000000001A26424242261A02070000000065
:104D0000000000EE3220202020F80000000000000B
:104D10000000003E42403C02427C000000000000D7
:104D20000010107C10101010120C00000000000089
:104D3000000000C642424242463B00000000000024
:104D4000000000EE4444282810100000000000007D
:104D5000000000DB894A5A542424000000000000AF
:104D60000000007624181818246E000000000000CF
:104D7000000000E742242418181010600000000012
:104D80000000007E44081010227E0000000304048E
:104D900004040404080404040404030008080808C4
:104DA00008080808080808080808080800C02020A3
:104DB00020202020102020202020C000205A040085
:104DC00000000000000000000000000000000000E3
:104DD00000000000000000000000000000000000D3
:104DE00000000000000000000000000000000000C3
:104DF00000000000000000000000000000000000B3
:104E0000000000000600060006000600060006007E
:104E1000060002000400040004000000000000007E
:104E20000600060006000000000000000000000070
:104E3000066006600CC0198011002200000000000E
:104E40000000000000000000000000000000000062
:104E50000000000000000000000000000000000052
:104E60000000000008400840084008407FE07FE064
:104E7000104010801080108010807FE07FE0208044
:104E80002080208020800000000000000000000042
:104E90000000020002000F801AC032C033C032008E
:104EA0001A000E0007000380038002C032C03AC01F
:104EB00032C012800F00020002000000000000005B
:104EC00000000000708050808900890089008A00FD
:104ED0008A005C0075C005400A200A2012201220BA
:104EE0001220214021C0000000000000000000004E
:104EF000000000001C003600360036003600360088
:104F0000340019E038805880CC80CC80C680C7003F
:104F1000C31063903CE000000000000000000000AF
:104F200030003800080008001000200000000000D9
:104F30000000000000000000000000000000000071
:104F40000000000000000000000000000000000061
:104F50000020004000800100010002000200040067
:104F60000400040004000400040004000200020025
:104F7000010001000080004000200000000000004F
:104F80004000200010000800080004000400020097
:104F900002000200020002000200020004000400FD
:104FA0000800080010002000400000000000000081
:104FB0000000000000000000020003000200623058
:104FC00072F00B800F807AF0623002000200020063
:104FD00000000000000000000000000000000000D1
:104FE00000000000000000000000020002000200BB
:104FF000020002007FF00200020002000200020034
:1050000000000000000000000000000000000000A0
:105010000000000000000000000000000000000090
:105020000000000000000000000000000000000080
:1050300030003800080008001000200000000000C8
:105040000000000000000000000000000000000060
:10505000000000007FE000000000000000000000F1
:105060000000000000000000000000000000000040
:105070000000000000000000000000000000000030
:105080000000000000000000000000000000000020
:105090003800380038000000000000000000000068
:1050A00000200060004000C000800080010001007E
:1050B00002000200060004000400080008001000BE
:1050C00010003000200060004000000000000000E0
:1050D0000000000000000F00198030C030C0606088
:1050E000606060606060606060606060606030C090
:1050F00030C019800F000000000000000000000018
:1051000000000000000002003E000600060006004D
:10511000060006000600060006000600060006005F
:10512000060006003FC00000000000000000000074
:105130000000000000001F00218040C060C060C06F
:1051400000C0008001800300060004000800104039
:10515000204060407FC00000000000000000000010
:105160000000000000001E0063006180618001807B
:10517000018003000E000180008000C000C060C0FC
:1051800060C061801F0000000000000000000000FF
:105190000000000000000180018003800580058080
:1051A000098011801180218041807FF00180018081
:1051B0000180018007E00000000000000000000006
:1051C0000000000000003FC0200020002000200060
:1051D00020002F00318020C000C000C060C060C02F
:1051E000418021801F00000000000000000000003E
:1051F000000000000000078018C030C03000200010
:105200006000678068C0706060606060606020609F
:10521000304018C00F000000000000000000000037
:105220000000000000001FE030602040208000806F
:1052300000800100010002000200020006000600DA
:10524000060006000600000000000000000000004C
:105250000000000000001F8030C06060606060607F
:10526000304038C00F00138030C060606060606004
:10527000606030C00F8000000000000000000000EF
:105280000000000000000F00308030C0604060600F
:105290006060606060E031601E60006000C000C05F
:1052A000308031801E00000000000000000000007F
:1052B00000000000000000000000000000000000EE
:1052C00007000700070000000000000000000000C9
:1052D00007000700070000000000000000000000B9
:1052E00000000000000000000000000000000000BE
:1052F00006000600000000000000000000000000A2
:105300000000060006000200040004000000000087
:1053100000000000002000400080010002000400A6
:105320000800100020001000080004000200010026
:10533000008000400020000000000000000000008D
:10534000000000000000000000000000000000005D
:105350007FE00000000000007FE00000000000008F
:10536000000000000000000000000000000000003D
:1053700000000000200010000800040002000100EE
:105380000080004000200040008001000200040076
:1053900008001000200000000000000000000000D5
:1053A00000000000000007C01860203020303030BE
:1053B000303000E001800200020002000000000026
:1053C00007000700070000000000000000000000C8
:1053D00000000000070018C0304033A026A066A0DF
:1053E00065A06D206D206D206D206D4027803020E0
:1053F000304018C00F000000000000000000000056
:10540000000000000000060006000A000B00090072
:1054100009001100118010801F8020C020C0204092
:1054200040404060F0F0000000000000000000007C
:105430000000000000007F0031C030C030C030C02C
:1054400030C031803F0030C030403060306030606C
:10545000306030C07F8000000000000000000000CD
:1054600000000000000007C018C03060302020207D
:10547000600060006000600060006000602030201C
:10548000304018C00F0000000000000000000000C5
:10549000000000000000FE00318030C030C03060ED
:1054A000306030603060306030603060306030C01C
:1054B00030C03180FE00000000000000000000004D
:1054C000000000000000FFC060C06020602060009D
:1054D000610061007F006100610061006000602088
:1054E00060206040FFC000000000000000000000DD
:1054F000000000000000FFC060C06020602060006D
:10550000610061007F006100610061006000600077
:1055100060006000F80000000000000000000000D3
:105520000000000000000F00188030403040204094
:10553000600060006000600063F060C060C030C068
:1055400030C018C00F000000000000000000000084
:10555000000000000000F0F060606060606060606B
:10556000606060607FE0606060606060606060609C
:1055700060606060F0F000000000000000000000CB
:105580000000000000003FC0060006000600060004
:1055900006000600060006000600060006000600DB
:1055A000060006003FC000000000000000000000F0
:1055B0000000000000001FE00300030003000300E0
:1055C00003000300030003000300030003000300C3
:1055D000030003000300630066003C0000000000BD
:1055E000000000000000F3C06180630062006400FE
:1055F00068006C00740076006200630061006180E6
:10560000608060C0F1E000000000000000000000C9
:10561000000000000000F800600060006000600012
:10562000600060006000600060006000600060205A
:1056300060206040FFC0000000000000000000008B
:10564000000000000000E0E061C061C071C071C0F6
:1056500072C072C052C05AC05AC05CC04CC04CC06C
:105660004CC048C0E1E00000000000000000000065
:1056700000000000000071F03040384038402C40FD
:105680002C402640264022402340214021C021C0FA
:1056900020C020C0F8400000000000000000000012
:1056A0000000000000000F00198030C03040606032
:1056B000606060606060606060606060606030403A
:1056C00030C019800F000000000000000000000042
:1056D000000000000000FF0060C06060606060606B
:1056E0006060606061C07F0060006000600060001A
:1056F00060006000F80000000000000000000000F2
:105700000000000000000F00198030C030406060D1
:105710006060606060606060606060606E603240C9
:1057200033C019800F0001E000C00000000000003D
:10573000000000000000FF8060C06060606060608A
:10574000606060C07F00620063006100618060C0D3
:1057500060C06060F0700000000000000000000009
:105760000000000000001F4030C06040604060004A
:1057700070003C001F0007C001C000E040604060B6
:10578000606030C00F8000000000000000000000DA
:105790000000000000007FE0462086108610060012
:1057A00006000600060006000600060006000600C9
:1057B000060006001F80000000000000000000003E
:1057C00000000000000078E03040304030403040C1
:1057D0003040304030403040304030403040304049
:1057E000304018800F0000000000000000000000A2
:1057F000000000000000F0E0604020802080308049
:10580000308011001100190019000A000A000E0072
:105810000C00040004000000000000000000000074
:10582000000000000000EF7046204220622062204D
:10583000264026402740274039403980198019806A
:1058400011801100110000000000000000000000A5
:1058500000000000000079E030801080188009000E
:105860000D0006000400060006000B000900118070
:10587000108020C071E00000000000000000000067
:10588000000000000000F0F0602020403040108058
:1058900018801D000D000E00060006000600060020
:1058A000060006001F80000000000000000000004D
:1058B0000000000000003FE0304060C040800180F8
:1058C000010002000200040004000800180010207B
:1058D000302020407FC000000000000000000000D9
:1058E00007C00400040004000400040004000400D5
:1058F0000400040004000400040004000400040088
:10590000040004000400040007C0000000000000C0
:105910000000000020002000100010000800080017
:10592000080004000400020002000300010001005E
:105930000080008000400040004000200000000087
:105940003E0002000200020002000200020002000B
:105950000200020002000200020002000200020037
:1059600002000200020002003E00000000000600EB
:10597000090010800000000000000000000000008E
:105980000000000000000000000000000000000017
:105990000000000000000000000000000000000007
:1059A00000000000000000000000000000000000F7
:1059B00000000000000000000000000000000000E7
:1059C00000000000000000000000FFF000000000E8
:1059D00018000600000000000000000000000000A9
:1059E00000000000000000000000000000000000B7
:1059F00000000000000000000000000000000000A7
:105A00000000000000000000000000000000000096
:105A10000F8030C030C000C007C038C070C060C048
:105A200060C071D03E700000000000000000000067
:105A30000000000010007000300030003000300026
:105A400033803CC03860306030603060306030603F
:105A5000304038C027800000000000000000000037
:105A60000000000000000000000000000000000036
:105A70000F00318031806180600060006000604014
:105A8000304030800F0000000000000000000000E7
:105A900000000000004003C000C000C000C000C003
:105AA0001EC031C030C060C060C060C060C060C097
:105AB00020C031E01E800000000000000000000057
:105AC00000000000000000000000000000000000D6
:105AD000078018C01040306030603FE03000300078
