:020000040800F2
:1000000048A4002049010008EF360008232D00080D
:10001000ED3600089503000861400008000000006C
:10002000000000000000000000000000ED390008A2
:10003000FF03000800000000F1360008EF39000857
:100040006301000863010008630100086301000800
:1000500063010008630100086301000863010008F0
:1000600063010008630100086301000863010008E0
:100070006301000899030008A5030008B103000804
:10008000BD030008C9030008B502000863010008A9
:1000900063010008630100086301000863010008B0
:1000A00063010008630100086301000863010008A0
:1000B0006301000863010008630100086301000890
:1000C000630100086301000863010008F5360008B9
:1000D0002137000849400008554000086301000826
:1000E0006301000863010008630100086301000860
:1000F0006301000863010008630100086301000850
:10010000630100086301000863010008630100083F
:100110006301000863010008713A000863010008E8
:10012000630100086301000863010008630100081F
:10013000DFF810D000F06EF800480047B54700081F
:10014000AFF3008048A400200648804706480047D7
:10015000FEE7FEE7FEE7FEE7FEE7FEE7FEE7FEE777
:10016000FEE7FEE76D3A000831010008202A04DBB3
:10017000203A21FA02F00021704721FA02F3D04020
:10018000C2F120029140084319467047D2B201E003
:1001900000F8012B491EFBD270470022F6E710B58C
:1001A00013460A4604461946FFF7F0FF204610BDE5
:1001B0002DE9F05F0546002092469B46884606469C
:1001C000814640241BE02846414647462246FFF729
:1001D000CDFF53465A46C01A914110D311461846D6
:1001E000224600F029F82D1A67EB01084F462246F7
:1001F0000120002100F020F817EB00094E41201EDD
:10020000A4F10104DFDC484631462A464346BDE8F6
:10021000F09F0000064C074D06E0E06840F0010347
:1002200094E8070098471034AC42F6D3FFF784FFF8
:10023000BC490008DC490008202A04DB203A00FA07
:1002400002F1002070479140C2F1200320FA03F32D
:1002500019439040704770B58D1810F8014B14F099
:10026000030201D110F8012B231106D110F8013B34
:1002700003E010F8016B01F8016B521EF9D1ABB12C
:1002800010F8012B04F00C048A1A0C2C03D0A2EBFA
:1002900084129B1C08E010F8014BA2EB0422F8E743
:1002A00012F8014B01F8014B5B1EF9D5A942D4D3DA
:1002B000002070BD014800F092B900002096002097
:1002C00070B5044600688168C943C90717D18168C1
:1002D00021F00101816000F033FE05460AE000BF15
:1002E00000F02EFE401B022804D920688068C0431D
:1002F000C00706D020688068C043C007F0D0002047
:1003000070BDA06A40F01000A062E06A40F00100F9
:10031000E062012070BD0000F8B50026044600969A
:1003200000688168C943C9072DD0816841F0010187
:100330008160164816490068B0FBF1F000E0401EED
:1003400000900028FBD100F0FBFD054616E000BF41
:1003500000F0F6FD401B022810D920688068C043D9
:10036000C0070BD0A06A40F01000A062E06A40F025
:100370000100E06284F824600120F8BD20688068F4
:10038000C043C007E4D10020F8BD00000C96002057
:1003900040420F00FEE70000014800F023BB0000D0
:1003A00000970020014800F01DBB0000449700208A
:1003B000014800F017BB000088970020014800F0BA
:1003C00011BB0000EC980020014800F00BBB0000BE
:1003D0003099002030B590F840500124AC40C56BF6
:1003E0006C60046863604368102B036803D09960F5
:1003F0000068C26030BD9A600068C16030BD70475F
:1004000072B6FEE7F8B500250446009590F8240082
:1004100001280BD0012084F824002046FFF750FF6C
:100420002046FFF779FF060002D050E00220F8BD19
:10043000A06A20F4885040F00200A062022000F080
:100440001DFE25490968B1FBF0F0400000E0401EA8
:1004500000900028FBD12068816841F0080181608C
:1004600000F06EFD074608E000F06AFDC01B0A2898
:1004700003D920688068000715D4206880680007C9
:10048000F2D42068816841F00401816000F058FDD9
:10049000074612E000F054FDC01B0A280DD9206861
:1004A0008068400709D5A06A20F0020040F01000E3
:1004B000A06284F824500120F8BD206880684007BD
:1004C000E8D4A06A20F0020040F00100A06284F8A5
:1004D00024503046F8BD00000C9600207047000004
:1004E000F8B50024009490F824202546012A12D063
:1004F000012280F824204A681F23072A0DD20668AB
:10050000776B521E02EB820293409F430B6893402D
:100510001F43776319E00220F8BD06680D2A0AD24E
:10052000376BD21F02EB820293409F430B689340CC
:100530001F43376309E0F76A0D3A02EB82029340EA
:100540009F430B6893401F43F7620A6807230668BE
:100550000A2A0AD3F7680A3A02EB420293409F4301
:100560008B6893401F43F76008E0376902EB420253
:1005700093409F438B6893401F4337610A68102A5A
:1005800001D0112A20D1124B02689A4217D19368E8
:100590001B0219D4936843F400039360096810297F
:1005A00012D10C490C4A0968B1FBF2F101EB81014F
:1005B000490000E0491E00910029FBD104E0816A56
:1005C00041F020018162012480F824502046F8BDCA
:1005D000002401400C96002040420F00704770B587
:1005E0000446006806684568A90625D5B10723D5E5
:1005F000A16AC90603D4A16A41F40071A1628168AD
:10060000C1F34241072910D1217B71B9416821F022
:1006100020014160A06A20F48070A062A06AC0043A
:1006200003D4A06A40F00100A0622046FFF7D6FF85
:1006300021686FF01200086028062ED570072CD5AF
:10064000A06AC00603D4A06A40F40050A0622068EB
:100650008168C1F30231072909D04168490515D4E1
:100660008168C1F34241072910D1217B71B94168EA
:1006700021F080014160A06A20F48050A062A06A4D
:10068000C00503D4A06A40F00100A0622046FFF735
:1006900025FF21686FF00C00086068060CD5F00794
:1006A0000AD0A06A40F48030A062204600F096F89C
:1006B00021686FF00100086070BD00002DE9F04175
:1006C00004004FF000057FD0A06A002628B9E6623A
:1006D00084F82460204600F083F82046FFF7F0FD00
:1006E000A16AC90600D420B1A06A40F01000A0623F
:1006F0006AE0A16A21F4885141F00201A162334904
:1007000023688B42E16904D1B1F5402F01D14FF448
:100710000021277B4FF4807C41EA470261680A434D
:10072000A168614508D0012906D0002194F814E0A1
:10073000BEF1010F02D00AE06146F7E7C7B1A76A30
:1007400047F02007A762E76A47F00107E7625F68A2
:1007500027F469470F435F60236899681C4F39404D
:1007600011439960A16861450BD0012909D00CE0C3
:10077000DFF860E0A7690EEB47370F4347F40061ED
:10078000E5E7218A0D05A5F580152168CB6A23F4DC
:1007900070032B43CB62216889680F4B194091424B
:1007A00008D1E662A16A21F0020141F00101A162D3
:1007B000BDE8F081A06A20F0020040F01000A062C5
:1007C000E06A40F00100E0620120F1E7003C0140F6
:1007D000FDF7E1FF00E0FFFFFE0E1FFF7047000086
:1007E00010B586B00021009101910291039100683B
:1007F0001A4988422FD11A48816941F400718161F8
:10080000816901F400710491816941F010018161F5
:10081000816901F010010491816941F00801816151
:100820008069032400F0080004900F20CDE9000443
:1008300069460C4800F082FA0220CDE900046946BE
:10084000094800F07BFA00221146122000F0E4FB78
:10085000122000F0D3FB06B010BD000000240140C0
:100860000010024000100140000C014010B590F84B
:1008700021100022022905D00421816380F8202064
:10088000012010BD01680B6823F00E030B600168A6
:100890000B6823F001030B6090F84030C46B01211A
:1008A00001FA03F3636080F8211080F820201046DD
:1008B00010BD00002DE9F05F90F8211000240229FE
:1008C00003D004218163012485E001680A6822F0D5
:1008D0000E020A6001680A6822F001020A603F4EB7
:1008E0003E4FB215DFF8F4C0DFF8F090DFF8ECA06F
:1008F000DFF8E8B0DFF8E4E00168783F13011502A3
:10090000ACF1640CA9F15009AAF13C0AABF1280B37
:10091000AEF1140E4FF48018B14227D9B9420ED06F
:10092000614512D049451DD0514518D0594518D0C0
:10093000714501D1424615E0294EB14201D1012253
:1009400010E0274E1436B14201D110220AE0244EA5
:100950002836B14206D0224A3C32914201D11A4691
:1009600000E02A461E49091F0A602BE0B94213D055
:10097000614517D0494522D051451DD059451DD05C
:10098000714501D142461AE0B14202D14FF0807266
:1009900015E0134EB14201D1012210E0104E143681
:1009A000B14201D110220AE00D4E2836B14206D0E4
:1009B0000B4A3C32914201D11A4600E02A460749CF
:1009C00080394A60012180F82110002180F8201030
:1009D000416B01B188472046BDE8F09F800002408E
:1009E000080402402DE9F05FC16B0A6801680B68DA
:1009F000046C4FF0040808FA04F8844D844E854FC7
:100A0000DFF814C2DFF81492DFF814A2DFF814B292
:100A1000DFF814E218EA020F65D05FEA437862D586
:100A20000A68920603D40A6822F004020A60DFF81A
:100A3000F0814FF48062016808F114081301140278
:100A4000414524D9A9420DD0B1420FD0B9421AD0A4
:100A5000614515D0494515D0514501D1120312E029
:100A6000594501D104220EE0714501D140220AE02E
:100A70006D4D1435A94206D06B4A2832914201D1FE
:100A80001A4600E022466749091F0A6029E0A94288
:100A900013D0B14215D0B94220D061451BD0494591
:100AA0001BD0514502D14FF4800217E0414502D1DD
:100AB0004FF0806212E0594501D104220EE07145E9
:100AC00001D140220AE0584D1435A94206D0564AB9
:100AD0002832914201D11A4600E022464B4908399A
:100AE0004A60C16A71E04FF0020808FA04F818EA97
:100AF000020F70D05FEA83786DD50A68920606D43B
:100B00000A6822F00A020A60012180F82110DFF849
:100B100010814FF40072016808F1140813011402E7
:100B2000414524D9A9420DD0B1420FD0B9421AD0C3
:100B3000614515D0494515D0514501D1120312E048
:100B4000594501D102220EE0714501D120220AE06F
:100B5000354D1435A94206D0334A2832914201D18D
:100B60001A4600E022462F49091F0A6029E0A942DF
:100B700013D0B14215D0B94220D061451BD04945B0
:100B80001BD0514502D14FF4001217E0414502D16C
:100B90004FF0007212E0594501D102220EE071457A
:100BA00001D120220AE0204D1435A94206D01E4A68
:100BB0002832914201D11A4600E0224613490839F1
:100BC0004A60002180F82010816A00291CD0BDE80D
:100BD000F05F0847FFE70825A540154214D01A0723
:100BE00012D50A6822F00E020A6090F84020C36B0A
:100BF000012101FA02F25A60816380F8211000217C
:100C000080F82010016BE0E7BDE8F09F080002408B
:100C10001C000240300002404400024058000240E4
:100C20006C000240080402401C04024030B560B170
:100C30001A4B026814219A4209D2194B1344B3FB90
:100C4000F1F18900016417490AE0012030BD134B1E
:100C50005B421344B3FBF1F1890001640F49083989
:100C6000C163022180F82110136843F6F0718B43B1
:100C7000F0E901142143D0E902452C4321430469E2
:100C800021434469214384692143194311600021B0
:100C90004163012242770177084630BD08040240D3
:100CA000F8FFFDBF0000024070B5044690F8200038
:100CB000002501280CD0012084F8200094F8216040
:100CC0000020012E06D084F820000225284670BDA1
:100CD000022070BD022684F82160A06320680668A7
:100CE00026F0010606602046FFF774FBE06A002844
:100CF0002068016802D041F00E0106E021F00401F5
:100D000001602068016841F00A0101602068016803
:100D100041F001010160D9E770B5044600F010F917
:100D20000546601C02D004480078044400F008F92D
:100D3000401BA042FAD370BD009600202DE9F84F69
:100D4000DFF8C8910024A9F1040B23460F2709F10D
:100D5000040AABF1040ED1E00125A54006EA050224
:100D6000AA4276D1DFF8A8C14E68A6EB0C0866450A
:100D70002BD00DDC032E34D005DC36B3012E19D078
:100D8000022E2FD11BE0112E16D0122E2AD119E0DF
:100D9000B8F5881F19D006DCB8F5803F15D0B8F536
:100DA000801F1FD111E0B8F5001F0ED0B8F5041F49
:100DB00018D10AE0CB6815E0CB681B1D12E0CB68A8
:100DC00008330FE0CB680C330CE08B682BB1012BA0
:100DD0004FF0080303D0456104E0042302E00561FD
:100DE00000E00023FF2A01D8064601E000F10406D6
:100DF0004FEA840501D9A5F12005D6F8008007FA4D
:100E000005FC28EA0C0803FA05F548EA0508C6F8C7
:100E100000804D68ED0070D53E4DAE6946F001068C
:100E2000AE61AD6924F0030605F0010500953A4D69
:100E300006EB050CDCF80850A607360F07FA06F893
:100E400025EA0805DFF8D480404503D14FF00008BB
:100E500025E052E0DFF8C880404502D14FF001089C
:100E60001DE0DFF8C080404502D14FF0020816E0D7
:100E7000DFF8B480404502D14FF003080FE0DFF8FF
:100E8000AC80404502D14FF0040808E0DFF8A080B4
:100E9000404502D14FF0050801E04FF0060808FA7E
:100EA00006F848EA0508CCF808804D68D9F80060D3
:100EB000ED024D4601D5164300E096432E604D6885
:100EC000DAF80060AD02554601D5164300E09643BE
:100ED0002E604D68DBF80060AD035D4601D516431A
:100EE00000E096432E604D68DEF80060ED03754625
:100EF00001D5164300E096432E60641C0A6816462E
:100F0000E2407FF429AFBDE8F88F000008040140FB
:100F100000001110001002400000014000080140D4
:100F2000000C014000100140001401400018014075
:100F3000001C01400AB1016170470904FBE7000091
:100F400001488068704700000096002002488168D0
:100F5000027811448160704700960020074810B560
:100F6000016841F010010160032000F075F80F20C6
:100F700000F006F800F024F8002010BD0020024028
:100F800070B50D4D04464FF47A712878B1FBF0F03E
:100F90000A490968B1FBF0F001F04DF848B9102C8E
:100FA00007D200222146501E00F036F800206C6067
:100FB00070BD012070BD0000009600200C9600203E
:100FC0000C4808B5816941F001018161816901F036
:100FD00001010091C16941F08051C161C06900F017
:100FE000805000900448416821F0E06141F00071B8
:100FF000416008BD0010024000000140002809DBEC
:1010000000F01F02012191404009800000F1E02022
:10101000C0F8001170470000F0B40E4B1B680C467E
:10102000C3F30223C3F10705042D00D90425191DBC
:10103000072901D2002300E0DB1E012606FA05F194
:10104000491E214099409E40761E16403143F0BC17
:1010500003F058B90CED00E0064900F007020868FB
:101060004FF6FF03184040EA0220034A104308608D
:10107000704700000CED00E00000FA0510B50146D5
:101080000020284C04292FD00BDC012930D0022964
:1010900029D100F06BF96168C1F38131491C490025
:1010A0001FE0082920D010291DD161682268D201D3
:1010B00019D51D48C1F38342C903805C0AD5616814
:1010C000194AC1F34041921E515C184AB2FBF1F13A
:1010D000484301E0164948436168490203D440008F
:1010E0000321B0FBF1F010BDBDE8104000F04EB997
:1010F000226AC2F30121012903D1920701D5C80355
:1011000010BD022905D1626A920702D549F6404016
:1011100010BD0329FCD121688903F9D54FF2244081
:1011200010BD0000001002409449000800127A002F
:1011300000093D002DE9F84305460078354CC0070D
:1011400054D0E0690026C00008D4E06940F0805027
:10115000E061E069012600F0805000902E480168AF
:10116000C90512D40168804641F480710160FFF71F
:10117000E7FE074605E000BFFFF7E2FEC01B64285C
:1011800023D8D8F80000C005F6D5206A10F44070C6
:1011900021D0A98801F4407181421CD0206A1F49E6
:1011A000012220F440700A6000220A602062C00719
:1011B00011D0FFF7C5FE074641F2883808E000BFAE
:1011C000FFF7BEFEC11B414502D90320BDE8F883ED
:1011D000206A8007F4D5206A696820F440700843CB
:1011E00020621EB1E06920F08050E061287880071D
:1011F00005D56068A96820F44040084360602878FD
:10120000C00605D56068696920F480000843606005
:101210000020DBE700100240007000404004424222
:101220002DE9F0470F46050061D0434E306800F0CD
:101230000700B84209D2306820F007003843306018
:10124000306800F00700B84251D128683B4C810754
:1012500012D5400703D5606840F4E06060602878EC
:10126000000703D5606840F4605060606068A9685A
:1012700020F0F000084360602878C00728D0686834
:10128000012810D02168022810D0890700292EDA01
:10129000616821F0030101436160FFF751FE804660
:1012A00041F288390DE021688903EFE78901EDE714
:1012B000FFF746FEA0EB0801494502D90320BDE82F
:1012C000F0876068696800F00C00B0EB810FEFD127
:1012D000306800F00700B8420BD9306820F00700F2
:1012E00038433060306800F00700B84201D0012078
:1012F000E5E72878400705D56068E96820F4E060F4
:10130000084360602878000706D56068296920F4E2
:10131000605040EAC100606000F038F86168084A37
:10132000C1F30311515CC8400649086006480068D3
:10133000FFF726FE0020C2E7002002400010024016
:10134000A44900080C960020049600200448054992
:1013500000684968044AC1F30221515CC8407047E3
:101360000C96002000100240B449000804480549CA
:1013700000684968044AC1F3C221515CC840704703
:101380000C96002000100240B44900080E4A516833
:101390000E4801F00C03042B11D0082B0FD10C4880
:1013A000C1F38343C903C05C0AD55168084AC1F33D
:1013B0004041921E515C054A5043B0FBF1F070472A
:1013C00004494843704700000010024000127A00B0
:1013D0008249000800093D002DE9F84F040070D053
:1013E0002078C04DC00749D06868C0F3810001284B
:1013F00007D06868C0F38100022809D16868C0037B
:1014000006D52868800339D560680028E7D035E024
:101410006068B0F5803F0BD010B1B0F5A02F11D0AF
:10142000286820F480302860286820F4802002E0BA
:10143000286840F480302860606890B1FFF780FD34
:1014400006460AE0286840F480202860F0E700BFE4
:10145000FFF776FD801B642873D828688003F7D5D2
:101460000CE0FFF76DFD064605E000BFFFF768FDE5
:10147000801B6428F0D828688003F7D420789A4E1F
:1014800080074FF001094FF0000839D5686810F067
:101490000C0F07D06868C0F38100022809D1686882
:1014A000C00306D42868800714D52069012808D114
:1014B00010E02069B0B1C6F80090FFF741FD074683
:1014C00005E00AE1FFF73CFDC01B0228C4D82868EC
:1014D0008007F7D52868616920F0F80040EAC1006C
:1014E00028600DE0C6F80080FFF72AFD074604E0FB
:1014F000FFF726FDC01B022823D828688007F7D4F1
:10150000207800072CD57948A169D9B1C0F800909E
:10151000FFF716FD074604E0FFF712FDC01B022887
:101520000FD8686A8007F7D571484FF4FA51006800
:10153000B0FBF1F0009000BF0098411E0091FAD27C
:101540000EE080E0C0F80080FFF7FAFC074604E0F8
:10155000FFF7F6FCC01B022875D8686A8007F7D42D
:101560002078400760D5E8690027C00008D4E86902
:1015700040F08050E861E869012700F08050009059
:101580005C480168C90513D40168834641F4807141
:101590000160FFF7D5FC824606E000BFFFF7D0FCF4
:1015A000A0EB0A0064284ED8DBF80000C005F5D592
:1015B000E06801280AD008B1052813D0286A20F075
:1015C00001002862286A20F0040002E0286A40F046
:1015D00001002862E06841F2883B98B1FFF7B0FC57
:1015E00082460BE0286A40F004002862EEE700BF64
:1015F000FFF7A6FCA0EB0A0159455AD8286A8007D4
:10160000F6D50CE0FFF79CFC824605E0FFF798FC5E
:10161000A0EB0A0159454CD8286A8007F6D41FB1BF
:10162000E86920F08050E861E06988B36968C1F337
:101630008101022944D00228C6F8608004D0FFF757
:101640007FFC044638E034E0FFF77AFC074604E00C
:10165000FFF776FCC01B02282BD828688001F7D43E
:10166000206AB0F5803F05D16868A16820F4003099
:1016700008436860D4E908010843696821F47411DB
:1016800008436860C6F86090FFF75AFC044606E01D
:1016900025E000BFFFF754FC001B022809D828688A
:1016A0008001F7D51BE000BFFFF74AFC001B0228B2
:1016B00002D90320BDE8F88F28688001F4D40EE039
:1016C0000128F7D06868226A00F48031914204D181
:1016D000616A00F47010884201D00120EAE700201E
:1016E000E8E700000010024000004242800442424D
:1016F0000C960020007000407047000038B504468A
:10170000006842688168C9434B0606D5CB0704D1FF
:10171000D3435B0601D4216C05E08B0708D4D34387
:101720001B0605D4616C01B02046BDE83040084777
:101730008B0601D54B0646D4D3439B0643D44B06B8
:101740000AD494F85130032B3ED0636D43F0040368
:101750006365C36883680093890609D4616D41F0AD
:101760000101616581680091016821F0400101601B
:10177000606D002827D02068416821F0E0014160B9
:10178000012084F85100900722D02068416821F0A0
:1017900003014160104DE06C40B14563E06CFFF720
:1017A00089F818B1606D40F040006065A06C0028B9
:1017B00009D04563A06CFFF77DF8002803D0606D69
:1017C00040F04000606538BDC1688068009038BD59
:1017D0002046FFF791FF38BD2D37000870B5040093
:1017E00009D0606A002540B125616561A56294F861
:1017F000510040B10CE0012070BD6068B0F5827FFF
:10180000F4D0E561F2E784F85050204600F040F84B
:10181000022084F851002068016821F04001016035
:10182000A088218900F4827001F404410843A18951
:1018300001F400610843217C01F002010843217D8D
:1018400001F001010843218B01F400710843217F5D
:1018500001F03801084394F8201001F0800108439A
:10186000218D01F40051084321680860A06904211A
:1018700001EA1040216848602068C16921F40061D4
:10188000C1616565012084F85100002070BD000031
:101890002DE9F04186B00024009401940294039451
:1018A00006464A4D03684A480221032280274FF02A
:1018B0001008AB4230D1836943F48053836183695C
:1018C00003F480530493836943F0040383618069C4
:1018D000039200F004000490A020CDE900016946C5
:1018E0003C48FFF72BFA3D4D3B48C5E902472C61C8
:1018F0006C61AC61EC61C5E900082846FFF796F918
:1019000008B1FEF77DFDB5640022114623206E620A
:10191000FFF782FB232053E0314DAB4252D1C36924
:1019200043F48043C361C36903F480430493836930
:1019300043F00803836180692A4D00F00800049099
:101940004FF42040CDE90001039269462846FFF795
:10195000F5F94FF48040CDE9000469462846029429
:10196000FFF7ECF91D4D1C4844351430C5E900045F
:10197000C5E902472C616C61AC612846EC61FFF758
:1019800055F908B1FEF73CFDF5646E62134D12483F
:1019900088352830C5E902472C616C61AC61EC6187
:1019A000C5E900082846FFF741F908B1FEF728FD10
:1019B000B5640022114624206E62FFF72DFB24201F
:1019C000FFF71CFB06B0BDE8F081000000300140CD
:1019D0000010024000080140300002400097002043
:1019E00000380040000C014070B5044690F85100EA
:1019F000012829D1A068042318B96568B5F5827F4C
:101A000017D0F9B1F2B194F85050012D1CD0012536
:101A100084F8505084F8513000256565A163A28791
:101A2000E28725646564A586E586B0F5004F0DD094
:101A300016E084F851302046BDE8704013460A464F
:101A400000F0FCB9012070BD022070BD2068016863
:101A500021F0400101602068016821F480410160AB
:101A6000E16C1748C862E16C16488862E16C164860
:101A70000863E06C4563E38F2168A26B0C31E06C76
:101A8000FFF712F930B1606D40F01000606584F826
:101A90005050D7E720680168490603D4016841F037
:101AA0004001016084F850502068416841F02001F5
:101AB00041602068416841F001014160002070BD33
:101AC0005F3700087D3700083D370008006803498C
:101AD000884202D102490120087070470038004056
:101AE0001496002070472DE9F84F984616468A460E
:101AF0000446FFF725FA814694F8510001281ED1CB
:101B0000BAF1000F73D0002E71D094F85000012864
:101B100015D0012784F85070032084F85100002567
:101B20006565C4F830A0A686E686A563A587E58727
:101B300065642564A068B0F5004F03D00CE0022076
:101B4000BDE8F88F2068016821F04001016020683D
:101B5000016841F48041016020680168490603D4AE
:101B6000016841F040010160E068B0F5006F606815
:101B700003D048B3012E27D047E008B1012E1FD172
:101B8000206B21680088C86006E0206881688907AA
:101B900009D5216B0988C160206B801C2063E08E11
:101BA000401EE0860CE0FFF7CBF9A0EB09014145B0
:101BB00003D3B8F1FF3F03D035E0B8F1000F32D0C6
:101BC000E08E0028E1D123E0206B216800780873C3
:101BD00006E02068816889070AD5216B09780173BE
:101BE000206B401C2063E08E401EE0860DE02BE061
:101BF000FFF7A6F9A0EB0901414503D3B8F1FF3F78
:101C000003D010E0B8F1000F0DD0E08E0028E0D135
:101C10004A464146204601F073FE08B12020606527
:101C2000A06830B109E084F8517084F85050032066
:101C300086E72068C1688068009084F8517004F8D5
:101C4000505F60680028F3D0012079E72DE9FF4F4D
:101C500081B01D46934604464FF001090E9EFFF7E2
:101C60006FF9074694F851006168012806D0B1F574
:101C7000827F3CD1A168C9BB042838D102980028D2
:101C800071D0BBF1000FFBD0002DF9D094F85000BB
:101C900001282CD04FF0010A84F850A094F851008C
:101CA000042802D0052084F851004FF00008C4F841
:101CB0005480C4F838B0E587A58702992163E5868A
:101CC000A586C4F84080C4F84480206801684906AD
:101CD00003D4016841F040010160E068B0F5006F95
:101CE000606808D0F0B3012D49D081E0FFE7022001
:101CF00005B0BDE8F08F08B1012D39D1206B216806
:101D00000088C860206B801C2063E08E401EE08647
:101D10002EE02068816889070FD5E18E69B1B9F19D
:101D2000010F0AD1216B0988C160206B801C2063E0
:101D3000E08E401EE0864FF0000920688168C907E8
:101D40000CD0E18F51B1C068A16B0880A06B801CE2
:101D5000A063E08F401EE0874FF00109FFF7F0F825
:101D6000C01B01E00BE067E0B04201D3701C50D112
:101D7000E08E0028CDD1E08F0028CAD13EE0206B54
:101D8000216800780873206B401C2063E08E401EA1
:101D9000E0862DE02068816889070FD5E18E69B162
:101DA000B9F1010F0AD1216B09780173206B401C36
:101DB0002063E08E401EE0864FF0000920688168B5
:101DC000C9070CD0E18F51B1C068A16B0870A06B3E
:101DD000401CA063E08F401EE0874FF00109FFF731
:101DE000AFF8C01BB04202D3701C01D011E086B125
:101DF000E08E0028CED1E08F0028CBD13A46314684
:101E0000204601F07DFD50B12020606584F85080AF
:101E100012E084F851A084F85080032068E7A0689D
:101E200018B92068C1688068009084F851A084F8CF
:101E30005080606D0028F1D0012059E770B504464C
:101E400090F851006568012806D0B5F5827F3AD137
:101E5000A568A5BB042836D191B38AB383B394F89F
:101E6000500001282FD0012084F8500094F8510030
:101E7000042802D0052084F85100002565652163FF
:101E8000A386E386A263A387E3872564656494F849
:101E90005100042819D0E16C2748C8622748E16C3A
:101EA0008862E16C26480863E06C4563E38F216833
:101EB000A26B0C31E06CFEF7F7FE00BB0AE002E01B
:101EC000FFE7012070BD022070BDE16C1D48C862B3
:101ED0001D48E4E72068416841F001014160A06CC1
:101EE000C562A06C8562A06C0563A06C4563E38E3F
:101EF0002268216B0C32A06CFEF7D6FE30B1606D0B
:101F000040F01000606584F85050DAE720680168FE
:101F1000490603D4016841F04001016084F8505043
:101F20002068416841F0200141602068416841F02B
:101F300002014160002070BD733700084B38000873
:101F40003D3700085F3700087D37000870B504464C
:101F500090F8510001281CD1C9B1C2B194F85000C9
:101F6000012816D0012084F85000032084F8510085
:101F7000002565652163A286E286A5636564256404
:101F8000A587E587A068B0F5004F04D00DE00120DB
:101F900070BD022070BD2068016821F04001016021
:101FA0002068016841F480410160A16C1748C86253
:101FB000A16C17488862A16C16480863A06C456341
:101FC000E38E2268216B0C32A06CFEF76DFE30B1FF
:101FD000606D40F01000606584F85050D7E72068CD
:101FE0000168490603D4016841F04001016084F8AA
:101FF00050502068416841F02001416020684168EC
:1020000041F002014160002070BD00006937000806
:10201000E73700083D37000800680349884202D1CD
:1020200002490120087070470030014010960020DE
:1020300070477047704710B5401EB0F1807F01D3E4
:10204000012010BD4FF0E02460610F21601702F005
:1020500059F90020A06107202061002010BD7047C1
:102060007047000070B590F83C20012A2CD0012464
:1020700080F83C40022280F83D2003685A689D6841
:1020800022F070060A6832435A60104B02689A4286
:102090000ED00F4B9A420BD0B2F1804F08D00D4BAF
:1020A0009A4205D00C4B9A4202D00C4B9A4204D172
:1020B000496825F080031943916080F83D40002174
:1020C00080F83C10084670BD022070BD002C014015
:1020D000003401400004004000080040000C0040B3
:1020E00010B5040003D094F83D0010B107E00120C2
:1020F00010BD002084F83C00204600F01FF80220AC
:1021000084F83D00211D206801F0B8FC012084F80E
:10211000460084F83E0084F83F0084F8400084F8CC
:10212000410084F8420084F8430084F8440084F8B5
:10213000450084F83D00002010BD000000B585B0CA
:1021400000210091019102910391184A01681848F9
:10215000914217D1C16941F00401C161C16901F027
:1021600004010491816941F0080181618069694637
:1021700000F008000490402000900E48FEF7DEFDBD
:1021800005B000BD0C4A9142FAD1C16941F010017D
:10219000C161C069002200F0100004901146362091
:1021A000FEF73AFF3620FEF729FFE9E70008004076
:1021B00000100240000C01400010004090F83D105B
:1021C000012901D001207047022180F83D100168EB
:1021D000CA6842F00102CA6000680E4988420ED007
:1021E0000D4988420BD0B0F1804F08D00B4988428E
:1021F00005D00B49884202D00A49884204D181683F
:1022000001F00701062903D0016841F001010160D6
:1022100000207047002C01400034014000040040C1
:1022200000080040000C004070B5044690F83C00E7
:102230000025012817D0012684F83C60022084F88C
:102240003D002068826822F0770222F47F4282609B
:102250000868502838D00DDC20284FD005DC90B31A
:10226000102811D14AE0022070BD302846D0402805
:102270000AD13BE060282FD070280DD0B0F5805FE8
:1022800003D0B0F5005F12D0012584F83D60002036
:1022900084F83C00284670BDCB68D1E90121206854
:1022A00001F047FC2068816841F0770109E0CB68C4
:1022B000D1E90121206801F03CFC2068816841F4EB
:1022C00080418160E1E719E0CA684968206801F04F
:1022D00005FD5021206806E0CA684968206801F0C1
:1022E00045FD6021206801F02EFCCEE7CA684968F0
:1022F000206801F0F3FC40212068F4E722680146E1
:102300001046F0E770472DE9F041054690F83C0093
:1023100000260C46012810D0012085F83C0072B13F
:10232000042A1CD0082A2CD00C2A50D001260020C8
:1023300085F83C003046BDE8F0810220FBE7D4E997
:102340000012E368286801F0DBFC2868816921F04D
:102350000C01816128688169A26811430FE0D4E90A
:102360000012E368286801F013FD2868816921F4F0
:102370004061816128688169A26841EA0221816126
:10238000D5E72868D4E9002C277B036A016A21F489
:1023900080710162C16923F4007321F0030141EAF5
:1023A0000C0121F0F00C39074FF400774CEA116171
:1023B00007EA02221A43C16102622868C16921F05A
:1023C0000C01C1612868C169A26811432BE028682B
:1023D000D4E90021E768036AD0F820C02CF4805CBF
:1023E000C0F820C0D0F81CC023F400532CF4407C6B
:1023F0004CEA012121F4704C4FF6FF7101EA0731DC
:102400004FF4005741EA0C0107EA02321A43C16156
:1024100002622868C16921F44061C1612868C1690C
:10242000A26841EA0221C16181E710B5040003D02E
:1024300094F83D0010B107E0012010BD002084F8A1
:102440003C00204600F01EF8022084F83D00211DCB
:10245000206801F013FB012084F8460084F83E0058
:1024600084F83F0084F8400084F8410084F842007A
:1024700084F8430084F8440084F8450084F83D0063
:10248000002010BD70472DE9F04104460068C66881
:1024900005694FF00007A90713D5B10711D5F91E3B
:1024A000016101202077206880698007204602D0E2
:1024B000FFF728FF04E000F0A5F8204600F037F908
:1024C0002777680716D5700714D521686FF00400C8
:1024D0000861022020772068806910F4407F204640
:1024E00002D0FFF70FFF04E000F08CF8204600F068
:1024F0001EF92777280715D5300713D521686FF007
:1025000008000861042020772068C0698007204601
:1025100002D0FFF7F7FE04E000F074F8204600F068
:1025200006F92777E80616D5F00614D521686FF06E
:1025300010000861082020772068C06910F4407FEF
:10254000204602D0FFF7DEFE04E000F05BF82046F4
:1025500000F0EDF82777E80708D0F00706D02168EB
:102560006FF001000861204600F03CF9280608D50C
:10257000300606D521686FF0800008612046FFF71D
:102580006EFD680608D5700606D521686FF040001C
:102590000861204600F03EF9A8060AD5B00608D525
:1025A00021686FF0200008612046BDE8F041FFF788
:1025B00057BDBDE8F081000000B585B00021009155
:1025C00001910291039100680B49884212D10B4896
:1025D000816941F0080181618069694600F0080065
:1025E00004904FF460700090022001900390044822
:1025F000FEF7A4FB05B000BD00080040001002403B
:10260000000C0140704770B5044690F83C0000266D
:102610000D4601280FD0012084F83C006AB1042A3D
:102620001DD0082A2FD00C2A3FD00126002084F884
:102630003C00304670BD022070BD206801F08CFA6D
:102640002068816941F0080181612068816921F079
:1026500004018161206881692A69114311E02068C1
:1026600001F0AAFA2068816941F400618161206863
:10267000816921F480618161206881692A6941EA68
:1026800002218161D2E7206801F0CCFA2068C1699B
:1026900041F00801C1612068C16921F00401C161F4
:1026A0002068C1692A69114311E0206801F0EEFA3F
:1026B0002068C16941F40061C1612068C16921F4E9
:1026C0008061C1612068C1692A6941EA0221C16152
:1026D000ACE710B5040003D094F83D0010B107E05A
:1026E000012010BD002084F83C00204600F01EF8B8
:1026F000022084F83D00211D206801F0BFF901206F
:1027000084F8460084F83E0084F83F0084F84000D6
:1027100084F8410084F8420084F8430084F84400BF
:1027200084F8450084F83D00002010BD70477047D4
:1027300010B50446022249B104290ED0082913D04D
:1027400094F84100012816D0012010BD94F83E00F5
:102750000128F9D184F83E200FE094F83F000128C9
:10276000F2D184F83F2008E094F840000128EBD132
:1027700084F8402001E084F841200122206801F023
:10278000CBF913492068134A884201D0904203D103
:10279000436C43F400434364206888420DD0904268
:1027A0000BD0B0F1804F08D00B49884205D00B49BF
:1027B000884202D00A49884204D1816801F00701A9
:1027C000062903D0016841F001010160002010BD1D
:1027D000002C01400034014000040040000800408B
:1027E000000C004009490068096888420DD108487A
:1027F000C178002909D04178491CC9B24170082923
:1028000003D30021C1700121017170471498002089
:10281000749F00207047704770470000F8B501684A
:1028200004460868CA684B6910F00F0F4FF00005A6
:1028300059D003F0010602F49077374365D0C10701
:1028400005D0D10503D5616C41F0010161644107F8
:1028500005D5D90703D0616C41F00201616481079D
:1028600005D5D90703D0616C41F00401616401070B
:1028700007D502F02001314303D0616C41F008011B
:102880006164616C00293AD0800604D5900602D5B7
:10289000204601F0C7FA20684069616CC0F38010DF
:1028A000090700D460B3204601F095FA206840691A
:1028B000400621D52068143050E8001F21F0400167
:1028C00040E80012002AF5D1E06BA8B16D494163E0
:1028D000E06BFDF7EFFF002811D0E06B416B01B01A
:1028E000BDE8F040084783060FD593060DD5204676
:1028F000BDE8F84001F096BA2046FFF78DFFF8BD1D
:102900002046FFF789FF6564F8BD266B2023012E62
:102910007CD1C6067AD5D60678D508684868009076
:1029200048694FF00206400640D5E16B08684068F0
:102930000004000CE8D0A28D8242E5D9E0858869C8
:1029400020282DD020680C3050E8001F21F4807121
:1029500040E80012002AF5D12068143050E8001F2A
:1029600021F0010140E80012002AF5D1206814305E
:1029700050E8001F21F0400140E80012002AF5D184
:1029800084F84230256320680C3050E8001F21F0A5
:10299000100140E80012002AF5D1E06BFDF766FF58
:1029A0006663A08DE18D401A81B22AE0A08DE18D91
:1029B000401A81B2E08D0028A6D00029A4D0226858
:1029C0000C3252E8000F20F4907042E80007002F0C
:1029D000F5D12068143050E8002F22F0010240E8C1
:1029E0000027002FF5D184F84230256320680C3091
:1029F00050E8002F22F0100240E80023002BF5D110
:102A000066632046FFF707FFF8BDFFE705062BD5F5
:102A1000150629D594F841002128F5D1A068B0F514
:102A2000805F01D12069B0B1206A411C2162216818
:102A300000784860E08C401E0004000CE084E3D184
:102A40002068C16821F08001C1602068C16841F040
:102A50004001C160D8E7206A0088C0F308004860E0
:102A6000206A801C2062E5E74006CDD55006CBD514
:102A7000CA68204622F04002CA6084F8413000F063
:102A80004FF9C1E7C73D000870B5040004D094F8C1
:102A90004100002510B106E0012070BD84F84050CF
:102AA000204600F023F8242084F841002068C16803
:102AB00021F40051C160204601F016FA2068016936
:102AC00021F4904101612068416921F02A014161AE
:102AD0002068C16841F40051C1606564202084F819
:102AE000410084F842006563002070BDF0B585B0F8
:102AF000002400940194029403940646414F036815
:102B0000414802210322414DBB4226D1836943F44F
:102B100080438361836903F480430493836943F0B2
:102B2000040383618069039200F0040004900802AA
:102B3000CDE9000169462846FEF700F92815CDE9E0
:102B40000004694628460294FEF7F8F80022114670
:102B50002520FEF761FA252050E02D4FBB424FD1D2
:102B6000C36943F40033C361C36903F400330493BE
:102B7000836943F0040383618069039200F00400D9
:102B800004900420CDE9000169462846FEF7D6F8F6
:102B90000820CDE90004694628460294FEF7CEF8E5
:102BA0001D4D1C488027C5E90004C5E902472C617A
:102BB0006C61AC612846EC61FEF738F808B1FDF7AE
:102BC0001FFCF5636E62144D12484435143001C584
:102BD000102091C5104845F8104944306C61AC6133
:102BE000EC61FEF723F808B1FDF70AFCB56300229B
:102BF000114626206E62FEF70FFA2620FEF7FEF938
:102C000005B0F0BD0038014000100240000801404E
:102C1000004400406C000240EC98002090F84230E4
:102C2000202B01D00220704721B11AB10023036389
:102C300001F0B6B90120704700680E49884218D1EA
:102C40000D480179012914D00C4909684968837835
:102C5000421D995481780023491CC9B28170437088
:102C6000012901D10123C370114401220348FFF758
:102C7000D5BF704700440040749F0020A4980020F6
:102C80002DE9F843044690F84100984616460D4653
:102C9000202802D00220BDE8F88385B17EB1002053
:102CA0006064212084F84100FEF74AF9A684814639
:102CB000E684A0682027B0F5805F02D003E0012001
:102CC000E9E7206910B12E4600250EE000260CE051
:102CD0008021204601F07FF9A8B9C6B116F8010B92
:102CE00021684860E08C401EE084E08C4B464FF049
:102CF0000002CDF800800028EAD14FF040012046C4
:102D000001F069F940B184F841700320C3E735F858
:102D1000020BC0F30800E3E784F841700020BAE733
:102D20007047FEE72DE9F04104461D4616460F4662
:102D30002A2000F05BFA204600F074FA304600F0DA
:102D400071FA2B2000F052FA384600F06BFA284650
:102D500000F068FABDE8F0412C2000F047BA00000E
:102D600070B5040AC5B2002140F23F13EF220846B5
:102D7000FFF7D8FF0E4900204FF4407201F81040D1
:102D800001EB4003401C80B25D709042F6D30122FB
:102D900040210848FEF7CEF800244FF4C0652946CC
:102DA000034800F0F9F9641CA4B2642CF7D370BD99
:102DB00074990020000801402DE9FE4F4FF00008F3
:102DC000141A4746454699421FD1FFF7ABFF0C98AE
:102DD0000C9A010A3148D2B206E000BF00F8151083
:102DE00000EB45036D1C5A70AC42F7D8012240211C
:102DF0002B48FEF79FF84FF6FF7000EA440103B03E
:102E00002648BDE8F04F00F0C7B9CDE900105E1AC2
:102E10004FF0FF30002C02DD4FF0010102E003D142
:102E20004FF000018B4602E08346C4F10004002EFF
:102E300002DD4FF0010002E003D14FF000008246B6
:102E400002E08246C6F10006B44201DD254600E0FC
:102E50003546681C4FF0000902901AE000980C9A61
:102E600081B2019880B200F0B3F8A0443744A8457D
:102E700005DD0199A8EB050801EB0B000190AF42BD
:102E800003DD00987F1B5044009009F101001FFAF8
:102E900080F902998945E1DDBDE8FE8F7499002033
:102EA000000801402DE9F8431D46089C1646884657
:102EB00007460B460094FFF77FFF3A462B464146F4
:102EC00010460094FFF778FF2B46324619463846E5
:102ED0000094FFF771FF32462B464146104600949E
:102EE000FFF76AFFBDE8F8832DE9FF4F074600258D
:102EF0001446032083B00E46A0EB440863E000BFF5
:102F0000A6EB0509A7EB040A1FFA89F11FFA8AF05C
:102F1000069A00F05DF8381901901FFA89F180B225
:102F2000069A00F055F8301981B2A7EB050B009016
:102F30001FFA8BF0069A00F04BF81FFA89F11FFA7E
:102F40008AF0069A00F044F8A6EB04091FFA89F10A
:102F50001FFA8BF0069A00F03BF8019806EB050B80
:102F60001FFA8BF180B2069A00F032F81FFA89F14D
:102F700007EB05091FFA89F0069A00F029F8009876
:102F8000069A81B21FFA89F000F022F81FFA8BF13D
:102F90001FFA8AF0069A00F01BF86D1CB8F1000FBA
:102FA00004DA08EB850000F1060805E0291B08EBB0
:102FB000810000F10A08641E301981B2781980B2CC
:102FC000069A00F005F8A5429ADD07B0BDE8F08F3B
:102FD00010B514460B460246FFF7A4FE2046BDE896
:102FE000104000F01FB9000010B56A4C00221021FB
:102FF0002046FDF79FFF0C20FDF78EFE01221021D9
:103000002046FDF797FF0C20FDF786FE112000F00B
:10301000EDF80C20FDF780FE362000F0E7F80020E8
:1030200000F0F2F83A2000F0E1F8652000F0ECF84A
:10303000B22000F0DBF80C2000F0E6F80C2000F0E5
:10304000E3F8002000F0E0F8332000F0DDF8332052
:1030500000F0DAF8B72000F0C9F8722000F0D4F8D8
:10306000BB2000F0C3F83D2000F0CEF8C02000F0F7
:10307000BDF82C2000F0C8F8C22000F0B7F80120FD
:1030800000F0C2F8C32000F0B1F8192000F0BCF83D
:10309000C42000F0ABF8202000F0B6F8C62000F005
:1030A000A5F80F2000F0B0F8D02000F09FF8A42081
:1030B00000F0AAF8A12000F0A7F8E02000F096F8B0
:1030C000D02000F0A1F8042000F09EF80D2000F0C0
:1030D0009BF8112000F098F8132000F095F82B20B1
:1030E00000F092F83F2000F08FF8542000F08CF8A8
:1030F0004C2000F089F8182000F086F80D2000F030
:1031000083F80B2000F080F81F2000F07DF82320CA
:1031100000F07AF8E12000F069F8D02000F074F8AF
:10312000042000F071F80C2000F06EF8112000F07F
:103130006BF8132000F068F82C2000F065F83F20B1
:1031400000F062F8442000F05FF8512000F05CF8D5
:103150002F2000F059F81F2000F056F81F2000F033
:1031600053F8202000F050F8232000F04DF82120E3
:1031700000F03CF8292000F039F8002140F23F131C
:10318000EF220846FFF7CEFDBDE810404FF6FF7076
:10319000FFF7E6BD0010014000F0B2BA30B50244BE
:1031A000BDB0F02A1DD80B44B3F5A07F19D85B1E23
:1031B000521E9BB292B2FFF7B5FD012240210A4890
:1031C000FDF7B8FE00244FF41645F022694620466C
:1031D00000F08EFF6846F02100F09AFAF034AC421D
:1031E000F3D33DB030BD00000008014001B500221E
:1031F00040210448FDF79EFE01216846FFF7CCFF01
:1032000008BD00000008014001B50122402104482A
:10321000FDF790FE01216846FFF7BEFF08BD0000E4
:103220000008014008B500210091010A8DF8001046
:103230008DF80100012240210348FDF77BFE0221A9
:103240006846FFF7A9FF08BD00080140FEB500254C
:1032500027480095019525490295016089158160EF
:10326000057301240475052606614FF4602145604D
:10327000C0E90641FDF722FA08B1FDF7C1F80920BF
:103280008DE8310069461A48FDF72AF908B1FDF7C3
:10329000B7F80A2000900220019069461448FDF713
:1032A0001FF908B1FDF7ACF80B2000900320019046
:1032B00069460F48FDF714F908B1FDF7A1F80C2095
:1032C00000900420019069460948FDF709F908B10A
:1032D000FDF796F80D20CDE9000669460448FDF794
:1032E000FFF8002801D0FDF78BF8FEBD0024014057
:1032F00020960020194808B5416941F0010141615B
:103300004069002200F00100009011460D20FDF7F9
:1033100083FE0D20FDF772FE002211460E20FDF700
:103320007BFE0E20FDF76AFE002211460F20FDF7FE
:1033300073FE0F20FDF762FE002211461020FDF7FC
:103340006BFE1020FDF75AFE002211461120FDF7FA
:1033500063FEBDE808401120FDF750BE001002409A
:103360002DE9F04F85B000244A480094019402945E
:103370000394816941F010018161816901F01001BC
:103380000491816941F020018161816901F020018E
:103390000491816941F004018161816901F00401B6
:1033A0000491816941F0080181618069DFF8E8B02A
:1033B00000F008000490002249F642115846FDF73B
:1033C000B9FD41F61048002241463448FDF7B2FDF0
:1033D00040F63C49002249463148FDF7ABFD4FF429
:1033E000805A012251462E48FDF7A4FD00220421F7
:1033F0002C48FDF79FFD49F6021001250226CDE974
:103400000005CDE9024669465846FDF797FC1020B5
:10341000CDE90004694658460294FDF78FFC402030
:103420000327CDE90005CDE9024769465846FDF777
:1034300085FCCDF800800396CDE901546946174814
:10344000FDF77CFC4FF47870CDE900046946134821
:103450000294FDF773FCCDF800900396CDE901547A
:1034600069460F48FDF76AFCCDF800A00397CDE947
:10347000015469460A48FDF761FC0420CDE90005C6
:10348000CDE9024669460748FDF758FC05B0BDE89E
:10349000F08F0000001002400008014000100140C1
:1034A000000C014000140140104810B50E490160A5
:1034B0004FF482714160002102228160C0E9031251
:1034C0001202C0E905120822C0E9072141628162A7
:1034D0000A21C162FEF782F9002803D0BDE810403E
:1034E000FCF78EBF10BD0000003001405096002058
:1034F0000F4810B50D4901604FF482714160002101
:103500008160C1604FF400720161C0E90512C161C0
:103510000162416281620A21C162FEF75FF90028FF
:1035200003D0BDE81040FCF76BBF10BD0038004071
:10353000A896002010B592B000240B940C940D9422
:103540000E940F9410940794089409941C216846D3
:103550000A94FCF722FE3748354901604721C0E94B
:10356000011440F2E731C0E9031480218161FEF7C4
:10357000B7FD08B1FCF744FF4FF480500B900BA946
:103580002C48FEF751FE08B1FCF73AFF2948FEF738
:103590004CFF08B1FCF734FF2648FFF79AF808B152
:1035A000FCF72EFF0F940FA922481094FEF75AFD46
:1035B00008B1FCF725FF0120CDE90740099400225E
:1035C00007A91C480A94FEF79EFE08B1FCF718FFF5
:1035D0006020CDE900040294042269461548049451
:1035E000FFF711F808B1FCF70BFF02200290082248
:1035F00069461048FFF707F808B1FCF701FF0C22F5
:1036000069460C48FEF7FFFF08B1FCF7F9FE0421FC
:103610000848FFF78DF808210648FFF789F80C21C4
:103620000448FFF785F80348FEF7C6FF12B010BD47
:1036300000080040CC9700201CB500240E480094E0
:103640000C49019401604721C0E9011440F2E731BF
:103650008461C160FEF744FD08B1FCF7D1FE00941F
:10366000694605480194FEF7FDFC002801D0FCF7EF
:10367000C7FE1CBD00100040149800200C4810B577
:103680000A4901604FF4E1314160002181600C2260
:10369000C160C0E904128161C161FFF7F5F900283A
:1036A00003D0BDE81040FCF7ABBE10BD00380140B0
:1036B0005C9800200C4810B50A4901604FF4E131D4
:1036C0004160002181600C22C160C0E90412816167
:1036D000C161FFF7D9F9002803D0BDE81040FCF71D
:1036E0008FBE10BD00440040A4980020FEE7FEE716
:1036F000704700000148FEF701B800005096002016
:103700000A460146FF230148FEF7EDB95096002016
:103710000A4601460148FEF719BC000050960020F9
:103720000148FDF7EBBF0000A896002010B5406AE5
:103730000021C187C186FDF7DFFF10BD10B5406ACB
:1037400001684A6822F003024A60416D41F01001AD
:103750004165012180F85110FDF7CEFF10BD10B575
:10376000406AFEF7BFF910BD10B5406AFEF760FC75
:1037700010BD10B5406AFEF75DFC10BD70B5054682
:10378000446AFDF7DDFB024628680068800626D4FF
:103790002068416821F020014160A06818B9606884
:1037A000B0F5827F16D02068416821F001014160A8
:1037B0006421204600F076F808B1202060650020E2
:1037C000E087012084F85100606D40B12046FDF78C
:1037D00093FF70BD2068416821F00301E7E72046B0
:1037E000FEF774F970BD38B50546446AFDF7A8FBCD
:1037F000024628680068800623D42068416821F0CA
:10380000200141602068416821F00201416064218B
:10381000204600F075F818B1606D40F0200060653A
:10382000A068002118B92068C26880680090E1860D
:10383000012084F85100606D18B12046FDF75CFF4F
:1038400038BD2046FEF7E8FB38BD70B50546446A32
:10385000FDF776FB02462868006880061ED42068C3
:10386000416821F0200141606421204600F048F8C1
:1038700018B1606D40F0200060652068416821F05B
:10388000030141600020E086E087012084F85100B8
:10389000606D18B12046FDF72FFF70BD2046FEF782
:1038A000C8FB70BDF8B5044640684FF48273984277
:1038B00017D1A0684FF48065B0F5004F01D0A84241
:1038C0000FD12068066826F04006066060689842BE
:1038D00007D1A068A84204D100920B460022012122
:1038E00003E000920B4600228021204600F022F8DF
:1038F000002804D0606D40F0200060650320F8BD12
:10390000F8B515460E460B460092044601220221E8
:1039100000F010F840B9334600228021204600957F
:1039200000F008F8002804D0606D40F020006065C9
:103930000320F8BD2DE9F8431E469146884604460B
:10394000089DFDF7FDFA401B351AFDF7F9FA074609
:1039500025480068C0F3CB30684338E0701C37D08E
:10396000FDF7EEFAC01BA84203D215B1009860B370
:103970002CE02068416821F0E00141606068B0F50A
:10398000827F0BD1A068B0F5004F02D0B0F5806FF8
:1039900004D12068016821F040010160A06AB0F5FF
:1039A000005F09D12068016821F40051016020689E
:1039B000016841F400510160012084F851000020A9
:1039C00084F850000320BDE8F8830025401E0090D5
:1039D0002068816838EA010004D000214945BDD142
:1039E0000020F0E70121F9E70C9600207047FDF771
:1039F000ADBA30B595B028216846FCF7CEFB14214E
:103A00000AA8FCF7CAFB18210FA8FCF7C6FB012186
:103A10000804CDE900100025029502240491CDE9A7
:103A200007404FF4E01009906846FDF7D5FC08B157
:103A300072B6FEE70AA90F2081E831004FF48060DA
:103A4000CDE90D0502210AA8FDF7EAFB08B172B61F
:103A5000FEE74FF4004011900F940FA8FDF76AFBAA
:103A6000002801D072B6FEE715B030BD70470000E7
:103A70000148FEF708BD000014980020F0B5026868
:103A8000204C214D214E224F224B4FF0804CA04222
:103A900009D0984207D0604505D0A84203D0B04273
:103AA00001D0B84204D122F0700E4A6842EA0E02F8
:103AB000A04209D0984207D0604505D0A84203D063
:103AC000B04201D0B84203D122F44075CA682A43FB
:103AD0004D6922F080022A4302608A68C2620A6845
:103AE0008262A04201D0984201D10969016301219B
:103AF00041610169C90703D0016921F00101016138
:103B0000F0BD0000002C014000040040000800400F
:103B1000000C00400034014010B501F01F030121EA
:103B2000046A99408C430462016A9A40114301621D
:103B300010BD10B5846842EA032224F47F440A438E
:103B40002243826010BD826822F070020A4342F074
:103B50000701816070470000F0B5036A026A22F035
:103B60000102026242688469124E24F073050C68F7
:103B70002C4323F002058B682B430D4DA84201D046
:103B8000B04205D123F00807CB683B4323F0040380
:103B9000A84201D0B04205D14D6922F440721543CC
:103BA0008A692A4342608461496841630362F0BDC7
:103BB000002C014000340140F0B5026A036A23F092
:103BC00010030362436884690D6824F4E64444EA00
:103BD00005248D6822F0200242EA05120F4D104E96
:103BE000A84201D0B04206D1CF6822F0800242EA5A
:103BF000071222F04002A84201D0B04207D14D691D
:103C000023F4406343EA85038D6943EA85034360F7
:103C10008461496881630262F0BD0000002C0140AC
:103C200000340140F0B5026A036A23F48073036232
:103C30004368C46922F4007224F073050C68124EC4
:103C40002C438D6842EA05220E4DA84201D0B042B5
:103C500006D1CF6822F4006242EA072222F4806291
:103C6000A84201D0B04207D14D6923F4405343EA42
:103C700005138D6943EA05134360C4614968C16354
:103C80000262F0BD002C01400034014030B5046AEE
:103C9000026A22F4805202624268C3690D6823F40A
:103CA000E64343EA05238D6824F4005444EA0534CE
:103CB000084DA84202D0084DA84204D14D6922F413
:103CC000804242EA85124260C3614968016404622D
:103CD00030BD0000002C01400034014010B5036AE3
:103CE000046A24F001040462846924F0F00444EAC4
:103CF000021423F00A020A438461026210BD00002C
:103D000070B5056A046A24F0010404628469124EE5
:103D1000B0420ED0114EB0420BD0B0F1804F08D05F
:103D20000F4EB04205D00F4EB04202D00E4EB04200
:103D300003D124F00304144301E044F001041A0702
:103D400024F0F00444EA126225F00A0301F00A01AB
:103D500019438261016270BD002C014000340140B2
:103D60000004004000080040000C004010B5036A49
:103D7000046A24F010040462846923F0A00324F48C
:103D8000704444EA023243EA01118261016210BDCB
:103D900030B5046A056A25F010050562856925F4C9
:103DA000407545EA022222F470454FF6FF7202EA9E
:103DB000033224F0A0032A43A02404EA011119438A
:103DC0008261016230BD10B5406A0021C185C184A5
:103DD000FEF722FD10BD01680C3151E8002F22F4DE
:103DE000907241E80023002BF5D10168143151E8AD
:103DF000002F22F0010241E80023002BF5D1016BD6
:103E0000012909D101680C3151E8002F22F010027C
:103E100041E80023002BF5D1202180F84210002139
:103E20000163704708B590F84210222901D00220A2
:103E300008BD82684FF480539A4201D1016921B1D3
:103E4000816A9A421BD04AB10AE00268816A5268CC
:103E5000C2F308020A80816A891C08E0026972B113
:103E60000268526802F07F020A70816A491C81620E
:103E7000C18D491E0904090CC18503D01BE00268ED
:103E80005268F1E70168CA6822F02002CA6001683E
:103E9000CA6822F48072CA6001684A6922F001028D
:103EA0004A61202180F8421000214163026B012AFF
:103EB00003D0FEF7C1FE002008BD016301680C318C
:103EC00051E8002F22F0100241E80023002BF5D129
:103ED00001680A68D20602D50A6849680091818D96
:103EE000FEF799FCE7E7000070B504460068016939
:103EF000E26821F44051114301612169A06808433F
:103F0000616908432168CA6841F20C639A4302431D
:103F1000CA6020684169A26921F44071114341617E
:103F20001E492068884202D1FDF720FA01E0FDF722
:103F30000DFA00EBC00101EB001260686421800003
:103F4000B2FBF0F3B3FBF1F36FF018067343B2FB6F
:103F5000F0F5B2FBF0F605EB8305322303EB051514
:103F6000B5FBF1F5B6FBF1F605F0F00505EB06152E
:103F7000B2FBF0F6B2FBF0F0B0FBF1F06FF018021C
:103F8000504306EB800003EB0010B0FBF1F021681A
:103F900000F00F002844886070BD00000038014028
:103FA00081628285C28500214164222180F842100D
:103FB000016921B10168CA6842F48072CA6001686F
:103FC0004A6942F001024A610068C16841F020017B
:103FD000C160002070472DE9F843984617460D460A
:103FE0000446089E24E0701C22D0FCF7A9FFA0EB39
:103FF0000800B0421AD8CEB12068C168490717D569
:10400000802D15D0402D13D00168C94309070FD466
:1040100001680025406800902046FFF7DCFE08207C
:10402000606484F840500120BDE8F8830320FBE77A
:104030002068006835EA000004D00020B842D2D0E1
:104040000020F1E70120F9E70148FEF7E7BB000097
:104050005C9800200148FEF7E1BB0000A498002016
:10406000FEE700002DE9F84F04460D4600054FF02D
:10407000FF3701D0280530D100264FF48058DFF8F3
:104080006C904FF0200A4FF4FA7B2AE000F00EF912
:1040900018BB8DF800A0200C8DF80100200A8DF8C7
:1040A00002008DF80340002241464846FCF742FFDB
:1040B0005A460421684600F055F800284FF00102E6
:1040C0004146484602D0FCF735FF06E0FCF732FFD8
:1040D00004F5805400F056F810B13846BDE8F88F6A
:1040E000761CB6EB153FD1D32846F7E7000C01400C
:1040F000F8B50D4603218DF80010010C8DF8011064
:10410000010A8DF80210154F14468DF803004FF484
:104110008056002231463846FCF70CFF4FF4FA7205
:104120000421684600F01EF830B1012231463846BD
:10413000FCF700FF0120F8BD2946A2B20848FDF7B0
:1041400053FC10B100F012FCEFE700F00FFC01226D
:1041500031463846FCF7EEFE2046F8BD000C014023
:10416000A896002013460A460146054810B5406847
:10417000FDF7B9FC002801D04FF0FF3010BD000062
:10418000149600202DE9FE4305208DF808004FF419
:10419000FA74FF208DF809004FF0000925464FF40E
:1041A0008057134EDFF84C801DE000BF8DF805905E
:1041B0008DF80490002239463046FCF7BBFE00958E
:1041C00002A901AA0223D8F80400FDF73FFD01224D
:1041D00039463046FCF7AEFE9DF80500C00705D015
:1041E0000120FCF799FD2046641EDFD2BDE8FE8366
:1041F000000C0140149600202DE9F74FC1B216467D
:10420000C1F58075DFF8A0B082B0044690464FF447
:10421000FA794FF4805AB54200D93546A719A7421A
:1042200040D900F043F850BB02208DF80000200C6C
:104230008DF80100200A8DF802008DF8034000225D
:1042400051465846FCF776FE4A4604216846FFF779
:1042500089FF28B1012251465846FCF76BFE0EE05B
:10426000A9B24A460398FFF77DFF0028F2D1012248
:1042700051465846FCF75EFEFFF784FF20B14FF031
:10428000FF3005B0BDE8F08F03982C44284403901C
:10429000A8EB05008046FF2801D80546BFE74FF48C
:1042A0008075BCE73046ECE7000C0140F8B506200D
:1042B0000B4E8DF800004FF4805500222946304601
:1042C000FCF738FE4FF4FA7201216846FFF74AFF07
:1042D0000446012229463046FCF72CFE2046F8BD54
:1042E000000C01400FB4054B10B503A9044A029815
:1042F00000F028F810BC5DF814FB00009D47000892
:104300001C9600200907090E002804DB00F1E020BC
:1043100080F80014704700F00F0000F1E02080F8F2
:10432000141D704702E008C8121F08C1002AFAD104
:1043300070477047002001E001C1121F002AFBD125
:10434000704700002DE9FF4F8DB00F46054600264F
:1043500006E025280BD0DDE90F1290476D1C761C76
:1043600028780028F5D111B03046BDE8F08F002440
:10437000A246A1460122E94900E0044315F8013FA5
:10438000203B02FA03F00842F7D128782A2810D0FF
:104390006FF02F022878A0F13001092914D80AEB18
:1043A0008A0102EB410144F0020400EB010A6D1C9A
:1043B000F0E701CF5FEA000A03D544F40054CAF1E4
:1043C000000A44F002046D1C28782E2817D115F835
:1043D000010F44F004042A280ED06FF02F02287831
:1043E000A0F1300109290AD809EB890102EB41014A
:1043F00000EB01096D1CF2E757F8049B6D1C28784F
:104400006C280FD006DC4C2817D068280DD06A28FD
:1044100014D104E0742810D07A280FD10DE044F4B0
:1044200000140AE044F4801401E044F44014697874
:10443000814202D104F580146D1C6D1C28786E2811
:104440001ED00CDC632830D004DC00288BD0582828
:1044500011D19FE0642867D069280CD164E07328EB
:104460002DD004DC6F2872D0702804D194E0752818
:104470006ED078286DD0DDE90F129047761C4BE1A5
:10448000C4F30250022806D0032809D0042801CF23
:1044900009D0066040E101CFF117C0E900613BE1BE
:1044A00001CF068038E1067036E117F8040B8DF86D
:1044B000000000208DF80100EB46012003E057F8D2
:1044C00004BB4FF0FF3061074FF0000102D40DE054
:1044D00008F10101884649450FDA8045F8DB1BF8F1
:1044E00008100029F4D108E008F101018846814252
:1044F000FADB1BF808100029F6D1DDE90F23AAEB3F
:1045000008008146214600F031F9304400EB0806EE
:1045100004E0DDE90F121BF8010B9047B8F1010828
:10452000F7D221464846F2E00A21C4F302524FF086
:10453000000B0891022A04D001CFC117032A09D029
:104540000AE0FF1D27F00707F7E8020108E02CE06A
:104550001EE01FE000B2C117042A01D140B2C1170A
:10456000021E71F1000206DA0023D0EB030063EBB8
:1045700001012D2202E0220504D52B228DF82420F2
:10458000012203E0E20701D02022F7E7904653E042
:104590000A210BE0102109E010214FF0000B44F03C
:1045A00004044FF00809089103E008214FF0000BC4
:1045B0000891C4F30252022A04D001CF0021032A39
:1045C00006D006E0FF1D27F00707F7E8020103E029
:1045D00080B2042A00D1C0B24FF0000822072BD5C8
:1045E0002A78702A07D0DDF820C08CF0100C5CEA25
:1045F0000B0C05D00EE040228DF82420012208E0AB
:1046000050EA010306D030238DF824308DF82520A0
:1046100002229046089B83F0080353EA0B030BD158
:1046200050EA010201D1620706D530228DF824201C
:104630004FF00108A9F101092A78582A04D038A2BC
:104640000B9208AA0A920BE03AA2F9E75B46089A95
:10465000FBF7AEFD0B9B9B5C0A9A521E0A921370ED
:1046600050EA0102F2D10A98ADEB000000F1200BF4
:10467000600702D524F4803401E04FF00109D945E8
:1046800002DDA9EB0B0000E0002000EB0B01414430
:104690000890AAEB010AE00306D4DDE90F232146C6
:1046A000504600F063F806444FF0000908E009A9FD
:1046B00011F80900DDE90F12904709F10109761C94
:1046C000C145F4DBE0030CD5DDE90F23214650465C
:1046D00000F04CF8064404E0DDE90F12302090476A
:1046E000761C0899481E08900029F5DC08E00A9815
:1046F0000A990078491C0A91DDE90F129047761C4F
:10470000BBF10001ABF1010BF1DC21465046DDE9C4
:104710000F2300F019F806446D1C21E6092801005A
:104720003031323334353637383961626364656627
:1047300000000000303132333435363738394142E9
:1047400043444546000000002DE9F04104460025A1
:104750001E461746880404D405E039462020B04799
:104760006D1C641EF9D52846BDE8F0812DE9F041A5
:10477000044600251E469046C80301D5302700E0B8
:104780002027880404D505E041463846B0476D1C13
:10479000641EF9D52846BDE8F081000013B54FF638
:1047A000FF73012269460248FEF76AFA00981CBDB1
:1047B000A498002008B5FCF7D1FBFFF71AF9FEF723
:1047C000CFFDFEF797FDFEF759FFFEF73FFDFEF721
:1047D00071FFFEF7AFFEFEF767FEFEF789FEFEF7FC
:1047E0002BFF4B48FBF70EFE4A48FDF7E7FC012282
:1047F00002214948FCF79EFB484C0122601DA1782C
:1048000001444748FEF70AFAFEF7EEFB322020701B
:1048100000202071A07049F20261FFF723FC4FF4E1
:10482000164240490020FFF7E7FC4FF4FA700246B9
:10483000114600F08BF83CA0FFF754FD4FF4FC65E7
:104840004FF478444FF4A07640F6C4172846FEF79C
:1048500087FA2123C822194600200094FEF7ACFAFB
:104860004223C822194600200094FEF7A5FA6323CC
:10487000C822194600200094FEF79EFA0021212349
:10488000C82208460094FEF797FA00214223C82266
:1048900008460094FEF790FA00216323C8220846D8
:1048A0000094FEF789FAC82300211A4608460094AE
:1048B000FEF7F8FA7821234664220846FEF714FB37
:1048C0007821234650220846FEF70EFB7821234626
:1048D0003C220846FEF708FB78212346282208469A
:1048E000FEF702FB7821234614220846FEF7FCFA65
:1048F0007821234601220846FEF7F6FA00213346C6
:10490000F0220846FEF74AFC3846FCF705FA9DE718
:10491000209600201498002000080140749F002079
:10492000A4980020000000203D3D3D3D3D3D3D3D23
:104930003D20636F6465207374617274203D3D3D5A
:104940003D3D3D3D3D3D200D0A00000030B5064B8C
:104950004FF4FA641D68EC621C68A0631868C163B8
:104960001868026430BD0000CC970020034801782D
:104970000029FCD00021017070470000149600202F
:10498000010202030405060708090A0B0C0D0E0FAD
:104990001010010202030405060708090A0B0C0D9A
:1049A0000E0F1010000000000000000001020304C0
:1049B000060708090000000001020304DC490008A2
:1049C0000000002020960000560200084C830008DA
:1049D00020960020280E0000344300083034F77B76
:1049E000EF1ADE98C616BDB4BD93B572AD32A4F011
:1049F000A4F0A511AD32A511A4D1A4F1A5129CD1AA
:104A00008C0E7B8C7B6B7B4A8B6B9BCBA3CBA3CA23
:104A1000AB0213B3CB0212EB0292CB0272EB027128
:104A20001233ABEA0213EBAB2C021CAB02215E206B
:104A30000ECBA3AAA3AA9BAA9B8A9B8A936A021065
:104A4000098B6A836A834A7B490230282973097279
:104A5000E96AE86AC86AC862A85A885A67526752FF
:104A60004752474A27420741E639E639C631C6313F
:104A7000A52944025004242923025203023302319F
:104A800002300539233922021110300730E230E2BA
:104A900028C20292C10243A1200250068118801848
:104AA000800C61022004C120C202313662E202722F
:104AB000200A200528E2290206201130E2390241AD
:104AC0004451C6624762466A8772C80230077AE874
:104AD00083098329021005498B4A8BDA8008938B5E
:104AE00093AB93AB9B023406CBA3EB9BAB062102AB
:104AF00015345005AC0CAC2C02520C0C30164DACDD
:104B00004DA44E940D942E838C524652259C2DB468
:104B1000CFB4F0042004F0B4D006140FBD31BD5260
:104B2000C572C593CDB3C5B3C572E0363AE036D48D
:104B3000E0200431A4F10215DE26F1E016ADE01408
:104B40000783EE7B6C7B4BE0368BE03404AAABAA88
:104B5000E2A5D8051AE0310285FA051AE245E055CA
:104B6000DEC5E0764AE035DE1662DE15E0940647E3
:104B700052464A27E05404A53185E0061723E05544
:104B8000DE3639DE8630DE62A102C620E0528102C6
:104B900065E285E0061DC2E034064351A56227E0C8
:104BA00012A70245E07609E006124AE0210245DC40
:104BB0000517E0172DA4E0040B129C0D9C4E7B8B77
:104BC0004A264A05E015DE45E01693E0167CE0270C
:104BD000B8CEE026B4E035DA410245E096B1E03ED9
:104BE000ECC00372AA020C0416CBABABC003D6AB6D
:104BF000DA43B40B02051DE03FCA9BBE0345DE1934
:104C0000E4164ADE166ADE22290295E05687DE1691
:104C100026E02404074206E035DE061E65E015E2C4
:104C200031023DBE032DB803BEC2B403011002C65B
:104C300081E255DAD5E2B10256C2E0140623498575
:104C400059E6E03667E215E07F7B09C4033DC20305
:104C500019C494048B938AE04DC40325DE0517E044
:104C60001405A40CA42DE0362DE084040549E5E0EC
:104C70002FB510BE0337B510E012930225E03E7346
:104C8000C00345E02DC003240411AD11E26DC00343
:104C90001DA0051C04B183CE9E0515E02805938B4D
:104CA000A3EC583DA00575E40526E00D1D9C0541CB
:104CB000D25404CAA3CBDE368ADE3C06498B498334
:104CC0004ABE039E299E0576A8E01626E015DC2143
:104CD000022DBE0375DE0517E02DB40345E21D9CD1
:104CE000058EE1B603D5D095E04318810275E28DBB
:104CF000BE030516E235E01D2A041C04034164C20C
:104D0000032406266A666A87E2237AE8025E7BC489
:104D100003468BE215E03DA20536CBE656AAE07DC0
:104D2000A205040513AC0CA40CE024042E9C6EE038
:104D30001641E0B7ACAFE04E119E050513E01652E8
:104D4000E01DC2032D80073FAD12A205A406F29C10
:104D50009083CDE02D28074DA00541020512DE020B
:104D60002DAB0252A302139BCAE82404AA93AAE023
:104D70002DA00615DE6649DE0D117E072646E0658C
:104D8000DE15E0B4068529642124E0061203E0253F
:104D9000E25D9C059EC19205B2810285E0528002CF
:104DA00095E0D5E20612C2E05DC2039C04845A0578
:104DB000C203110235E045E22DC2032DC4038DC2AA
:104DC000037EAAC2036DA6051EEBB0039C040CACC7
:104DD0000BA005262CE015E24C086F7B8B41E541CA
:104DE000C4800726ACE07611E07293021C0473F7CE
:104DF0005B60095C05B8CE36C5A00515DA1DC40395
:104E000015E03732A5E285E03DA0057D0C09810261
:104E10000529E02130D5DA1004AC0BA40255E01DC1
:104E2000800615DE1405AB93AA8BE0940483698396
:104E3000E04C05730973095C09B5E02E06C0031543
:104E4000DE4EC57C0745E01E21B803AE215C097D1E
:104E50009E0545E051020619C1E075E43DC0039E80
:104E600080C0030611C1E2FDA60549481F3923C2CF
:104E7000031EE5C2033E67C20336A8E2A6E8E23D90
:104E800064083DC203AE93A0059DC20355E09E0B8E
:104E9000800725E014086EA48F7B6B41E4E0A64EEA
:104EA000E01EAC8207B5E01693E02D80071C0A36A1
:104EB000C5F5BDD4B593AD52C4037632E08C0AF289
:104EC000A4F2949083EE736B600975DC4D7E05A5AA
:104ED000E40E23EB260BBDB20311C035E025E246FC
:104EE0009BE056CBE01E8A380B15E04D3A0BA5E04F
:104EF0001D5E095EA89E057606E02D7C074664E0EF
:104F0000061021E08E029E055D7A0736C1DE2D5C1B
:104F10000945E202168102DE18D6033D88090D1903
:104F2000C0036D600935E01E03640947C55AE04EB1
:104F300067480B2DA405278308E22E8BA4055DC2CC
:104F40000331028DBC034D80073D820725200511EA
:104F5000E02DC00334046B41C4E046D0D8B405B59D
:104F600011ACD0E01404B3C5B4E02D80071406D909
:104F7000CE57C615E22404B3B552E465E021022DF4
:104F80006009A5E04EA3A0058D8A037DA60506272E
:104F9000ABE00611A3E0369BE0329302138BAB0229
:104FA00025E0AE6ABE031D1C0D1D5E096E621C0D60
:104FB00035E0D749E6E08644E00F1221039C055D09
:104FC0007C0765DE5C04C228A2C2036DB2034108FF
:104FD0000510DCA5E00620A1E02C0528C230C24463
:104FE0000B1749A4E03687E04C046772A884074594
:104FF000E04D84078693E28D5C0959FC2D6009051C
:1050000013E034084D9C4E9C6E734AE0C66EE0C6B9
:10501000ACE01EB4C0032E5BC0032C05CE36C61513
:10502000040F2DC2031DC4036E52C0036D200D1367
:10503000836A80EC04ECA3CBA0057D9005AECBD8B1
:1050400003911232EB9E5D380BA004AC0BA3C4336A
:10505000ECA4C0369CDE35DC36ABE03405AA8BAA66
:1050600083E02F7B493E0B7E73BE0315DE7688DE20
:105070005D9E055F41C6C0033D7A071321240225CA
:10508000DE75E0DE319C055F38E2C0032D3A0BBED1
:10509000A28007BDA8059D5809CD420B7EA1F8034B
:1050A0000D15A0058A294C1C062349A459E5060FB5
:1050B0001E47C0031E88A20535E255DE21026C049E
:1050C0004A8B49A205BD1E0D7D400B0D1580071EA4
:1050D0006E400B4C0A6B292249E5942DACCF3A0B5C
:1050E00015DE9C04AFACD080078406B4C5B3BD7395
:1050F000E02407C5F5B593B573DA3D7E072D280D7D
:1051000035E04E84E010276A8BE0DFEBA36009ED09
:105110008E07051AE0EEA3BC0321BE14040BA40CF9
:10512000E0DEECBE03568BE02DFA0E65E05EE9FA98
:105130000E45E0061227E0E621E0FD780735DE1D8A
:10514000F80E3DFA0EBEA2BE030526E06D5E09050F
:1051500015E08DA2052D6E0FA406498451E55AE095
:105160008C04C87AE9A0057E93C0030527E05D8022
:10517000072C0B942E7B6B314249E5A48E120D5FF8
:10518000B5117E072408F1B4F1BD32BD73DE940B76
:10519000CDD4CDD4C5B3EF5BEF3BE01272025652D3
:1051A000E422120295E02E8B2207D5BEA6CBDEECC0
:1051B00005A3CBA3CB640765E09D78042DB6031E41
:1051C0000C8C0B31022DBE035DC0032102B5E0063D
:1051D000197BE06E4AC00346C5E04D9E050531E0EF
:1051E0000F2481287C073D80073D7E075EA2D805FD
:1051F0000E1CA2080F4D240D35E01E27C20355E0FA
:105200002D64097782E8E0CD7E070623ABE01DE040
:10521000101DC212262DE02E41C0033EAFBC03314B
:10522000022FB4F1200D45E04C09C5D4C5B4BD73BF
:10523000EF3B60092DA0052DC00325E485E02FA5D7
:105240001260095DA01415E045B20D11160B0D1189
:10525000C0036D4606E5DE3D460F21082D5209616B
:10526000025EECA0054DBE03C5E07DBE035D981453
:10527000478852E04DBE031C04C541C53E0B5D5E30
:10528000095102B5E09D340B12E1027EE2B81246EC
:10529000A2E0022620026D7C070512E00D13440BEC
:1052A0001D10152C0403418462093DA2051C0568EC
:1052B0006AA872A40545E0168BE0A693E055E2AD1E
:1052C000C0060513E03DA014669CE01D400B2D9424
:1052D000055D3E0B1DFE0E11022C0832BD72BD9302
:1052E000C5945E0915E02D400B1C0498CE167E0770
:1052F0002ED480161D9C053D020F1D060F3D400B50
:105300001C05842E73AC400BC5E0EDA0050D1940C3
:10531000096D4409B1123D8E05C10245DE4693DE9A
:10532000AFAB83A0052E2A800715E0D7E862E03DE9
:10533000DA1025E00623A5E025DE3EC1BC0396C1B8
:10534000E0062982DACD3E0B0524E02C066449C52F
:105350005A06C20315E04688E0377AE8E2E5E07EC7
:105360008AE0108D1C030D11C003B5E01404A49C49
:105370006ED64DA00536F1EA2DC2033E53C0035E42
:10538000B460094C043BD6981E0D1DB6124EF0A019
:10539000146DE2106C099CB17BCD6B6B734BA00557
:1053A0001D661222CA024DC212310A0523E06D3277
:1053B000085DE80E0611EBDC1D8A1565DE1D7E0713
:1053C0007E8B3E0BCD7E07F5E01E39BE03051AE04D
:1053D000D5DE45E0A6C2E00519E29EA1140D412EDE
:1053E000EEA23C0B514C0D13A2051DC003840723F4
:1053F000394449A552E01D060F1E7A64095782E917
:10540000E0BE4AA205F5E00719ABEBE02C0A8B31B0
:105410004239838BECA46E9A053DBA031D9C051D91
:10542000BE034652DE3DC4031ED4200D1C063BD6EF
:1054300077C5D5DE101F93AD9A141DE2103D1E0DE9
:105440001D4A1A1C0AF19C908C4F738C6B4BC00345
:10545000768CE076CBE221080D23C0036DBE10757B
:10546000DE2DBE03E5E445DE438A8B01C66BE09783
:105470006AE9E03D381A7D98141DBE0345E05D36AB
:105480000B051EE0D6C2E01DA405071520A2DE3DD7
:10549000B014DDB403061EA2E04D220D35DE55E04A
:1054A0001F51E6C20335E02DE6103DC0031D64091F
:1054B0003DA2058D200D2D6A182D5C192DA2055ECB
:1054C000EBC4060511E087A42CE01C1329223963E4
:1054D0006AE9838B8BCC8BEC9C2EA46FA4B0040F59
:1054E0002C04F1B5323C0B1EBD9C052C05C594CE99
:1054F00015E01017D678E02D60182D3C0B7D400B81
:105500001F9CB01A1C2404AC736CE01383AC46CD12
:1055100080070215CB02051FE0BD780761024D9C94
:105520000576AAE04DC0036E6A9E055DFC0EAD3E99
:105530000B2DBE032EE57C0755E0C644E05DDE1072
:1055400065E056C2DEB5E015D865E045E2C5EA85FE
:10555000E0A5D4D5E04628E0DD200D2D261C15DE83
:10556000872239E01C04276268C6124DA0054EE967
:10557000C003BDE2104DA0144DA2051D5A0C8D8A2A
:105580000A3D82077E2C9E146E0CC0031C0D83AB5B
:1055900029223163398349E55205C4091C0C265A76
:1055A0006762A8732A942EA48F82072293021C0F8D
:1055B000CDF5DE97EF3BEEFAE6D9DE78CE37A405DF
:1055C0001EB460091E5298051C0CD19CB0948F9497
:1055D0004F8C0E83EDC0032DBE034DC0034EECA0D7
:1055E00005BD200D5D281CCDD812FEAB7C071F9B8E
:1055F000EA7E141ECA621685D212CA025D141B3ED0
:10560000937616B28B025DE010122A029D1E0D5E8B
:10561000621E0D7F52265E095C06A539853164F64F
:105620001D6F242156184E028C1D6D90051DB2125F
:1056300036A1E26EA1BA123D4A1692A202AE81DCF8
:1056400010BD300B8DB603DD54094D1A040D10004A
:105650000F41027F3123C0033E27A2056667E05D4C
:10566000400B3D021D5DC0034EAAA2063D280D66FB
:10567000EBD8A1023D60092D7E071E2D9E141D0052
:105680000F2C0D6AE8316241C45A6739833963CA05
:10569000122C1741C44A05524762887B6B944EA472
:1056A000D0AD12B553CE16F73A800715E22C0EB9DD
:1056B000DE78D637C5F6C5B5B553B5533E0B17AC36
:1056C000F1E425E23C08EE7BCD83ED83CDC0039D64
:1056D000E01F7D160D3E8A2A1CEEAB400BDD9E05B9
:1056E00036EADC76CBE025D625E04EAA3A196E9351
:1056F0005618A78A93E02D7E162D1A1C2DBE123E39
:10570000E8381A4F8862F81D4E26BE12B5E03224E2
:10571000020518E05102061628E0FDE4103DBC1415
:10572000061581E02D02132DAA121DF8056228022C
:105730000523E06E7284163D621829D46D800755EA
:10574000E21ECB0E103102C69CE24D7E072E6DC0CC
:10575000121D000F24042D62C8E02F736BEA202471
:10576000086B097B6B83CC8BA82C05CD942E94AA57
:10577000053C0E73C5F5D657E6D9F75BF73BEF1B33
:10578000C4033C0698D677D637C4033DE21025EA19
:105790002FB573C2210405199490940EE045E29D43
:1057A000A205FD7C0712EA0225E045E42D48183DDC
:1057B0002A1A810245DE610235E05D6018E5E02DC0
:1057C000D81F265AE01D7C163749E6E2A5E00611EF
:1057D00023E00612E2E03D2818061BA2E0CD58099E
:1057E000AD341A6DEE21052DE0AE62E41065E08562
:1057F000E255E0A793CBE295E42D7C07462CE02D03
:10580000400B15E014064239A38BEDDA1E8C960589
:105810001ED170071ED5F60E2004D5D636021C0701
:10582000E6B8EF1AF71AC003433BEF02261AE42C3E
:1058300005E6B9D6776C18112A12F5261E77DA21FB
:105840001C0637B594A4F10E223E8BA023B6EBE0E4
:105850004DBA038DBC0346CAE88DDE1A6D700B91FC
:10586000024DA605A6CADE5DB021A5E07E6A401AFB
:105870009DC0031DFA1D1E87C0033647E015E215C3
:10588000E066E5E0A631E0061803E01D5E145EC1A7
:10589000F21D0640A2E03D520F6D540F7D360B55B0
:1058A000DE3DA0051D200D55E03E5AE4105DC2030B
:1058B00045E0061749E0410255E275E42D1C1C96AF
:1058C0004DE02E22A2051D80071D96051D7C0714A4
:1058D0000E4B8C0E9C4FBD94E698F71AEF19DE46DE
:1058E0003AE03102225B021405EF3AEF1AE833F98D
:1058F000E6021FDEB8D0031C0656C616B594E610A5
:105900000E114FC0030214AA02F5D2B102B5D85548
:10591000DC4102E5E03DFE1D55E01C047AE972D849
:105920001F071B6A88E0061523E04D800742A1028D
:10593000DDD01F0518E0DEA1D0105D96057630E0C1
:105940001DC2160616E1E07631E04639E05626E043
:105950006687E01DA2052DC6218E6A740885E06168
:105960000285E0ADC60315EE3DC0031D800716217C
:10597000E22E427E07101149E549E55A67732A7BFA
:105980006B9C6FC5B4DE7702200497E6B8022FF750
:105990007CA2053DC60315DC25D62C05DE97D6571F
:1059A00070181FCE15141E2C0594A5329C6E091C70
:1059B000044F8BAC80161D540555E085CE7C0469E0
:1059C000A36AA40525DE8102C5DAA11AD5DA75E03D
:1059D0006D70083D9A2335E0B629E02FA76AC00311
:1059E0004405675A465AE00620E5E04E28BE031DEE
:1059F000B80EB5DE4DFC1B0D16C003B6A1DEFEA22F
:105A00002E0B55E01D2E11AEE1521E2D621E5D18AB
:105A10000D25DE1E03C0037643E015E215E0D40435
:105A2000676AA8E085E2C6AADE15E286EBE05DC4FF
:105A3000031DA0234F9C0DE010176B09DE2C0421E1
:105A40003963C6123C055A676AE982071C04CDA473
:105A5000B0DE101D9C141FD616A80511042D80075A
:105A60003D60091D7E071D86161C0416BD94600945
:105A70003DE4104DE61F1E94040F11021F0E8376A5
:105A8000104D0017B5E0168AE02769A3E055E4C57C
:105A9000C84EA38C272D2C0F65DC228A0285DC7171
:105AA0000C75DC5D38291D9C233E8B6E28477B09D5
:105AB000E02F72A8681B3F6267C20365E0FEC5C0A5
:105AC000032D6409A5E08EC2E61DE628E0C5E205C7
:105AD00012E00D10F00E65DA0532E0C647E05D8099
