:020000040800F2
:100000002805002049010008E71100080D1000082C
:10001000E51100080B02000825130008000000008D
:10002000000000000000000000000000EB110008CC
:100030000D02000800000000E9110008ED110008A1
:100040006301000863010008630100086301000800
:1000500063010008630100086301000863010008F0
:1000600063010008630100086301000863010008E0
:1000700063010008630100086301000863010008D0
:1000800063010008630100086301000863010008C0
:1000900063010008630100086301000863010008B0
:1000A00063010008630100086301000863010008A0
:1000B0006301000863010008630100086301000890
:1000C0006301000863010008630100086301000880
:1000D0006301000863010008630100086301000870
:1000E0006301000863010008630100086301000860
:1000F0006301000863010008630100086301000850
:10010000630100086301000863010008630100083F
:10011000630100086301000863010008630100082F
:10012000630100086301000863010008630100081F
:10013000DFF810D000F02CF80048004765130008E5
:10014000AFF3008028050020064880470648004796
:10015000FEE7FEE7FEE7FEE7FEE7FEE7FEE7FEE777
:10016000FEE7FEE76B12000831010008D2B201E0A1
:1001700000F8012B491EFBD270470022F6E710B5AC
:1001800013460A4604461946FFF7F0FF204610BD05
:10019000064C074D06E0E06840F0010394E80700D4
:1001A00098471034AC42F6D3FFF7C6FFAC130008F3
:1001B000CC13000870B5044600688168C943C907BC
:1001C00017D1816821F00101816000F081FA0546B4
:1001D0000AE000BF00F07CFA401B022804D9206826
:1001E0008068C043C00706D020688068C043C0074D
:1001F000F0D0002070BDA06A40F01000A062E06A5C
:1002000040F00100E062012070BDFEE7704772B669
:10021000FEE70000F8B50024009490F8242025465D
:10022000012A12D0012280F824204A681F23072ABD
:100230000DD20668776B521E02EB820293409F43F9
:100240000B6893401F43776319E00220F8BD0668EE
:100250000D2A0AD2376BD21F02EB820293409F43D2
:100260000B6893401F43376309E0F76A0D3A02EBCE
:10027000820293409F430B6893401F43F7620A68D2
:10028000072306680A2A0AD3F7680A3A02EB4202F1
:1002900093409F438B6893401F43F76008E03769A2
:1002A00002EB420293409F438B6893401F433761A8
:1002B0000A68102A01D0112A20D1124B02689A42F2
:1002C00017D193681B0219D4936843F40003936019
:1002D0000968102912D10C490C4A0968B1FBF2F1E6
:1002E00001EB8101490000E0491E00910029FBD18A
:1002F00004E0816A41F020018162012480F82450E9
:100300002046F8BD002401400C00002040420F00B0
:100310002DE9F04104004FF000057FD0A06A0026CF
:1003200028B9E66284F82460204600F081F820466F
:10033000FFF740FFA16AC90600D420B1A06A40F0CF
:100340001000A0626AE0A16A21F4885141F0020124
:10035000A162334923688B42E16904D1B1F5402F92
:1003600001D14FF40021277B4FF4807C41EA470202
:1003700061680A43A168614508D0012906D00021BF
:1003800094F814E0BEF1010F02D00AE06146F7E7ED
:10039000C7B1A76A47F02007A762E76A47F00107DD
:1003A000E7625F6827F469470F435F6023689968D5
:1003B0001C4F394011439960A16861450BD0012958
:1003C00009D00CE0DFF860E0A7690EEB47370F4378
:1003D00047F40061E5E7218A0D05A5F58015216840
:1003E000CB6A23F470032B43CB62216889680F4BDF
:1003F0001940914208D1E662A16A21F0020141F060
:100400000101A162BDE8F081A06A20F0020040F085
:100410001000A062E06A40F00100E0620120F1E714
:10042000003C0140FDF7E1FF00E0FFFFFE0E1FFF73
:1004300010B586B0002100910191029103910068EE
:100440001D49884236D11D48816941F4007181619E
:10045000816901F400710491816941F010018161A9
:10046000816901F010010491816941F00401816109
:10047000816901F004010491816941F00801816101
:100480008069032400F0080004900F20CDE90004E7
:1004900069460B4800F01AF89020CDE9000469463F
:1004A000084800F013F80220CDE900046946064828
:1004B00000F00CF806B010BD00240140001002400E
:1004C0000010014000080140000C01402DE9F84FE8
:1004D000DFF8C8910024A9F1040B23460F2709F186
:1004E000040AABF1040ED1E00125A54006EA05029D
:1004F000AA4276D1DFF8A8C14E68A6EB0C08664583
:100500002BD00DDC032E34D005DC36B3012E19D0F0
:10051000022E2FD11BE0112E16D0122E2AD119E057
:10052000B8F5881F19D006DCB8F5803F15D0B8F5AE
:10053000801F1FD111E0B8F5001F0ED0B8F5041FC1
:1005400018D10AE0CB6815E0CB681B1D12E0CB6820
:1005500008330FE0CB680C330CE08B682BB1012B18
:100560004FF0080303D0456104E0042302E0056175
:1005700000E00023FF2A01D8064601E000F104064E
:100580004FEA840501D9A5F12005D6F8008007FAC5
:1005900005FC28EA0C0803FA05F548EA0508C6F840
:1005A00000804D68ED0070D53E4DAE6946F0010605
:1005B000AE61AD6924F0030605F0010500953A4DE2
:1005C00006EB050CDCF80850A607360F07FA06F80C
:1005D00025EA0805DFF8D480404503D14FF0000834
:1005E00025E052E0DFF8C880404502D14FF0010815
:1005F0001DE0DFF8C080404502D14FF0020816E050
:10060000DFF8B480404502D14FF003080FE0DFF877
:10061000AC80404502D14FF0040808E0DFF8A0802C
:10062000404502D14FF0050801E04FF0060808FAF6
:1006300006F848EA0508CCF808804D68D9F800604B
:10064000ED024D4601D5164300E096432E604D68FD
:10065000DAF80060AD02554601D5164300E0964336
:100660002E604D68DBF80060AD035D4601D5164392
:1006700000E096432E604D68DEF80060ED0375469D
:1006800001D5164300E096432E60641C0A681646A6
:10069000E2407FF429AFBDE8F88F00000804014074
:1006A000000011100010024000000140000801404D
:1006B000000C0140001001400014014000180140EE
:1006C000001C01400AB1016170470904FBE700000A
:1006D00001488068704700000000002002488168DF
:1006E000027811448160704700000020074810B56F
:1006F000016841F010010160032000F067F80F204D
:1007000000F006F800F024F8002010BD00200240A0
:1007100070B50D4D04464FF47A712878B1FBF0F0B6
:100720000A490968B1FBF0F000F0D4FB48B9102C7D
:1007300007D200222146501E00F028F800206C60ED
:1007400070BD012070BD0000000000200C000020E2
:100750000C4808B5816941F001018161816901F0AE
:1007600001010091C16941F08051C161C06900F08F
:10077000805000900448416821F0E06141F0007130
:10078000416008BD0010024000000140F0B40E4B73
:100790001B680C46C3F30223C3F10705042D00D9DF
:1007A0000425191D072901D2002300E0DB1E0126C4
:1007B00006FA05F1491E214099409E40761E1640DA
:1007C0003143F0BC00F0AFBD0CED00E0064900F095
:1007D000070208684FF6FF03184040EA0220034A68
:1007E00010430860704700000CED00E00000FA05BF
:1007F0002DE9F84305460078354CC00754D0E06930
:100800000026C00008D4E06940F08050E061E06953
:10081000012600F0805000902E480168C90512D4CE
:100820000168804641F480710160FFF751FF07467F
:1008300005E000BFFFF74CFFC01B642823D8D8F8A1
:100840000000C005F6D5206A10F4407021D0A988B8
:1008500001F4407181421CD0206A1F49012220F41A
:1008600040700A6000220A602062C00711D0FFF7C2
:100870002FFF074641F2883808E000BFFFF728FF46
:10088000C11B414502D90320BDE8F883206A8007D7
:10089000F4D5206A696820F44070084320621EB1D4
:1008A000E06920F08050E0612878800705D5606815
:1008B000A96820F44040084360602878C00605D548
:1008C0006068696920F48000084360600020DBE70D
:1008D0000010024000700040400442422DE9F04701
:1008E0000F46050061D0434E306800F00700B84263
:1008F00009D2306820F0070038433060306800F0DB
:100900000700B84251D128683B4C810712D54007F7
:1009100003D5606840F4E06060602878000703D584
:10092000606840F4605060606068A96820F0F00082
:10093000084360602878C00728D06868012810D074
:100940002168022810D0890700292EDA616821F079
:10095000030101436160FFF7BBFE804641F2883925
:100960000DE021688903EFE78901EDE7FFF7B0FEAD
:10097000A0EB0801494502D90320BDE8F087606873
:10098000696800F00C00B0EB810FEFD1306800F027
:100990000700B8420BD9306820F0070038433060B8
:1009A000306800F00700B84201D00120E5E7287860
:1009B000400705D56068E96820F4E060084360609E
:1009C0002878000706D56068296920F4605040EA5D
:1009D000C100606000F038F86168084AC1F3031193
:1009E000515CC8400649086006480068FFF790FE61
:1009F0000020C2E7002002400010024094130008CB
:100A00000C000020040000200448054900684968E3
:100A1000044AC1F30221515CC84070470C00002019
:100A200000100240A4130008044805490068496802
:100A3000044AC1F3C221515CC84070470C00002039
:100A400000100240A41300080E4A51680E4801F03D
:100A50000C03042B11D0082B0FD10C48C1F3834396
:100A6000C903C05C0AD55168084AC1F34041921ECF
:100A7000515C054A5043B0FBF1F0704704494843CC
:100A8000704700000010024000127A008413000832
:100A900000093D002DE9F84F040070D02078C04DCA
:100AA000C00749D06868C0F38100012807D0686892
:100AB000C0F38100022809D16868C00306D5286800
:100AC000800339D560680028E7D035E06068B0F56C
:100AD000803F0BD010B1B0F5A02F11D0286820F4C2
:100AE00080302860286820F4802002E0286840F4E4
:100AF00080302860606890B1FFF7EAFD06460AE0A2
:100B0000286840F480202860F0E700BFFFF7E0FD90
:100B1000801B642873D828688003F7D50CE0FFF7A2
:100B2000D7FD064605E000BFFFF7D2FD801B642815
:100B3000F0D828688003F7D420789A4E80074FF0C9
:100B400001094FF0000839D5686810F00C0F07D084
:100B50006868C0F38100022809D16868C00306D420
:100B60002868800714D52069012808D110E0206981
:100B7000B0B1C6F80090FFF7ABFD074605E00AE10B
:100B8000FFF7A6FDC01B0228C4D828688007F7D548
:100B90002868616920F0F80040EAC10028600DE093
:100BA000C6F80080FFF794FD074604E0FFF790FDCC
:100BB000C01B022823D828688007F7D420780007B4
:100BC0002CD57948A169D9B1C0F80090FFF780FD14
:100BD000074604E0FFF77CFDC01B02280FD8686AB7
:100BE0008007F7D571484FF4FA510068B0FBF1F077
:100BF000009000BF0098411E0091FAD20EE080E004
:100C0000C0F80080FFF764FD074604E0FFF760FDD1
:100C1000C01B022875D8686A8007F7D4207840077F
:100C200060D5E8690027C00008D4E86940F080502A
:100C3000E861E869012700F0805000905C48016895
:100C4000C90513D40168834641F480710160FFF740
:100C50003FFD824606E000BFFFF73AFDA0EB0A0029
:100C600064284ED8DBF80000C005F5D5E0680128FF
:100C70000AD008B1052813D0286A20F001002862A4
:100C8000286A20F0040002E0286A40F0010028628F
:100C9000E06841F2883B98B1FFF71AFD82460BE00D
:100CA000286A40F004002862EEE700BFFFF710FD5D
:100CB000A0EB0A0159455AD8286A8007F6D50CE0FE
:100CC000FFF706FD824605E0FFF702FDA0EB0A01F3
:100CD00059454CD8286A8007F6D41FB1E86920F03E
:100CE0008050E861E06988B36968C1F38101022935
:100CF00044D00228C6F8608004D0FFF7E9FC04461F
:100D000038E034E0FFF7E4FC074604E0FFF7E0FCDE
:100D1000C01B02282BD828688001F7D4206AB0F5C0
:100D2000803F05D16868A16820F4003008436860FE
:100D3000D4E908010843696821F474110843686024
:100D4000C6F86090FFF7C4FC044606E025E000BF4B
:100D5000FFF7BEFC001B022809D828688001F7D5E0
:100D60001BE000BFFFF7B4FC001B022802D90320E0
:100D7000BDE8F88F28688001F4D40EE00128F7D090
:100D80006868226A00F48031914204D1616A00F4FB
:100D90007010884201D00120EAE70020E8E7000057
:100DA0000010024000004242800442420C00002039
:100DB0000070004070B5040009D0606A002540B1A1
:100DC00025616561A56294F8510040B10CE00120F5
:100DD00070BD6068B0F5827FF4D0E561F2E784F819
:100DE0005050204600F040F8022084F8510020685E
:100DF000016821F040010160A088218900F482701F
:100E000001F404410843A18901F400610843217CF5
:100E100001F002010843217D01F001010843218B0B
:100E200001F400710843217F01F03801084394F870
:100E3000201001F080010843218D01F40051084386
:100E400021680860A069042101EA10402168486017
:100E50002068C16921F40061C1616565012084F8E1
:100E60005100002070BD000010B586B00021009137
:100E700001910291039100681349884221D11348DE
:100E8000816941F480518161816901F4805104914B
:100E9000816941F00401816180690D4C00F004001A
:100EA00004902020009069462046FFF70FFB402069
:100EB0000090022001900320039069462046FFF72E
:100EC00005FB06B010BD00000030014000100240DC
:100ED0000008014010B5401EB0F1807F01D3012011
:100EE00010BD4FF0E02460610F21601700F01BFA85
:100EF0000020A06107202061002010BD70B5040013
:100F000004D094F84100002510B106E0012070BD26
:100F100084F84050204600F023F8242084F8410053
:100F20002068C16821F40051C160204600F09EF99C
:100F30002068016921F4904101612068416921F034
:100F40002A0141612068C16841F40051C1606564B3
:100F5000202084F8410084F842006563002070BDC1
:100F600070B586B000240094019402940394234E3B
:100F70000368234902200322224DB34219D18B6911
:100F800043F480438B618B6903F4804304938B6942
:100F900043F004038B618969039201F00401049119
:100FA0000102CDE9001069462846FFF78FFA28159F
:100FB0001BE0154EB3421FD1CB6943F40033CB6124
:100FC000CB6903F4003304938B6943F004038B6112
:100FD0008969039201F0040104910421CDE9001014
:100FE00069462846FFF772FA0820CDE900046946F1
:100FF00028460294FFF76AFA06B070BD0038014037
:10100000001002400008014000440040FEE70000DC
:101010003EB5002411480094019402940E49846066
:10102000016004730475012505614FF4602144607B
:10103000C161FFF76DF908B1FFF7E9F80A20CDE9C2
:101040000005694602940548FFF7E4F8002801D03E
:10105000FFF7DDF83EBD0000002401401000002035
:101060002DE9F04F85B000242E480094019402949D
:101070000394816941F010018161816901F01001DF
:101080000491816941F020018161816901F02001B1
:101090000491816941F004018161816901F00401D9
:1010A0000491816941F0080181618069DFF87890DD
:1010B00000F0080041F60215049000222946484637
:1010C000FFF700FBDFF864A04FF47C77002239467D
:1010D0005046FFF7F7FADFF858B04FF6FD780022D8
:1010E00041465846FFF7EEFA009502260125039681
:1010F000CDE9015469464846FFF7E8F900970396A1
:10110000CDE9015469465046FFF7E0F9CDF800807B
:101110000396CDE9015469465846FFF7D7F905B063
:10112000BDE8F08F001002400008014000100140AF
:10113000000C01400E4810B50C49016000214FF42D
:101140000042C0E90112C16092110161C0E90512BB
:101150000162416281620A21C162FFF72BFE002811
:1011600003D0BDE81040FFF752B810BD0030014079
:10117000400000200C4810B50A4901604FF4E131ED
:101180004160002181600C22C160C0E904128161CC
:10119000C161FFF7B3FE002803D0BDE81040FFF7A0
:1011A00036B810BD00380140980000200C4810B53A
:1011B0000A4901604FF4E1314160002181600C2255
:1011C000C160C0E904128161C161FFF797FE002888
:1011D00003D0BDE81040FFF71AB810BD004400402E
:1011E000E0000020FEE7FEE770477047FFF776BAA1
:1011F00030B595B028216846FEF7BFFF14210AA834
:10120000FEF7BBFF18210FA8FEF7B7FF0121080466
:10121000CDE900100025029502240491CDE9074094
:101220004FF4E01009906846FFF734FC08B172B63D
:10123000FEE70AA90F2081E831004FF48060CDE974
:101240000D0502210AA8FFF749FB08B172B6FEE7B7
:101250004FF4004011900F940FA8FFF7C9FA00282F
:1012600001D072B6FEE715B030BD704770B50446C8
:1012700000680169E26821F440511143016121696C
:10128000A0680843616908432168CA6841F20C6399
:101290009A430243CA6020684169A26921F44071FF
:1012A000114341611E492068884202D1FFF7BCFB0F
:1012B00001E0FFF7A9FB00EBC00101EB0012606841
:1012C00064218000B2FBF0F3B3FBF1F36FF018067A
:1012D0007343B2FBF0F5B2FBF0F605EB8305322366
:1012E00003EB0515B5FBF1F5B6FBF1F605F0F005DE
:1012F00005EB0615B2FBF0F6B2FBF0F0B0FBF1F037
:101300006FF01802504306EB800003EB0010B0FBB7
:10131000F1F0216800F00F002844886070BD0000E3
:1013200000380140FEE70907090E002804DB00F140
:10133000E02080F80014704700F00F0000F1E0207A
:1013400080F8141D704702E008C8121F08C1002A67
:10135000FAD170477047002001E001C1121F002A36
:10136000FBD17047FFF7C2F9FFF742FFFFF778FEA6
:10137000FFF700FFFFF74CFEFFF7DCFEFFF716FF5D
:10138000FEE7010202030405060708090A0B0C0D1B
:101390000E0F101000000000000000000102030406
:1013A000060708090000000001020304CC1300082E
:1013B000000000201000000046130008DC130008A5
:1013C000100000201805000056130008010000005E
:0C13D000100000000000000000127A0075
:0400000508000131BD
:00000001FF
